{
  "contractName": "Airdropper",
  "abi": [
    {
      "constant": true,
      "inputs": [],
      "name": "minter",
      "outputs": [
        {
          "name": "",
          "type": "address"
        }
      ],
      "payable": false,
      "stateMutability": "view",
      "type": "function"
    },
    {
      "constant": true,
      "inputs": [],
      "name": "MAXIMUM_LOOP_BOUND",
      "outputs": [
        {
          "name": "",
          "type": "uint256"
        }
      ],
      "payable": false,
      "stateMutability": "view",
      "type": "function"
    },
    {
      "constant": true,
      "inputs": [],
      "name": "initialTotalSupply",
      "outputs": [
        {
          "name": "",
          "type": "uint256"
        }
      ],
      "payable": false,
      "stateMutability": "view",
      "type": "function"
    },
    {
      "constant": true,
      "inputs": [],
      "name": "isInitialized",
      "outputs": [
        {
          "name": "",
          "type": "bool"
        }
      ],
      "payable": false,
      "stateMutability": "view",
      "type": "function"
    },
    {
      "constant": true,
      "inputs": [],
      "name": "airdropPool",
      "outputs": [
        {
          "name": "",
          "type": "uint256"
        }
      ],
      "payable": false,
      "stateMutability": "view",
      "type": "function"
    },
    {
      "constant": true,
      "inputs": [],
      "name": "ETHER_AMOUNT",
      "outputs": [
        {
          "name": "",
          "type": "uint256"
        }
      ],
      "payable": false,
      "stateMutability": "view",
      "type": "function"
    },
    {
      "constant": true,
      "inputs": [
        {
          "name": "",
          "type": "address"
        }
      ],
      "name": "dropped",
      "outputs": [
        {
          "name": "",
          "type": "bool"
        }
      ],
      "payable": false,
      "stateMutability": "view",
      "type": "function"
    },
    {
      "constant": true,
      "inputs": [],
      "name": "owner",
      "outputs": [
        {
          "name": "",
          "type": "address"
        }
      ],
      "payable": false,
      "stateMutability": "view",
      "type": "function"
    },
    {
      "constant": false,
      "inputs": [
        {
          "name": "newOwner",
          "type": "address"
        }
      ],
      "name": "transferOwnership",
      "outputs": [],
      "payable": false,
      "stateMutability": "nonpayable",
      "type": "function"
    },
    {
      "inputs": [
        {
          "name": "_minter",
          "type": "address"
        }
      ],
      "payable": false,
      "stateMutability": "nonpayable",
      "type": "constructor"
    },
    {
      "anonymous": false,
      "inputs": [],
      "name": "Initialized",
      "type": "event"
    },
    {
      "anonymous": false,
      "inputs": [
        {
          "indexed": true,
          "name": "account",
          "type": "address"
        },
        {
          "indexed": false,
          "name": "tokenAmount",
          "type": "uint256"
        }
      ],
      "name": "Airdropped",
      "type": "event"
    },
    {
      "anonymous": false,
      "inputs": [
        {
          "indexed": true,
          "name": "previousOwner",
          "type": "address"
        },
        {
          "indexed": true,
          "name": "newOwner",
          "type": "address"
        }
      ],
      "name": "OwnershipTransferred",
      "type": "event"
    },
    {
      "constant": false,
      "inputs": [
        {
          "name": "accounts",
          "type": "address[]"
        }
      ],
      "name": "dropMultiple",
      "outputs": [],
      "payable": false,
      "stateMutability": "nonpayable",
      "type": "function"
    },
    {
      "constant": false,
      "inputs": [
        {
          "name": "account",
          "type": "address"
        }
      ],
      "name": "drop",
      "outputs": [],
      "payable": false,
      "stateMutability": "nonpayable",
      "type": "function"
    }
  ],
  "bytecode": "0x60806040526000600160146101000a81548160ff02191690831515021790555034801561002b57600080fd5b50604051602080610f1a83398101806040528101908080519060200190929190505050336000806101000a81548173ffffffffffffffffffffffffffffffffffffffff021916908373ffffffffffffffffffffffffffffffffffffffff1602179055508060008173ffffffffffffffffffffffffffffffffffffffff16141515156100b557600080fd5b81600160006101000a81548173ffffffffffffffffffffffffffffffffffffffff021916908373ffffffffffffffffffffffffffffffffffffffff1602179055505050610e13806101076000396000f3006080604052600436106100af576000357c0100000000000000000000000000000000000000000000000000000000900463ffffffff16806307546172146100b45780630e0c82411461010b578063311028af14610136578063392e53cd146101615780633cebff9c146101905780633dd7609a146101bb578063842f10d1146101e65780638837c796146102215780638da5cb5b1461027c57806391f2700a146102d3578063f2fde38b14610316575b600080fd5b3480156100c057600080fd5b506100c9610359565b604051808273ffffffffffffffffffffffffffffffffffffffff1673ffffffffffffffffffffffffffffffffffffffff16815260200191505060405180910390f35b34801561011757600080fd5b5061012061037f565b6040518082815260200191505060405180910390f35b34801561014257600080fd5b5061014b610384565b6040518082815260200191505060405180910390f35b34801561016d57600080fd5b5061017661038a565b604051808215151515815260200191505060405180910390f35b34801561019c57600080fd5b506101a561039d565b6040518082815260200191505060405180910390f35b3480156101c757600080fd5b506101d06103a3565b6040518082815260200191505060405180910390f35b3480156101f257600080fd5b5061021f6004803603810190808035906020019082018035906020019190919293919293905050506103a8565b005b34801561022d57600080fd5b50610262600480360381019080803573ffffffffffffffffffffffffffffffffffffffff16906020019092919050505061048c565b604051808215151515815260200191505060405180910390f35b34801561028857600080fd5b506102916104ac565b604051808273ffffffffffffffffffffffffffffffffffffffff1673ffffffffffffffffffffffffffffffffffffffff16815260200191505060405180910390f35b3480156102df57600080fd5b50610314600480360381019080803573ffffffffffffffffffffffffffffffffffffffff1690602001909291905050506104d1565b005b34801561032257600080fd5b50610357600480360381019080803573ffffffffffffffffffffffffffffffffffffffff1690602001909291905050506108fd565b005b600160009054906101000a900473ffffffffffffffffffffffffffffffffffffffff1681565b600f81565b60025481565b600160149054906101000a900460ff1681565b60035481565b600081565b60008060009054906101000a900473ffffffffffffffffffffffffffffffffffffffff1673ffffffffffffffffffffffffffffffffffffffff163373ffffffffffffffffffffffffffffffffffffffff1614151561040557600080fd5b600160149054906101000a900460ff16151561042457610423610a52565b5b600f838390501115151561043757600080fd5b600090505b828290508110156104875761047a838383818110151561045857fe5b9050602002013573ffffffffffffffffffffffffffffffffffffffff166104d1565b808060010191505061043c565b505050565b60046020528060005260406000206000915054906101000a900460ff1681565b6000809054906101000a900473ffffffffffffffffffffffffffffffffffffffff1681565b6000806000809054906101000a900473ffffffffffffffffffffffffffffffffffffffff1673ffffffffffffffffffffffffffffffffffffffff163373ffffffffffffffffffffffffffffffffffffffff1614151561052f57600080fd5b600160149054906101000a900460ff16151561054e5761054d610a52565b5b82600460008273ffffffffffffffffffffffffffffffffffffffff1673ffffffffffffffffffffffffffffffffffffffff16815260200190815260200160002060009054906101000a900460ff161515156105a857600080fd5b6001600460008673ffffffffffffffffffffffffffffffffffffffff1673ffffffffffffffffffffffffffffffffffffffff16815260200190815260200160002060006101000a81548160ff021916908315150217905550600160009054906101000a900473ffffffffffffffffffffffffffffffffffffffff1673ffffffffffffffffffffffffffffffffffffffff1663fc0c546a6040518163ffffffff167c0100000000000000000000000000000000000000000000000000000000028152600401602060405180830381600087803b15801561068657600080fd5b505af115801561069a573d6000803e3d6000fd5b505050506040513d60208110156106b057600080fd5b810190808051906020019092919050505073ffffffffffffffffffffffffffffffffffffffff166370a08231856040518263ffffffff167c0100000000000000000000000000000000000000000000000000000000028152600401808273ffffffffffffffffffffffffffffffffffffffff1673ffffffffffffffffffffffffffffffffffffffff168152602001915050602060405180830381600087803b15801561075b57600080fd5b505af115801561076f573d6000803e3d6000fd5b505050506040513d602081101561078557600080fd5b810190808051906020019092919050505092506107c16002546107b385600354610d7890919063ffffffff16565b610db390919063ffffffff16565b9150600160009054906101000a900473ffffffffffffffffffffffffffffffffffffffff1673ffffffffffffffffffffffffffffffffffffffff1663156e29f6856000856040518463ffffffff167c0100000000000000000000000000000000000000000000000000000000028152600401808473ffffffffffffffffffffffffffffffffffffffff1673ffffffffffffffffffffffffffffffffffffffff1681526020018381526020018281526020019350505050600060405180830381600087803b15801561089157600080fd5b505af11580156108a5573d6000803e3d6000fd5b505050508373ffffffffffffffffffffffffffffffffffffffff167f7bd6d4be1decdc27a9ed9c7ccdf5bb7cc38e31b3647b958c6b37162a2296c0fa836040518082815260200191505060405180910390a250505050565b6000809054906101000a900473ffffffffffffffffffffffffffffffffffffffff1673ffffffffffffffffffffffffffffffffffffffff163373ffffffffffffffffffffffffffffffffffffffff1614151561095857600080fd5b600073ffffffffffffffffffffffffffffffffffffffff168173ffffffffffffffffffffffffffffffffffffffff161415151561099457600080fd5b8073ffffffffffffffffffffffffffffffffffffffff166000809054906101000a900473ffffffffffffffffffffffffffffffffffffffff1673ffffffffffffffffffffffffffffffffffffffff167f8be0079c531659141344cd1fd0a4f28419497f9722a3daafe3b4186f6b6457e060405160405180910390a3806000806101000a81548173ffffffffffffffffffffffffffffffffffffffff021916908373ffffffffffffffffffffffffffffffffffffffff16021790555050565b60018060146101000a81548160ff021916908315150217905550600160009054906101000a900473ffffffffffffffffffffffffffffffffffffffff1673ffffffffffffffffffffffffffffffffffffffff1663fc0c546a6040518163ffffffff167c0100000000000000000000000000000000000000000000000000000000028152600401602060405180830381600087803b158015610af257600080fd5b505af1158015610b06573d6000803e3d6000fd5b505050506040513d6020811015610b1c57600080fd5b810190808051906020019092919050505073ffffffffffffffffffffffffffffffffffffffff166318160ddd6040518163ffffffff167c0100000000000000000000000000000000000000000000000000000000028152600401602060405180830381600087803b158015610b9057600080fd5b505af1158015610ba4573d6000803e3d6000fd5b505050506040513d6020811015610bba57600080fd5b8101908080519060200190929190505050600281905550610d44600254600160009054906101000a900473ffffffffffffffffffffffffffffffffffffffff1673ffffffffffffffffffffffffffffffffffffffff1663fc0c546a6040518163ffffffff167c0100000000000000000000000000000000000000000000000000000000028152600401602060405180830381600087803b158015610c5d57600080fd5b505af1158015610c71573d6000803e3d6000fd5b505050506040513d6020811015610c8757600080fd5b810190808051906020019092919050505073ffffffffffffffffffffffffffffffffffffffff1663355274ea6040518163ffffffff167c0100000000000000000000000000000000000000000000000000000000028152600401602060405180830381600087803b158015610cfb57600080fd5b505af1158015610d0f573d6000803e3d6000fd5b505050506040513d6020811015610d2557600080fd5b8101908080519060200190929190505050610dce90919063ffffffff16565b6003819055507f5daa87a0e9463431830481fd4b6e3403442dfb9a12b9c07597e9f61d50b633c860405160405180910390a1565b6000806000841415610d8d5760009150610dac565b8284029050828482811515610d9e57fe5b04141515610da857fe5b8091505b5092915050565b6000808284811515610dc157fe5b0490508091505092915050565b6000828211151515610ddc57fe5b8183039050929150505600a165627a7a7230582079a8636ca92fe6fad22d2d80cf270662c0b1901f28ee6bae31208805e92546500029",
  "source": "pragma solidity ^0.4.24;\nimport \"zeppelin-solidity/contracts/math/SafeMath.sol\";\nimport \"zeppelin-solidity/contracts/ownership/Ownable.sol\";\nimport \"ethworks-solidity/contracts/LockingContract.sol\";\nimport \"ethworks-solidity/contracts/Whitelist.sol\";\nimport \"ethworks-solidity/contracts/CrowdfundableToken.sol\";\nimport \"./Tge.sol\";\nimport \"./DeferredKyc.sol\";\nimport \"./Minter.sol\";\n\ncontract Airdropper is Ownable {\n    using SafeMath for uint;\n\n    /* --- CONSTANTS --- */\n\n    uint constant public ETHER_AMOUNT = 0;\n    uint constant public MAXIMUM_LOOP_BOUND = 15;\n\n    /* --- EVENTS --- */\n\n    event Initialized();\n    event Airdropped(address indexed account, uint tokenAmount);\n\n    /* --- FIELDS --- */\n\n    Minter public minter;\n    bool public isInitialized = false;\n    uint public initialTotalSupply;\n    uint public airdropPool;\n    mapping(address => bool) public dropped;\n\n    /* --- MODIFIERS --- */\n\n    modifier notAlreadyDropped(address account) {\n        require(!dropped[account]);\n        _;\n    }\n\n    modifier initialized {\n        if (!isInitialized) {\n            initialize();\n        }\n        _;\n    }\n\n    modifier onlyValidAddress(address account) {\n        require(account != 0x0);\n        _;\n    }\n\n    /* --- CONSTRUCTOR --- */\n\n    constructor(Minter _minter) public onlyValidAddress(address(_minter)) {\n        minter = _minter;\n    }\n\n    /* --- PUBLIC / EXTERNAL METHODS --- */\n\n    function dropMultiple(address[] accounts) external onlyOwner initialized {\n        require(accounts.length <= MAXIMUM_LOOP_BOUND);\n        for (uint i = 0; i < accounts.length; i++) {\n            drop(accounts[i]);\n        }\n    }\n\n    function drop(address account) public onlyOwner initialized notAlreadyDropped(account) {\n        dropped[account] = true;\n        uint contributed = minter.token().balanceOf(account);\n        uint tokenAmount = airdropPool.mul(contributed).div(initialTotalSupply);\n        minter.mint(account, ETHER_AMOUNT, tokenAmount);\n        emit Airdropped(account, tokenAmount);\n    }\n\n    /* --- INTERNAL METHODS --- */\n\n    function initialize() internal {\n        isInitialized = true;\n        initialTotalSupply = minter.token().totalSupply();\n        airdropPool = minter.token().cap().sub(initialTotalSupply);\n        emit Initialized();\n    }\n}\n",
  "sourcePath": "/Users/przemek/Projects/allsporter/contracts/Airdropper.sol",
  "compiler": {
    "name": "solc",
    "version": "0.4.24+commit.e67f0147.Emscripten.clang"
  },
  "schemaVersion": "2.0.1",
  "updatedAt": "2018-08-28T08:11:18.678Z"
}