{
  "contractName": "Allocator",
  "abi": [
    {
      "constant": true,
      "inputs": [],
      "name": "VESTING_PERIOD",
      "outputs": [
        {
          "name": "",
          "type": "uint256"
        }
      ],
      "payable": false,
      "stateMutability": "view",
      "type": "function"
    },
    {
      "constant": true,
      "inputs": [],
      "name": "minter",
      "outputs": [
        {
          "name": "",
          "type": "address"
        }
      ],
      "payable": false,
      "stateMutability": "view",
      "type": "function"
    },
    {
      "constant": true,
      "inputs": [],
      "name": "communityPool",
      "outputs": [
        {
          "name": "",
          "type": "uint256"
        }
      ],
      "payable": false,
      "stateMutability": "view",
      "type": "function"
    },
    {
      "constant": true,
      "inputs": [],
      "name": "CUSTOMER_PERCENTAGE",
      "outputs": [
        {
          "name": "",
          "type": "uint256"
        }
      ],
      "payable": false,
      "stateMutability": "view",
      "type": "function"
    },
    {
      "constant": true,
      "inputs": [],
      "name": "COMMUNITY_PERCENTAGE",
      "outputs": [
        {
          "name": "",
          "type": "uint256"
        }
      ],
      "payable": false,
      "stateMutability": "view",
      "type": "function"
    },
    {
      "constant": true,
      "inputs": [
        {
          "name": "",
          "type": "address"
        }
      ],
      "name": "vestingContracts",
      "outputs": [
        {
          "name": "",
          "type": "address"
        }
      ],
      "payable": false,
      "stateMutability": "view",
      "type": "function"
    },
    {
      "constant": true,
      "inputs": [],
      "name": "isInitialized",
      "outputs": [
        {
          "name": "",
          "type": "bool"
        }
      ],
      "payable": false,
      "stateMutability": "view",
      "type": "function"
    },
    {
      "constant": true,
      "inputs": [],
      "name": "teamPool",
      "outputs": [
        {
          "name": "",
          "type": "uint256"
        }
      ],
      "payable": false,
      "stateMutability": "view",
      "type": "function"
    },
    {
      "constant": true,
      "inputs": [],
      "name": "ETHER_AMOUNT",
      "outputs": [
        {
          "name": "",
          "type": "uint256"
        }
      ],
      "payable": false,
      "stateMutability": "view",
      "type": "function"
    },
    {
      "constant": true,
      "inputs": [],
      "name": "lockingContract",
      "outputs": [
        {
          "name": "",
          "type": "address"
        }
      ],
      "payable": false,
      "stateMutability": "view",
      "type": "function"
    },
    {
      "constant": true,
      "inputs": [],
      "name": "VESTING_START_TIME",
      "outputs": [
        {
          "name": "",
          "type": "uint256"
        }
      ],
      "payable": false,
      "stateMutability": "view",
      "type": "function"
    },
    {
      "constant": true,
      "inputs": [],
      "name": "customerPool",
      "outputs": [
        {
          "name": "",
          "type": "uint256"
        }
      ],
      "payable": false,
      "stateMutability": "view",
      "type": "function"
    },
    {
      "constant": true,
      "inputs": [],
      "name": "TEAM_PERCENTAGE",
      "outputs": [
        {
          "name": "",
          "type": "uint256"
        }
      ],
      "payable": false,
      "stateMutability": "view",
      "type": "function"
    },
    {
      "constant": true,
      "inputs": [],
      "name": "owner",
      "outputs": [
        {
          "name": "",
          "type": "address"
        }
      ],
      "payable": false,
      "stateMutability": "view",
      "type": "function"
    },
    {
      "constant": true,
      "inputs": [],
      "name": "ADVISORS_PERCENTAGE",
      "outputs": [
        {
          "name": "",
          "type": "uint256"
        }
      ],
      "payable": false,
      "stateMutability": "view",
      "type": "function"
    },
    {
      "constant": true,
      "inputs": [],
      "name": "advisorsPool",
      "outputs": [
        {
          "name": "",
          "type": "uint256"
        }
      ],
      "payable": false,
      "stateMutability": "view",
      "type": "function"
    },
    {
      "constant": true,
      "inputs": [],
      "name": "SALE_PERCENTAGE",
      "outputs": [
        {
          "name": "",
          "type": "uint256"
        }
      ],
      "payable": false,
      "stateMutability": "view",
      "type": "function"
    },
    {
      "constant": true,
      "inputs": [],
      "name": "LOCKING_UNLOCK_TIME",
      "outputs": [
        {
          "name": "",
          "type": "uint256"
        }
      ],
      "payable": false,
      "stateMutability": "view",
      "type": "function"
    },
    {
      "constant": false,
      "inputs": [
        {
          "name": "newOwner",
          "type": "address"
        }
      ],
      "name": "transferOwnership",
      "outputs": [],
      "payable": false,
      "stateMutability": "nonpayable",
      "type": "function"
    },
    {
      "constant": true,
      "inputs": [],
      "name": "VESTING_CLIFF_DURATION",
      "outputs": [
        {
          "name": "",
          "type": "uint256"
        }
      ],
      "payable": false,
      "stateMutability": "view",
      "type": "function"
    },
    {
      "inputs": [
        {
          "name": "_minter",
          "type": "address"
        }
      ],
      "payable": false,
      "stateMutability": "nonpayable",
      "type": "constructor"
    },
    {
      "anonymous": false,
      "inputs": [],
      "name": "Initialized",
      "type": "event"
    },
    {
      "anonymous": false,
      "inputs": [
        {
          "indexed": false,
          "name": "account",
          "type": "address"
        },
        {
          "indexed": false,
          "name": "tokenAmount",
          "type": "uint256"
        }
      ],
      "name": "AllocatedCommunity",
      "type": "event"
    },
    {
      "anonymous": false,
      "inputs": [
        {
          "indexed": false,
          "name": "account",
          "type": "address"
        },
        {
          "indexed": false,
          "name": "tokenAmount",
          "type": "uint256"
        }
      ],
      "name": "AllocatedAdvisors",
      "type": "event"
    },
    {
      "anonymous": false,
      "inputs": [
        {
          "indexed": false,
          "name": "account",
          "type": "address"
        },
        {
          "indexed": false,
          "name": "tokenAmount",
          "type": "uint256"
        }
      ],
      "name": "AllocatedCustomer",
      "type": "event"
    },
    {
      "anonymous": false,
      "inputs": [
        {
          "indexed": false,
          "name": "account",
          "type": "address"
        },
        {
          "indexed": false,
          "name": "tokenAmount",
          "type": "uint256"
        }
      ],
      "name": "AllocatedTeam",
      "type": "event"
    },
    {
      "anonymous": false,
      "inputs": [
        {
          "indexed": true,
          "name": "previousOwner",
          "type": "address"
        },
        {
          "indexed": true,
          "name": "newOwner",
          "type": "address"
        }
      ],
      "name": "OwnershipTransferred",
      "type": "event"
    },
    {
      "constant": false,
      "inputs": [
        {
          "name": "account",
          "type": "address"
        }
      ],
      "name": "releaseVested",
      "outputs": [],
      "payable": false,
      "stateMutability": "nonpayable",
      "type": "function"
    },
    {
      "constant": false,
      "inputs": [
        {
          "name": "account",
          "type": "address"
        }
      ],
      "name": "releaseLocked",
      "outputs": [],
      "payable": false,
      "stateMutability": "nonpayable",
      "type": "function"
    },
    {
      "constant": false,
      "inputs": [
        {
          "name": "account",
          "type": "address"
        },
        {
          "name": "tokenAmount",
          "type": "uint256"
        }
      ],
      "name": "allocateCommunity",
      "outputs": [],
      "payable": false,
      "stateMutability": "nonpayable",
      "type": "function"
    },
    {
      "constant": false,
      "inputs": [
        {
          "name": "account",
          "type": "address"
        },
        {
          "name": "tokenAmount",
          "type": "uint256"
        }
      ],
      "name": "allocateAdvisors",
      "outputs": [],
      "payable": false,
      "stateMutability": "nonpayable",
      "type": "function"
    },
    {
      "constant": false,
      "inputs": [
        {
          "name": "account",
          "type": "address"
        },
        {
          "name": "tokenAmount",
          "type": "uint256"
        }
      ],
      "name": "allocateCustomer",
      "outputs": [],
      "payable": false,
      "stateMutability": "nonpayable",
      "type": "function"
    },
    {
      "constant": false,
      "inputs": [
        {
          "name": "account",
          "type": "address"
        },
        {
          "name": "tokenAmount",
          "type": "uint256"
        }
      ],
      "name": "allocateTeam",
      "outputs": [],
      "payable": false,
      "stateMutability": "nonpayable",
      "type": "function"
    }
  ],
  "bytecode": "0x60806040526000600260146101000a81548160ff0219169083151502179055503480156200002c57600080fd5b5060405160208062003a3683398101806040528101908080519060200190929190505050336000806101000a81548173ffffffffffffffffffffffffffffffffffffffff021916908373ffffffffffffffffffffffffffffffffffffffff1602179055508060008173ffffffffffffffffffffffffffffffffffffffff1614151515620000b857600080fd5b81600160006101000a81548173ffffffffffffffffffffffffffffffffffffffff021916908373ffffffffffffffffffffffffffffffffffffffff1602179055508173ffffffffffffffffffffffffffffffffffffffff1663fc0c546a6040518163ffffffff167c0100000000000000000000000000000000000000000000000000000000028152600401602060405180830381600087803b1580156200015e57600080fd5b505af115801562000173573d6000803e3d6000fd5b505050506040513d60208110156200018a57600080fd5b8101908080519060200190929190505050635ed05080620001aa6200024d565b808373ffffffffffffffffffffffffffffffffffffffff1673ffffffffffffffffffffffffffffffffffffffff16815260200182815260200192505050604051809103906000f08015801562000204573d6000803e3d6000fd5b50600260006101000a81548173ffffffffffffffffffffffffffffffffffffffff021916908373ffffffffffffffffffffffffffffffffffffffff16021790555050506200025e565b604051610d148062002d2283390190565b612ab4806200026e6000396000f3006080604052600436106200016f576000357c0100000000000000000000000000000000000000000000000000000000900463ffffffff1680630197d97214620001745780630754617214620001a25780631036cde814620001fc57806314d140b0146200024c57806321774f4b146200027a578063287301c114620002a85780633791587414620002d6578063392e53cd146200035c57806339636504146200038e5780633dd7609a14620003bc5780634069925a14620003ea5780634b25613714620004305780634b4af4db146200048a57806361039bef14620004da5780636c0b1e8c146200052057806373bc1b2f146200054e57806384d9390a146200057c57806385586e8a14620005aa5780638da5cb5b14620005fa57806398036e7a1462000654578063a42b0d881462000682578063bd02942f14620006b0578063c84b470f1462000700578063e6c4498b146200072e578063f2fde38b146200075c578063fe19f49514620007a2575b600080fd5b3480156200018157600080fd5b506200018c620007d0565b6040518082815260200191505060405180910390f35b348015620001af57600080fd5b50620001ba620007d6565b604051808273ffffffffffffffffffffffffffffffffffffffff1673ffffffffffffffffffffffffffffffffffffffff16815260200191505060405180910390f35b3480156200020957600080fd5b506200024a600480360381019080803573ffffffffffffffffffffffffffffffffffffffff16906020019092919080359060200190929190505050620007fc565b005b3480156200025957600080fd5b506200026462000bd6565b6040518082815260200191505060405180910390f35b3480156200028757600080fd5b506200029262000bdc565b6040518082815260200191505060405180910390f35b348015620002b557600080fd5b50620002c062000be1565b6040518082815260200191505060405180910390f35b348015620002e357600080fd5b506200031a600480360381019080803573ffffffffffffffffffffffffffffffffffffffff16906020019092919050505062000be6565b604051808273ffffffffffffffffffffffffffffffffffffffff1673ffffffffffffffffffffffffffffffffffffffff16815260200191505060405180910390f35b3480156200036957600080fd5b506200037462000c19565b604051808215151515815260200191505060405180910390f35b3480156200039b57600080fd5b50620003a662000c2c565b6040518082815260200191505060405180910390f35b348015620003c957600080fd5b50620003d462000c32565b6040518082815260200191505060405180910390f35b348015620003f757600080fd5b506200042e600480360381019080803573ffffffffffffffffffffffffffffffffffffffff16906020019092919050505062000c37565b005b3480156200043d57600080fd5b506200044862000e39565b604051808273ffffffffffffffffffffffffffffffffffffffff1673ffffffffffffffffffffffffffffffffffffffff16815260200191505060405180910390f35b3480156200049757600080fd5b50620004d8600480360381019080803573ffffffffffffffffffffffffffffffffffffffff1690602001909291908035906020019092919050505062000e5f565b005b348015620004e757600080fd5b506200051e600480360381019080803573ffffffffffffffffffffffffffffffffffffffff16906020019092919050505062001152565b005b3480156200052d57600080fd5b50620005386200124e565b6040518082815260200191505060405180910390f35b3480156200055b57600080fd5b506200056662001256565b6040518082815260200191505060405180910390f35b3480156200058957600080fd5b50620005946200125c565b6040518082815260200191505060405180910390f35b348015620005b757600080fd5b50620005f8600480360381019080803573ffffffffffffffffffffffffffffffffffffffff1690602001909291908035906020019092919050505062001261565b005b3480156200060757600080fd5b506200061262001453565b604051808273ffffffffffffffffffffffffffffffffffffffff1673ffffffffffffffffffffffffffffffffffffffff16815260200191505060405180910390f35b3480156200066157600080fd5b506200066c62001478565b6040518082815260200191505060405180910390f35b3480156200068f57600080fd5b506200069a6200147d565b6040518082815260200191505060405180910390f35b348015620006bd57600080fd5b50620006fe600480360381019080803573ffffffffffffffffffffffffffffffffffffffff1690602001909291908035906020019092919050505062001483565b005b3480156200070d57600080fd5b506200071862001675565b6040518082815260200191505060405180910390f35b3480156200073b57600080fd5b50620007466200167a565b6040518082815260200191505060405180910390f35b3480156200076957600080fd5b50620007a0600480360381019080803573ffffffffffffffffffffffffffffffffffffffff16906020019092919050505062001682565b005b348015620007af57600080fd5b50620007ba620017d9565b6040518082815260200191505060405180910390f35b61c35081565b600160009054906101000a900473ffffffffffffffffffffffffffffffffffffffff1681565b600260149054906101000a900460ff1615156200081e576200081d620017df565b5b6000809054906101000a900473ffffffffffffffffffffffffffffffffffffffff1673ffffffffffffffffffffffffffffffffffffffff163373ffffffffffffffffffffffffffffffffffffffff161415156200087a57600080fd5b620008918160065462001a2290919063ffffffff16565b6006819055506000600360008473ffffffffffffffffffffffffffffffffffffffff1673ffffffffffffffffffffffffffffffffffffffff16815260200190815260200160002060009054906101000a900473ffffffffffffffffffffffffffffffffffffffff1673ffffffffffffffffffffffffffffffffffffffff16141562000a205781635ed0508061271061c35060006200092e62001a97565b808673ffffffffffffffffffffffffffffffffffffffff1673ffffffffffffffffffffffffffffffffffffffff1681526020018581526020018481526020018381526020018215151515815260200195505050505050604051809103906000f080158015620009a1573d6000803e3d6000fd5b50600360008473ffffffffffffffffffffffffffffffffffffffff1673ffffffffffffffffffffffffffffffffffffffff16815260200190815260200160002060006101000a81548173ffffffffffffffffffffffffffffffffffffffff021916908373ffffffffffffffffffffffffffffffffffffffff1602179055505b600160009054906101000a900473ffffffffffffffffffffffffffffffffffffffff1673ffffffffffffffffffffffffffffffffffffffff1663156e29f6600360008573ffffffffffffffffffffffffffffffffffffffff1673ffffffffffffffffffffffffffffffffffffffff16815260200190815260200160002060009054906101000a900473ffffffffffffffffffffffffffffffffffffffff166000846040518463ffffffff167c0100000000000000000000000000000000000000000000000000000000028152600401808473ffffffffffffffffffffffffffffffffffffffff1673ffffffffffffffffffffffffffffffffffffffff1681526020018381526020018281526020019350505050600060405180830381600087803b15801562000b4e57600080fd5b505af115801562000b63573d6000803e3d6000fd5b505050507f93c0486ac7bdd6e5e2121b7cb279ec6b05a84d975cc578803341b6b7c9884c3b8282604051808373ffffffffffffffffffffffffffffffffffffffff1673ffffffffffffffffffffffffffffffffffffffff1681526020018281526020019250505060405180910390a15050565b60045481565b600f81565b600581565b60036020528060005260406000206000915054906101000a900473ffffffffffffffffffffffffffffffffffffffff1681565b600260149054906101000a900460ff1681565b60075481565b600081565b6000600260149054906101000a900460ff16151562000c5b5762000c5a620017df565b5b600360008373ffffffffffffffffffffffffffffffffffffffff1673ffffffffffffffffffffffffffffffffffffffff16815260200190815260200160002060009054906101000a900473ffffffffffffffffffffffffffffffffffffffff1690508073ffffffffffffffffffffffffffffffffffffffff166319165587600160009054906101000a900473ffffffffffffffffffffffffffffffffffffffff1673ffffffffffffffffffffffffffffffffffffffff1663fc0c546a6040518163ffffffff167c0100000000000000000000000000000000000000000000000000000000028152600401602060405180830381600087803b15801562000d6057600080fd5b505af115801562000d75573d6000803e3d6000fd5b505050506040513d602081101562000d8c57600080fd5b81019080805190602001909291905050506040518263ffffffff167c0100000000000000000000000000000000000000000000000000000000028152600401808273ffffffffffffffffffffffffffffffffffffffff1673ffffffffffffffffffffffffffffffffffffffff168152602001915050600060405180830381600087803b15801562000e1c57600080fd5b505af115801562000e31573d6000803e3d6000fd5b505050505050565b600260009054906101000a900473ffffffffffffffffffffffffffffffffffffffff1681565b600260149054906101000a900460ff16151562000e815762000e80620017df565b5b6000809054906101000a900473ffffffffffffffffffffffffffffffffffffffff1673ffffffffffffffffffffffffffffffffffffffff163373ffffffffffffffffffffffffffffffffffffffff1614151562000edd57600080fd5b62000ef48160075462001a2290919063ffffffff16565b600781905550600160009054906101000a900473ffffffffffffffffffffffffffffffffffffffff1673ffffffffffffffffffffffffffffffffffffffff1663156e29f6600260009054906101000a900473ffffffffffffffffffffffffffffffffffffffff166000846040518463ffffffff167c0100000000000000000000000000000000000000000000000000000000028152600401808473ffffffffffffffffffffffffffffffffffffffff1673ffffffffffffffffffffffffffffffffffffffff1681526020018381526020018281526020019350505050600060405180830381600087803b15801562000feb57600080fd5b505af115801562001000573d6000803e3d6000fd5b50505050600260009054906101000a900473ffffffffffffffffffffffffffffffffffffffff1673ffffffffffffffffffffffffffffffffffffffff1663b7381a2c83836040518363ffffffff167c0100000000000000000000000000000000000000000000000000000000028152600401808373ffffffffffffffffffffffffffffffffffffffff1673ffffffffffffffffffffffffffffffffffffffff16815260200182815260200192505050600060405180830381600087803b158015620010ca57600080fd5b505af1158015620010df573d6000803e3d6000fd5b505050507fcbdce083a315eef617a1a1344b31a66122fb0faf60028a10dc6948246b5f91c38282604051808373ffffffffffffffffffffffffffffffffffffffff1673ffffffffffffffffffffffffffffffffffffffff1681526020018281526020019250505060405180910390a15050565b600260149054906101000a900460ff161515620011745762001173620017df565b5b600260009054906101000a900473ffffffffffffffffffffffffffffffffffffffff1673ffffffffffffffffffffffffffffffffffffffff166387b0be48826040518263ffffffff167c0100000000000000000000000000000000000000000000000000000000028152600401808273ffffffffffffffffffffffffffffffffffffffff1673ffffffffffffffffffffffffffffffffffffffff168152602001915050600060405180830381600087803b1580156200123257600080fd5b505af115801562001247573d6000803e3d6000fd5b5050505050565b635ed0508081565b60065481565b601181565b600260149054906101000a900460ff161515620012835762001282620017df565b5b6000809054906101000a900473ffffffffffffffffffffffffffffffffffffffff1673ffffffffffffffffffffffffffffffffffffffff163373ffffffffffffffffffffffffffffffffffffffff16141515620012df57600080fd5b620012f68160045462001a2290919063ffffffff16565b600481905550600160009054906101000a900473ffffffffffffffffffffffffffffffffffffffff1673ffffffffffffffffffffffffffffffffffffffff1663156e29f6836000846040518463ffffffff167c0100000000000000000000000000000000000000000000000000000000028152600401808473ffffffffffffffffffffffffffffffffffffffff1673ffffffffffffffffffffffffffffffffffffffff1681526020018381526020018281526020019350505050600060405180830381600087803b158015620013cb57600080fd5b505af1158015620013e0573d6000803e3d6000fd5b505050507f64d1998bee40c0c8cd0246d7e101260d9f141e3f4afc3c956e8caaf914d32d8c8282604051808373ffffffffffffffffffffffffffffffffffffffff1673ffffffffffffffffffffffffffffffffffffffff1681526020018281526020019250505060405180910390a15050565b6000809054906101000a900473ffffffffffffffffffffffffffffffffffffffff1681565b600881565b60055481565b600260149054906101000a900460ff161515620014a557620014a4620017df565b5b6000809054906101000a900473ffffffffffffffffffffffffffffffffffffffff1673ffffffffffffffffffffffffffffffffffffffff163373ffffffffffffffffffffffffffffffffffffffff161415156200150157600080fd5b620015188160055462001a2290919063ffffffff16565b600581905550600160009054906101000a900473ffffffffffffffffffffffffffffffffffffffff1673ffffffffffffffffffffffffffffffffffffffff1663156e29f6836000846040518463ffffffff167c0100000000000000000000000000000000000000000000000000000000028152600401808473ffffffffffffffffffffffffffffffffffffffff1673ffffffffffffffffffffffffffffffffffffffff1681526020018381526020018281526020019350505050600060405180830381600087803b158015620015ed57600080fd5b505af115801562001602573d6000803e3d6000fd5b505050507fbd5433e89231f3ae092d78fb588308f86e5b7aa4882e058b5b666e58696454108282604051808373ffffffffffffffffffffffffffffffffffffffff1673ffffffffffffffffffffffffffffffffffffffff1681526020018281526020019250505060405180910390a15050565b603781565b635ed0508081565b6000809054906101000a900473ffffffffffffffffffffffffffffffffffffffff1673ffffffffffffffffffffffffffffffffffffffff163373ffffffffffffffffffffffffffffffffffffffff16141515620016de57600080fd5b600073ffffffffffffffffffffffffffffffffffffffff168173ffffffffffffffffffffffffffffffffffffffff16141515156200171b57600080fd5b8073ffffffffffffffffffffffffffffffffffffffff166000809054906101000a900473ffffffffffffffffffffffffffffffffffffffff1673ffffffffffffffffffffffffffffffffffffffff167f8be0079c531659141344cd1fd0a4f28419497f9722a3daafe3b4186f6b6457e060405160405180910390a3806000806101000a81548173ffffffffffffffffffffffffffffffffffffffff021916908373ffffffffffffffffffffffffffffffffffffffff16021790555050565b61271081565b60008060006001600260146101000a81548160ff021916908315150217905550600160009054906101000a900473ffffffffffffffffffffffffffffffffffffffff1673ffffffffffffffffffffffffffffffffffffffff1663fc0c546a6040518163ffffffff167c0100000000000000000000000000000000000000000000000000000000028152600401602060405180830381600087803b1580156200188657600080fd5b505af11580156200189b573d6000803e3d6000fd5b505050506040513d6020811015620018b257600080fd5b810190808051906020019092919050505092508273ffffffffffffffffffffffffffffffffffffffff166318160ddd6040518163ffffffff167c0100000000000000000000000000000000000000000000000000000000028152600401602060405180830381600087803b1580156200192a57600080fd5b505af11580156200193f573d6000803e3d6000fd5b505050506040513d60208110156200195657600080fd5b810190808051906020019092919050505091506200197f60378362001a3c90919063ffffffff16565b90506200199781600562001a5890919063ffffffff16565b600481905550620019b381600862001a5890919063ffffffff16565b600581905550620019cf81600f62001a5890919063ffffffff16565b600681905550620019eb81601162001a5890919063ffffffff16565b6007819055507f5daa87a0e9463431830481fd4b6e3403442dfb9a12b9c07597e9f61d50b633c860405160405180910390a1505050565b600082821115151562001a3157fe5b818303905092915050565b600080828481151562001a4b57fe5b0490508091505092915050565b600080600084141562001a6f576000915062001a90565b828402905082848281151562001a8157fe5b0414151562001a8c57fe5b8091505b5092915050565b604051610fe08062001aa9833901905600608060405234801561001057600080fd5b5060405160a080610fe08339810180604052810190808051906020019092919080519060200190929190805190602001909291908051906020019092919080519060200190929190505050336000806101000a81548173ffffffffffffffffffffffffffffffffffffffff021916908373ffffffffffffffffffffffffffffffffffffffff160217905550600073ffffffffffffffffffffffffffffffffffffffff168573ffffffffffffffffffffffffffffffffffffffff16141515156100d757600080fd5b8183111515156100e657600080fd5b84600160006101000a81548173ffffffffffffffffffffffffffffffffffffffff021916908373ffffffffffffffffffffffffffffffffffffffff16021790555080600560006101000a81548160ff02191690831515021790555081600481905550610168838561017f64010000000002610ca9179091906401000000009004565b60028190555083600381905550505050505061019d565b600080828401905083811015151561019357fe5b8091505092915050565b610e34806101ac6000396000f3006080604052600436106100c5576000357c0100000000000000000000000000000000000000000000000000000000900463ffffffff1680630fb5a6b4146100ca57806313d033c0146100f55780631726cbc8146101205780631916558714610177578063384711cc146101ba57806338af3eed1461021157806374a8f10314610268578063872a7810146102ab5780638da5cb5b146102da5780639852595c14610331578063be9a655514610388578063f2fde38b146103b3578063fa01dc06146103f6575b600080fd5b3480156100d657600080fd5b506100df610451565b6040518082815260200191505060405180910390f35b34801561010157600080fd5b5061010a610457565b6040518082815260200191505060405180910390f35b34801561012c57600080fd5b50610161600480360381019080803573ffffffffffffffffffffffffffffffffffffffff16906020019092919050505061045d565b6040518082815260200191505060405180910390f35b34801561018357600080fd5b506101b8600480360381019080803573ffffffffffffffffffffffffffffffffffffffff1690602001909291905050506104c0565b005b3480156101c657600080fd5b506101fb600480360381019080803573ffffffffffffffffffffffffffffffffffffffff1690602001909291905050506105f9565b6040518082815260200191505060405180910390f35b34801561021d57600080fd5b506102266107fd565b604051808273ffffffffffffffffffffffffffffffffffffffff1673ffffffffffffffffffffffffffffffffffffffff16815260200191505060405180910390f35b34801561027457600080fd5b506102a9600480360381019080803573ffffffffffffffffffffffffffffffffffffffff169060200190929190505050610823565b005b3480156102b757600080fd5b506102c0610ac5565b604051808215151515815260200191505060405180910390f35b3480156102e657600080fd5b506102ef610ad8565b604051808273ffffffffffffffffffffffffffffffffffffffff1673ffffffffffffffffffffffffffffffffffffffff16815260200191505060405180910390f35b34801561033d57600080fd5b50610372600480360381019080803573ffffffffffffffffffffffffffffffffffffffff169060200190929190505050610afd565b6040518082815260200191505060405180910390f35b34801561039457600080fd5b5061039d610b15565b6040518082815260200191505060405180910390f35b3480156103bf57600080fd5b506103f4600480360381019080803573ffffffffffffffffffffffffffffffffffffffff169060200190929190505050610b1b565b005b34801561040257600080fd5b50610437600480360381019080803573ffffffffffffffffffffffffffffffffffffffff169060200190929190505050610c70565b604051808215151515815260200191505060405180910390f35b60045481565b60025481565b60006104b9600660008473ffffffffffffffffffffffffffffffffffffffff1673ffffffffffffffffffffffffffffffffffffffff168152602001908152602001600020546104ab846105f9565b610c9090919063ffffffff16565b9050919050565b60006104cb8261045d565b90506000811115156104dc57600080fd5b61052e81600660008573ffffffffffffffffffffffffffffffffffffffff1673ffffffffffffffffffffffffffffffffffffffff16815260200190815260200160002054610ca990919063ffffffff16565b600660008473ffffffffffffffffffffffffffffffffffffffff1673ffffffffffffffffffffffffffffffffffffffff168152602001908152602001600020819055506105be600160009054906101000a900473ffffffffffffffffffffffffffffffffffffffff16828473ffffffffffffffffffffffffffffffffffffffff16610cc79092919063ffffffff16565b7ffb81f9b30d73d830c3544b34d827c08142579ee75710b490bab0b3995468c565816040518082815260200191505060405180910390a15050565b60008060008373ffffffffffffffffffffffffffffffffffffffff166370a08231306040518263ffffffff167c0100000000000000000000000000000000000000000000000000000000028152600401808273ffffffffffffffffffffffffffffffffffffffff1673ffffffffffffffffffffffffffffffffffffffff168152602001915050602060405180830381600087803b15801561069957600080fd5b505af11580156106ad573d6000803e3d6000fd5b505050506040513d60208110156106c357600080fd5b81019080805190602001909291905050509150610728600660008673ffffffffffffffffffffffffffffffffffffffff1673ffffffffffffffffffffffffffffffffffffffff1681526020019081526020016000205483610ca990919063ffffffff16565b905060025442101561073d57600092506107f6565b610754600454600354610ca990919063ffffffff16565b421015806107ab5750600760008573ffffffffffffffffffffffffffffffffffffffff1673ffffffffffffffffffffffffffffffffffffffff16815260200190815260200160002060009054906101000a900460ff165b156107b8578092506107f6565b6107f36004546107e56107d660035442610c9090919063ffffffff16565b84610db290919063ffffffff16565b610ded90919063ffffffff16565b92505b5050919050565b600160009054906101000a900473ffffffffffffffffffffffffffffffffffffffff1681565b60008060008060009054906101000a900473ffffffffffffffffffffffffffffffffffffffff1673ffffffffffffffffffffffffffffffffffffffff163373ffffffffffffffffffffffffffffffffffffffff1614151561088357600080fd5b600560009054906101000a900460ff16151561089e57600080fd5b600760008573ffffffffffffffffffffffffffffffffffffffff1673ffffffffffffffffffffffffffffffffffffffff16815260200190815260200160002060009054906101000a900460ff161515156108f757600080fd5b8373ffffffffffffffffffffffffffffffffffffffff166370a08231306040518263ffffffff167c0100000000000000000000000000000000000000000000000000000000028152600401808273ffffffffffffffffffffffffffffffffffffffff1673ffffffffffffffffffffffffffffffffffffffff168152602001915050602060405180830381600087803b15801561099257600080fd5b505af11580156109a6573d6000803e3d6000fd5b505050506040513d60208110156109bc57600080fd5b810190808051906020019092919050505092506109d88461045d565b91506109ed8284610c9090919063ffffffff16565b90506001600760008673ffffffffffffffffffffffffffffffffffffffff1673ffffffffffffffffffffffffffffffffffffffff16815260200190815260200160002060006101000a81548160ff021916908315150217905550610a936000809054906101000a900473ffffffffffffffffffffffffffffffffffffffff16828673ffffffffffffffffffffffffffffffffffffffff16610cc79092919063ffffffff16565b7f44825a4b2df8acb19ce4e1afba9aa850c8b65cdb7942e2078f27d0b0960efee660405160405180910390a150505050565b600560009054906101000a900460ff1681565b6000809054906101000a900473ffffffffffffffffffffffffffffffffffffffff1681565b60066020528060005260406000206000915090505481565b60035481565b6000809054906101000a900473ffffffffffffffffffffffffffffffffffffffff1673ffffffffffffffffffffffffffffffffffffffff163373ffffffffffffffffffffffffffffffffffffffff16141515610b7657600080fd5b600073ffffffffffffffffffffffffffffffffffffffff168173ffffffffffffffffffffffffffffffffffffffff1614151515610bb257600080fd5b8073ffffffffffffffffffffffffffffffffffffffff166000809054906101000a900473ffffffffffffffffffffffffffffffffffffffff1673ffffffffffffffffffffffffffffffffffffffff167f8be0079c531659141344cd1fd0a4f28419497f9722a3daafe3b4186f6b6457e060405160405180910390a3806000806101000a81548173ffffffffffffffffffffffffffffffffffffffff021916908373ffffffffffffffffffffffffffffffffffffffff16021790555050565b60076020528060005260406000206000915054906101000a900460ff1681565b6000828211151515610c9e57fe5b818303905092915050565b6000808284019050838110151515610cbd57fe5b8091505092915050565b8273ffffffffffffffffffffffffffffffffffffffff1663a9059cbb83836040518363ffffffff167c0100000000000000000000000000000000000000000000000000000000028152600401808373ffffffffffffffffffffffffffffffffffffffff1673ffffffffffffffffffffffffffffffffffffffff16815260200182815260200192505050602060405180830381600087803b158015610d6a57600080fd5b505af1158015610d7e573d6000803e3d6000fd5b505050506040513d6020811015610d9457600080fd5b81019080805190602001909291905050501515610dad57fe5b505050565b6000806000841415610dc75760009150610de6565b8284029050828482811515610dd857fe5b04141515610de257fe5b8091505b5092915050565b6000808284811515610dfb57fe5b04905080915050929150505600a165627a7a723058204b1696987512c0d6a83e965c1f5c74650350c6fa6f6f03b8b439534aa55d6ba30029a165627a7a723058209a560f95dcc1dc79f4f3354a84b1efc03c77f2727ef76eab32d14e94412121be0029608060405234801561001057600080fd5b50604051604080610d148339810180604052810190808051906020019092919080519060200190929190505050336000806101000a81548173ffffffffffffffffffffffffffffffffffffffff021916908373ffffffffffffffffffffffffffffffffffffffff160217905550428111151561008b57600080fd5b60008273ffffffffffffffffffffffffffffffffffffffff16141515156100b157600080fd5b8060048190555081600160006101000a81548173ffffffffffffffffffffffffffffffffffffffff021916908373ffffffffffffffffffffffffffffffffffffffff1602179055505050610c0a8061010a6000396000f3006080604052600436106100af576000357c0100000000000000000000000000000000000000000000000000000000900463ffffffff168063251c1aa3146100b457806355a373d6146100df57806370a08231146101365780637e1c0c091461018d57806387b0be48146101b85780638da5cb5b146101fb578063a4e2d63414610252578063b288d74814610281578063b7381a2c146102ae578063e4860339146102fb578063f2fde38b14610352575b600080fd5b3480156100c057600080fd5b506100c9610395565b6040518082815260200191505060405180910390f35b3480156100eb57600080fd5b506100f461039b565b604051808273ffffffffffffffffffffffffffffffffffffffff1673ffffffffffffffffffffffffffffffffffffffff16815260200191505060405180910390f35b34801561014257600080fd5b50610177600480360381019080803573ffffffffffffffffffffffffffffffffffffffff1690602001909291905050506103c1565b6040518082815260200191505060405180910390f35b34801561019957600080fd5b506101a261040a565b6040518082815260200191505060405180910390f35b3480156101c457600080fd5b506101f9600480360381019080803573ffffffffffffffffffffffffffffffffffffffff169060200190929190505050610410565b005b34801561020757600080fd5b506102106106ab565b604051808273ffffffffffffffffffffffffffffffffffffffff1673ffffffffffffffffffffffffffffffffffffffff16815260200191505060405180910390f35b34801561025e57600080fd5b506102676106d0565b604051808215151515815260200191505060405180910390f35b34801561028d57600080fd5b506102ac600480360381019080803590602001909291905050506106dc565b005b3480156102ba57600080fd5b506102f9600480360381019080803573ffffffffffffffffffffffffffffffffffffffff169060200190929190803590602001909291905050506107aa565b005b34801561030757600080fd5b5061033c600480360381019080803573ffffffffffffffffffffffffffffffffffffffff169060200190929190505050610a3a565b6040518082815260200191505060405180910390f35b34801561035e57600080fd5b50610393600480360381019080803573ffffffffffffffffffffffffffffffffffffffff169060200190929190505050610a52565b005b60045481565b600160009054906101000a900473ffffffffffffffffffffffffffffffffffffffff1681565b6000600260008373ffffffffffffffffffffffffffffffffffffffff1673ffffffffffffffffffffffffffffffffffffffff168152602001908152602001600020549050919050565b60035481565b600061041a6106d0565b15151561042657600080fd5b6000809054906101000a900473ffffffffffffffffffffffffffffffffffffffff1673ffffffffffffffffffffffffffffffffffffffff163373ffffffffffffffffffffffffffffffffffffffff1614806104ac57508173ffffffffffffffffffffffffffffffffffffffff163373ffffffffffffffffffffffffffffffffffffffff16145b15156104b757600080fd5b600260008373ffffffffffffffffffffffffffffffffffffffff1673ffffffffffffffffffffffffffffffffffffffff1681526020019081526020016000205490506000600260008473ffffffffffffffffffffffffffffffffffffffff1673ffffffffffffffffffffffffffffffffffffffff16815260200190815260200160002081905550600160009054906101000a900473ffffffffffffffffffffffffffffffffffffffff1673ffffffffffffffffffffffffffffffffffffffff1663a9059cbb83836040518363ffffffff167c0100000000000000000000000000000000000000000000000000000000028152600401808373ffffffffffffffffffffffffffffffffffffffff1673ffffffffffffffffffffffffffffffffffffffff16815260200182815260200192505050602060405180830381600087803b15801561060357600080fd5b505af1158015610617573d6000803e3d6000fd5b505050506040513d602081101561062d57600080fd5b8101908080519060200190929190505050151561064957600080fd5b61065e81600354610ba790919063ffffffff16565b6003819055508173ffffffffffffffffffffffffffffffffffffffff167f2b8b030b466a28f569a1aaf32d403aa99d8aaf8d915b06b75a607c2089eae50760405160405180910390a25050565b6000809054906101000a900473ffffffffffffffffffffffffffffffffffffffff1681565b60006004544210905090565b6000809054906101000a900473ffffffffffffffffffffffffffffffffffffffff1673ffffffffffffffffffffffffffffffffffffffff163373ffffffffffffffffffffffffffffffffffffffff1614151561073757600080fd5b61073f6106d0565b151561074a57600080fd5b42811015151561075957600080fd5b6004548110151561076957600080fd5b806004819055507fab9dfa812e732099fc613eefa5a007277fefe6b8379746e62819c7d23fecfd4c816040518082815260200191505060405180910390a150565b60008060009054906101000a900473ffffffffffffffffffffffffffffffffffffffff1673ffffffffffffffffffffffffffffffffffffffff163373ffffffffffffffffffffffffffffffffffffffff1614151561080757600080fd5b61080f6106d0565b151561081a57600080fd5b600160009054906101000a900473ffffffffffffffffffffffffffffffffffffffff1673ffffffffffffffffffffffffffffffffffffffff166370a08231306040518263ffffffff167c0100000000000000000000000000000000000000000000000000000000028152600401808273ffffffffffffffffffffffffffffffffffffffff1673ffffffffffffffffffffffffffffffffffffffff168152602001915050602060405180830381600087803b1580156108d757600080fd5b505af11580156108eb573d6000803e3d6000fd5b505050506040513d602081101561090157600080fd5b8101908080519060200190929190505050905061092982600354610bc090919063ffffffff16565b811015151561093757600080fd5b61098982600260008673ffffffffffffffffffffffffffffffffffffffff1673ffffffffffffffffffffffffffffffffffffffff16815260200190815260200160002054610bc090919063ffffffff16565b600260008573ffffffffffffffffffffffffffffffffffffffff1673ffffffffffffffffffffffffffffffffffffffff168152602001908152602001600020819055506109e182600354610bc090919063ffffffff16565b6003819055508273ffffffffffffffffffffffffffffffffffffffff167fe85617309c545775050fc95def797667e0f38b475c28e6596dbb9515fc726230836040518082815260200191505060405180910390a2505050565b60026020528060005260406000206000915090505481565b6000809054906101000a900473ffffffffffffffffffffffffffffffffffffffff1673ffffffffffffffffffffffffffffffffffffffff163373ffffffffffffffffffffffffffffffffffffffff16141515610aad57600080fd5b600073ffffffffffffffffffffffffffffffffffffffff168173ffffffffffffffffffffffffffffffffffffffff1614151515610ae957600080fd5b8073ffffffffffffffffffffffffffffffffffffffff166000809054906101000a900473ffffffffffffffffffffffffffffffffffffffff1673ffffffffffffffffffffffffffffffffffffffff167f8be0079c531659141344cd1fd0a4f28419497f9722a3daafe3b4186f6b6457e060405160405180910390a3806000806101000a81548173ffffffffffffffffffffffffffffffffffffffff021916908373ffffffffffffffffffffffffffffffffffffffff16021790555050565b6000828211151515610bb557fe5b818303905092915050565b6000808284019050838110151515610bd457fe5b80915050929150505600a165627a7a723058208f2a021f2b61bffd84f5cfa4b2e602b56bc12c31b9056f22906ea44a93594f8c0029",
  "source": "pragma solidity ^0.4.24;\nimport \"zeppelin-solidity/contracts/math/SafeMath.sol\";\nimport \"zeppelin-solidity/contracts/ownership/Ownable.sol\";\nimport \"zeppelin-solidity/contracts/token/ERC20/TokenVesting.sol\";\nimport \"ethworks-solidity/contracts/LockingContract.sol\";\nimport \"ethworks-solidity/contracts/Whitelist.sol\";\nimport \"ethworks-solidity/contracts/CrowdfundableToken.sol\";\nimport \"./Tge.sol\";\nimport \"./Minter.sol\";\nimport \"./DeferredKyc.sol\";\n\ncontract Allocator is Ownable {\n    using SafeMath for uint;\n\n    /* --- CONSTANTS --- */\n\n    uint constant public ETHER_AMOUNT = 0;\n\n    // percentages\n    uint constant public COMMUNITY_PERCENTAGE = 5;\n    uint constant public ADVISORS_PERCENTAGE = 8;\n    uint constant public CUSTOMER_PERCENTAGE = 15;\n    uint constant public TEAM_PERCENTAGE = 17;\n    uint constant public SALE_PERCENTAGE = 55;\n    \n    // locking\n    uint constant public LOCKING_UNLOCK_TIME = 1590710400;\n\n    // vesting\n    uint constant public VESTING_START_TIME = 1590710400;\n    uint constant public VESTING_CLIFF_DURATION = 10000;\n    uint constant public VESTING_PERIOD = 50000;\n    \n    /* --- EVENTS --- */\n\n    event Initialized();\n    event AllocatedCommunity(address account, uint tokenAmount);\n    event AllocatedAdvisors(address account, uint tokenAmount);\n    event AllocatedCustomer(address account, uint tokenAmount);\n    event AllocatedTeam(address account, uint tokenAmount);\n\n    /* --- FIELDS --- */\n\n    Minter public minter;\n    LockingContract public lockingContract;\n    bool public isInitialized = false;\n    mapping(address => TokenVesting) public vestingContracts; // one customer => one TokenVesting contract\n\n    // pools\n    uint public communityPool;\n    uint public advisorsPool;\n    uint public customerPool;\n    uint public teamPool;\n    \n\n    /* --- MODIFIERS --- */\n\n    modifier initialized() {\n        if (!isInitialized) {\n            initialize();\n        }\n        _;\n    }\n\n    modifier validPercentage(uint percent) {\n        require(percent >= 0 && percent <= 100);\n        _;\n    }\n\n    modifier onlyValidAddress(address account) {\n        require(account != 0x0);\n        _;\n    }\n\n    /* --- CONSTRUCTOR --- */\n\n    constructor(Minter _minter) public onlyValidAddress(_minter) {\n        minter = _minter;\n        lockingContract = new LockingContract(_minter.token(), LOCKING_UNLOCK_TIME);\n    }\n\n    /* --- PUBLIC / EXTERNAL METHODS --- */\n\n    function releaseVested(address account) external initialized {\n        TokenVesting vesting = vestingContracts[account];\n        vesting.release(minter.token());\n    }\n\n    function releaseLocked(address account) external initialized {\n        lockingContract.releaseTokens(account);\n    }\n\n    function allocateCommunity(address account, uint tokenAmount) external initialized onlyOwner {\n        communityPool = communityPool.sub(tokenAmount);\n        minter.mint(account, ETHER_AMOUNT, tokenAmount);\n        emit AllocatedCommunity(account, tokenAmount);\n    }\n\n    function allocateAdvisors(address account, uint tokenAmount) external initialized onlyOwner {\n        advisorsPool = advisorsPool.sub(tokenAmount);\n        minter.mint(account, ETHER_AMOUNT, tokenAmount);\n        emit AllocatedAdvisors(account, tokenAmount);\n    }\n\n    // vesting\n    function allocateCustomer(address account, uint tokenAmount) external initialized onlyOwner {\n        customerPool = customerPool.sub(tokenAmount);\n        if (address(vestingContracts[account]) == 0x0) {\n            vestingContracts[account] = new TokenVesting(account, VESTING_START_TIME, VESTING_CLIFF_DURATION, VESTING_PERIOD, false);\n        }\n        minter.mint(address(vestingContracts[account]), ETHER_AMOUNT, tokenAmount);\n        emit AllocatedCustomer(account, tokenAmount);\n    }\n\n    // locking\n    function allocateTeam(address account, uint tokenAmount) external initialized onlyOwner {\n        teamPool = teamPool.sub(tokenAmount);\n        minter.mint(lockingContract, ETHER_AMOUNT, tokenAmount);\n        lockingContract.noteTokens(account, tokenAmount);\n        emit AllocatedTeam(account, tokenAmount);\n    }\n\n    /* --- INTERNAL METHODS --- */\n\n    function initialize() internal {\n        isInitialized = true;\n        CrowdfundableToken token = minter.token();\n        uint tokensSold = token.totalSupply();\n        uint tokensPerPercent = tokensSold.div(SALE_PERCENTAGE);\n\n        communityPool = COMMUNITY_PERCENTAGE.mul(tokensPerPercent);\n        advisorsPool = ADVISORS_PERCENTAGE.mul(tokensPerPercent);\n        customerPool = CUSTOMER_PERCENTAGE.mul(tokensPerPercent);\n        teamPool = TEAM_PERCENTAGE.mul(tokensPerPercent);\n\n        emit Initialized();\n    }\n}\n",
  "sourcePath": "/Users/przemek/Projects/allsporter/contracts/Allocator.sol",
  "compiler": {
    "name": "solc",
    "version": "0.4.24+commit.e67f0147.Emscripten.clang"
  },
  "schemaVersion": "2.0.0",
  "updatedAt": "2018-07-09T11:47:06.693Z"
}