{
  "contractName": "Allocator",
  "abi": [
    {
      "constant": true,
      "inputs": [],
      "name": "VESTING_PERIOD",
      "outputs": [
        {
          "name": "",
          "type": "uint256"
        }
      ],
      "payable": false,
      "stateMutability": "view",
      "type": "function"
    },
    {
      "constant": true,
      "inputs": [],
      "name": "minter",
      "outputs": [
        {
          "name": "",
          "type": "address"
        }
      ],
      "payable": false,
      "stateMutability": "view",
      "type": "function"
    },
    {
      "constant": true,
      "inputs": [],
      "name": "communityPool",
      "outputs": [
        {
          "name": "",
          "type": "uint256"
        }
      ],
      "payable": false,
      "stateMutability": "view",
      "type": "function"
    },
    {
      "constant": true,
      "inputs": [],
      "name": "CUSTOMER_PERCENTAGE",
      "outputs": [
        {
          "name": "",
          "type": "uint256"
        }
      ],
      "payable": false,
      "stateMutability": "view",
      "type": "function"
    },
    {
      "constant": true,
      "inputs": [],
      "name": "COMMUNITY_PERCENTAGE",
      "outputs": [
        {
          "name": "",
          "type": "uint256"
        }
      ],
      "payable": false,
      "stateMutability": "view",
      "type": "function"
    },
    {
      "constant": true,
      "inputs": [
        {
          "name": "",
          "type": "address"
        }
      ],
      "name": "lockingContracts",
      "outputs": [
        {
          "name": "",
          "type": "address"
        }
      ],
      "payable": false,
      "stateMutability": "view",
      "type": "function"
    },
    {
      "constant": true,
      "inputs": [
        {
          "name": "",
          "type": "address"
        }
      ],
      "name": "vestingContracts",
      "outputs": [
        {
          "name": "",
          "type": "address"
        }
      ],
      "payable": false,
      "stateMutability": "view",
      "type": "function"
    },
    {
      "constant": true,
      "inputs": [],
      "name": "isInitialized",
      "outputs": [
        {
          "name": "",
          "type": "bool"
        }
      ],
      "payable": false,
      "stateMutability": "view",
      "type": "function"
    },
    {
      "constant": true,
      "inputs": [],
      "name": "teamPool",
      "outputs": [
        {
          "name": "",
          "type": "uint256"
        }
      ],
      "payable": false,
      "stateMutability": "view",
      "type": "function"
    },
    {
      "constant": true,
      "inputs": [],
      "name": "ETHER_AMOUNT",
      "outputs": [
        {
          "name": "",
          "type": "uint256"
        }
      ],
      "payable": false,
      "stateMutability": "view",
      "type": "function"
    },
    {
      "constant": true,
      "inputs": [],
      "name": "VESTING_START_TIME",
      "outputs": [
        {
          "name": "",
          "type": "uint256"
        }
      ],
      "payable": false,
      "stateMutability": "view",
      "type": "function"
    },
    {
      "constant": true,
      "inputs": [],
      "name": "customerPool",
      "outputs": [
        {
          "name": "",
          "type": "uint256"
        }
      ],
      "payable": false,
      "stateMutability": "view",
      "type": "function"
    },
    {
      "constant": true,
      "inputs": [],
      "name": "TEAM_PERCENTAGE",
      "outputs": [
        {
          "name": "",
          "type": "uint256"
        }
      ],
      "payable": false,
      "stateMutability": "view",
      "type": "function"
    },
    {
      "constant": true,
      "inputs": [],
      "name": "owner",
      "outputs": [
        {
          "name": "",
          "type": "address"
        }
      ],
      "payable": false,
      "stateMutability": "view",
      "type": "function"
    },
    {
      "constant": true,
      "inputs": [],
      "name": "ADVISORS_PERCENTAGE",
      "outputs": [
        {
          "name": "",
          "type": "uint256"
        }
      ],
      "payable": false,
      "stateMutability": "view",
      "type": "function"
    },
    {
      "constant": true,
      "inputs": [],
      "name": "advisorsPool",
      "outputs": [
        {
          "name": "",
          "type": "uint256"
        }
      ],
      "payable": false,
      "stateMutability": "view",
      "type": "function"
    },
    {
      "constant": true,
      "inputs": [],
      "name": "SALE_PERCENTAGE",
      "outputs": [
        {
          "name": "",
          "type": "uint256"
        }
      ],
      "payable": false,
      "stateMutability": "view",
      "type": "function"
    },
    {
      "constant": true,
      "inputs": [],
      "name": "LOCKING_UNLOCK_TIME",
      "outputs": [
        {
          "name": "",
          "type": "uint256"
        }
      ],
      "payable": false,
      "stateMutability": "view",
      "type": "function"
    },
    {
      "constant": false,
      "inputs": [
        {
          "name": "newOwner",
          "type": "address"
        }
      ],
      "name": "transferOwnership",
      "outputs": [],
      "payable": false,
      "stateMutability": "nonpayable",
      "type": "function"
    },
    {
      "constant": true,
      "inputs": [],
      "name": "VESTING_CLIFF_DURATION",
      "outputs": [
        {
          "name": "",
          "type": "uint256"
        }
      ],
      "payable": false,
      "stateMutability": "view",
      "type": "function"
    },
    {
      "inputs": [
        {
          "name": "_minter",
          "type": "address"
        }
      ],
      "payable": false,
      "stateMutability": "nonpayable",
      "type": "constructor"
    },
    {
      "anonymous": false,
      "inputs": [],
      "name": "Initialized",
      "type": "event"
    },
    {
      "anonymous": false,
      "inputs": [
        {
          "indexed": false,
          "name": "account",
          "type": "address"
        },
        {
          "indexed": false,
          "name": "tokenAmount",
          "type": "uint256"
        }
      ],
      "name": "AllocatedCommunity",
      "type": "event"
    },
    {
      "anonymous": false,
      "inputs": [
        {
          "indexed": false,
          "name": "account",
          "type": "address"
        },
        {
          "indexed": false,
          "name": "tokenAmount",
          "type": "uint256"
        }
      ],
      "name": "AllocatedAdvisors",
      "type": "event"
    },
    {
      "anonymous": false,
      "inputs": [
        {
          "indexed": false,
          "name": "account",
          "type": "address"
        },
        {
          "indexed": false,
          "name": "tokenAmount",
          "type": "uint256"
        }
      ],
      "name": "AllocatedCustomer",
      "type": "event"
    },
    {
      "anonymous": false,
      "inputs": [
        {
          "indexed": false,
          "name": "account",
          "type": "address"
        },
        {
          "indexed": false,
          "name": "tokenAmount",
          "type": "uint256"
        }
      ],
      "name": "AllocatedTeam",
      "type": "event"
    },
    {
      "anonymous": false,
      "inputs": [
        {
          "indexed": false,
          "name": "newOwner",
          "type": "address"
        }
      ],
      "name": "LockingOwnershipTransferred",
      "type": "event"
    },
    {
      "anonymous": false,
      "inputs": [
        {
          "indexed": true,
          "name": "previousOwner",
          "type": "address"
        },
        {
          "indexed": true,
          "name": "newOwner",
          "type": "address"
        }
      ],
      "name": "OwnershipTransferred",
      "type": "event"
    },
    {
      "constant": false,
      "inputs": [
        {
          "name": "account",
          "type": "address"
        }
      ],
      "name": "releaseVested",
      "outputs": [],
      "payable": false,
      "stateMutability": "nonpayable",
      "type": "function"
    },
    {
      "constant": false,
      "inputs": [
        {
          "name": "account",
          "type": "address"
        }
      ],
      "name": "releaseLocked",
      "outputs": [],
      "payable": false,
      "stateMutability": "nonpayable",
      "type": "function"
    },
    {
      "constant": false,
      "inputs": [
        {
          "name": "account",
          "type": "address"
        },
        {
          "name": "tokenAmount",
          "type": "uint256"
        }
      ],
      "name": "allocateCommunity",
      "outputs": [],
      "payable": false,
      "stateMutability": "nonpayable",
      "type": "function"
    },
    {
      "constant": false,
      "inputs": [
        {
          "name": "account",
          "type": "address"
        },
        {
          "name": "tokenAmount",
          "type": "uint256"
        }
      ],
      "name": "allocateAdvisors",
      "outputs": [],
      "payable": false,
      "stateMutability": "nonpayable",
      "type": "function"
    },
    {
      "constant": false,
      "inputs": [
        {
          "name": "account",
          "type": "address"
        },
        {
          "name": "tokenAmount",
          "type": "uint256"
        }
      ],
      "name": "allocateCustomer",
      "outputs": [],
      "payable": false,
      "stateMutability": "nonpayable",
      "type": "function"
    },
    {
      "constant": false,
      "inputs": [
        {
          "name": "account",
          "type": "address"
        },
        {
          "name": "tokenAmount",
          "type": "uint256"
        }
      ],
      "name": "allocateTeam",
      "outputs": [],
      "payable": false,
      "stateMutability": "nonpayable",
      "type": "function"
    }
  ],
  "bytecode": "0x60806040526000600160146101000a81548160ff02191690831515021790555034801561002b57600080fd5b5060405160208061372583398101806040528101908080519060200190929190505050336000806101000a81548173ffffffffffffffffffffffffffffffffffffffff021916908373ffffffffffffffffffffffffffffffffffffffff1602179055508060008173ffffffffffffffffffffffffffffffffffffffff16141515156100b557600080fd5b81600160006101000a81548173ffffffffffffffffffffffffffffffffffffffff021916908373ffffffffffffffffffffffffffffffffffffffff160217905550505061361e806101076000396000f3006080604052600436106200016f576000357c0100000000000000000000000000000000000000000000000000000000900463ffffffff1680630197d97214620001745780630754617214620001a25780631036cde814620001fc57806314d140b0146200024c57806321774f4b146200027a578063287301c114620002a8578063320780c814620002d657806337915874146200035c578063392e53cd14620003e25780633963650414620004145780633dd7609a14620004425780634069925a14620004705780634b4af4db14620004b657806361039bef14620005065780636c0b1e8c146200054c57806373bc1b2f146200057a57806384d9390a14620005a857806385586e8a14620005d65780638da5cb5b146200062657806398036e7a1462000680578063a42b0d8814620006ae578063bd02942f14620006dc578063c84b470f146200072c578063e6c4498b146200075a578063f2fde38b1462000788578063fe19f49514620007ce575b600080fd5b3480156200018157600080fd5b506200018c620007fc565b6040518082815260200191505060405180910390f35b348015620001af57600080fd5b50620001ba62000802565b604051808273ffffffffffffffffffffffffffffffffffffffff1673ffffffffffffffffffffffffffffffffffffffff16815260200191505060405180910390f35b3480156200020957600080fd5b506200024a600480360381019080803573ffffffffffffffffffffffffffffffffffffffff1690602001909291908035906020019092919050505062000828565b005b3480156200025957600080fd5b506200026462000c02565b6040518082815260200191505060405180910390f35b3480156200028757600080fd5b506200029262000c08565b6040518082815260200191505060405180910390f35b348015620002b557600080fd5b50620002c062000c0d565b6040518082815260200191505060405180910390f35b348015620002e357600080fd5b506200031a600480360381019080803573ffffffffffffffffffffffffffffffffffffffff16906020019092919050505062000c12565b604051808273ffffffffffffffffffffffffffffffffffffffff1673ffffffffffffffffffffffffffffffffffffffff16815260200191505060405180910390f35b3480156200036957600080fd5b50620003a0600480360381019080803573ffffffffffffffffffffffffffffffffffffffff16906020019092919050505062000c45565b604051808273ffffffffffffffffffffffffffffffffffffffff1673ffffffffffffffffffffffffffffffffffffffff16815260200191505060405180910390f35b348015620003ef57600080fd5b50620003fa62000c78565b604051808215151515815260200191505060405180910390f35b3480156200042157600080fd5b506200042c62000c8b565b6040518082815260200191505060405180910390f35b3480156200044f57600080fd5b506200045a62000c91565b6040518082815260200191505060405180910390f35b3480156200047d57600080fd5b50620004b4600480360381019080803573ffffffffffffffffffffffffffffffffffffffff16906020019092919050505062000c96565b005b348015620004c357600080fd5b5062000504600480360381019080803573ffffffffffffffffffffffffffffffffffffffff1690602001909291908035906020019092919050505062000e98565b005b3480156200051357600080fd5b506200054a600480360381019080803573ffffffffffffffffffffffffffffffffffffffff16906020019092919050505062001348565b005b3480156200055957600080fd5b506200056462001450565b6040518082815260200191505060405180910390f35b3480156200058757600080fd5b506200059262001458565b6040518082815260200191505060405180910390f35b348015620005b557600080fd5b50620005c06200145e565b6040518082815260200191505060405180910390f35b348015620005e357600080fd5b5062000624600480360381019080803573ffffffffffffffffffffffffffffffffffffffff1690602001909291908035906020019092919050505062001463565b005b3480156200063357600080fd5b506200063e62001655565b604051808273ffffffffffffffffffffffffffffffffffffffff1673ffffffffffffffffffffffffffffffffffffffff16815260200191505060405180910390f35b3480156200068d57600080fd5b50620006986200167a565b6040518082815260200191505060405180910390f35b348015620006bb57600080fd5b50620006c66200167f565b6040518082815260200191505060405180910390f35b348015620006e957600080fd5b506200072a600480360381019080803573ffffffffffffffffffffffffffffffffffffffff1690602001909291908035906020019092919050505062001685565b005b3480156200073957600080fd5b506200074462001877565b6040518082815260200191505060405180910390f35b3480156200076757600080fd5b50620007726200187c565b6040518082815260200191505060405180910390f35b3480156200079557600080fd5b50620007cc600480360381019080803573ffffffffffffffffffffffffffffffffffffffff16906020019092919050505062001884565b005b348015620007db57600080fd5b50620007e6620019db565b6040518082815260200191505060405180910390f35b61c35081565b600160009054906101000a900473ffffffffffffffffffffffffffffffffffffffff1681565b600160149054906101000a900460ff1615156200084a5762000849620019e1565b5b6000809054906101000a900473ffffffffffffffffffffffffffffffffffffffff1673ffffffffffffffffffffffffffffffffffffffff163373ffffffffffffffffffffffffffffffffffffffff16141515620008a657600080fd5b620008bd8160065462001c2390919063ffffffff16565b6006819055506000600260008473ffffffffffffffffffffffffffffffffffffffff1673ffffffffffffffffffffffffffffffffffffffff16815260200190815260200160002060009054906101000a900473ffffffffffffffffffffffffffffffffffffffff1673ffffffffffffffffffffffffffffffffffffffff16141562000a4c5781635ed0508061271061c35060006200095a62001c98565b808673ffffffffffffffffffffffffffffffffffffffff1673ffffffffffffffffffffffffffffffffffffffff1681526020018581526020018481526020018381526020018215151515815260200195505050505050604051809103906000f080158015620009cd573d6000803e3d6000fd5b50600260008473ffffffffffffffffffffffffffffffffffffffff1673ffffffffffffffffffffffffffffffffffffffff16815260200190815260200160002060006101000a81548173ffffffffffffffffffffffffffffffffffffffff021916908373ffffffffffffffffffffffffffffffffffffffff1602179055505b600160009054906101000a900473ffffffffffffffffffffffffffffffffffffffff1673ffffffffffffffffffffffffffffffffffffffff1663156e29f6600260008573ffffffffffffffffffffffffffffffffffffffff1673ffffffffffffffffffffffffffffffffffffffff16815260200190815260200160002060009054906101000a900473ffffffffffffffffffffffffffffffffffffffff166000846040518463ffffffff167c0100000000000000000000000000000000000000000000000000000000028152600401808473ffffffffffffffffffffffffffffffffffffffff1673ffffffffffffffffffffffffffffffffffffffff1681526020018381526020018281526020019350505050600060405180830381600087803b15801562000b7a57600080fd5b505af115801562000b8f573d6000803e3d6000fd5b505050507f93c0486ac7bdd6e5e2121b7cb279ec6b05a84d975cc578803341b6b7c9884c3b8282604051808373ffffffffffffffffffffffffffffffffffffffff1673ffffffffffffffffffffffffffffffffffffffff1681526020018281526020019250505060405180910390a15050565b60045481565b600f81565b600581565b60036020528060005260406000206000915054906101000a900473ffffffffffffffffffffffffffffffffffffffff1681565b60026020528060005260406000206000915054906101000a900473ffffffffffffffffffffffffffffffffffffffff1681565b600160149054906101000a900460ff1681565b60075481565b600081565b6000600160149054906101000a900460ff16151562000cba5762000cb9620019e1565b5b600260008373ffffffffffffffffffffffffffffffffffffffff1673ffffffffffffffffffffffffffffffffffffffff16815260200190815260200160002060009054906101000a900473ffffffffffffffffffffffffffffffffffffffff1690508073ffffffffffffffffffffffffffffffffffffffff166319165587600160009054906101000a900473ffffffffffffffffffffffffffffffffffffffff1673ffffffffffffffffffffffffffffffffffffffff1663fc0c546a6040518163ffffffff167c0100000000000000000000000000000000000000000000000000000000028152600401602060405180830381600087803b15801562000dbf57600080fd5b505af115801562000dd4573d6000803e3d6000fd5b505050506040513d602081101562000deb57600080fd5b81019080805190602001909291905050506040518263ffffffff167c0100000000000000000000000000000000000000000000000000000000028152600401808273ffffffffffffffffffffffffffffffffffffffff1673ffffffffffffffffffffffffffffffffffffffff168152602001915050600060405180830381600087803b15801562000e7b57600080fd5b505af115801562000e90573d6000803e3d6000fd5b505050505050565b600160149054906101000a900460ff16151562000eba5762000eb9620019e1565b5b6000809054906101000a900473ffffffffffffffffffffffffffffffffffffffff1673ffffffffffffffffffffffffffffffffffffffff163373ffffffffffffffffffffffffffffffffffffffff1614151562000f1657600080fd5b62000f2d8160075462001c2390919063ffffffff16565b6007819055506000600360008473ffffffffffffffffffffffffffffffffffffffff1673ffffffffffffffffffffffffffffffffffffffff16815260200190815260200160002060009054906101000a900473ffffffffffffffffffffffffffffffffffffffff1673ffffffffffffffffffffffffffffffffffffffff1614156200119257600160009054906101000a900473ffffffffffffffffffffffffffffffffffffffff1673ffffffffffffffffffffffffffffffffffffffff1663fc0c546a6040518163ffffffff167c0100000000000000000000000000000000000000000000000000000000028152600401602060405180830381600087803b1580156200103957600080fd5b505af11580156200104e573d6000803e3d6000fd5b505050506040513d60208110156200106557600080fd5b8101908080519060200190929190505050635ed05080836200108662001ca9565b808473ffffffffffffffffffffffffffffffffffffffff1673ffffffffffffffffffffffffffffffffffffffff1681526020018381526020018273ffffffffffffffffffffffffffffffffffffffff1673ffffffffffffffffffffffffffffffffffffffff1681526020019350505050604051809103906000f08015801562001113573d6000803e3d6000fd5b50600360008473ffffffffffffffffffffffffffffffffffffffff1673ffffffffffffffffffffffffffffffffffffffff16815260200190815260200160002060006101000a81548173ffffffffffffffffffffffffffffffffffffffff021916908373ffffffffffffffffffffffffffffffffffffffff1602179055505b600160009054906101000a900473ffffffffffffffffffffffffffffffffffffffff1673ffffffffffffffffffffffffffffffffffffffff1663156e29f6600360008573ffffffffffffffffffffffffffffffffffffffff1673ffffffffffffffffffffffffffffffffffffffff16815260200190815260200160002060009054906101000a900473ffffffffffffffffffffffffffffffffffffffff166000846040518463ffffffff167c0100000000000000000000000000000000000000000000000000000000028152600401808473ffffffffffffffffffffffffffffffffffffffff1673ffffffffffffffffffffffffffffffffffffffff1681526020018381526020018281526020019350505050600060405180830381600087803b158015620012c057600080fd5b505af1158015620012d5573d6000803e3d6000fd5b505050507fcbdce083a315eef617a1a1344b31a66122fb0faf60028a10dc6948246b5f91c38282604051808373ffffffffffffffffffffffffffffffffffffffff1673ffffffffffffffffffffffffffffffffffffffff1681526020018281526020019250505060405180910390a15050565b6000600160149054906101000a900460ff1615156200136c576200136b620019e1565b5b600360008373ffffffffffffffffffffffffffffffffffffffff1673ffffffffffffffffffffffffffffffffffffffff16815260200190815260200160002060009054906101000a900473ffffffffffffffffffffffffffffffffffffffff1690508073ffffffffffffffffffffffffffffffffffffffff1663a96f86686040518163ffffffff167c0100000000000000000000000000000000000000000000000000000000028152600401600060405180830381600087803b1580156200143357600080fd5b505af115801562001448573d6000803e3d6000fd5b505050505050565b635ed0508081565b60065481565b601181565b600160149054906101000a900460ff161515620014855762001484620019e1565b5b6000809054906101000a900473ffffffffffffffffffffffffffffffffffffffff1673ffffffffffffffffffffffffffffffffffffffff163373ffffffffffffffffffffffffffffffffffffffff16141515620014e157600080fd5b620014f88160045462001c2390919063ffffffff16565b600481905550600160009054906101000a900473ffffffffffffffffffffffffffffffffffffffff1673ffffffffffffffffffffffffffffffffffffffff1663156e29f6836000846040518463ffffffff167c0100000000000000000000000000000000000000000000000000000000028152600401808473ffffffffffffffffffffffffffffffffffffffff1673ffffffffffffffffffffffffffffffffffffffff1681526020018381526020018281526020019350505050600060405180830381600087803b158015620015cd57600080fd5b505af1158015620015e2573d6000803e3d6000fd5b505050507f64d1998bee40c0c8cd0246d7e101260d9f141e3f4afc3c956e8caaf914d32d8c8282604051808373ffffffffffffffffffffffffffffffffffffffff1673ffffffffffffffffffffffffffffffffffffffff1681526020018281526020019250505060405180910390a15050565b6000809054906101000a900473ffffffffffffffffffffffffffffffffffffffff1681565b600881565b60055481565b600160149054906101000a900460ff161515620016a757620016a6620019e1565b5b6000809054906101000a900473ffffffffffffffffffffffffffffffffffffffff1673ffffffffffffffffffffffffffffffffffffffff163373ffffffffffffffffffffffffffffffffffffffff161415156200170357600080fd5b6200171a8160055462001c2390919063ffffffff16565b600581905550600160009054906101000a900473ffffffffffffffffffffffffffffffffffffffff1673ffffffffffffffffffffffffffffffffffffffff1663156e29f6836000846040518463ffffffff167c0100000000000000000000000000000000000000000000000000000000028152600401808473ffffffffffffffffffffffffffffffffffffffff1673ffffffffffffffffffffffffffffffffffffffff1681526020018381526020018281526020019350505050600060405180830381600087803b158015620017ef57600080fd5b505af115801562001804573d6000803e3d6000fd5b505050507fbd5433e89231f3ae092d78fb588308f86e5b7aa4882e058b5b666e58696454108282604051808373ffffffffffffffffffffffffffffffffffffffff1673ffffffffffffffffffffffffffffffffffffffff1681526020018281526020019250505060405180910390a15050565b603781565b635ed0508081565b6000809054906101000a900473ffffffffffffffffffffffffffffffffffffffff1673ffffffffffffffffffffffffffffffffffffffff163373ffffffffffffffffffffffffffffffffffffffff16141515620018e057600080fd5b600073ffffffffffffffffffffffffffffffffffffffff168173ffffffffffffffffffffffffffffffffffffffff16141515156200191d57600080fd5b8073ffffffffffffffffffffffffffffffffffffffff166000809054906101000a900473ffffffffffffffffffffffffffffffffffffffff1673ffffffffffffffffffffffffffffffffffffffff167f8be0079c531659141344cd1fd0a4f28419497f9722a3daafe3b4186f6b6457e060405160405180910390a3806000806101000a81548173ffffffffffffffffffffffffffffffffffffffff021916908373ffffffffffffffffffffffffffffffffffffffff16021790555050565b61271081565b600080600060018060146101000a81548160ff021916908315150217905550600160009054906101000a900473ffffffffffffffffffffffffffffffffffffffff1673ffffffffffffffffffffffffffffffffffffffff1663fc0c546a6040518163ffffffff167c0100000000000000000000000000000000000000000000000000000000028152600401602060405180830381600087803b15801562001a8757600080fd5b505af115801562001a9c573d6000803e3d6000fd5b505050506040513d602081101562001ab357600080fd5b810190808051906020019092919050505092508273ffffffffffffffffffffffffffffffffffffffff166318160ddd6040518163ffffffff167c0100000000000000000000000000000000000000000000000000000000028152600401602060405180830381600087803b15801562001b2b57600080fd5b505af115801562001b40573d6000803e3d6000fd5b505050506040513d602081101562001b5757600080fd5b8101908080519060200190929190505050915062001b8060378362001c3d90919063ffffffff16565b905062001b9881600562001c5990919063ffffffff16565b60048190555062001bb481600862001c5990919063ffffffff16565b60058190555062001bd081600f62001c5990919063ffffffff16565b60068190555062001bec81601162001c5990919063ffffffff16565b6007819055507f5daa87a0e9463431830481fd4b6e3403442dfb9a12b9c07597e9f61d50b633c860405160405180910390a1505050565b600082821115151562001c3257fe5b818303905092915050565b600080828481151562001c4c57fe5b0490508091505092915050565b600080600084141562001c70576000915062001c91565b828402905082848281151562001c8257fe5b0414151562001c8d57fe5b8091505b5092915050565b604051610fe08062001cbb83390190565b6040516109588062002c9b833901905600608060405234801561001057600080fd5b5060405160a080610fe08339810180604052810190808051906020019092919080519060200190929190805190602001909291908051906020019092919080519060200190929190505050336000806101000a81548173ffffffffffffffffffffffffffffffffffffffff021916908373ffffffffffffffffffffffffffffffffffffffff160217905550600073ffffffffffffffffffffffffffffffffffffffff168573ffffffffffffffffffffffffffffffffffffffff16141515156100d757600080fd5b8183111515156100e657600080fd5b84600160006101000a81548173ffffffffffffffffffffffffffffffffffffffff021916908373ffffffffffffffffffffffffffffffffffffffff16021790555080600560006101000a81548160ff02191690831515021790555081600481905550610168838561017f64010000000002610ca9179091906401000000009004565b60028190555083600381905550505050505061019d565b600080828401905083811015151561019357fe5b8091505092915050565b610e34806101ac6000396000f3006080604052600436106100c5576000357c0100000000000000000000000000000000000000000000000000000000900463ffffffff1680630fb5a6b4146100ca57806313d033c0146100f55780631726cbc8146101205780631916558714610177578063384711cc146101ba57806338af3eed1461021157806374a8f10314610268578063872a7810146102ab5780638da5cb5b146102da5780639852595c14610331578063be9a655514610388578063f2fde38b146103b3578063fa01dc06146103f6575b600080fd5b3480156100d657600080fd5b506100df610451565b6040518082815260200191505060405180910390f35b34801561010157600080fd5b5061010a610457565b6040518082815260200191505060405180910390f35b34801561012c57600080fd5b50610161600480360381019080803573ffffffffffffffffffffffffffffffffffffffff16906020019092919050505061045d565b6040518082815260200191505060405180910390f35b34801561018357600080fd5b506101b8600480360381019080803573ffffffffffffffffffffffffffffffffffffffff1690602001909291905050506104c0565b005b3480156101c657600080fd5b506101fb600480360381019080803573ffffffffffffffffffffffffffffffffffffffff1690602001909291905050506105f9565b6040518082815260200191505060405180910390f35b34801561021d57600080fd5b506102266107fd565b604051808273ffffffffffffffffffffffffffffffffffffffff1673ffffffffffffffffffffffffffffffffffffffff16815260200191505060405180910390f35b34801561027457600080fd5b506102a9600480360381019080803573ffffffffffffffffffffffffffffffffffffffff169060200190929190505050610823565b005b3480156102b757600080fd5b506102c0610ac5565b604051808215151515815260200191505060405180910390f35b3480156102e657600080fd5b506102ef610ad8565b604051808273ffffffffffffffffffffffffffffffffffffffff1673ffffffffffffffffffffffffffffffffffffffff16815260200191505060405180910390f35b34801561033d57600080fd5b50610372600480360381019080803573ffffffffffffffffffffffffffffffffffffffff169060200190929190505050610afd565b6040518082815260200191505060405180910390f35b34801561039457600080fd5b5061039d610b15565b6040518082815260200191505060405180910390f35b3480156103bf57600080fd5b506103f4600480360381019080803573ffffffffffffffffffffffffffffffffffffffff169060200190929190505050610b1b565b005b34801561040257600080fd5b50610437600480360381019080803573ffffffffffffffffffffffffffffffffffffffff169060200190929190505050610c70565b604051808215151515815260200191505060405180910390f35b60045481565b60025481565b60006104b9600660008473ffffffffffffffffffffffffffffffffffffffff1673ffffffffffffffffffffffffffffffffffffffff168152602001908152602001600020546104ab846105f9565b610c9090919063ffffffff16565b9050919050565b60006104cb8261045d565b90506000811115156104dc57600080fd5b61052e81600660008573ffffffffffffffffffffffffffffffffffffffff1673ffffffffffffffffffffffffffffffffffffffff16815260200190815260200160002054610ca990919063ffffffff16565b600660008473ffffffffffffffffffffffffffffffffffffffff1673ffffffffffffffffffffffffffffffffffffffff168152602001908152602001600020819055506105be600160009054906101000a900473ffffffffffffffffffffffffffffffffffffffff16828473ffffffffffffffffffffffffffffffffffffffff16610cc79092919063ffffffff16565b7ffb81f9b30d73d830c3544b34d827c08142579ee75710b490bab0b3995468c565816040518082815260200191505060405180910390a15050565b60008060008373ffffffffffffffffffffffffffffffffffffffff166370a08231306040518263ffffffff167c0100000000000000000000000000000000000000000000000000000000028152600401808273ffffffffffffffffffffffffffffffffffffffff1673ffffffffffffffffffffffffffffffffffffffff168152602001915050602060405180830381600087803b15801561069957600080fd5b505af11580156106ad573d6000803e3d6000fd5b505050506040513d60208110156106c357600080fd5b81019080805190602001909291905050509150610728600660008673ffffffffffffffffffffffffffffffffffffffff1673ffffffffffffffffffffffffffffffffffffffff1681526020019081526020016000205483610ca990919063ffffffff16565b905060025442101561073d57600092506107f6565b610754600454600354610ca990919063ffffffff16565b421015806107ab5750600760008573ffffffffffffffffffffffffffffffffffffffff1673ffffffffffffffffffffffffffffffffffffffff16815260200190815260200160002060009054906101000a900460ff165b156107b8578092506107f6565b6107f36004546107e56107d660035442610c9090919063ffffffff16565b84610db290919063ffffffff16565b610ded90919063ffffffff16565b92505b5050919050565b600160009054906101000a900473ffffffffffffffffffffffffffffffffffffffff1681565b60008060008060009054906101000a900473ffffffffffffffffffffffffffffffffffffffff1673ffffffffffffffffffffffffffffffffffffffff163373ffffffffffffffffffffffffffffffffffffffff1614151561088357600080fd5b600560009054906101000a900460ff16151561089e57600080fd5b600760008573ffffffffffffffffffffffffffffffffffffffff1673ffffffffffffffffffffffffffffffffffffffff16815260200190815260200160002060009054906101000a900460ff161515156108f757600080fd5b8373ffffffffffffffffffffffffffffffffffffffff166370a08231306040518263ffffffff167c0100000000000000000000000000000000000000000000000000000000028152600401808273ffffffffffffffffffffffffffffffffffffffff1673ffffffffffffffffffffffffffffffffffffffff168152602001915050602060405180830381600087803b15801561099257600080fd5b505af11580156109a6573d6000803e3d6000fd5b505050506040513d60208110156109bc57600080fd5b810190808051906020019092919050505092506109d88461045d565b91506109ed8284610c9090919063ffffffff16565b90506001600760008673ffffffffffffffffffffffffffffffffffffffff1673ffffffffffffffffffffffffffffffffffffffff16815260200190815260200160002060006101000a81548160ff021916908315150217905550610a936000809054906101000a900473ffffffffffffffffffffffffffffffffffffffff16828673ffffffffffffffffffffffffffffffffffffffff16610cc79092919063ffffffff16565b7f44825a4b2df8acb19ce4e1afba9aa850c8b65cdb7942e2078f27d0b0960efee660405160405180910390a150505050565b600560009054906101000a900460ff1681565b6000809054906101000a900473ffffffffffffffffffffffffffffffffffffffff1681565b60066020528060005260406000206000915090505481565b60035481565b6000809054906101000a900473ffffffffffffffffffffffffffffffffffffffff1673ffffffffffffffffffffffffffffffffffffffff163373ffffffffffffffffffffffffffffffffffffffff16141515610b7657600080fd5b600073ffffffffffffffffffffffffffffffffffffffff168173ffffffffffffffffffffffffffffffffffffffff1614151515610bb257600080fd5b8073ffffffffffffffffffffffffffffffffffffffff166000809054906101000a900473ffffffffffffffffffffffffffffffffffffffff1673ffffffffffffffffffffffffffffffffffffffff167f8be0079c531659141344cd1fd0a4f28419497f9722a3daafe3b4186f6b6457e060405160405180910390a3806000806101000a81548173ffffffffffffffffffffffffffffffffffffffff021916908373ffffffffffffffffffffffffffffffffffffffff16021790555050565b60076020528060005260406000206000915054906101000a900460ff1681565b6000828211151515610c9e57fe5b818303905092915050565b6000808284019050838110151515610cbd57fe5b8091505092915050565b8273ffffffffffffffffffffffffffffffffffffffff1663a9059cbb83836040518363ffffffff167c0100000000000000000000000000000000000000000000000000000000028152600401808373ffffffffffffffffffffffffffffffffffffffff1673ffffffffffffffffffffffffffffffffffffffff16815260200182815260200192505050602060405180830381600087803b158015610d6a57600080fd5b505af1158015610d7e573d6000803e3d6000fd5b505050506040513d6020811015610d9457600080fd5b81019080805190602001909291905050501515610dad57fe5b505050565b6000806000841415610dc75760009150610de6565b8284029050828482811515610dd857fe5b04141515610de257fe5b8091505b5092915050565b6000808284811515610dfb57fe5b04905080915050929150505600a165627a7a723058204b1696987512c0d6a83e965c1f5c74650350c6fa6f6f03b8b439534aa55d6ba30029608060405234801561001057600080fd5b50604051606080610958833981018060405281019080805190602001909291908051906020019092919080519060200190929190505050336000806101000a81548173ffffffffffffffffffffffffffffffffffffffff021916908373ffffffffffffffffffffffffffffffffffffffff160217905550428211151561009557600080fd5b60008373ffffffffffffffffffffffffffffffffffffffff16141515156100bb57600080fd5b60008173ffffffffffffffffffffffffffffffffffffffff16141515156100e157600080fd5b8160028190555082600160006101000a81548173ffffffffffffffffffffffffffffffffffffffff021916908373ffffffffffffffffffffffffffffffffffffffff16021790555080600360006101000a81548173ffffffffffffffffffffffffffffffffffffffff021916908373ffffffffffffffffffffffffffffffffffffffff1602179055505050506107dc8061017c6000396000f30060806040526004361061008e576000357c0100000000000000000000000000000000000000000000000000000000900463ffffffff168063251c1aa31461009357806338af3eed146100be57806355a373d614610115578063722713f71461016c5780638da5cb5b14610197578063a4e2d634146101ee578063a96f86681461021d578063f2fde38b14610234575b600080fd5b34801561009f57600080fd5b506100a8610277565b6040518082815260200191505060405180910390f35b3480156100ca57600080fd5b506100d361027d565b604051808273ffffffffffffffffffffffffffffffffffffffff1673ffffffffffffffffffffffffffffffffffffffff16815260200191505060405180910390f35b34801561012157600080fd5b5061012a6102a3565b604051808273ffffffffffffffffffffffffffffffffffffffff1673ffffffffffffffffffffffffffffffffffffffff16815260200191505060405180910390f35b34801561017857600080fd5b506101816102c9565b6040518082815260200191505060405180910390f35b3480156101a357600080fd5b506101ac6103c8565b604051808273ffffffffffffffffffffffffffffffffffffffff1673ffffffffffffffffffffffffffffffffffffffff16815260200191505060405180910390f35b3480156101fa57600080fd5b506102036103ed565b604051808215151515815260200191505060405180910390f35b34801561022957600080fd5b506102326103f9565b005b34801561024057600080fd5b50610275600480360381019080803573ffffffffffffffffffffffffffffffffffffffff16906020019092919050505061065b565b005b60025481565b600360009054906101000a900473ffffffffffffffffffffffffffffffffffffffff1681565b600160009054906101000a900473ffffffffffffffffffffffffffffffffffffffff1681565b6000600160009054906101000a900473ffffffffffffffffffffffffffffffffffffffff1673ffffffffffffffffffffffffffffffffffffffff166370a08231306040518263ffffffff167c0100000000000000000000000000000000000000000000000000000000028152600401808273ffffffffffffffffffffffffffffffffffffffff1673ffffffffffffffffffffffffffffffffffffffff168152602001915050602060405180830381600087803b15801561038857600080fd5b505af115801561039c573d6000803e3d6000fd5b505050506040513d60208110156103b257600080fd5b8101908080519060200190929190505050905090565b6000809054906101000a900473ffffffffffffffffffffffffffffffffffffffff1681565b60006002544210905090565b6104016103ed565b15151561040d57600080fd5b6000809054906101000a900473ffffffffffffffffffffffffffffffffffffffff1673ffffffffffffffffffffffffffffffffffffffff163373ffffffffffffffffffffffffffffffffffffffff1614806104b55750600360009054906101000a900473ffffffffffffffffffffffffffffffffffffffff1673ffffffffffffffffffffffffffffffffffffffff163373ffffffffffffffffffffffffffffffffffffffff16145b15156104c057600080fd5b600160009054906101000a900473ffffffffffffffffffffffffffffffffffffffff1673ffffffffffffffffffffffffffffffffffffffff1663a9059cbb600360009054906101000a900473ffffffffffffffffffffffffffffffffffffffff166105296102c9565b6040518363ffffffff167c0100000000000000000000000000000000000000000000000000000000028152600401808373ffffffffffffffffffffffffffffffffffffffff1673ffffffffffffffffffffffffffffffffffffffff16815260200182815260200192505050602060405180830381600087803b1580156105ae57600080fd5b505af11580156105c2573d6000803e3d6000fd5b505050506040513d60208110156105d857600080fd5b810190808051906020019092919050505015156105f457600080fd5b600360009054906101000a900473ffffffffffffffffffffffffffffffffffffffff1673ffffffffffffffffffffffffffffffffffffffff167f2b8b030b466a28f569a1aaf32d403aa99d8aaf8d915b06b75a607c2089eae50760405160405180910390a2565b6000809054906101000a900473ffffffffffffffffffffffffffffffffffffffff1673ffffffffffffffffffffffffffffffffffffffff163373ffffffffffffffffffffffffffffffffffffffff161415156106b657600080fd5b600073ffffffffffffffffffffffffffffffffffffffff168173ffffffffffffffffffffffffffffffffffffffff16141515156106f257600080fd5b8073ffffffffffffffffffffffffffffffffffffffff166000809054906101000a900473ffffffffffffffffffffffffffffffffffffffff1673ffffffffffffffffffffffffffffffffffffffff167f8be0079c531659141344cd1fd0a4f28419497f9722a3daafe3b4186f6b6457e060405160405180910390a3806000806101000a81548173ffffffffffffffffffffffffffffffffffffffff021916908373ffffffffffffffffffffffffffffffffffffffff160217905550505600a165627a7a72305820573a0c63ef893b64c98bdf6702c5a3c4e3a5658f5b86c6d84c0e5c092243f48c0029a165627a7a72305820c53f8c7e77b994f9168a2b403b528e7fae8fdabfa783fc0ca444629a11e49e200029",
  "source": "pragma solidity ^0.4.24;\nimport \"zeppelin-solidity/contracts/math/SafeMath.sol\";\nimport \"zeppelin-solidity/contracts/ownership/Ownable.sol\";\nimport \"zeppelin-solidity/contracts/token/ERC20/TokenVesting.sol\";\nimport \"ethworks-solidity/contracts/Whitelist.sol\";\nimport \"ethworks-solidity/contracts/CrowdfundableToken.sol\";\nimport \"./Tge.sol\";\nimport \"./Minter.sol\";\nimport \"./DeferredKyc.sol\";\nimport \"./SingleLockingContract.sol\";\n\ncontract Allocator is Ownable {\n    using SafeMath for uint;\n\n    /* --- CONSTANTS --- */\n\n    uint constant public ETHER_AMOUNT = 0;\n\n    // percentages\n    uint constant public COMMUNITY_PERCENTAGE = 5;\n    uint constant public ADVISORS_PERCENTAGE = 8;\n    uint constant public CUSTOMER_PERCENTAGE = 15;\n    uint constant public TEAM_PERCENTAGE = 17;\n    uint constant public SALE_PERCENTAGE = 55;\n    \n    // locking\n    uint constant public LOCKING_UNLOCK_TIME = 1590710400;\n\n    // vesting\n    uint constant public VESTING_START_TIME = 1590710400;\n    uint constant public VESTING_CLIFF_DURATION = 10000;\n    uint constant public VESTING_PERIOD = 50000;\n    \n    /* --- EVENTS --- */\n\n    event Initialized();\n    event AllocatedCommunity(address account, uint tokenAmount);\n    event AllocatedAdvisors(address account, uint tokenAmount);\n    event AllocatedCustomer(address account, uint tokenAmount);\n    event AllocatedTeam(address account, uint tokenAmount);\n    event LockingOwnershipTransferred(address newOwner);\n\n    /* --- FIELDS --- */\n\n    Minter public minter;\n    bool public isInitialized = false;\n    mapping(address => TokenVesting) public vestingContracts; // one customer => one TokenVesting contract\n    mapping(address => SingleLockingContract) public lockingContracts; // one team => one SingleLockingContract\n\n    // pools\n    uint public communityPool;\n    uint public advisorsPool;\n    uint public customerPool;\n    uint public teamPool;\n    \n\n    /* --- MODIFIERS --- */\n\n    modifier initialized() {\n        if (!isInitialized) {\n            initialize();\n        }\n        _;\n    }\n\n    modifier validPercentage(uint percent) {\n        require(percent >= 0 && percent <= 100);\n        _;\n    }\n\n    modifier onlyValidAddress(address account) {\n        require(account != 0x0);\n        _;\n    }\n\n    /* --- CONSTRUCTOR --- */\n\n    constructor(Minter _minter) public onlyValidAddress(_minter) {\n        minter = _minter;\n    }\n\n    /* --- PUBLIC / EXTERNAL METHODS --- */\n\n    function releaseVested(address account) external initialized {\n        TokenVesting vesting = vestingContracts[account];\n        vesting.release(minter.token());\n    }\n\n    function releaseLocked(address account) external initialized {\n        SingleLockingContract locking = lockingContracts[account];\n        locking.releaseTokens();\n    }\n\n    function allocateCommunity(address account, uint tokenAmount) external initialized onlyOwner {\n        communityPool = communityPool.sub(tokenAmount);\n        minter.mint(account, ETHER_AMOUNT, tokenAmount);\n        emit AllocatedCommunity(account, tokenAmount);\n    }\n\n    function allocateAdvisors(address account, uint tokenAmount) external initialized onlyOwner {\n        advisorsPool = advisorsPool.sub(tokenAmount);\n        minter.mint(account, ETHER_AMOUNT, tokenAmount);\n        emit AllocatedAdvisors(account, tokenAmount);\n    }\n\n    // vesting\n    function allocateCustomer(address account, uint tokenAmount) external initialized onlyOwner {\n        customerPool = customerPool.sub(tokenAmount);\n        if (address(vestingContracts[account]) == 0x0) {\n            vestingContracts[account] = new TokenVesting(account, VESTING_START_TIME, VESTING_CLIFF_DURATION, VESTING_PERIOD, false);\n        }\n        minter.mint(address(vestingContracts[account]), ETHER_AMOUNT, tokenAmount);\n        emit AllocatedCustomer(account, tokenAmount);\n    }\n\n    // locking\n    function allocateTeam(address account, uint tokenAmount) external initialized onlyOwner {\n        teamPool = teamPool.sub(tokenAmount);\n        if (address(lockingContracts[account]) == 0x0) {\n            lockingContracts[account] = new SingleLockingContract(minter.token(), LOCKING_UNLOCK_TIME, account);\n        }\n        minter.mint(lockingContracts[account], ETHER_AMOUNT, tokenAmount);\n        emit AllocatedTeam(account, tokenAmount);\n    }\n\n    /* --- INTERNAL METHODS --- */\n\n    function initialize() internal {\n        isInitialized = true;\n        CrowdfundableToken token = minter.token();\n        uint tokensSold = token.totalSupply();\n        uint tokensPerPercent = tokensSold.div(SALE_PERCENTAGE);\n\n        communityPool = COMMUNITY_PERCENTAGE.mul(tokensPerPercent);\n        advisorsPool = ADVISORS_PERCENTAGE.mul(tokensPerPercent);\n        customerPool = CUSTOMER_PERCENTAGE.mul(tokensPerPercent);\n        teamPool = TEAM_PERCENTAGE.mul(tokensPerPercent);\n\n        emit Initialized();\n    }\n}\n",
  "sourcePath": "/Users/przemek/Projects/allsporter/contracts/Allocator.sol",
  "compiler": {
    "name": "solc",
    "version": "0.4.24+commit.e67f0147.Emscripten.clang"
  },
  "schemaVersion": "2.0.1",
  "updatedAt": "2018-07-18T15:14:01.638Z"
}