{
  "contractName": "Crowdsale",
  "abi": [
    {
      "constant": true,
      "inputs": [],
      "name": "minter",
      "outputs": [
        {
          "name": "",
          "type": "address"
        }
      ],
      "payable": false,
      "stateMutability": "view",
      "type": "function"
    },
    {
      "constant": true,
      "inputs": [],
      "name": "owner",
      "outputs": [
        {
          "name": "",
          "type": "address"
        }
      ],
      "payable": false,
      "stateMutability": "view",
      "type": "function"
    },
    {
      "constant": true,
      "inputs": [],
      "name": "deferredKyc",
      "outputs": [
        {
          "name": "",
          "type": "address"
        }
      ],
      "payable": false,
      "stateMutability": "view",
      "type": "function"
    },
    {
      "constant": false,
      "inputs": [
        {
          "name": "newOwner",
          "type": "address"
        }
      ],
      "name": "transferOwnership",
      "outputs": [],
      "payable": false,
      "stateMutability": "nonpayable",
      "type": "function"
    },
    {
      "inputs": [
        {
          "name": "_minter",
          "type": "address"
        },
        {
          "name": "_approver",
          "type": "address"
        },
        {
          "name": "_treasury",
          "type": "address"
        }
      ],
      "payable": false,
      "stateMutability": "nonpayable",
      "type": "constructor"
    },
    {
      "anonymous": false,
      "inputs": [
        {
          "indexed": true,
          "name": "account",
          "type": "address"
        },
        {
          "indexed": false,
          "name": "etherAmount",
          "type": "uint256"
        }
      ],
      "name": "Bought",
      "type": "event"
    },
    {
      "anonymous": false,
      "inputs": [
        {
          "indexed": true,
          "name": "account",
          "type": "address"
        },
        {
          "indexed": false,
          "name": "etherAmount",
          "type": "uint256"
        },
        {
          "indexed": false,
          "name": "tokenAmount",
          "type": "uint256"
        }
      ],
      "name": "SaleNoted",
      "type": "event"
    },
    {
      "anonymous": false,
      "inputs": [
        {
          "indexed": true,
          "name": "account",
          "type": "address"
        },
        {
          "indexed": false,
          "name": "etherAmount",
          "type": "uint256"
        },
        {
          "indexed": false,
          "name": "tokenAmount",
          "type": "uint256"
        },
        {
          "indexed": false,
          "name": "lockingPeriod",
          "type": "uint256"
        },
        {
          "indexed": false,
          "name": "lockingContract",
          "type": "address"
        }
      ],
      "name": "SaleLockedNoted",
      "type": "event"
    },
    {
      "anonymous": false,
      "inputs": [
        {
          "indexed": true,
          "name": "previousOwner",
          "type": "address"
        },
        {
          "indexed": true,
          "name": "newOwner",
          "type": "address"
        }
      ],
      "name": "OwnershipTransferred",
      "type": "event"
    },
    {
      "constant": false,
      "inputs": [],
      "name": "buy",
      "outputs": [],
      "payable": true,
      "stateMutability": "payable",
      "type": "function"
    },
    {
      "constant": false,
      "inputs": [
        {
          "name": "account",
          "type": "address"
        },
        {
          "name": "etherAmount",
          "type": "uint256"
        },
        {
          "name": "tokenAmount",
          "type": "uint256"
        }
      ],
      "name": "noteSale",
      "outputs": [],
      "payable": false,
      "stateMutability": "nonpayable",
      "type": "function"
    },
    {
      "constant": false,
      "inputs": [
        {
          "name": "account",
          "type": "address"
        },
        {
          "name": "etherAmount",
          "type": "uint256"
        },
        {
          "name": "tokenAmount",
          "type": "uint256"
        },
        {
          "name": "lockingPeriod",
          "type": "uint256"
        }
      ],
      "name": "noteSaleLocked",
      "outputs": [],
      "payable": false,
      "stateMutability": "nonpayable",
      "type": "function"
    }
  ],
  "bytecode": "0x608060405234801561001057600080fd5b50604051606080612f20833981018060405281019080805190602001909291908051906020019092919080519060200190929190505050336000806101000a81548173ffffffffffffffffffffffffffffffffffffffff021916908373ffffffffffffffffffffffffffffffffffffffff1602179055508260008173ffffffffffffffffffffffffffffffffffffffff16141515156100ae57600080fd5b8260008173ffffffffffffffffffffffffffffffffffffffff16141515156100d557600080fd5b8260008173ffffffffffffffffffffffffffffffffffffffff16141515156100fc57600080fd5b85600160006101000a81548173ffffffffffffffffffffffffffffffffffffffff021916908373ffffffffffffffffffffffffffffffffffffffff16021790555085858561014861024c565b808473ffffffffffffffffffffffffffffffffffffffff1673ffffffffffffffffffffffffffffffffffffffff1681526020018373ffffffffffffffffffffffffffffffffffffffff1673ffffffffffffffffffffffffffffffffffffffff1681526020018273ffffffffffffffffffffffffffffffffffffffff1673ffffffffffffffffffffffffffffffffffffffff1681526020019350505050604051809103906000f080158015610200573d6000803e3d6000fd5b50600260006101000a81548173ffffffffffffffffffffffffffffffffffffffff021916908373ffffffffffffffffffffffffffffffffffffffff16021790555050505050505061025c565b60405161146080611ac083390190565b6118558061026b6000396000f300608060405260043610610083576000357c0100000000000000000000000000000000000000000000000000000000900463ffffffff1680630754617214610088578063372cfcc3146100df578063811b1268146101405780638da5cb5b14610197578063a1960d80146101ee578063a6f2ae3a14610245578063f2fde38b1461024f575b600080fd5b34801561009457600080fd5b5061009d610292565b604051808273ffffffffffffffffffffffffffffffffffffffff1673ffffffffffffffffffffffffffffffffffffffff16815260200191505060405180910390f35b3480156100eb57600080fd5b5061013e600480360381019080803573ffffffffffffffffffffffffffffffffffffffff1690602001909291908035906020019092919080359060200190929190803590602001909291905050506102b8565b005b34801561014c57600080fd5b50610195600480360381019080803573ffffffffffffffffffffffffffffffffffffffff1690602001909291908035906020019092919080359060200190929190505050610686565b005b3480156101a357600080fd5b506101ac610821565b604051808273ffffffffffffffffffffffffffffffffffffffff1673ffffffffffffffffffffffffffffffffffffffff16815260200191505060405180910390f35b3480156101fa57600080fd5b50610203610846565b604051808273ffffffffffffffffffffffffffffffffffffffff1673ffffffffffffffffffffffffffffffffffffffff16815260200191505060405180910390f35b61024d61086c565b005b34801561025b57600080fd5b50610290600480360381019080803573ffffffffffffffffffffffffffffffffffffffff169060200190929190505050610992565b005b600160009054906101000a900473ffffffffffffffffffffffffffffffffffffffff1681565b60008060009054906101000a900473ffffffffffffffffffffffffffffffffffffffff1673ffffffffffffffffffffffffffffffffffffffff163373ffffffffffffffffffffffffffffffffffffffff1614151561031557600080fd5b600160009054906101000a900473ffffffffffffffffffffffffffffffffffffffff1673ffffffffffffffffffffffffffffffffffffffff1663fc0c546a6040518163ffffffff167c0100000000000000000000000000000000000000000000000000000000028152600401602060405180830381600087803b15801561039b57600080fd5b505af11580156103af573d6000803e3d6000fd5b505050506040513d60208110156103c557600080fd5b81019080805190602001909291905050506103e98342610ae790919063ffffffff16565b6103f1610b05565b808373ffffffffffffffffffffffffffffffffffffffff1673ffffffffffffffffffffffffffffffffffffffff16815260200182815260200192505050604051809103906000f08015801561044a573d6000803e3d6000fd5b509050600160009054906101000a900473ffffffffffffffffffffffffffffffffffffffff1673ffffffffffffffffffffffffffffffffffffffff1663156e29f68286866040518463ffffffff167c0100000000000000000000000000000000000000000000000000000000028152600401808473ffffffffffffffffffffffffffffffffffffffff1673ffffffffffffffffffffffffffffffffffffffff1681526020018381526020018281526020019350505050600060405180830381600087803b15801561051a57600080fd5b505af115801561052e573d6000803e3d6000fd5b505050508073ffffffffffffffffffffffffffffffffffffffff1663b7381a2c86856040518363ffffffff167c0100000000000000000000000000000000000000000000000000000000028152600401808373ffffffffffffffffffffffffffffffffffffffff1673ffffffffffffffffffffffffffffffffffffffff16815260200182815260200192505050600060405180830381600087803b1580156105d557600080fd5b505af11580156105e9573d6000803e3d6000fd5b505050508473ffffffffffffffffffffffffffffffffffffffff167feea14b3e9eecb6740273a8a3f4d7a5b0b975586a3e98138e303cae955c369af185858585604051808581526020018481526020018381526020018273ffffffffffffffffffffffffffffffffffffffff1673ffffffffffffffffffffffffffffffffffffffff16815260200194505050505060405180910390a25050505050565b6000809054906101000a900473ffffffffffffffffffffffffffffffffffffffff1673ffffffffffffffffffffffffffffffffffffffff163373ffffffffffffffffffffffffffffffffffffffff161415156106e157600080fd5b600160009054906101000a900473ffffffffffffffffffffffffffffffffffffffff1673ffffffffffffffffffffffffffffffffffffffff1663156e29f68484846040518463ffffffff167c0100000000000000000000000000000000000000000000000000000000028152600401808473ffffffffffffffffffffffffffffffffffffffff1673ffffffffffffffffffffffffffffffffffffffff1681526020018381526020018281526020019350505050600060405180830381600087803b1580156107ae57600080fd5b505af11580156107c2573d6000803e3d6000fd5b505050508273ffffffffffffffffffffffffffffffffffffffff167f776ed283fa700f047d33b4167a8c09dc5ff8150a7c0f29b823b31268b8279ba38383604051808381526020018281526020019250505060405180910390a2505050565b6000809054906101000a900473ffffffffffffffffffffffffffffffffffffffff1681565b600260009054906101000a900473ffffffffffffffffffffffffffffffffffffffff1681565b600260009054906101000a900473ffffffffffffffffffffffffffffffffffffffff1673ffffffffffffffffffffffffffffffffffffffff16639bd6952834336040518363ffffffff167c0100000000000000000000000000000000000000000000000000000000028152600401808273ffffffffffffffffffffffffffffffffffffffff1673ffffffffffffffffffffffffffffffffffffffff1681526020019150506000604051808303818588803b15801561092957600080fd5b505af115801561093d573d6000803e3d6000fd5b50505050503373ffffffffffffffffffffffffffffffffffffffff167fc55650ccda1011e1cdc769b1fbf546ebb8c97800b6072b49e06cd560305b1d67346040518082815260200191505060405180910390a2565b6000809054906101000a900473ffffffffffffffffffffffffffffffffffffffff1673ffffffffffffffffffffffffffffffffffffffff163373ffffffffffffffffffffffffffffffffffffffff161415156109ed57600080fd5b600073ffffffffffffffffffffffffffffffffffffffff168173ffffffffffffffffffffffffffffffffffffffff1614151515610a2957600080fd5b8073ffffffffffffffffffffffffffffffffffffffff166000809054906101000a900473ffffffffffffffffffffffffffffffffffffffff1673ffffffffffffffffffffffffffffffffffffffff167f8be0079c531659141344cd1fd0a4f28419497f9722a3daafe3b4186f6b6457e060405160405180910390a3806000806101000a81548173ffffffffffffffffffffffffffffffffffffffff021916908373ffffffffffffffffffffffffffffffffffffffff16021790555050565b6000808284019050838110151515610afb57fe5b8091505092915050565b604051610d1480610b16833901905600608060405234801561001057600080fd5b50604051604080610d148339810180604052810190808051906020019092919080519060200190929190505050336000806101000a81548173ffffffffffffffffffffffffffffffffffffffff021916908373ffffffffffffffffffffffffffffffffffffffff160217905550428111151561008b57600080fd5b60008273ffffffffffffffffffffffffffffffffffffffff16141515156100b157600080fd5b8060048190555081600160006101000a81548173ffffffffffffffffffffffffffffffffffffffff021916908373ffffffffffffffffffffffffffffffffffffffff1602179055505050610c0a8061010a6000396000f3006080604052600436106100af576000357c0100000000000000000000000000000000000000000000000000000000900463ffffffff168063251c1aa3146100b457806355a373d6146100df57806370a08231146101365780637e1c0c091461018d57806387b0be48146101b85780638da5cb5b146101fb578063a4e2d63414610252578063b288d74814610281578063b7381a2c146102ae578063e4860339146102fb578063f2fde38b14610352575b600080fd5b3480156100c057600080fd5b506100c9610395565b6040518082815260200191505060405180910390f35b3480156100eb57600080fd5b506100f461039b565b604051808273ffffffffffffffffffffffffffffffffffffffff1673ffffffffffffffffffffffffffffffffffffffff16815260200191505060405180910390f35b34801561014257600080fd5b50610177600480360381019080803573ffffffffffffffffffffffffffffffffffffffff1690602001909291905050506103c1565b6040518082815260200191505060405180910390f35b34801561019957600080fd5b506101a261040a565b6040518082815260200191505060405180910390f35b3480156101c457600080fd5b506101f9600480360381019080803573ffffffffffffffffffffffffffffffffffffffff169060200190929190505050610410565b005b34801561020757600080fd5b506102106106ab565b604051808273ffffffffffffffffffffffffffffffffffffffff1673ffffffffffffffffffffffffffffffffffffffff16815260200191505060405180910390f35b34801561025e57600080fd5b506102676106d0565b604051808215151515815260200191505060405180910390f35b34801561028d57600080fd5b506102ac600480360381019080803590602001909291905050506106dc565b005b3480156102ba57600080fd5b506102f9600480360381019080803573ffffffffffffffffffffffffffffffffffffffff169060200190929190803590602001909291905050506107aa565b005b34801561030757600080fd5b5061033c600480360381019080803573ffffffffffffffffffffffffffffffffffffffff169060200190929190505050610a3a565b6040518082815260200191505060405180910390f35b34801561035e57600080fd5b50610393600480360381019080803573ffffffffffffffffffffffffffffffffffffffff169060200190929190505050610a52565b005b60045481565b600160009054906101000a900473ffffffffffffffffffffffffffffffffffffffff1681565b6000600260008373ffffffffffffffffffffffffffffffffffffffff1673ffffffffffffffffffffffffffffffffffffffff168152602001908152602001600020549050919050565b60035481565b600061041a6106d0565b15151561042657600080fd5b6000809054906101000a900473ffffffffffffffffffffffffffffffffffffffff1673ffffffffffffffffffffffffffffffffffffffff163373ffffffffffffffffffffffffffffffffffffffff1614806104ac57508173ffffffffffffffffffffffffffffffffffffffff163373ffffffffffffffffffffffffffffffffffffffff16145b15156104b757600080fd5b600260008373ffffffffffffffffffffffffffffffffffffffff1673ffffffffffffffffffffffffffffffffffffffff1681526020019081526020016000205490506000600260008473ffffffffffffffffffffffffffffffffffffffff1673ffffffffffffffffffffffffffffffffffffffff16815260200190815260200160002081905550600160009054906101000a900473ffffffffffffffffffffffffffffffffffffffff1673ffffffffffffffffffffffffffffffffffffffff1663a9059cbb83836040518363ffffffff167c0100000000000000000000000000000000000000000000000000000000028152600401808373ffffffffffffffffffffffffffffffffffffffff1673ffffffffffffffffffffffffffffffffffffffff16815260200182815260200192505050602060405180830381600087803b15801561060357600080fd5b505af1158015610617573d6000803e3d6000fd5b505050506040513d602081101561062d57600080fd5b8101908080519060200190929190505050151561064957600080fd5b61065e81600354610ba790919063ffffffff16565b6003819055508173ffffffffffffffffffffffffffffffffffffffff167f2b8b030b466a28f569a1aaf32d403aa99d8aaf8d915b06b75a607c2089eae50760405160405180910390a25050565b6000809054906101000a900473ffffffffffffffffffffffffffffffffffffffff1681565b60006004544210905090565b6000809054906101000a900473ffffffffffffffffffffffffffffffffffffffff1673ffffffffffffffffffffffffffffffffffffffff163373ffffffffffffffffffffffffffffffffffffffff1614151561073757600080fd5b61073f6106d0565b151561074a57600080fd5b42811015151561075957600080fd5b6004548110151561076957600080fd5b806004819055507fab9dfa812e732099fc613eefa5a007277fefe6b8379746e62819c7d23fecfd4c816040518082815260200191505060405180910390a150565b60008060009054906101000a900473ffffffffffffffffffffffffffffffffffffffff1673ffffffffffffffffffffffffffffffffffffffff163373ffffffffffffffffffffffffffffffffffffffff1614151561080757600080fd5b61080f6106d0565b151561081a57600080fd5b600160009054906101000a900473ffffffffffffffffffffffffffffffffffffffff1673ffffffffffffffffffffffffffffffffffffffff166370a08231306040518263ffffffff167c0100000000000000000000000000000000000000000000000000000000028152600401808273ffffffffffffffffffffffffffffffffffffffff1673ffffffffffffffffffffffffffffffffffffffff168152602001915050602060405180830381600087803b1580156108d757600080fd5b505af11580156108eb573d6000803e3d6000fd5b505050506040513d602081101561090157600080fd5b8101908080519060200190929190505050905061092982600354610bc090919063ffffffff16565b811015151561093757600080fd5b61098982600260008673ffffffffffffffffffffffffffffffffffffffff1673ffffffffffffffffffffffffffffffffffffffff16815260200190815260200160002054610bc090919063ffffffff16565b600260008573ffffffffffffffffffffffffffffffffffffffff1673ffffffffffffffffffffffffffffffffffffffff168152602001908152602001600020819055506109e182600354610bc090919063ffffffff16565b6003819055508273ffffffffffffffffffffffffffffffffffffffff167fe85617309c545775050fc95def797667e0f38b475c28e6596dbb9515fc726230836040518082815260200191505060405180910390a2505050565b60026020528060005260406000206000915090505481565b6000809054906101000a900473ffffffffffffffffffffffffffffffffffffffff1673ffffffffffffffffffffffffffffffffffffffff163373ffffffffffffffffffffffffffffffffffffffff16141515610aad57600080fd5b600073ffffffffffffffffffffffffffffffffffffffff168173ffffffffffffffffffffffffffffffffffffffff1614151515610ae957600080fd5b8073ffffffffffffffffffffffffffffffffffffffff166000809054906101000a900473ffffffffffffffffffffffffffffffffffffffff1673ffffffffffffffffffffffffffffffffffffffff167f8be0079c531659141344cd1fd0a4f28419497f9722a3daafe3b4186f6b6457e060405160405180910390a3806000806101000a81548173ffffffffffffffffffffffffffffffffffffffff021916908373ffffffffffffffffffffffffffffffffffffffff16021790555050565b6000828211151515610bb557fe5b818303905092915050565b6000808284019050838110151515610bd457fe5b80915050929150505600a165627a7a723058208f2a021f2b61bffd84f5cfa4b2e602b56bc12c31b9056f22906ea44a93594f8c0029a165627a7a72305820b91d50af316c8b749ac1f1fd3b68666f33f8649a2981f782660a8ceb73f4955b0029608060405234801561001057600080fd5b50604051606080611460833981018060405281019080805190602001909291908051906020019092919080519060200190929190505050336000806101000a81548173ffffffffffffffffffffffffffffffffffffffff021916908373ffffffffffffffffffffffffffffffffffffffff1602179055508260008173ffffffffffffffffffffffffffffffffffffffff16141515156100ae57600080fd5b8260008173ffffffffffffffffffffffffffffffffffffffff16141515156100d557600080fd5b8260008173ffffffffffffffffffffffffffffffffffffffff16141515156100fc57600080fd5b85600260006101000a81548173ffffffffffffffffffffffffffffffffffffffff021916908373ffffffffffffffffffffffffffffffffffffffff16021790555084600360006101000a81548173ffffffffffffffffffffffffffffffffffffffff021916908373ffffffffffffffffffffffffffffffffffffffff16021790555083600160006101000a81548173ffffffffffffffffffffffffffffffffffffffff021916908373ffffffffffffffffffffffffffffffffffffffff16021790555050505050505061128c806101d46000396000f3006080604052600436106100ba576000357c0100000000000000000000000000000000000000000000000000000000900463ffffffff16806307546172146100bf5780630d7bd21314610116578063141a8dd81461016d57806361d027b3146101c45780638da5cb5b1461021b5780639bd6952814610272578063ab0da5a9146102a8578063ad9a544a146102eb578063c2e2a33814610342578063daea85c514610359578063efa8bdc61461039c578063f2fde38b146103f3575b600080fd5b3480156100cb57600080fd5b506100d4610436565b604051808273ffffffffffffffffffffffffffffffffffffffff1673ffffffffffffffffffffffffffffffffffffffff16815260200191505060405180910390f35b34801561012257600080fd5b50610157600480360381019080803573ffffffffffffffffffffffffffffffffffffffff16906020019092919050505061045c565b6040518082815260200191505060405180910390f35b34801561017957600080fd5b50610182610474565b604051808273ffffffffffffffffffffffffffffffffffffffff1673ffffffffffffffffffffffffffffffffffffffff16815260200191505060405180910390f35b3480156101d057600080fd5b506101d961049a565b604051808273ffffffffffffffffffffffffffffffffffffffff1673ffffffffffffffffffffffffffffffffffffffff16815260200191505060405180910390f35b34801561022757600080fd5b506102306104c0565b604051808273ffffffffffffffffffffffffffffffffffffffff1673ffffffffffffffffffffffffffffffffffffffff16815260200191505060405180910390f35b6102a6600480360381019080803573ffffffffffffffffffffffffffffffffffffffff1690602001909291905050506104e5565b005b3480156102b457600080fd5b506102e9600480360381019080803573ffffffffffffffffffffffffffffffffffffffff169060200190929190505050610869565b005b3480156102f757600080fd5b5061032c600480360381019080803573ffffffffffffffffffffffffffffffffffffffff169060200190929190505050610bff565b6040518082815260200191505060405180910390f35b34801561034e57600080fd5b50610357610c17565b005b34801561036557600080fd5b5061039a600480360381019080803573ffffffffffffffffffffffffffffffffffffffff169060200190929190505050610cea565b005b3480156103a857600080fd5b506103dd600480360381019080803573ffffffffffffffffffffffffffffffffffffffff1690602001909291905050506110d5565b6040518082815260200191505060405180910390f35b3480156103ff57600080fd5b50610434600480360381019080803573ffffffffffffffffffffffffffffffffffffffff1690602001909291905050506110ed565b005b600260009054906101000a900473ffffffffffffffffffffffffffffffffffffffff1681565b60066020528060005260406000206000915090505481565b600360009054906101000a900473ffffffffffffffffffffffffffffffffffffffff1681565b600160009054906101000a900473ffffffffffffffffffffffffffffffffffffffff1681565b6000809054906101000a900473ffffffffffffffffffffffffffffffffffffffff1681565b60008060009054906101000a900473ffffffffffffffffffffffffffffffffffffffff1673ffffffffffffffffffffffffffffffffffffffff163373ffffffffffffffffffffffffffffffffffffffff1614151561054257600080fd5b600260009054906101000a900473ffffffffffffffffffffffffffffffffffffffff1673ffffffffffffffffffffffffffffffffffffffff1663819b25ba346040518263ffffffff167c010000000000000000000000000000000000000000000000000000000002815260040180828152602001915050600060405180830381600087803b1580156105d357600080fd5b505af11580156105e7573d6000803e3d6000fd5b50505050600260009054906101000a900473ffffffffffffffffffffffffffffffffffffffff1673ffffffffffffffffffffffffffffffffffffffff166362dbf261346040518263ffffffff167c010000000000000000000000000000000000000000000000000000000002815260040180828152602001915050602060405180830381600087803b15801561067c57600080fd5b505af1158015610690573d6000803e3d6000fd5b505050506040513d60208110156106a657600080fd5b810190808051906020019092919050505090506000811115156106c857600080fd5b7f63bd7f3b03e797fce7d949932c1e5cd2ac075c23c09b973791654272a224a2e7823483604051808473ffffffffffffffffffffffffffffffffffffffff1673ffffffffffffffffffffffffffffffffffffffff168152602001838152602001828152602001935050505060405180910390a161078d34600460008573ffffffffffffffffffffffffffffffffffffffff1673ffffffffffffffffffffffffffffffffffffffff1681526020019081526020016000205461124290919063ffffffff16565b600460008473ffffffffffffffffffffffffffffffffffffffff1673ffffffffffffffffffffffffffffffffffffffff1681526020019081526020016000208190555061082281600560008573ffffffffffffffffffffffffffffffffffffffff1673ffffffffffffffffffffffffffffffffffffffff1681526020019081526020016000205461124290919063ffffffff16565b600560008473ffffffffffffffffffffffffffffffffffffffff1673ffffffffffffffffffffffffffffffffffffffff168152602001908152602001600020819055505050565b600360009054906101000a900473ffffffffffffffffffffffffffffffffffffffff1673ffffffffffffffffffffffffffffffffffffffff163373ffffffffffffffffffffffffffffffffffffffff161415156108c557600080fd5b600260009054906101000a900473ffffffffffffffffffffffffffffffffffffffff1673ffffffffffffffffffffffffffffffffffffffff166376b5d926600460008473ffffffffffffffffffffffffffffffffffffffff1673ffffffffffffffffffffffffffffffffffffffff168152602001908152602001600020546040518263ffffffff167c010000000000000000000000000000000000000000000000000000000002815260040180828152602001915050600060405180830381600087803b15801561099557600080fd5b505af11580156109a9573d6000803e3d6000fd5b505050507fc7f4b721ced870d083a147ec74c6b48eb37782a273c7de61eba275a516b0b9fc81600460008473ffffffffffffffffffffffffffffffffffffffff1673ffffffffffffffffffffffffffffffffffffffff16815260200190815260200160002054600560008573ffffffffffffffffffffffffffffffffffffffff1673ffffffffffffffffffffffffffffffffffffffff16815260200190815260200160002054604051808473ffffffffffffffffffffffffffffffffffffffff1673ffffffffffffffffffffffffffffffffffffffff168152602001838152602001828152602001935050505060405180910390a1610b2f600460008373ffffffffffffffffffffffffffffffffffffffff1673ffffffffffffffffffffffffffffffffffffffff16815260200190815260200160002054600660008473ffffffffffffffffffffffffffffffffffffffff1673ffffffffffffffffffffffffffffffffffffffff1681526020019081526020016000205461124290919063ffffffff16565b600660008373ffffffffffffffffffffffffffffffffffffffff1673ffffffffffffffffffffffffffffffffffffffff168152602001908152602001600020819055506000600460008373ffffffffffffffffffffffffffffffffffffffff1673ffffffffffffffffffffffffffffffffffffffff168152602001908152602001600020819055506000600560008373ffffffffffffffffffffffffffffffffffffffff1673ffffffffffffffffffffffffffffffffffffffff1681526020019081526020016000208190555050565b60046020528060005260406000206000915090505481565b6000600660003373ffffffffffffffffffffffffffffffffffffffff1673ffffffffffffffffffffffffffffffffffffffff1681526020019081526020016000205490506000600660003373ffffffffffffffffffffffffffffffffffffffff1673ffffffffffffffffffffffffffffffffffffffff168152602001908152602001600020819055503373ffffffffffffffffffffffffffffffffffffffff166108fc829081150290604051600060405180830381858888f19350505050158015610ce6573d6000803e3d6000fd5b5050565b6000600360009054906101000a900473ffffffffffffffffffffffffffffffffffffffff1673ffffffffffffffffffffffffffffffffffffffff163373ffffffffffffffffffffffffffffffffffffffff16141515610d4857600080fd5b600260009054906101000a900473ffffffffffffffffffffffffffffffffffffffff1673ffffffffffffffffffffffffffffffffffffffff1663663f854983600460008673ffffffffffffffffffffffffffffffffffffffff1673ffffffffffffffffffffffffffffffffffffffff16815260200190815260200160002054600560008773ffffffffffffffffffffffffffffffffffffffff1673ffffffffffffffffffffffffffffffffffffffff168152602001908152602001600020546040518463ffffffff167c0100000000000000000000000000000000000000000000000000000000028152600401808473ffffffffffffffffffffffffffffffffffffffff1673ffffffffffffffffffffffffffffffffffffffff1681526020018381526020018281526020019350505050600060405180830381600087803b158015610e9357600080fd5b505af1158015610ea7573d6000803e3d6000fd5b505050507f6df4c963050304104a3060e9c1fd90c9364d38b6aa09da5b2b0e3215272b6fa582600460008573ffffffffffffffffffffffffffffffffffffffff1673ffffffffffffffffffffffffffffffffffffffff16815260200190815260200160002054600560008673ffffffffffffffffffffffffffffffffffffffff1673ffffffffffffffffffffffffffffffffffffffff16815260200190815260200160002054604051808473ffffffffffffffffffffffffffffffffffffffff1673ffffffffffffffffffffffffffffffffffffffff168152602001838152602001828152602001935050505060405180910390a1600460008373ffffffffffffffffffffffffffffffffffffffff1673ffffffffffffffffffffffffffffffffffffffff1681526020019081526020016000205490506000600460008473ffffffffffffffffffffffffffffffffffffffff1673ffffffffffffffffffffffffffffffffffffffff168152602001908152602001600020819055506000600560008473ffffffffffffffffffffffffffffffffffffffff1673ffffffffffffffffffffffffffffffffffffffff16815260200190815260200160002081905550600160009054906101000a900473ffffffffffffffffffffffffffffffffffffffff1673ffffffffffffffffffffffffffffffffffffffff166108fc829081150290604051600060405180830381858888f193505050501580156110d0573d6000803e3d6000fd5b505050565b60056020528060005260406000206000915090505481565b6000809054906101000a900473ffffffffffffffffffffffffffffffffffffffff1673ffffffffffffffffffffffffffffffffffffffff163373ffffffffffffffffffffffffffffffffffffffff1614151561114857600080fd5b600073ffffffffffffffffffffffffffffffffffffffff168173ffffffffffffffffffffffffffffffffffffffff161415151561118457600080fd5b8073ffffffffffffffffffffffffffffffffffffffff166000809054906101000a900473ffffffffffffffffffffffffffffffffffffffff1673ffffffffffffffffffffffffffffffffffffffff167f8be0079c531659141344cd1fd0a4f28419497f9722a3daafe3b4186f6b6457e060405160405180910390a3806000806101000a81548173ffffffffffffffffffffffffffffffffffffffff021916908373ffffffffffffffffffffffffffffffffffffffff16021790555050565b600080828401905083811015151561125657fe5b80915050929150505600a165627a7a72305820e8ff8e28056169b331a7f4d0ec4a170694173558be570cb47496522339e21fcd0029",
  "source": "pragma solidity ^0.4.24;\nimport \"zeppelin-solidity/contracts/math/SafeMath.sol\";\nimport \"zeppelin-solidity/contracts/ownership/Ownable.sol\";\nimport \"ethworks-solidity/contracts/LockingContract.sol\";\nimport \"ethworks-solidity/contracts/Whitelist.sol\";\nimport \"./Tge.sol\";\nimport \"./Minter.sol\";\nimport \"./DeferredKyc.sol\";\n\ncontract Crowdsale is Ownable {\n    using SafeMath for uint;\n\n    /* --- EVENTS --- */\n\n    event Bought(address indexed account, uint etherAmount);\n    event SaleNoted(address indexed account, uint etherAmount, uint tokenAmount);\n    event SaleLockedNoted(address indexed account, uint etherAmount, uint tokenAmount, uint lockingPeriod, address lockingContract);\n\n    /* --- FIELDS --- */\n\n    Minter public minter;\n    DeferredKyc public deferredKyc;\n\n    /* --- MODIFIERS --- */\n\n    modifier onlyValidAddress(address account) {\n        require(account != 0x0);\n        _;\n    }\n\n    /* --- CONSTRUCTOR --- */\n\n    constructor(Minter _minter, address _approver, address _treasury)\n        public\n        onlyValidAddress(address(_minter))\n        onlyValidAddress(_approver)\n        onlyValidAddress(_treasury)\n    {\n        minter = _minter;\n        deferredKyc = new DeferredKyc(_minter, _approver, _treasury);\n    }\n\n    /* --- PUBLIC / EXTERNAL METHODS --- */\n    \n    function buy() public payable {\n        deferredKyc.addToKyc.value(msg.value)(msg.sender);\n        emit Bought(msg.sender, msg.value);\n    }\n\n    function noteSale(address account, uint etherAmount, uint tokenAmount) public onlyOwner {\n        minter.mint(account, etherAmount, tokenAmount);\n        emit SaleNoted(account, etherAmount, tokenAmount);\n    }\n\n    function noteSaleLocked(address account, uint etherAmount, uint tokenAmount, uint lockingPeriod) public onlyOwner {\n        LockingContract lockingContract = new LockingContract(ERC20(minter.token()), now.add(lockingPeriod));\n        minter.mint(address(lockingContract), etherAmount, tokenAmount);\n        lockingContract.noteTokens(account, tokenAmount);\n        emit SaleLockedNoted(account, etherAmount, tokenAmount, lockingPeriod, address(lockingContract));\n    }\n}\n",
  "sourcePath": "/Users/przemek/Projects/allsporter/contracts/Crowdsale.sol",
  "compiler": {
    "name": "solc",
    "version": "0.4.24+commit.e67f0147.Emscripten.clang"
  },
  "schemaVersion": "2.0.0",
  "updatedAt": "2018-07-10T07:50:07.585Z"
}