{
  "contractName": "LockingContract",
  "abi": [
    {
      "constant": true,
      "inputs": [],
      "name": "unlockTime",
      "outputs": [
        {
          "name": "",
          "type": "uint256"
        }
      ],
      "payable": false,
      "stateMutability": "view",
      "type": "function"
    },
    {
      "constant": true,
      "inputs": [],
      "name": "tokenContract",
      "outputs": [
        {
          "name": "",
          "type": "address"
        }
      ],
      "payable": false,
      "stateMutability": "view",
      "type": "function"
    },
    {
      "constant": true,
      "inputs": [],
      "name": "totalTokens",
      "outputs": [
        {
          "name": "",
          "type": "uint256"
        }
      ],
      "payable": false,
      "stateMutability": "view",
      "type": "function"
    },
    {
      "constant": true,
      "inputs": [],
      "name": "owner",
      "outputs": [
        {
          "name": "",
          "type": "address"
        }
      ],
      "payable": false,
      "stateMutability": "view",
      "type": "function"
    },
    {
      "constant": true,
      "inputs": [
        {
          "name": "",
          "type": "address"
        }
      ],
      "name": "tokens",
      "outputs": [
        {
          "name": "",
          "type": "uint256"
        }
      ],
      "payable": false,
      "stateMutability": "view",
      "type": "function"
    },
    {
      "constant": false,
      "inputs": [
        {
          "name": "newOwner",
          "type": "address"
        }
      ],
      "name": "transferOwnership",
      "outputs": [],
      "payable": false,
      "stateMutability": "nonpayable",
      "type": "function"
    },
    {
      "inputs": [
        {
          "name": "_tokenContract",
          "type": "address"
        },
        {
          "name": "_unlockTime",
          "type": "uint256"
        }
      ],
      "payable": false,
      "stateMutability": "nonpayable",
      "type": "constructor"
    },
    {
      "anonymous": false,
      "inputs": [
        {
          "indexed": true,
          "name": "_beneficiary",
          "type": "address"
        },
        {
          "indexed": false,
          "name": "_tokenAmount",
          "type": "uint256"
        }
      ],
      "name": "NotedTokens",
      "type": "event"
    },
    {
      "anonymous": false,
      "inputs": [
        {
          "indexed": true,
          "name": "_beneficiary",
          "type": "address"
        }
      ],
      "name": "ReleasedTokens",
      "type": "event"
    },
    {
      "anonymous": false,
      "inputs": [
        {
          "indexed": false,
          "name": "_newUnlockTime",
          "type": "uint256"
        }
      ],
      "name": "ReducedLockingTime",
      "type": "event"
    },
    {
      "anonymous": false,
      "inputs": [
        {
          "indexed": true,
          "name": "previousOwner",
          "type": "address"
        },
        {
          "indexed": true,
          "name": "newOwner",
          "type": "address"
        }
      ],
      "name": "OwnershipTransferred",
      "type": "event"
    },
    {
      "constant": true,
      "inputs": [],
      "name": "isLocked",
      "outputs": [
        {
          "name": "",
          "type": "bool"
        }
      ],
      "payable": false,
      "stateMutability": "view",
      "type": "function"
    },
    {
      "constant": true,
      "inputs": [
        {
          "name": "_owner",
          "type": "address"
        }
      ],
      "name": "balanceOf",
      "outputs": [
        {
          "name": "balance",
          "type": "uint256"
        }
      ],
      "payable": false,
      "stateMutability": "view",
      "type": "function"
    },
    {
      "constant": false,
      "inputs": [
        {
          "name": "_beneficiary",
          "type": "address"
        },
        {
          "name": "_tokenAmount",
          "type": "uint256"
        }
      ],
      "name": "noteTokens",
      "outputs": [],
      "payable": false,
      "stateMutability": "nonpayable",
      "type": "function"
    },
    {
      "constant": false,
      "inputs": [
        {
          "name": "_beneficiary",
          "type": "address"
        }
      ],
      "name": "releaseTokens",
      "outputs": [],
      "payable": false,
      "stateMutability": "nonpayable",
      "type": "function"
    },
    {
      "constant": false,
      "inputs": [
        {
          "name": "_newUnlockTime",
          "type": "uint256"
        }
      ],
      "name": "reduceLockingTime",
      "outputs": [],
      "payable": false,
      "stateMutability": "nonpayable",
      "type": "function"
    }
  ],
  "bytecode": "0x608060405234801561001057600080fd5b50604051604080610d148339810180604052810190808051906020019092919080519060200190929190505050336000806101000a81548173ffffffffffffffffffffffffffffffffffffffff021916908373ffffffffffffffffffffffffffffffffffffffff160217905550428111151561008b57600080fd5b60008273ffffffffffffffffffffffffffffffffffffffff16141515156100b157600080fd5b8060048190555081600160006101000a81548173ffffffffffffffffffffffffffffffffffffffff021916908373ffffffffffffffffffffffffffffffffffffffff1602179055505050610c0a8061010a6000396000f3006080604052600436106100af576000357c0100000000000000000000000000000000000000000000000000000000900463ffffffff168063251c1aa3146100b457806355a373d6146100df57806370a08231146101365780637e1c0c091461018d57806387b0be48146101b85780638da5cb5b146101fb578063a4e2d63414610252578063b288d74814610281578063b7381a2c146102ae578063e4860339146102fb578063f2fde38b14610352575b600080fd5b3480156100c057600080fd5b506100c9610395565b6040518082815260200191505060405180910390f35b3480156100eb57600080fd5b506100f461039b565b604051808273ffffffffffffffffffffffffffffffffffffffff1673ffffffffffffffffffffffffffffffffffffffff16815260200191505060405180910390f35b34801561014257600080fd5b50610177600480360381019080803573ffffffffffffffffffffffffffffffffffffffff1690602001909291905050506103c1565b6040518082815260200191505060405180910390f35b34801561019957600080fd5b506101a261040a565b6040518082815260200191505060405180910390f35b3480156101c457600080fd5b506101f9600480360381019080803573ffffffffffffffffffffffffffffffffffffffff169060200190929190505050610410565b005b34801561020757600080fd5b506102106106ab565b604051808273ffffffffffffffffffffffffffffffffffffffff1673ffffffffffffffffffffffffffffffffffffffff16815260200191505060405180910390f35b34801561025e57600080fd5b506102676106d0565b604051808215151515815260200191505060405180910390f35b34801561028d57600080fd5b506102ac600480360381019080803590602001909291905050506106dc565b005b3480156102ba57600080fd5b506102f9600480360381019080803573ffffffffffffffffffffffffffffffffffffffff169060200190929190803590602001909291905050506107aa565b005b34801561030757600080fd5b5061033c600480360381019080803573ffffffffffffffffffffffffffffffffffffffff169060200190929190505050610a3a565b6040518082815260200191505060405180910390f35b34801561035e57600080fd5b50610393600480360381019080803573ffffffffffffffffffffffffffffffffffffffff169060200190929190505050610a52565b005b60045481565b600160009054906101000a900473ffffffffffffffffffffffffffffffffffffffff1681565b6000600260008373ffffffffffffffffffffffffffffffffffffffff1673ffffffffffffffffffffffffffffffffffffffff168152602001908152602001600020549050919050565b60035481565b600061041a6106d0565b15151561042657600080fd5b6000809054906101000a900473ffffffffffffffffffffffffffffffffffffffff1673ffffffffffffffffffffffffffffffffffffffff163373ffffffffffffffffffffffffffffffffffffffff1614806104ac57508173ffffffffffffffffffffffffffffffffffffffff163373ffffffffffffffffffffffffffffffffffffffff16145b15156104b757600080fd5b600260008373ffffffffffffffffffffffffffffffffffffffff1673ffffffffffffffffffffffffffffffffffffffff1681526020019081526020016000205490506000600260008473ffffffffffffffffffffffffffffffffffffffff1673ffffffffffffffffffffffffffffffffffffffff16815260200190815260200160002081905550600160009054906101000a900473ffffffffffffffffffffffffffffffffffffffff1673ffffffffffffffffffffffffffffffffffffffff1663a9059cbb83836040518363ffffffff167c0100000000000000000000000000000000000000000000000000000000028152600401808373ffffffffffffffffffffffffffffffffffffffff1673ffffffffffffffffffffffffffffffffffffffff16815260200182815260200192505050602060405180830381600087803b15801561060357600080fd5b505af1158015610617573d6000803e3d6000fd5b505050506040513d602081101561062d57600080fd5b8101908080519060200190929190505050151561064957600080fd5b61065e81600354610ba790919063ffffffff16565b6003819055508173ffffffffffffffffffffffffffffffffffffffff167f2b8b030b466a28f569a1aaf32d403aa99d8aaf8d915b06b75a607c2089eae50760405160405180910390a25050565b6000809054906101000a900473ffffffffffffffffffffffffffffffffffffffff1681565b60006004544210905090565b6000809054906101000a900473ffffffffffffffffffffffffffffffffffffffff1673ffffffffffffffffffffffffffffffffffffffff163373ffffffffffffffffffffffffffffffffffffffff1614151561073757600080fd5b61073f6106d0565b151561074a57600080fd5b42811015151561075957600080fd5b6004548110151561076957600080fd5b806004819055507fab9dfa812e732099fc613eefa5a007277fefe6b8379746e62819c7d23fecfd4c816040518082815260200191505060405180910390a150565b60008060009054906101000a900473ffffffffffffffffffffffffffffffffffffffff1673ffffffffffffffffffffffffffffffffffffffff163373ffffffffffffffffffffffffffffffffffffffff1614151561080757600080fd5b61080f6106d0565b151561081a57600080fd5b600160009054906101000a900473ffffffffffffffffffffffffffffffffffffffff1673ffffffffffffffffffffffffffffffffffffffff166370a08231306040518263ffffffff167c0100000000000000000000000000000000000000000000000000000000028152600401808273ffffffffffffffffffffffffffffffffffffffff1673ffffffffffffffffffffffffffffffffffffffff168152602001915050602060405180830381600087803b1580156108d757600080fd5b505af11580156108eb573d6000803e3d6000fd5b505050506040513d602081101561090157600080fd5b8101908080519060200190929190505050905061092982600354610bc090919063ffffffff16565b811015151561093757600080fd5b61098982600260008673ffffffffffffffffffffffffffffffffffffffff1673ffffffffffffffffffffffffffffffffffffffff16815260200190815260200160002054610bc090919063ffffffff16565b600260008573ffffffffffffffffffffffffffffffffffffffff1673ffffffffffffffffffffffffffffffffffffffff168152602001908152602001600020819055506109e182600354610bc090919063ffffffff16565b6003819055508273ffffffffffffffffffffffffffffffffffffffff167fe85617309c545775050fc95def797667e0f38b475c28e6596dbb9515fc726230836040518082815260200191505060405180910390a2505050565b60026020528060005260406000206000915090505481565b6000809054906101000a900473ffffffffffffffffffffffffffffffffffffffff1673ffffffffffffffffffffffffffffffffffffffff163373ffffffffffffffffffffffffffffffffffffffff16141515610aad57600080fd5b600073ffffffffffffffffffffffffffffffffffffffff168173ffffffffffffffffffffffffffffffffffffffff1614151515610ae957600080fd5b8073ffffffffffffffffffffffffffffffffffffffff166000809054906101000a900473ffffffffffffffffffffffffffffffffffffffff1673ffffffffffffffffffffffffffffffffffffffff167f8be0079c531659141344cd1fd0a4f28419497f9722a3daafe3b4186f6b6457e060405160405180910390a3806000806101000a81548173ffffffffffffffffffffffffffffffffffffffff021916908373ffffffffffffffffffffffffffffffffffffffff16021790555050565b6000828211151515610bb557fe5b818303905092915050565b6000808284019050838110151515610bd457fe5b80915050929150505600a165627a7a723058208f2a021f2b61bffd84f5cfa4b2e602b56bc12c31b9056f22906ea44a93594f8c0029",
  "source": "pragma solidity ^0.4.19;\nimport \"zeppelin-solidity/contracts/ownership/Ownable.sol\";\nimport \"zeppelin-solidity/contracts/token/ERC20/ERC20.sol\";\nimport \"zeppelin-solidity/contracts/math/SafeMath.sol\";\n\ncontract LockingContract is Ownable {\n    using SafeMath for uint256;\n\n    event NotedTokens(address indexed _beneficiary, uint256 _tokenAmount);\n    event ReleasedTokens(address indexed _beneficiary);\n    event ReducedLockingTime(uint256 _newUnlockTime);\n\n    ERC20 public tokenContract;\n    mapping(address => uint256) public tokens;\n    uint256 public totalTokens;\n    uint256 public unlockTime;\n\n    function isLocked() public view returns(bool) {\n        return now < unlockTime;\n    }\n\n    modifier onlyWhenUnlocked() {\n        require(!isLocked());\n        _;\n    }\n\n    modifier onlyWhenLocked() {\n        require(isLocked());\n        _;\n    }\n\n    function LockingContract(ERC20 _tokenContract, uint256 _unlockTime) public {\n        require(_unlockTime > now);\n        require(address(_tokenContract) != 0x0);\n        unlockTime = _unlockTime;\n        tokenContract = _tokenContract;\n    }\n\n    function balanceOf(address _owner) public view returns (uint256 balance) {\n        return tokens[_owner];\n    }\n\n    // Should only be done from another contract.\n    // To ensure that the LockingContract can release all noted tokens later,\n    // one should mint/transfer tokens to the LockingContract's account prior to noting\n    function noteTokens(address _beneficiary, uint256 _tokenAmount) external onlyOwner onlyWhenLocked {\n        uint256 tokenBalance = tokenContract.balanceOf(this);\n        require(tokenBalance >= totalTokens.add(_tokenAmount));\n\n        tokens[_beneficiary] = tokens[_beneficiary].add(_tokenAmount);\n        totalTokens = totalTokens.add(_tokenAmount);\n        emit NotedTokens(_beneficiary, _tokenAmount);\n    }\n\n    function releaseTokens(address _beneficiary) public onlyWhenUnlocked {\n        require(msg.sender == owner || msg.sender == _beneficiary);\n        uint256 amount = tokens[_beneficiary];\n        tokens[_beneficiary] = 0;\n        require(tokenContract.transfer(_beneficiary, amount)); \n        totalTokens = totalTokens.sub(amount);\n        emit ReleasedTokens(_beneficiary);\n    }\n\n    function reduceLockingTime(uint256 _newUnlockTime) public onlyOwner onlyWhenLocked {\n        require(_newUnlockTime >= now);\n        require(_newUnlockTime < unlockTime);\n        unlockTime = _newUnlockTime;\n        emit ReducedLockingTime(_newUnlockTime);\n    }\n}\n",
  "sourcePath": "ethworks-solidity/contracts/LockingContract.sol",
  "compiler": {
    "name": "solc",
    "version": "0.4.24+commit.e67f0147.Emscripten.clang"
  },
  "schemaVersion": "2.0.1",
  "updatedAt": "2018-07-18T15:14:01.659Z"
}