{
  "contractName": "PricingMock",
  "abi": [
    {
      "constant": true,
      "inputs": [],
      "name": "secondStateAfter",
      "outputs": [
        {
          "name": "",
          "type": "uint256"
        }
      ],
      "payable": false,
      "stateMutability": "view",
      "type": "function"
    },
    {
      "constant": true,
      "inputs": [],
      "name": "firstStateMultiplier",
      "outputs": [
        {
          "name": "",
          "type": "uint256"
        }
      ],
      "payable": false,
      "stateMutability": "view",
      "type": "function"
    },
    {
      "constant": true,
      "inputs": [],
      "name": "secondStateMultiplier",
      "outputs": [
        {
          "name": "",
          "type": "uint256"
        }
      ],
      "payable": false,
      "stateMutability": "view",
      "type": "function"
    },
    {
      "constant": true,
      "inputs": [
        {
          "name": "",
          "type": "address"
        }
      ],
      "name": "allStateMinters",
      "outputs": [
        {
          "name": "",
          "type": "bool"
        }
      ],
      "payable": false,
      "stateMutability": "view",
      "type": "function"
    },
    {
      "constant": true,
      "inputs": [],
      "name": "firstStateMinter",
      "outputs": [
        {
          "name": "",
          "type": "address"
        }
      ],
      "payable": false,
      "stateMutability": "view",
      "type": "function"
    },
    {
      "constant": true,
      "inputs": [],
      "name": "secondStateMinter",
      "outputs": [
        {
          "name": "",
          "type": "address"
        }
      ],
      "payable": false,
      "stateMutability": "view",
      "type": "function"
    },
    {
      "constant": true,
      "inputs": [],
      "name": "secondState",
      "outputs": [
        {
          "name": "",
          "type": "bool"
        }
      ],
      "payable": false,
      "stateMutability": "view",
      "type": "function"
    },
    {
      "inputs": [
        {
          "name": "_firstStateMinter",
          "type": "address"
        },
        {
          "name": "_secondStateMinter",
          "type": "address"
        }
      ],
      "payable": false,
      "stateMutability": "nonpayable",
      "type": "constructor"
    },
    {
      "constant": false,
      "inputs": [
        {
          "name": "account",
          "type": "address"
        }
      ],
      "name": "addAllStateMinter",
      "outputs": [],
      "payable": false,
      "stateMutability": "nonpayable",
      "type": "function"
    },
    {
      "constant": true,
      "inputs": [
        {
          "name": "etherAmount",
          "type": "uint256"
        }
      ],
      "name": "getTokensForEther",
      "outputs": [
        {
          "name": "",
          "type": "uint256"
        }
      ],
      "payable": false,
      "stateMutability": "view",
      "type": "function"
    },
    {
      "constant": false,
      "inputs": [
        {
          "name": "account",
          "type": "address"
        },
        {
          "name": "totalEtherAmount",
          "type": "uint256"
        }
      ],
      "name": "canMint",
      "outputs": [
        {
          "name": "",
          "type": "bool"
        }
      ],
      "payable": false,
      "stateMutability": "nonpayable",
      "type": "function"
    },
    {
      "constant": true,
      "inputs": [],
      "name": "getMinimumContribution",
      "outputs": [
        {
          "name": "",
          "type": "uint256"
        }
      ],
      "payable": false,
      "stateMutability": "view",
      "type": "function"
    }
  ],
  "bytecode": "0x608060405260028055600380556000600460006101000a81548160ff021916908315150217905550678ac7230489e8000060055534801561003f57600080fd5b506040516040806107828339810180604052810190808051906020019092919080519060200190929190505050816000806101000a81548173ffffffffffffffffffffffffffffffffffffffff021916908373ffffffffffffffffffffffffffffffffffffffff16021790555080600160006101000a81548173ffffffffffffffffffffffffffffffffffffffff021916908373ffffffffffffffffffffffffffffffffffffffff1602179055505050610684806100fe6000396000f3006080604052600436106100af576000357c0100000000000000000000000000000000000000000000000000000000900463ffffffff1680630d5e34a4146100b457806315edc0da1461011957806340d64b14146101445780634b6ea3041461018757806362dbf261146101b257806387f9b612146101f357806397e806ef1461021e578063daaf7af614610279578063dd1e5a06146102d0578063df8e617914610327578063f84038b114610356575b600080fd5b3480156100c057600080fd5b506100ff600480360381019080803573ffffffffffffffffffffffffffffffffffffffff16906020019092919080359060200190929190505050610381565b604051808215151515815260200191505060405180910390f35b34801561012557600080fd5b5061012e6104af565b6040518082815260200191505060405180910390f35b34801561015057600080fd5b50610185600480360381019080803573ffffffffffffffffffffffffffffffffffffffff1690602001909291905050506104b5565b005b34801561019357600080fd5b5061019c610510565b6040518082815260200191505060405180910390f35b3480156101be57600080fd5b506101dd60048036038101908080359060200190929190505050610516565b6040518082815260200191505060405180910390f35b3480156101ff57600080fd5b50610208610566565b6040518082815260200191505060405180910390f35b34801561022a57600080fd5b5061025f600480360381019080803573ffffffffffffffffffffffffffffffffffffffff16906020019092919050505061056c565b604051808215151515815260200191505060405180910390f35b34801561028557600080fd5b5061028e61058c565b604051808273ffffffffffffffffffffffffffffffffffffffff1673ffffffffffffffffffffffffffffffffffffffff16815260200191505060405180910390f35b3480156102dc57600080fd5b506102e56105b1565b604051808273ffffffffffffffffffffffffffffffffffffffff1673ffffffffffffffffffffffffffffffffffffffff16815260200191505060405180910390f35b34801561033357600080fd5b5061033c6105d7565b604051808215151515815260200191505060405180910390f35b34801561036257600080fd5b5061036b6105ea565b6040518082815260200191505060405180910390f35b60008060009050600460009054906101000a900460ff16156103f557600160009054906101000a900473ffffffffffffffffffffffffffffffffffffffff1673ffffffffffffffffffffffffffffffffffffffff168473ffffffffffffffffffffffffffffffffffffffff16149050610448565b6000809054906101000a900473ffffffffffffffffffffffffffffffffffffffff1673ffffffffffffffffffffffffffffffffffffffff168473ffffffffffffffffffffffffffffffffffffffff161490505b610451836105f3565b80806104a65750600660008573ffffffffffffffffffffffffffffffffffffffff1673ffffffffffffffffffffffffffffffffffffffff16815260200190815260200160002060009054906101000a900460ff165b91505092915050565b60055481565b6001600660008373ffffffffffffffffffffffffffffffffffffffff1673ffffffffffffffffffffffffffffffffffffffff16815260200190815260200160002060006101000a81548160ff02191690831515021790555050565b60025481565b6000600460009054906101000a900460ff1615610549576105426003548361061d90919063ffffffff16565b9050610561565b61055e6002548361061d90919063ffffffff16565b90505b919050565b60035481565b60066020528060005260406000206000915054906101000a900460ff1681565b6000809054906101000a900473ffffffffffffffffffffffffffffffffffffffff1681565b600160009054906101000a900473ffffffffffffffffffffffffffffffffffffffff1681565b600460009054906101000a900460ff1681565b6000600a905090565b6005548110151561061a576001600460006101000a81548160ff0219169083151502179055505b50565b60008060008414156106325760009150610651565b828402905082848281151561064357fe5b0414151561064d57fe5b8091505b50929150505600a165627a7a723058205bf31ee35d342ee52d277caa1e32ff9db38b9ed0251ced156c8cee90640da7ad0029",
  "source": "pragma solidity ^0.4.19;\nimport \"zeppelin-solidity/contracts/ownership/Ownable.sol\";\nimport \"zeppelin-solidity/contracts/math/SafeMath.sol\";\nimport \"./IPricing.sol\";\n\ncontract PricingMock is IPricing {\n    using SafeMath for uint;\n    address public firstStateMinter;\n    address public secondStateMinter;\n    uint public firstStateMultiplier = 2;\n    uint public secondStateMultiplier = 3;\n    bool public secondState = false;\n    uint public secondStateAfter = 10 * 1e18;\n    mapping(address => bool) public allStateMinters;\n\n    function PricingMock(address _firstStateMinter, address _secondStateMinter) public {\n        firstStateMinter = _firstStateMinter;\n        secondStateMinter = _secondStateMinter;\n    }\n\n    function addAllStateMinter(address account) public {\n        allStateMinters[account] = true;\n    }\n\n    function getTokensForEther(uint etherAmount) public view returns(uint) {\n        if (secondState) {\n            return etherAmount.mul(secondStateMultiplier);\n        }\n        return etherAmount.mul(firstStateMultiplier);\n    }\n\n    function updateState(uint totalEtherAmount) internal {\n        if (totalEtherAmount >= secondStateAfter) {\n            secondState = true;\n        }\n    }\n\n    function canMint(address account, uint totalEtherAmount) public returns(bool) {\n        bool result = false;\n        if (secondState) {\n            result = account == secondStateMinter;\n        }\n        else result = account == firstStateMinter;\n        updateState(totalEtherAmount);\n        return result || allStateMinters[account];\n    }\n\n    function getMinimumContribution() public view returns(uint) {\n        return 10;\n    }\n}\n",
  "sourcePath": "/Users/przemek/Projects/allsporter/contracts/PricingMock.sol",
  "compiler": {
    "name": "solc",
    "version": "0.4.23+commit.124ca40d.Emscripten.clang"
  },
  "schemaVersion": "2.0.0",
  "updatedAt": "2018-05-10T07:17:03.113Z"
}