{
  "contractName": "ReferralManager",
  "abi": [
    {
      "constant": true,
      "inputs": [],
      "name": "minter",
      "outputs": [
        {
          "name": "",
          "type": "address"
        }
      ],
      "payable": false,
      "stateMutability": "view",
      "type": "function"
    },
    {
      "constant": true,
      "inputs": [],
      "name": "ETHER_AMOUNT",
      "outputs": [
        {
          "name": "",
          "type": "uint256"
        }
      ],
      "payable": false,
      "stateMutability": "view",
      "type": "function"
    },
    {
      "constant": true,
      "inputs": [],
      "name": "owner",
      "outputs": [
        {
          "name": "",
          "type": "address"
        }
      ],
      "payable": false,
      "stateMutability": "view",
      "type": "function"
    },
    {
      "constant": true,
      "inputs": [],
      "name": "MAXIMUM_PERCENT",
      "outputs": [
        {
          "name": "",
          "type": "uint256"
        }
      ],
      "payable": false,
      "stateMutability": "view",
      "type": "function"
    },
    {
      "constant": false,
      "inputs": [
        {
          "name": "newOwner",
          "type": "address"
        }
      ],
      "name": "transferOwnership",
      "outputs": [],
      "payable": false,
      "stateMutability": "nonpayable",
      "type": "function"
    },
    {
      "inputs": [
        {
          "name": "_minter",
          "type": "address"
        }
      ],
      "payable": false,
      "stateMutability": "nonpayable",
      "type": "constructor"
    },
    {
      "anonymous": false,
      "inputs": [
        {
          "indexed": true,
          "name": "account",
          "type": "address"
        },
        {
          "indexed": false,
          "name": "tokenAmount",
          "type": "uint256"
        }
      ],
      "name": "FeeAdded",
      "type": "event"
    },
    {
      "anonymous": false,
      "inputs": [
        {
          "indexed": true,
          "name": "previousOwner",
          "type": "address"
        },
        {
          "indexed": true,
          "name": "newOwner",
          "type": "address"
        }
      ],
      "name": "OwnershipTransferred",
      "type": "event"
    },
    {
      "constant": false,
      "inputs": [
        {
          "name": "referring",
          "type": "address"
        },
        {
          "name": "referringPercent",
          "type": "uint256"
        },
        {
          "name": "referred",
          "type": "address"
        },
        {
          "name": "referredPercent",
          "type": "uint256"
        }
      ],
      "name": "addFee",
      "outputs": [],
      "payable": false,
      "stateMutability": "nonpayable",
      "type": "function"
    }
  ],
  "bytecode": "0x608060405234801561001057600080fd5b50604051602080610a2a83398101806040528101908080519060200190929190505050336000806101000a81548173ffffffffffffffffffffffffffffffffffffffff021916908373ffffffffffffffffffffffffffffffffffffffff1602179055508060008173ffffffffffffffffffffffffffffffffffffffff161415151561009a57600080fd5b81600160006101000a81548173ffffffffffffffffffffffffffffffffffffffff021916908373ffffffffffffffffffffffffffffffffffffffff160217905550505061093e806100ec6000396000f300608060405260043610610078576000357c0100000000000000000000000000000000000000000000000000000000900463ffffffff168063075461721461007d5780633dd7609a146100d45780638da5cb5b146100ff578063e11f639814610156578063f1e298c314610181578063f2fde38b146101f8575b600080fd5b34801561008957600080fd5b5061009261023b565b604051808273ffffffffffffffffffffffffffffffffffffffff1673ffffffffffffffffffffffffffffffffffffffff16815260200191505060405180910390f35b3480156100e057600080fd5b506100e9610261565b6040518082815260200191505060405180910390f35b34801561010b57600080fd5b50610114610266565b604051808273ffffffffffffffffffffffffffffffffffffffff1673ffffffffffffffffffffffffffffffffffffffff16815260200191505060405180910390f35b34801561016257600080fd5b5061016b61028b565b6040518082815260200191505060405180910390f35b34801561018d57600080fd5b506101f6600480360381019080803573ffffffffffffffffffffffffffffffffffffffff16906020019092919080359060200190929190803573ffffffffffffffffffffffffffffffffffffffff16906020019092919080359060200190929190505050610290565b005b34801561020457600080fd5b50610239600480360381019080803573ffffffffffffffffffffffffffffffffffffffff169060200190929190505050610603565b005b600160009054906101000a900473ffffffffffffffffffffffffffffffffffffffff1681565b600081565b6000809054906101000a900473ffffffffffffffffffffffffffffffffffffffff1681565b600581565b60008060009054906101000a900473ffffffffffffffffffffffffffffffffffffffff1673ffffffffffffffffffffffffffffffffffffffff163373ffffffffffffffffffffffffffffffffffffffff161415156102ed57600080fd5b8460008173ffffffffffffffffffffffffffffffffffffffff161415151561031457600080fd5b8360008173ffffffffffffffffffffffffffffffffffffffff161415151561033b57600080fd5b856000811015801561034e575060648111155b151561035957600080fd5b6005811115151561036957600080fd5b846000811015801561037c575060648111155b151561038757600080fd5b6005811115151561039757600080fd5b86600260008273ffffffffffffffffffffffffffffffffffffffff1673ffffffffffffffffffffffffffffffffffffffff16815260200190815260200160002060009054906101000a900460ff161515156103f157600080fd5b6001600260008a73ffffffffffffffffffffffffffffffffffffffff1673ffffffffffffffffffffffffffffffffffffffff16815260200190815260200160002060006101000a81548160ff021916908315150217905550600160009054906101000a900473ffffffffffffffffffffffffffffffffffffffff1673ffffffffffffffffffffffffffffffffffffffff1663fc0c546a6040518163ffffffff167c0100000000000000000000000000000000000000000000000000000000028152600401602060405180830381600087803b1580156104cf57600080fd5b505af11580156104e3573d6000803e3d6000fd5b505050506040513d60208110156104f957600080fd5b810190808051906020019092919050505073ffffffffffffffffffffffffffffffffffffffff166370a08231896040518263ffffffff167c0100000000000000000000000000000000000000000000000000000000028152600401808273ffffffffffffffffffffffffffffffffffffffff1673ffffffffffffffffffffffffffffffffffffffff168152602001915050602060405180830381600087803b1580156105a457600080fd5b505af11580156105b8573d6000803e3d6000fd5b505050506040513d60208110156105ce57600080fd5b810190808051906020019092919050505095506105ec8a878b610758565b6105f7888789610758565b50505050505050505050565b6000809054906101000a900473ffffffffffffffffffffffffffffffffffffffff1673ffffffffffffffffffffffffffffffffffffffff163373ffffffffffffffffffffffffffffffffffffffff1614151561065e57600080fd5b600073ffffffffffffffffffffffffffffffffffffffff168173ffffffffffffffffffffffffffffffffffffffff161415151561069a57600080fd5b8073ffffffffffffffffffffffffffffffffffffffff166000809054906101000a900473ffffffffffffffffffffffffffffffffffffffff1673ffffffffffffffffffffffffffffffffffffffff167f8be0079c531659141344cd1fd0a4f28419497f9722a3daafe3b4186f6b6457e060405160405180910390a3806000806101000a81548173ffffffffffffffffffffffffffffffffffffffff021916908373ffffffffffffffffffffffffffffffffffffffff16021790555050565b6000610780826107726064866108bc90919063ffffffff16565b6108d790919063ffffffff16565b9050600160009054906101000a900473ffffffffffffffffffffffffffffffffffffffff1673ffffffffffffffffffffffffffffffffffffffff1663156e29f6856000846040518463ffffffff167c0100000000000000000000000000000000000000000000000000000000028152600401808473ffffffffffffffffffffffffffffffffffffffff1673ffffffffffffffffffffffffffffffffffffffff1681526020018381526020018281526020019350505050600060405180830381600087803b15801561085057600080fd5b505af1158015610864573d6000803e3d6000fd5b505050508373ffffffffffffffffffffffffffffffffffffffff167fbf2b46285c2ba2766660d9f8cfafdb8abd51bbba1f29c584b7dd34ecf853dd4c826040518082815260200191505060405180910390a250505050565b60008082848115156108ca57fe5b0490508091505092915050565b60008060008414156108ec576000915061090b565b82840290508284828115156108fd57fe5b0414151561090757fe5b8091505b50929150505600a165627a7a723058201a01d672c239b6b8faf8e91e1fd0758b41eab17fdc7d75bd9dff6d726d44163b0029",
  "source": "pragma solidity ^0.4.24;\nimport \"zeppelin-solidity/contracts/math/SafeMath.sol\";\nimport \"zeppelin-solidity/contracts/ownership/Ownable.sol\";\nimport \"ethworks-solidity/contracts/LockingContract.sol\";\nimport \"ethworks-solidity/contracts/Whitelist.sol\";\nimport \"./Tge.sol\";\nimport \"./Minter.sol\";\nimport \"./DeferredKyc.sol\";\n\ncontract ReferralManager is Ownable {\n    using SafeMath for uint;\n\n    /* --- CONSTANTS --- */\n\n    uint constant public ETHER_AMOUNT = 0;\n    uint constant public MAXIMUM_PERCENT = 5;\n\n    /* --- EVENTS --- */\n\n    event FeeAdded(address indexed account, uint tokenAmount);\n\n    /* --- FIELDS --- */\n\n    Minter public minter;\n    mapping(address => bool) alreadyReferred;\n\n    /* --- MODIFIERS --- */\n\n    modifier notAlreadyReferred(address account) {\n        require(!alreadyReferred[account]);\n        _;\n    }\n\n    modifier onlyValidPercent(uint percent) {\n        require(percent >= 0 && percent <= 100);\n        require(percent <= MAXIMUM_PERCENT);\n        _;\n    }\n\n    modifier onlyValidAddress(address account) {\n        require(account != 0x0);\n        _;\n    }\n\n    /* --- CONSTRUCTOR --- */\n\n    constructor(Minter _minter) public onlyValidAddress(address(_minter)) {\n        minter = _minter;\n    }\n\n    /* --- PUBLIC / EXTERNAL METHODS --- */\n\n    function addFee(address referring, uint referringPercent, address referred, uint referredPercent)\n        external\n        onlyOwner\n        onlyValidAddress(referring)\n        onlyValidAddress(referred)\n        onlyValidPercent(referringPercent)\n        onlyValidPercent(referredPercent)\n        notAlreadyReferred(referred)\n    {\n        alreadyReferred[referred] = true;\n        uint baseContribution = minter.token().balanceOf(referred);\n        applyFee(referring, baseContribution, referringPercent);\n        applyFee(referred, baseContribution, referredPercent);\n    }\n\n    /* --- INTERNAL METHODS --- */\n\n    function applyFee(address account, uint baseContribution, uint percent) internal {\n        uint tokensDue = baseContribution.div(100).mul(percent);\n        minter.mint(account, ETHER_AMOUNT, tokensDue);\n        emit FeeAdded(account, tokensDue);\n    }\n}\n",
  "sourcePath": "/Users/przemek/Projects/allsporter/contracts/ReferralManager.sol",
  "compiler": {
    "name": "solc",
    "version": "0.4.24+commit.e67f0147.Emscripten.clang"
  },
  "schemaVersion": "2.0.0",
  "updatedAt": "2018-06-18T13:27:28.991Z"
}