{
  "contractName": "Tge",
  "abi": [
    {
      "constant": true,
      "inputs": [],
      "name": "currentState",
      "outputs": [
        {
          "name": "",
          "type": "uint8"
        }
      ],
      "payable": false,
      "stateMutability": "view",
      "type": "function"
    },
    {
      "constant": true,
      "inputs": [],
      "name": "reservedSaleEther",
      "outputs": [
        {
          "name": "",
          "type": "uint256"
        }
      ],
      "payable": false,
      "stateMutability": "view",
      "type": "function"
    },
    {
      "constant": false,
      "inputs": [
        {
          "name": "account",
          "type": "address"
        },
        {
          "name": "etherAmount",
          "type": "uint256"
        },
        {
          "name": "tokenAmount",
          "type": "uint256"
        }
      ],
      "name": "mint",
      "outputs": [],
      "payable": false,
      "stateMutability": "nonpayable",
      "type": "function"
    },
    {
      "constant": true,
      "inputs": [],
      "name": "saleEtherCap",
      "outputs": [
        {
          "name": "",
          "type": "uint256"
        }
      ],
      "payable": false,
      "stateMutability": "view",
      "type": "function"
    },
    {
      "constant": true,
      "inputs": [],
      "name": "PRICE_MULTIPLIER_PREICO2",
      "outputs": [
        {
          "name": "",
          "type": "uint256"
        }
      ],
      "payable": false,
      "stateMutability": "view",
      "type": "function"
    },
    {
      "constant": true,
      "inputs": [],
      "name": "confirmedSaleEther",
      "outputs": [
        {
          "name": "",
          "type": "uint256"
        }
      ],
      "payable": false,
      "stateMutability": "view",
      "type": "function"
    },
    {
      "constant": true,
      "inputs": [],
      "name": "MIMIMUM_CONTRIBUTION_AMOUNT_ICO",
      "outputs": [
        {
          "name": "",
          "type": "uint256"
        }
      ],
      "payable": false,
      "stateMutability": "view",
      "type": "function"
    },
    {
      "constant": true,
      "inputs": [],
      "name": "MIMIMUM_CONTRIBUTION_AMOUNT_PREICO",
      "outputs": [
        {
          "name": "",
          "type": "uint256"
        }
      ],
      "payable": false,
      "stateMutability": "view",
      "type": "function"
    },
    {
      "constant": true,
      "inputs": [],
      "name": "referralManager",
      "outputs": [
        {
          "name": "",
          "type": "address"
        }
      ],
      "payable": false,
      "stateMutability": "view",
      "type": "function"
    },
    {
      "constant": true,
      "inputs": [],
      "name": "PRICE_MULTIPLIER_PREICO1",
      "outputs": [
        {
          "name": "",
          "type": "uint256"
        }
      ],
      "payable": false,
      "stateMutability": "view",
      "type": "function"
    },
    {
      "constant": true,
      "inputs": [],
      "name": "PRICE_MULTIPLIER_ICO3",
      "outputs": [
        {
          "name": "",
          "type": "uint256"
        }
      ],
      "payable": false,
      "stateMutability": "view",
      "type": "function"
    },
    {
      "constant": false,
      "inputs": [
        {
          "name": "account",
          "type": "address"
        },
        {
          "name": "etherAmount",
          "type": "uint256"
        },
        {
          "name": "tokenAmount",
          "type": "uint256"
        }
      ],
      "name": "mintReserved",
      "outputs": [],
      "payable": false,
      "stateMutability": "nonpayable",
      "type": "function"
    },
    {
      "constant": false,
      "inputs": [
        {
          "name": "etherAmount",
          "type": "uint256"
        }
      ],
      "name": "unreserve",
      "outputs": [],
      "payable": false,
      "stateMutability": "nonpayable",
      "type": "function"
    },
    {
      "constant": true,
      "inputs": [
        {
          "name": "",
          "type": "uint256"
        }
      ],
      "name": "startTimes",
      "outputs": [
        {
          "name": "",
          "type": "uint256"
        }
      ],
      "payable": false,
      "stateMutability": "view",
      "type": "function"
    },
    {
      "constant": false,
      "inputs": [
        {
          "name": "etherAmount",
          "type": "uint256"
        }
      ],
      "name": "reserve",
      "outputs": [],
      "payable": false,
      "stateMutability": "nonpayable",
      "type": "function"
    },
    {
      "constant": true,
      "inputs": [],
      "name": "PRICE_MULTIPLIER_ICO5",
      "outputs": [
        {
          "name": "",
          "type": "uint256"
        }
      ],
      "payable": false,
      "stateMutability": "view",
      "type": "function"
    },
    {
      "constant": true,
      "inputs": [],
      "name": "owner",
      "outputs": [
        {
          "name": "",
          "type": "address"
        }
      ],
      "payable": false,
      "stateMutability": "view",
      "type": "function"
    },
    {
      "constant": true,
      "inputs": [],
      "name": "crowdsale",
      "outputs": [
        {
          "name": "",
          "type": "address"
        }
      ],
      "payable": false,
      "stateMutability": "view",
      "type": "function"
    },
    {
      "constant": true,
      "inputs": [],
      "name": "deferredKyc",
      "outputs": [
        {
          "name": "",
          "type": "address"
        }
      ],
      "payable": false,
      "stateMutability": "view",
      "type": "function"
    },
    {
      "constant": true,
      "inputs": [],
      "name": "allocator",
      "outputs": [
        {
          "name": "",
          "type": "address"
        }
      ],
      "payable": false,
      "stateMutability": "view",
      "type": "function"
    },
    {
      "constant": true,
      "inputs": [],
      "name": "PRICE_MULTIPLIER_ICO2",
      "outputs": [
        {
          "name": "",
          "type": "uint256"
        }
      ],
      "payable": false,
      "stateMutability": "view",
      "type": "function"
    },
    {
      "constant": true,
      "inputs": [
        {
          "name": "",
          "type": "uint256"
        }
      ],
      "name": "etherCaps",
      "outputs": [
        {
          "name": "",
          "type": "uint256"
        }
      ],
      "payable": false,
      "stateMutability": "view",
      "type": "function"
    },
    {
      "constant": true,
      "inputs": [],
      "name": "airdropper",
      "outputs": [
        {
          "name": "",
          "type": "address"
        }
      ],
      "payable": false,
      "stateMutability": "view",
      "type": "function"
    },
    {
      "constant": true,
      "inputs": [],
      "name": "PRICE_MULTIPLIER_ICO4",
      "outputs": [
        {
          "name": "",
          "type": "uint256"
        }
      ],
      "payable": false,
      "stateMutability": "view",
      "type": "function"
    },
    {
      "constant": true,
      "inputs": [],
      "name": "PRICE_MULTIPLIER_ICO6",
      "outputs": [
        {
          "name": "",
          "type": "uint256"
        }
      ],
      "payable": false,
      "stateMutability": "view",
      "type": "function"
    },
    {
      "constant": false,
      "inputs": [
        {
          "name": "newOwner",
          "type": "address"
        }
      ],
      "name": "transferOwnership",
      "outputs": [],
      "payable": false,
      "stateMutability": "nonpayable",
      "type": "function"
    },
    {
      "constant": true,
      "inputs": [],
      "name": "PRICE_MULTIPLIER_ICO1",
      "outputs": [
        {
          "name": "",
          "type": "uint256"
        }
      ],
      "payable": false,
      "stateMutability": "view",
      "type": "function"
    },
    {
      "constant": true,
      "inputs": [],
      "name": "token",
      "outputs": [
        {
          "name": "",
          "type": "address"
        }
      ],
      "payable": false,
      "stateMutability": "view",
      "type": "function"
    },
    {
      "inputs": [
        {
          "name": "_token",
          "type": "address"
        },
        {
          "name": "_saleEtherCap",
          "type": "uint256"
        }
      ],
      "payable": false,
      "stateMutability": "nonpayable",
      "type": "constructor"
    },
    {
      "anonymous": false,
      "inputs": [
        {
          "indexed": false,
          "name": "from",
          "type": "uint256"
        },
        {
          "indexed": false,
          "name": "to",
          "type": "uint256"
        }
      ],
      "name": "StateChanged",
      "type": "event"
    },
    {
      "anonymous": false,
      "inputs": [
        {
          "indexed": true,
          "name": "account",
          "type": "address"
        },
        {
          "indexed": false,
          "name": "etherAmount",
          "type": "uint256"
        },
        {
          "indexed": false,
          "name": "tokenAmount",
          "type": "uint256"
        }
      ],
      "name": "Minted",
      "type": "event"
    },
    {
      "anonymous": false,
      "inputs": [
        {
          "indexed": false,
          "name": "etherAmount",
          "type": "uint256"
        }
      ],
      "name": "Reserved",
      "type": "event"
    },
    {
      "anonymous": false,
      "inputs": [
        {
          "indexed": true,
          "name": "account",
          "type": "address"
        },
        {
          "indexed": false,
          "name": "etherAmount",
          "type": "uint256"
        },
        {
          "indexed": false,
          "name": "tokenAmount",
          "type": "uint256"
        }
      ],
      "name": "MintedReserved",
      "type": "event"
    },
    {
      "anonymous": false,
      "inputs": [
        {
          "indexed": false,
          "name": "etherAmount",
          "type": "uint256"
        }
      ],
      "name": "Unreserved",
      "type": "event"
    },
    {
      "anonymous": false,
      "inputs": [
        {
          "indexed": true,
          "name": "previousOwner",
          "type": "address"
        },
        {
          "indexed": true,
          "name": "newOwner",
          "type": "address"
        }
      ],
      "name": "OwnershipTransferred",
      "type": "event"
    },
    {
      "constant": false,
      "inputs": [
        {
          "name": "_crowdsale",
          "type": "address"
        },
        {
          "name": "_deferredKyc",
          "type": "address"
        },
        {
          "name": "_referralManager",
          "type": "address"
        },
        {
          "name": "_allocator",
          "type": "address"
        },
        {
          "name": "_airdropper",
          "type": "address"
        },
        {
          "name": "saleStartTime",
          "type": "uint256"
        },
        {
          "name": "singleStateEtherCap",
          "type": "uint256"
        }
      ],
      "name": "initialize",
      "outputs": [],
      "payable": false,
      "stateMutability": "nonpayable",
      "type": "function"
    },
    {
      "constant": false,
      "inputs": [
        {
          "name": "from",
          "type": "uint256"
        },
        {
          "name": "to",
          "type": "uint256"
        }
      ],
      "name": "moveState",
      "outputs": [],
      "payable": false,
      "stateMutability": "nonpayable",
      "type": "function"
    },
    {
      "constant": false,
      "inputs": [],
      "name": "transferTokenOwnership",
      "outputs": [],
      "payable": false,
      "stateMutability": "nonpayable",
      "type": "function"
    },
    {
      "constant": true,
      "inputs": [
        {
          "name": "etherAmount",
          "type": "uint256"
        }
      ],
      "name": "getTokensForEther",
      "outputs": [
        {
          "name": "",
          "type": "uint256"
        }
      ],
      "payable": false,
      "stateMutability": "view",
      "type": "function"
    },
    {
      "constant": true,
      "inputs": [],
      "name": "isSellingState",
      "outputs": [
        {
          "name": "",
          "type": "bool"
        }
      ],
      "payable": false,
      "stateMutability": "view",
      "type": "function"
    },
    {
      "constant": true,
      "inputs": [],
      "name": "getMinimumContribution",
      "outputs": [
        {
          "name": "",
          "type": "uint256"
        }
      ],
      "payable": false,
      "stateMutability": "view",
      "type": "function"
    },
    {
      "constant": true,
      "inputs": [
        {
          "name": "account",
          "type": "address"
        }
      ],
      "name": "canMint",
      "outputs": [
        {
          "name": "",
          "type": "bool"
        }
      ],
      "payable": false,
      "stateMutability": "view",
      "type": "function"
    },
    {
      "constant": false,
      "inputs": [],
      "name": "updateState",
      "outputs": [],
      "payable": false,
      "stateMutability": "nonpayable",
      "type": "function"
    },
    {
      "constant": true,
      "inputs": [],
      "name": "isInitialized",
      "outputs": [
        {
          "name": "",
          "type": "bool"
        }
      ],
      "payable": false,
      "stateMutability": "view",
      "type": "function"
    }
  ],
  "bytecode": "0x60806040526000600960146101000a81548160ff0219169083600d81111561002357fe5b021790555034801561003457600080fd5b50604051604080612ba883398101806040528101908080519060200190929190805190602001909291905050508181336000806101000a81548173ffffffffffffffffffffffffffffffffffffffff021916908373ffffffffffffffffffffffffffffffffffffffff1602179055508160008173ffffffffffffffffffffffffffffffffffffffff16141515156100ca57600080fd5b6000821115156100d957600080fd5b82600160006101000a81548173ffffffffffffffffffffffffffffffffffffffff021916908373ffffffffffffffffffffffffffffffffffffffff160217905550816002819055505050505050612a73806101356000396000f3006080604052600436106101cd576000357c0100000000000000000000000000000000000000000000000000000000900463ffffffff1680630c3f6acf146101d257806311d36bf51461020b578063156e29f6146102365780631d8557d71461028d5780631fd4b40c146102a4578063210d2bba146102cf57806324e846c7146102fa578063263b694a14610325578063272ae0b5146103505780632ccd96231461037b578063379080da146103d2578063392e53cd146103fd5780634056675e1461042c578063434fb2ae1461044357806362dbf2611461046e578063663f8549146104af57806376b5d9261461050657806377bbebe614610533578063819b25ba146105745780638449b0af146105a15780638da5cb5b146105cc5780639c1e03a014610623578063a1960d801461067a578063aa5dcecc146106d1578063ae9759ff14610728578063b33f952714610753578063b5b22a181461082a578063c2ba47441461086b578063c9d68389146108c6578063cef295211461091d578063d8783b0414610948578063eaf86db314610973578063ebb9ab25146109a2578063f2fde38b146109d9578063f50b530814610a1c578063f84038b114610a47578063fc0c546a14610a72575b600080fd5b3480156101de57600080fd5b506101e7610ac9565b6040518082600d8111156101f757fe5b60ff16815260200191505060405180910390f35b34801561021757600080fd5b50610220610adc565b6040518082815260200191505060405180910390f35b34801561024257600080fd5b5061028b600480360381019080803573ffffffffffffffffffffffffffffffffffffffff1690602001909291908035906020019092919080359060200190929190505050610ae2565b005b34801561029957600080fd5b506102a2610cbe565b005b3480156102b057600080fd5b506102b9610cd0565b6040518082815260200191505060405180910390f35b3480156102db57600080fd5b506102e4610cd6565b6040518082815260200191505060405180910390f35b34801561030657600080fd5b5061030f610cdc565b6040518082815260200191505060405180910390f35b34801561033157600080fd5b5061033a610ce2565b6040518082815260200191505060405180910390f35b34801561035c57600080fd5b50610365610cee565b6040518082815260200191505060405180910390f35b34801561038757600080fd5b50610390610cfa565b604051808273ffffffffffffffffffffffffffffffffffffffff1673ffffffffffffffffffffffffffffffffffffffff16815260200191505060405180910390f35b3480156103de57600080fd5b506103e7610d20565b6040518082815260200191505060405180910390f35b34801561040957600080fd5b50610412610d26565b604051808215151515815260200191505060405180910390f35b34801561043857600080fd5b50610441610e7d565b005b34801561044f57600080fd5b5061045861100b565b6040518082815260200191505060405180910390f35b34801561047a57600080fd5b5061049960048036038101908080359060200190929190505050611011565b6040518082815260200191505060405180910390f35b3480156104bb57600080fd5b50610504600480360381019080803573ffffffffffffffffffffffffffffffffffffffff1690602001909291908035906020019092919080359060200190929190505050611385565b005b34801561051257600080fd5b506105316004803603810190808035906020019092919050505061153b565b005b34801561053f57600080fd5b5061055e600480360381019080803590602001909291905050506115b4565b6040518082815260200191505060405180910390f35b34801561058057600080fd5b5061059f600480360381019080803590602001909291905050506115cc565b005b3480156105ad57600080fd5b506105b661169e565b6040518082815260200191505060405180910390f35b3480156105d857600080fd5b506105e16116a4565b604051808273ffffffffffffffffffffffffffffffffffffffff1673ffffffffffffffffffffffffffffffffffffffff16815260200191505060405180910390f35b34801561062f57600080fd5b506106386116c9565b604051808273ffffffffffffffffffffffffffffffffffffffff1673ffffffffffffffffffffffffffffffffffffffff16815260200191505060405180910390f35b34801561068657600080fd5b5061068f6116ef565b604051808273ffffffffffffffffffffffffffffffffffffffff1673ffffffffffffffffffffffffffffffffffffffff16815260200191505060405180910390f35b3480156106dd57600080fd5b506106e6611715565b604051808273ffffffffffffffffffffffffffffffffffffffff1673ffffffffffffffffffffffffffffffffffffffff16815260200191505060405180910390f35b34801561073457600080fd5b5061073d61173b565b6040518082815260200191505060405180910390f35b34801561075f57600080fd5b50610828600480360381019080803573ffffffffffffffffffffffffffffffffffffffff169060200190929190803573ffffffffffffffffffffffffffffffffffffffff169060200190929190803573ffffffffffffffffffffffffffffffffffffffff169060200190929190803573ffffffffffffffffffffffffffffffffffffffff169060200190929190803573ffffffffffffffffffffffffffffffffffffffff1690602001909291908035906020019092919080359060200190929190505050611741565b005b34801561083657600080fd5b5061085560048036038101908080359060200190929190505050611a10565b6040518082815260200191505060405180910390f35b34801561087757600080fd5b506108ac600480360381019080803573ffffffffffffffffffffffffffffffffffffffff169060200190929190505050611a28565b604051808215151515815260200191505060405180910390f35b3480156108d257600080fd5b506108db611e40565b604051808273ffffffffffffffffffffffffffffffffffffffff1673ffffffffffffffffffffffffffffffffffffffff16815260200191505060405180910390f35b34801561092957600080fd5b50610932611e66565b6040518082815260200191505060405180910390f35b34801561095457600080fd5b5061095d611e6c565b6040518082815260200191505060405180910390f35b34801561097f57600080fd5b50610988611e72565b604051808215151515815260200191505060405180910390f35b3480156109ae57600080fd5b506109d76004803603810190808035906020019092919080359060200190929190505050611f07565b005b3480156109e557600080fd5b50610a1a600480360381019080803573ffffffffffffffffffffffffffffffffffffffff169060200190929190505050611faa565b005b348015610a2857600080fd5b50610a316120ff565b6040518082815260200191505060405180910390f35b348015610a5357600080fd5b50610a5c612105565b6040518082815260200191505060405180910390f35b348015610a7e57600080fd5b50610a876121ee565b604051808273ffffffffffffffffffffffffffffffffffffffff1673ffffffffffffffffffffffffffffffffffffffff16815260200191505060405180910390f35b600960149054906101000a900460ff1681565b60045481565b610aea610cbe565b610af333611a28565b1515610afe57600080fd5b816000610b2a82610b1c60045460035461221490919063ffffffff16565b61221490919063ffffffff16565b90506002548111151515610b3d57600080fd5b610b528460035461221490919063ffffffff16565b600381905550600160009054906101000a900473ffffffffffffffffffffffffffffffffffffffff1673ffffffffffffffffffffffffffffffffffffffff166340c10f1986856040518363ffffffff167c0100000000000000000000000000000000000000000000000000000000028152600401808373ffffffffffffffffffffffffffffffffffffffff1673ffffffffffffffffffffffffffffffffffffffff16815260200182815260200192505050602060405180830381600087803b158015610c1d57600080fd5b505af1158015610c31573d6000803e3d6000fd5b505050506040513d6020811015610c4757600080fd5b810190808051906020019092919050505050610c61610cbe565b8473ffffffffffffffffffffffffffffffffffffffff167f25b428dfde728ccfaddad7e29e4ac23c24ed7fd1a6e3e3f91894a9a073f5dfff8585604051808381526020018281526020019250505060405180910390a25050505050565b610cc6612232565b610cce61245f565b565b60025481565b61952d81565b60035481565b6702c68af0bb14000081565b670de0b6b3a764000081565b600760009054906101000a900473ffffffffffffffffffffffffffffffffffffffff1681565b619a8181565b600080600560009054906101000a900473ffffffffffffffffffffffffffffffffffffffff1673ffffffffffffffffffffffffffffffffffffffff1614158015610da957506000600760009054906101000a900473ffffffffffffffffffffffffffffffffffffffff1673ffffffffffffffffffffffffffffffffffffffff1614155b8015610dee57506000600860009054906101000a900473ffffffffffffffffffffffffffffffffffffffff1673ffffffffffffffffffffffffffffffffffffffff1614155b8015610e3357506000600960009054906101000a900473ffffffffffffffffffffffffffffffffffffffff1673ffffffffffffffffffffffffffffffffffffffff1614155b8015610e7857506000600660009054906101000a900473ffffffffffffffffffffffffffffffffffffffff1673ffffffffffffffffffffffffffffffffffffffff1614155b905090565b610e85610cbe565b6000809054906101000a900473ffffffffffffffffffffffffffffffffffffffff1673ffffffffffffffffffffffffffffffffffffffff163373ffffffffffffffffffffffffffffffffffffffff16141515610ee057600080fd5b600d80811115610eec57fe5b600960149054906101000a900460ff16600d811115610f0757fe5b141515610f1357600080fd5b600160009054906101000a900473ffffffffffffffffffffffffffffffffffffffff1673ffffffffffffffffffffffffffffffffffffffff1663f2fde38b6000809054906101000a900473ffffffffffffffffffffffffffffffffffffffff166040518263ffffffff167c0100000000000000000000000000000000000000000000000000000000028152600401808273ffffffffffffffffffffffffffffffffffffffff1673ffffffffffffffffffffffffffffffffffffffff168152602001915050600060405180830381600087803b158015610ff157600080fd5b505af1158015611005573d6000803e3d6000fd5b50505050565b617b9981565b600080600090506001600d81111561102557fe5b600960149054906101000a900460ff16600d81111561104057fe5b14156110755761106e600a611060619a818661267b90919063ffffffff16565b6126b690919063ffffffff16565b9050611303565b6002600d81111561108257fe5b600960149054906101000a900460ff16600d81111561109d57fe5b14156110d2576110cb600a6110bd61952d8661267b90919063ffffffff16565b6126b690919063ffffffff16565b9050611302565b6004600d8111156110df57fe5b600960149054906101000a900460ff16600d8111156110fa57fe5b141561112f57611128600a61111a6187318661267b90919063ffffffff16565b6126b690919063ffffffff16565b9050611301565b6005600d81111561113c57fe5b600960149054906101000a900460ff16600d81111561115757fe5b141561118c57611185600a6111776183178661267b90919063ffffffff16565b6126b690919063ffffffff16565b9050611300565b6006600d81111561119957fe5b600960149054906101000a900460ff16600d8111156111b457fe5b14156111e9576111e2600a6111d4617b998661267b90919063ffffffff16565b6126b690919063ffffffff16565b90506112ff565b6007600d8111156111f657fe5b600960149054906101000a900460ff16600d81111561121157fe5b14156112465761123f600a61123161782a8661267b90919063ffffffff16565b6126b690919063ffffffff16565b90506112fe565b6008600d81111561125357fe5b600960149054906101000a900460ff16600d81111561126e57fe5b14156112a35761129c600a61128e6171d78661267b90919063ffffffff16565b6126b690919063ffffffff16565b90506112fd565b6009600d8111156112b057fe5b600960149054906101000a900460ff16600d8111156112cb57fe5b14156112fc576112f9600a6112eb616c268661267b90919063ffffffff16565b6126b690919063ffffffff16565b90505b5b5b5b5b5b5b5b678ac7230489e800008311156113415761133a606461132c60698461267b90919063ffffffff16565b6126b690919063ffffffff16565b905061137c565b674563918244f4000083111561137b57611378606461136a60678461267b90919063ffffffff16565b6126b690919063ffffffff16565b90505b5b80915050919050565b61138d610cbe565b61139633611a28565b15156113a157600080fd5b6113b6826004546126d190919063ffffffff16565b6004819055506113d18260035461221490919063ffffffff16565b600381905550600160009054906101000a900473ffffffffffffffffffffffffffffffffffffffff1673ffffffffffffffffffffffffffffffffffffffff166340c10f1984836040518363ffffffff167c0100000000000000000000000000000000000000000000000000000000028152600401808373ffffffffffffffffffffffffffffffffffffffff1673ffffffffffffffffffffffffffffffffffffffff16815260200182815260200192505050602060405180830381600087803b15801561149c57600080fd5b505af11580156114b0573d6000803e3d6000fd5b505050506040513d60208110156114c657600080fd5b8101908080519060200190929190505050506114e0610cbe565b8273ffffffffffffffffffffffffffffffffffffffff167f836db2a45fd007fb86f824d475eeebdf19516c0c16eded06df2fa4594a1188348383604051808381526020018281526020019250505060405180910390a2505050565b611543610cbe565b61154c33611a28565b151561155757600080fd5b61156c816004546126d190919063ffffffff16565b60048190555061157a610cbe565b7f3e9608ee93b29804c1c97a39ae6b68ca41b31ec84716dc2904413806fe7a2f3e816040518082815260200191505060405180910390a150565b600a6020528060005260406000206000915090505481565b6115d4610cbe565b6115dd33611a28565b15156115e857600080fd5b8060006116148261160660045460035461221490919063ffffffff16565b61221490919063ffffffff16565b9050600254811115151561162757600080fd5b82611630612105565b811015151561163e57600080fd5b6116538460045461221490919063ffffffff16565b600481905550611661610cbe565b7f672216a7a59f7b075c6becc0eebb0ab5404d392281d509c1c1a4a6accd036f49846040518082815260200191505060405180910390a150505050565b6171d781565b6000809054906101000a900473ffffffffffffffffffffffffffffffffffffffff1681565b600560009054906101000a900473ffffffffffffffffffffffffffffffffffffffff1681565b600660009054906101000a900473ffffffffffffffffffffffffffffffffffffffff1681565b600860009054906101000a900473ffffffffffffffffffffffffffffffffffffffff1681565b61831781565b6000809054906101000a900473ffffffffffffffffffffffffffffffffffffffff1673ffffffffffffffffffffffffffffffffffffffff163373ffffffffffffffffffffffffffffffffffffffff1614151561179c57600080fd5b6000600960149054906101000a900460ff16600d8111156117b957fe5b81600d8111156117c557fe5b1415156117d157600080fd5b8760008173ffffffffffffffffffffffffffffffffffffffff16141515156117f857600080fd5b8760008173ffffffffffffffffffffffffffffffffffffffff161415151561181f57600080fd5b8760008173ffffffffffffffffffffffffffffffffffffffff161415151561184657600080fd5b8760008173ffffffffffffffffffffffffffffffffffffffff161415151561186d57600080fd5b8760008173ffffffffffffffffffffffffffffffffffffffff161415151561189457600080fd5b4288101515156118a357600080fd5b6000871115156118b257600080fd5b8c600560006101000a81548173ffffffffffffffffffffffffffffffffffffffff021916908373ffffffffffffffffffffffffffffffffffffffff1602179055508b600660006101000a81548173ffffffffffffffffffffffffffffffffffffffff021916908373ffffffffffffffffffffffffffffffffffffffff1602179055508a600760006101000a81548173ffffffffffffffffffffffffffffffffffffffff021916908373ffffffffffffffffffffffffffffffffffffffff16021790555089600860006101000a81548173ffffffffffffffffffffffffffffffffffffffff021916908373ffffffffffffffffffffffffffffffffffffffff16021790555088600960006101000a81548173ffffffffffffffffffffffffffffffffffffffff021916908373ffffffffffffffffffffffffffffffffffffffff160217905550611a0188886126ea565b50505050505050505050505050565b600b6020528060005260406000206000915090505481565b600080600d811115611a3657fe5b600960149054906101000a900460ff16600d811115611a5157fe5b1415611aaf57600560009054906101000a900473ffffffffffffffffffffffffffffffffffffffff1673ffffffffffffffffffffffffffffffffffffffff168273ffffffffffffffffffffffffffffffffffffffff16149050611e3b565b611ab7611e72565b15611bc457600560009054906101000a900473ffffffffffffffffffffffffffffffffffffffff1673ffffffffffffffffffffffffffffffffffffffff168273ffffffffffffffffffffffffffffffffffffffff161480611b655750600660009054906101000a900473ffffffffffffffffffffffffffffffffffffffff1673ffffffffffffffffffffffffffffffffffffffff168273ffffffffffffffffffffffffffffffffffffffff16145b80611bbd5750600760009054906101000a900473ffffffffffffffffffffffffffffffffffffffff1673ffffffffffffffffffffffffffffffffffffffff168273ffffffffffffffffffffffffffffffffffffffff16145b9050611e3b565b6003600d811115611bd157fe5b600960149054906101000a900460ff16600d811115611bec57fe5b1480611c1d5750600a600d811115611c0057fe5b600960149054906101000a900460ff16600d811115611c1b57fe5b145b15611d2a57600560009054906101000a900473ffffffffffffffffffffffffffffffffffffffff1673ffffffffffffffffffffffffffffffffffffffff168273ffffffffffffffffffffffffffffffffffffffff161480611ccb5750600660009054906101000a900473ffffffffffffffffffffffffffffffffffffffff1673ffffffffffffffffffffffffffffffffffffffff168273ffffffffffffffffffffffffffffffffffffffff16145b80611d235750600760009054906101000a900473ffffffffffffffffffffffffffffffffffffffff1673ffffffffffffffffffffffffffffffffffffffff168273ffffffffffffffffffffffffffffffffffffffff16145b9050611e3b565b600b600d811115611d3757fe5b600960149054906101000a900460ff16600d811115611d5257fe5b1415611db057600860009054906101000a900473ffffffffffffffffffffffffffffffffffffffff1673ffffffffffffffffffffffffffffffffffffffff168273ffffffffffffffffffffffffffffffffffffffff16149050611e3b565b600c600d811115611dbd57fe5b600960149054906101000a900460ff16600d811115611dd857fe5b1415611e3657600960009054906101000a900473ffffffffffffffffffffffffffffffffffffffff1673ffffffffffffffffffffffffffffffffffffffff168273ffffffffffffffffffffffffffffffffffffffff16149050611e3b565b600090505b919050565b600960009054906101000a900473ffffffffffffffffffffffffffffffffffffffff1681565b61782a81565b616c2681565b60006001600d811115611e8157fe5b600960149054906101000a900460ff16600d811115611e9c57fe5b10158015611ed057506009600d811115611eb257fe5b600960149054906101000a900460ff16600d811115611ecd57fe5b11155b8015611f0257506003600d811115611ee457fe5b600960149054906101000a900460ff16600d811115611eff57fe5b14155b905090565b611f0f610cbe565b6000809054906101000a900473ffffffffffffffffffffffffffffffffffffffff1673ffffffffffffffffffffffffffffffffffffffff163373ffffffffffffffffffffffffffffffffffffffff16141515611f6a57600080fd5b81600960149054906101000a900460ff16600d811115611f8657fe5b141515611f9257600080fd5b611fa681600d811115611fa157fe5b612935565b5050565b6000809054906101000a900473ffffffffffffffffffffffffffffffffffffffff1673ffffffffffffffffffffffffffffffffffffffff163373ffffffffffffffffffffffffffffffffffffffff1614151561200557600080fd5b600073ffffffffffffffffffffffffffffffffffffffff168173ffffffffffffffffffffffffffffffffffffffff161415151561204157600080fd5b8073ffffffffffffffffffffffffffffffffffffffff166000809054906101000a900473ffffffffffffffffffffffffffffffffffffffff1673ffffffffffffffffffffffffffffffffffffffff167f8be0079c531659141344cd1fd0a4f28419497f9722a3daafe3b4186f6b6457e060405160405180910390a3806000806101000a81548173ffffffffffffffffffffffffffffffffffffffff021916908373ffffffffffffffffffffffffffffffffffffffff16021790555050565b61873181565b60006001600d81111561211457fe5b600960149054906101000a900460ff16600d81111561212f57fe5b148061216057506002600d81111561214357fe5b600960149054906101000a900460ff16600d81111561215e57fe5b145b1561217557670de0b6b3a764000090506121eb565b6004600d81111561218257fe5b600960149054906101000a900460ff16600d81111561219d57fe5b101580156121d157506009600d8111156121b357fe5b600960149054906101000a900460ff16600d8111156121ce57fe5b11155b156121e6576702c68af0bb14000090506121eb565b600090505b90565b600160009054906101000a900473ffffffffffffffffffffffffffffffffffffffff1681565b600080828401905083811015151561222857fe5b8091505092915050565b600a6000600a600d81111561224357fe5b8152602001908152602001600020544210151561226957612264600a612935565b61245d565b600a60006009600d81111561227a57fe5b815260200190815260200160002054421015156122a05761229b6009612935565b61245c565b600a60006008600d8111156122b157fe5b815260200190815260200160002054421015156122d7576122d26008612935565b61245b565b600a60006007600d8111156122e857fe5b8152602001908152602001600020544210151561230e576123096007612935565b61245a565b600a60006006600d81111561231f57fe5b81526020019081526020016000205442101515612345576123406006612935565b612459565b600a60006005600d81111561235657fe5b8152602001908152602001600020544210151561237c576123776005612935565b612458565b600a60006004600d81111561238d57fe5b815260200190815260200160002054421015156123b3576123ae6004612935565b612457565b600a60006003600d8111156123c457fe5b815260200190815260200160002054421015156123ea576123e56003612935565b612456565b600a60006002600d8111156123fb57fe5b815260200190815260200160002054421015156124215761241c6002612935565b612455565b600a60006001600d81111561243257fe5b81526020019081526020016000205442101515612454576124536001612935565b5b5b5b5b5b5b5b5b5b5b565b600061247860045460035461221490919063ffffffff16565b9050612482611e72565b151561248d57612678565b6003600d81111561249a57fe5b600960149054906101000a900460ff16600d8111156124b557fe5b121561252b57600b60006002600d8111156124cc57fe5b815260200190815260200160002054811015156124f2576124ed6003612935565b612526565b600b60006001600d81111561250357fe5b81526020019081526020016000205481101515612525576125246002612935565b5b5b612677565b600b60006009600d81111561253c57fe5b815260200190815260200160002054811015156125625761255d600a612935565b612676565b600b60006008600d81111561257357fe5b81526020019081526020016000205481101515612599576125946009612935565b612675565b600b60006007600d8111156125aa57fe5b815260200190815260200160002054811015156125d0576125cb6008612935565b612674565b600b60006006600d8111156125e157fe5b81526020019081526020016000205481101515612607576126026007612935565b612673565b600b60006005600d81111561261857fe5b8152602001908152602001600020548110151561263e576126396006612935565b612672565b600b60006004600d81111561264f57fe5b81526020019081526020016000205481101515612671576126706005612935565b5b5b5b5b5b5b5b5b50565b600080600084141561269057600091506126af565b82840290508284828115156126a157fe5b041415156126ab57fe5b8091505b5092915050565b60008082848115156126c457fe5b0490508091505092915050565b60008282111515156126df57fe5b818303905092915050565b81600a60006001600d8111156126fc57fe5b81526020019081526020016000208190555061271c6001620697806129ed565b61272a6002620697806129ed565b61273860036203f4806129ed565b6127466004620697806129ed565b6127546005620697806129ed565b6127626006620697806129ed565b6127706007620697806129ed565b61277e6008620697806129ed565b61278c6009620697806129ed565b80600b60006001600d81111561279e57fe5b8152602001908152602001600020819055506127c460028261267b90919063ffffffff16565b600b60006002600d8111156127d557fe5b8152602001908152602001600020819055506127fb60038261267b90919063ffffffff16565b600b60006004600d81111561280c57fe5b81526020019081526020016000208190555061283260048261267b90919063ffffffff16565b600b60006005600d81111561284357fe5b81526020019081526020016000208190555061286960058261267b90919063ffffffff16565b600b60006006600d81111561287a57fe5b8152602001908152602001600020819055506128a060068261267b90919063ffffffff16565b600b60006007600d8111156128b157fe5b8152602001908152602001600020819055506128d760078261267b90919063ffffffff16565b600b60006008600d8111156128e857fe5b81526020019081526020016000208190555061290e60088261267b90919063ffffffff16565b600b60006009600d81111561291f57fe5b8152602001908152602001600020819055505050565b600960149054906101000a900460ff16600d81111561295057fe5b81600d81111561295c57fe5b11156129ea577f1c0c6794b8c626515ef0eaa59cf29f712f686771b359ff1a5a05738b92d05484600960149054906101000a900460ff16600d81111561299e57fe5b82600d8111156129aa57fe5b604051808381526020018281526020019250505060405180910390a180600960146101000a81548160ff0219169083600d8111156129e457fe5b02179055505b50565b612a1e81600a600085600d811115612a0157fe5b81526020019081526020016000205461221490919063ffffffff16565b600a6000600185600d811115612a3057fe5b0181526020019081526020016000208190555050505600a165627a7a723058207fc6f7171b31f828347e271f729a0ebb355027d4c08cffe81c40b5bb80e69ad40029",
  "source": "pragma solidity ^0.4.24;\nimport \"zeppelin-solidity/contracts/math/SafeMath.sol\";\nimport \"zeppelin-solidity/contracts/ownership/Ownable.sol\";\nimport \"./Minter.sol\";\n\ncontract Tge is Minter {\n    using SafeMath for uint;\n\n    /* --- CONSTANTS --- */\n\n    uint constant public MIMIMUM_CONTRIBUTION_AMOUNT_PREICO = 1 * 1e18;\n    uint constant public MIMIMUM_CONTRIBUTION_AMOUNT_ICO = 2 * 1e17;\n    \n    uint constant public PRICE_MULTIPLIER_PREICO1 = 39553;\n    uint constant public PRICE_MULTIPLIER_PREICO2 = 38189;\n\n    uint constant public PRICE_MULTIPLIER_ICO1 = 34609;\n    uint constant public PRICE_MULTIPLIER_ICO2 = 33559;\n    uint constant public PRICE_MULTIPLIER_ICO3 = 31641;\n    uint constant public PRICE_MULTIPLIER_ICO4 = 30762;\n    uint constant public PRICE_MULTIPLIER_ICO5 = 29143;\n    uint constant public PRICE_MULTIPLIER_ICO6 = 27686;\n\n    /* --- EVENTS --- */\n\n    event StateChanged(uint from, uint to);\n\n    /* --- FIELDS --- */\n\n    // minters\n    address public crowdsale;\n    address public deferredKyc;\n    address public referralManager;\n    address public allocator;\n    address public airdropper;\n\n    // state\n    enum State {Presale, Preico1, Preico2, Break, Ico1, Ico2, Ico3, Ico4, Ico5, Ico6, FinishingIco, Allocating, Airdropping, Finished}\n    State public currentState = State.Presale;\n    mapping(uint => uint) public startTimes;\n    mapping(uint => uint) public etherCaps;\n\n    /* --- MODIFIERS --- */\n\n    modifier onlyInState(State _state) {\n        require(_state == currentState);\n        _;\n    }\n\n    modifier onlyValidAddress(address account) {\n        require(account != 0x0);\n        _;\n    }\n\n    /* --- CONSTRUCTOR / INITIALIZATION --- */\n\n    constructor(\n        CrowdfundableToken _token,\n        uint _saleEtherCap\n    ) public Minter(_token, _saleEtherCap) { }\n\n    // initialize states start times and caps\n    function initStates(uint saleStart, uint singleStateEtherCap) internal {\n        startTimes[uint(State.Preico1)] = saleStart;\n        setStateLength(State.Preico1, 5 days);\n        setStateLength(State.Preico2, 5 days);\n        setStateLength(State.Break, 3 days);\n        setStateLength(State.Ico1, 5 days);\n        setStateLength(State.Ico2, 5 days);\n        setStateLength(State.Ico3, 5 days);\n        setStateLength(State.Ico4, 5 days);\n        setStateLength(State.Ico5, 5 days);\n        setStateLength(State.Ico6, 5 days);\n\n        // the total sale ether cap is distributed evenly over all selling states\n        // the cap from previous states is accumulated in consequent states\n        etherCaps[uint(State.Preico1)] = singleStateEtherCap;\n        etherCaps[uint(State.Preico2)] = singleStateEtherCap.mul(2);\n        etherCaps[uint(State.Ico1)] = singleStateEtherCap.mul(3);\n        etherCaps[uint(State.Ico2)] = singleStateEtherCap.mul(4);\n        etherCaps[uint(State.Ico3)] = singleStateEtherCap.mul(5);\n        etherCaps[uint(State.Ico4)] = singleStateEtherCap.mul(6);\n        etherCaps[uint(State.Ico5)] = singleStateEtherCap.mul(7);\n        etherCaps[uint(State.Ico6)] = singleStateEtherCap.mul(8);\n    }\n\n    function initialize(\n        address _crowdsale,\n        address _deferredKyc,\n        address _referralManager,\n        address _allocator,\n        address _airdropper,\n        uint saleStartTime,\n        uint singleStateEtherCap\n    )\n    public\n    onlyOwner\n    onlyInState(State.Presale)\n    onlyValidAddress(_crowdsale)\n    onlyValidAddress(_deferredKyc)\n    onlyValidAddress(_referralManager)\n    onlyValidAddress(_allocator)\n    onlyValidAddress(_airdropper)\n    {\n        require(saleStartTime >= now);\n        require(singleStateEtherCap > 0);\n        crowdsale = _crowdsale;\n        deferredKyc = _deferredKyc;\n        referralManager = _referralManager;\n        allocator = _allocator;\n        airdropper = _airdropper;\n        initStates(saleStartTime, singleStateEtherCap);\n    }\n\n    /* --- PUBLIC / EXTERNAL METHODS --- */\n\n    function moveState(uint from, uint to) external onlyInUpdatedState onlyOwner {\n        require(uint(currentState) == from);\n        advanceStateIfNewer(State(to));\n    }\n\n    // override\n    function transferTokenOwnership() external onlyInUpdatedState onlyOwner {\n        require(currentState == State.Finished);\n        token.transferOwnership(owner);\n    }\n\n    // override\n    function getTokensForEther(uint etherAmount) public view returns(uint) {\n        uint tokenAmount = 0;\n        if (currentState == State.Preico1) tokenAmount = etherAmount.mul(PRICE_MULTIPLIER_PREICO1).div(10);\n        else if (currentState == State.Preico2) tokenAmount = etherAmount.mul(PRICE_MULTIPLIER_PREICO2).div(10);\n        else if (currentState == State.Ico1) tokenAmount = etherAmount.mul(PRICE_MULTIPLIER_ICO1).div(10);\n        else if (currentState == State.Ico2) tokenAmount = etherAmount.mul(PRICE_MULTIPLIER_ICO2).div(10);\n        else if (currentState == State.Ico3) tokenAmount = etherAmount.mul(PRICE_MULTIPLIER_ICO3).div(10);\n        else if (currentState == State.Ico4) tokenAmount = etherAmount.mul(PRICE_MULTIPLIER_ICO4).div(10);\n        else if (currentState == State.Ico5) tokenAmount = etherAmount.mul(PRICE_MULTIPLIER_ICO5).div(10);\n        else if (currentState == State.Ico6) tokenAmount = etherAmount.mul(PRICE_MULTIPLIER_ICO6).div(10);\n\n        // bonus\n        if (etherAmount > 10 * 1e18) {\n            tokenAmount = tokenAmount.mul(105).div(100);\n        }\n        else if (etherAmount > 5 * 1e18) {\n            tokenAmount = tokenAmount.mul(103).div(100);\n        }\n        return tokenAmount;\n    }\n\n    function isSellingState() public view returns(bool) {\n        return(uint(currentState) >= uint(State.Preico1) && uint(currentState) <= uint(State.Ico6) && uint(currentState) != uint(State.Break));\n    }\n\n    /* --- INTERNAL METHODS --- */\n\n    // override\n    function getMinimumContribution() public view returns(uint) {\n        if (currentState == State.Preico1 || currentState == State.Preico2) {\n            return MIMIMUM_CONTRIBUTION_AMOUNT_PREICO;\n        }\n        if (uint(currentState) >= uint(State.Ico1) && uint(currentState) <= uint(State.Ico6)) {\n            return MIMIMUM_CONTRIBUTION_AMOUNT_ICO;\n        }\n        return 0;\n    }\n\n    // override\n    function canMint(address account) public view returns(bool) {\n        if (currentState == State.Presale) {\n            // external sales\n            return account == crowdsale;\n        }\n        else if (isSellingState()) {\n            // external sales\n            // approving kyc\n            // adding to kyc\n            // referral fees\n            return account == crowdsale || account == deferredKyc || account == referralManager;\n        }\n        else if (currentState == State.Break || currentState == State.FinishingIco) {\n            // external sales\n            // approving kyc\n            // referral fees\n            return account == crowdsale || account == deferredKyc || account == referralManager;\n        }\n        else if (currentState == State.Allocating) {\n            // Community and Bounty allocations\n            // Advisors, Developers, Ambassadors and Partners allocations\n            // Customer Rewards allocations\n            // Team allocations\n            return account == allocator;\n        }\n        else if (currentState == State.Airdropping) {\n            // airdropping for all token holders\n            return account == airdropper;\n        }\n        return false;\n    }\n\n    // override\n    function updateState() public {\n        updateStateBasedOnTime();\n        updateStateBasedOnContributions();\n    }\n\n    function updateStateBasedOnTime() internal {\n        // move to the next state, if the current one has finished\n        if (now >= startTimes[uint(State.FinishingIco)]) advanceStateIfNewer(State.FinishingIco);\n        else if (now >= startTimes[uint(State.Ico6)]) advanceStateIfNewer(State.Ico6);\n        else if (now >= startTimes[uint(State.Ico5)]) advanceStateIfNewer(State.Ico5);\n        else if (now >= startTimes[uint(State.Ico4)]) advanceStateIfNewer(State.Ico4);\n        else if (now >= startTimes[uint(State.Ico3)]) advanceStateIfNewer(State.Ico3);\n        else if (now >= startTimes[uint(State.Ico2)]) advanceStateIfNewer(State.Ico2);\n        else if (now >= startTimes[uint(State.Ico1)]) advanceStateIfNewer(State.Ico1);\n        else if (now >= startTimes[uint(State.Break)]) advanceStateIfNewer(State.Break);\n        else if (now >= startTimes[uint(State.Preico2)]) advanceStateIfNewer(State.Preico2);\n        else if (now >= startTimes[uint(State.Preico1)]) advanceStateIfNewer(State.Preico1);\n    }\n\n    function updateStateBasedOnContributions() internal {\n        // move to the next state, if the current one's cap has been reached\n        uint totalEtherContributions = confirmedSaleEther.add(reservedSaleEther);\n        if (!isSellingState()) {\n            return;\n        }\n\n        if (int(currentState) < int(State.Break)) {\n            // preico\n            if (totalEtherContributions >= etherCaps[uint(State.Preico2)]) advanceStateIfNewer(State.Break);\n            else if (totalEtherContributions >= etherCaps[uint(State.Preico1)]) advanceStateIfNewer(State.Preico2);\n        }\n        else {\n            // ico\n            if (totalEtherContributions >= etherCaps[uint(State.Ico6)]) advanceStateIfNewer(State.FinishingIco);\n            else if (totalEtherContributions >= etherCaps[uint(State.Ico5)]) advanceStateIfNewer(State.Ico6);\n            else if (totalEtherContributions >= etherCaps[uint(State.Ico4)]) advanceStateIfNewer(State.Ico5);\n            else if (totalEtherContributions >= etherCaps[uint(State.Ico3)]) advanceStateIfNewer(State.Ico4);\n            else if (totalEtherContributions >= etherCaps[uint(State.Ico2)]) advanceStateIfNewer(State.Ico3);\n            else if (totalEtherContributions >= etherCaps[uint(State.Ico1)]) advanceStateIfNewer(State.Ico2);\n        }\n    }\n\n    function advanceStateIfNewer(State newState) internal {\n        if (uint(newState) > uint(currentState)) {\n            emit StateChanged(uint(currentState), uint(newState));\n            currentState = newState;\n        }\n    }\n\n    function setStateLength(State state, uint length) internal {\n        // state length is determined by next state's start time\n        startTimes[uint(state)+1] = startTimes[uint(state)].add(length);\n    }\n\n    function isInitialized() public view returns(bool) {\n        return crowdsale != 0x0 && referralManager != 0x0 && allocator != 0x0 && airdropper != 0x0 && deferredKyc != 0x0;\n    }\n}\n",
  "sourcePath": "/Users/przemek/Projects/allsporter/contracts/Tge.sol",
  "compiler": {
    "name": "solc",
    "version": "0.4.24+commit.e67f0147.Emscripten.clang"
  },
  "schemaVersion": "2.0.0",
  "updatedAt": "2018-07-06T15:10:50.618Z"
}