{
  "contractName": "Tge",
  "abi": [
    {
      "constant": true,
      "inputs": [],
      "name": "currentState",
      "outputs": [
        {
          "name": "",
          "type": "uint8"
        }
      ],
      "payable": false,
      "stateMutability": "view",
      "type": "function"
    },
    {
      "constant": true,
      "inputs": [],
      "name": "reservedSaleEther",
      "outputs": [
        {
          "name": "",
          "type": "uint256"
        }
      ],
      "payable": false,
      "stateMutability": "view",
      "type": "function"
    },
    {
      "constant": false,
      "inputs": [
        {
          "name": "account",
          "type": "address"
        },
        {
          "name": "etherAmount",
          "type": "uint256"
        },
        {
          "name": "tokenAmount",
          "type": "uint256"
        }
      ],
      "name": "mint",
      "outputs": [],
      "payable": false,
      "stateMutability": "nonpayable",
      "type": "function"
    },
    {
      "constant": true,
      "inputs": [],
      "name": "saleEtherCap",
      "outputs": [
        {
          "name": "",
          "type": "uint256"
        }
      ],
      "payable": false,
      "stateMutability": "view",
      "type": "function"
    },
    {
      "constant": true,
      "inputs": [],
      "name": "confirmedSaleEther",
      "outputs": [
        {
          "name": "",
          "type": "uint256"
        }
      ],
      "payable": false,
      "stateMutability": "view",
      "type": "function"
    },
    {
      "constant": true,
      "inputs": [],
      "name": "MIMIMUM_CONTRIBUTION_AMOUNT_ICO",
      "outputs": [
        {
          "name": "",
          "type": "uint256"
        }
      ],
      "payable": false,
      "stateMutability": "view",
      "type": "function"
    },
    {
      "constant": true,
      "inputs": [],
      "name": "MIMIMUM_CONTRIBUTION_AMOUNT_PREICO",
      "outputs": [
        {
          "name": "",
          "type": "uint256"
        }
      ],
      "payable": false,
      "stateMutability": "view",
      "type": "function"
    },
    {
      "constant": true,
      "inputs": [],
      "name": "referralManager",
      "outputs": [
        {
          "name": "",
          "type": "address"
        }
      ],
      "payable": false,
      "stateMutability": "view",
      "type": "function"
    },
    {
      "constant": false,
      "inputs": [
        {
          "name": "account",
          "type": "address"
        },
        {
          "name": "etherAmount",
          "type": "uint256"
        },
        {
          "name": "tokenAmount",
          "type": "uint256"
        }
      ],
      "name": "mintReserved",
      "outputs": [],
      "payable": false,
      "stateMutability": "nonpayable",
      "type": "function"
    },
    {
      "constant": false,
      "inputs": [
        {
          "name": "etherAmount",
          "type": "uint256"
        }
      ],
      "name": "unreserve",
      "outputs": [],
      "payable": false,
      "stateMutability": "nonpayable",
      "type": "function"
    },
    {
      "constant": true,
      "inputs": [
        {
          "name": "",
          "type": "uint256"
        }
      ],
      "name": "startTimes",
      "outputs": [
        {
          "name": "",
          "type": "uint256"
        }
      ],
      "payable": false,
      "stateMutability": "view",
      "type": "function"
    },
    {
      "constant": false,
      "inputs": [
        {
          "name": "etherAmount",
          "type": "uint256"
        }
      ],
      "name": "reserve",
      "outputs": [],
      "payable": false,
      "stateMutability": "nonpayable",
      "type": "function"
    },
    {
      "constant": true,
      "inputs": [],
      "name": "owner",
      "outputs": [
        {
          "name": "",
          "type": "address"
        }
      ],
      "payable": false,
      "stateMutability": "view",
      "type": "function"
    },
    {
      "constant": true,
      "inputs": [],
      "name": "crowdsale",
      "outputs": [
        {
          "name": "",
          "type": "address"
        }
      ],
      "payable": false,
      "stateMutability": "view",
      "type": "function"
    },
    {
      "constant": true,
      "inputs": [],
      "name": "deferredKyc",
      "outputs": [
        {
          "name": "",
          "type": "address"
        }
      ],
      "payable": false,
      "stateMutability": "view",
      "type": "function"
    },
    {
      "constant": true,
      "inputs": [],
      "name": "allocator",
      "outputs": [
        {
          "name": "",
          "type": "address"
        }
      ],
      "payable": false,
      "stateMutability": "view",
      "type": "function"
    },
    {
      "constant": true,
      "inputs": [
        {
          "name": "",
          "type": "uint256"
        }
      ],
      "name": "etherCaps",
      "outputs": [
        {
          "name": "",
          "type": "uint256"
        }
      ],
      "payable": false,
      "stateMutability": "view",
      "type": "function"
    },
    {
      "constant": true,
      "inputs": [],
      "name": "airdropper",
      "outputs": [
        {
          "name": "",
          "type": "address"
        }
      ],
      "payable": false,
      "stateMutability": "view",
      "type": "function"
    },
    {
      "constant": false,
      "inputs": [
        {
          "name": "newOwner",
          "type": "address"
        }
      ],
      "name": "transferOwnership",
      "outputs": [],
      "payable": false,
      "stateMutability": "nonpayable",
      "type": "function"
    },
    {
      "constant": true,
      "inputs": [],
      "name": "token",
      "outputs": [
        {
          "name": "",
          "type": "address"
        }
      ],
      "payable": false,
      "stateMutability": "view",
      "type": "function"
    },
    {
      "inputs": [
        {
          "name": "_token",
          "type": "address"
        },
        {
          "name": "_saleEtherCap",
          "type": "uint256"
        },
        {
          "name": "saleStartTime",
          "type": "uint256"
        },
        {
          "name": "singleStateEtherCap",
          "type": "uint256"
        }
      ],
      "payable": false,
      "stateMutability": "nonpayable",
      "type": "constructor"
    },
    {
      "anonymous": false,
      "inputs": [
        {
          "indexed": false,
          "name": "from",
          "type": "uint256"
        },
        {
          "indexed": false,
          "name": "to",
          "type": "uint256"
        }
      ],
      "name": "StateChanged",
      "type": "event"
    },
    {
      "anonymous": false,
      "inputs": [
        {
          "indexed": true,
          "name": "account",
          "type": "address"
        },
        {
          "indexed": false,
          "name": "etherAmount",
          "type": "uint256"
        },
        {
          "indexed": false,
          "name": "tokenAmount",
          "type": "uint256"
        }
      ],
      "name": "Minted",
      "type": "event"
    },
    {
      "anonymous": false,
      "inputs": [
        {
          "indexed": false,
          "name": "etherAmount",
          "type": "uint256"
        }
      ],
      "name": "Reserved",
      "type": "event"
    },
    {
      "anonymous": false,
      "inputs": [
        {
          "indexed": true,
          "name": "account",
          "type": "address"
        },
        {
          "indexed": false,
          "name": "etherAmount",
          "type": "uint256"
        },
        {
          "indexed": false,
          "name": "tokenAmount",
          "type": "uint256"
        }
      ],
      "name": "MintedReserved",
      "type": "event"
    },
    {
      "anonymous": false,
      "inputs": [
        {
          "indexed": false,
          "name": "etherAmount",
          "type": "uint256"
        }
      ],
      "name": "Unreserved",
      "type": "event"
    },
    {
      "anonymous": false,
      "inputs": [
        {
          "indexed": true,
          "name": "previousOwner",
          "type": "address"
        },
        {
          "indexed": true,
          "name": "newOwner",
          "type": "address"
        }
      ],
      "name": "OwnershipTransferred",
      "type": "event"
    },
    {
      "constant": false,
      "inputs": [
        {
          "name": "_crowdsale",
          "type": "address"
        },
        {
          "name": "_deferredKyc",
          "type": "address"
        },
        {
          "name": "_referralManager",
          "type": "address"
        },
        {
          "name": "_allocator",
          "type": "address"
        },
        {
          "name": "_airdropper",
          "type": "address"
        }
      ],
      "name": "initialize",
      "outputs": [],
      "payable": false,
      "stateMutability": "nonpayable",
      "type": "function"
    },
    {
      "constant": false,
      "inputs": [
        {
          "name": "from",
          "type": "uint256"
        },
        {
          "name": "to",
          "type": "uint256"
        }
      ],
      "name": "moveState",
      "outputs": [],
      "payable": false,
      "stateMutability": "nonpayable",
      "type": "function"
    },
    {
      "constant": false,
      "inputs": [],
      "name": "transferTokenOwnership",
      "outputs": [],
      "payable": false,
      "stateMutability": "nonpayable",
      "type": "function"
    },
    {
      "constant": true,
      "inputs": [
        {
          "name": "etherAmount",
          "type": "uint256"
        }
      ],
      "name": "getTokensForEther",
      "outputs": [
        {
          "name": "",
          "type": "uint256"
        }
      ],
      "payable": false,
      "stateMutability": "view",
      "type": "function"
    },
    {
      "constant": true,
      "inputs": [],
      "name": "isSellingState",
      "outputs": [
        {
          "name": "",
          "type": "bool"
        }
      ],
      "payable": false,
      "stateMutability": "view",
      "type": "function"
    },
    {
      "constant": true,
      "inputs": [],
      "name": "getMinimumContribution",
      "outputs": [
        {
          "name": "",
          "type": "uint256"
        }
      ],
      "payable": false,
      "stateMutability": "view",
      "type": "function"
    },
    {
      "constant": true,
      "inputs": [
        {
          "name": "account",
          "type": "address"
        }
      ],
      "name": "canMint",
      "outputs": [
        {
          "name": "",
          "type": "bool"
        }
      ],
      "payable": false,
      "stateMutability": "view",
      "type": "function"
    },
    {
      "constant": false,
      "inputs": [],
      "name": "updateState",
      "outputs": [],
      "payable": false,
      "stateMutability": "nonpayable",
      "type": "function"
    },
    {
      "constant": true,
      "inputs": [],
      "name": "isInitialized",
      "outputs": [
        {
          "name": "",
          "type": "bool"
        }
      ],
      "payable": false,
      "stateMutability": "view",
      "type": "function"
    }
  ],
  "bytecode": "0x60806040526000600960146101000a81548160ff0219169083600d8111156200002457fe5b02179055503480156200003657600080fd5b5060405160808062002b47833981018060405281019080805190602001909291908051906020019092919080519060200190929190805190602001909291905050508383336000806101000a81548173ffffffffffffffffffffffffffffffffffffffff021916908373ffffffffffffffffffffffffffffffffffffffff1602179055508160008173ffffffffffffffffffffffffffffffffffffffff1614151515620000e257600080fd5b600082111515620000f257600080fd5b82600160006101000a81548173ffffffffffffffffffffffffffffffffffffffff021916908373ffffffffffffffffffffffffffffffffffffffff160217905550816002819055505050504282101515156200014d57600080fd5b6000811115156200015d57600080fd5b62000178828262000182640100000000026401000000009004565b50505050620005a9565b81600a60006001600d8111156200019557fe5b815260200190815260200160002081905550620001c6600162069780620004df640100000000026401000000009004565b620001e5600262069780620004df640100000000026401000000009004565b6200020460036203f480620004df640100000000026401000000009004565b62000223600462069780620004df640100000000026401000000009004565b62000242600562069780620004df640100000000026401000000009004565b62000261600662069780620004df640100000000026401000000009004565b62000280600762069780620004df640100000000026401000000009004565b6200029f600862069780620004df640100000000026401000000009004565b620002be600962069780620004df640100000000026401000000009004565b80600b60006001600d811115620002d157fe5b815260200190815260200160002081905550620003076002826200054b640100000000026200243b179091906401000000009004565b600b60006002600d8111156200031957fe5b8152602001908152602001600020819055506200034f6003826200054b640100000000026200243b179091906401000000009004565b600b60006004600d8111156200036157fe5b815260200190815260200160002081905550620003976004826200054b640100000000026200243b179091906401000000009004565b600b60006005600d811115620003a957fe5b815260200190815260200160002081905550620003df6005826200054b640100000000026200243b179091906401000000009004565b600b60006006600d811115620003f157fe5b815260200190815260200160002081905550620004276006826200054b640100000000026200243b179091906401000000009004565b600b60006007600d8111156200043957fe5b8152602001908152602001600020819055506200046f6007826200054b640100000000026200243b179091906401000000009004565b600b60006008600d8111156200048157fe5b815260200190815260200160002081905550620004b76008826200054b640100000000026200243b179091906401000000009004565b600b60006009600d811115620004c957fe5b8152602001908152602001600020819055505050565b6200052181600a600085600d811115620004f557fe5b8152602001908152602001600020546200058a6401000000000262001fd4179091906401000000009004565b600a6000600185600d8111156200053457fe5b018152602001908152602001600020819055505050565b600080600084141562000562576000915062000583565b82840290508284828115156200057457fe5b041415156200057f57fe5b8091505b5092915050565b60008082840190508381101515156200059f57fe5b8091505092915050565b61258e80620005b96000396000f300608060405260043610610175576000357c0100000000000000000000000000000000000000000000000000000000900463ffffffff1680630c3f6acf1461017a57806311d36bf5146101b35780631459457a146101de578063156e29f6146102a15780631d8557d7146102f85780631fd4b40c1461030f57806324e846c71461033a578063263b694a14610365578063272ae0b5146103905780632ccd9623146103bb578063392e53cd146104125780634056675e1461044157806362dbf26114610458578063663f85491461049957806376b5d926146104f057806377bbebe61461051d578063819b25ba1461055e5780638da5cb5b1461058b5780639c1e03a0146105e2578063a1960d8014610639578063aa5dcecc14610690578063b5b22a18146106e7578063c2ba474414610728578063c9d6838914610783578063eaf86db3146107da578063ebb9ab2514610809578063f2fde38b14610840578063f84038b114610883578063fc0c546a146108ae575b600080fd5b34801561018657600080fd5b5061018f610905565b6040518082600d81111561019f57fe5b60ff16815260200191505060405180910390f35b3480156101bf57600080fd5b506101c8610918565b6040518082815260200191505060405180910390f35b3480156101ea57600080fd5b5061029f600480360381019080803573ffffffffffffffffffffffffffffffffffffffff169060200190929190803573ffffffffffffffffffffffffffffffffffffffff169060200190929190803573ffffffffffffffffffffffffffffffffffffffff169060200190929190803573ffffffffffffffffffffffffffffffffffffffff169060200190929190803573ffffffffffffffffffffffffffffffffffffffff16906020019092919050505061091e565b005b3480156102ad57600080fd5b506102f6600480360381019080803573ffffffffffffffffffffffffffffffffffffffff1690602001909291908035906020019092919080359060200190929190505050610ba1565b005b34801561030457600080fd5b5061030d610d7d565b005b34801561031b57600080fd5b50610324610d8f565b6040518082815260200191505060405180910390f35b34801561034657600080fd5b5061034f610d95565b6040518082815260200191505060405180910390f35b34801561037157600080fd5b5061037a610d9b565b6040518082815260200191505060405180910390f35b34801561039c57600080fd5b506103a5610da7565b6040518082815260200191505060405180910390f35b3480156103c757600080fd5b506103d0610db3565b604051808273ffffffffffffffffffffffffffffffffffffffff1673ffffffffffffffffffffffffffffffffffffffff16815260200191505060405180910390f35b34801561041e57600080fd5b50610427610dd9565b604051808215151515815260200191505060405180910390f35b34801561044d57600080fd5b50610456610f30565b005b34801561046457600080fd5b50610483600480360381019080803590602001909291905050506110be565b6040518082815260200191505060405180910390f35b3480156104a557600080fd5b506104ee600480360381019080803573ffffffffffffffffffffffffffffffffffffffff1690602001909291908035906020019092919080359060200190929190505050611432565b005b3480156104fc57600080fd5b5061051b600480360381019080803590602001909291905050506115e8565b005b34801561052957600080fd5b5061054860048036038101908080359060200190929190505050611661565b6040518082815260200191505060405180910390f35b34801561056a57600080fd5b5061058960048036038101908080359060200190929190505050611679565b005b34801561059757600080fd5b506105a061174b565b604051808273ffffffffffffffffffffffffffffffffffffffff1673ffffffffffffffffffffffffffffffffffffffff16815260200191505060405180910390f35b3480156105ee57600080fd5b506105f7611770565b604051808273ffffffffffffffffffffffffffffffffffffffff1673ffffffffffffffffffffffffffffffffffffffff16815260200191505060405180910390f35b34801561064557600080fd5b5061064e611796565b604051808273ffffffffffffffffffffffffffffffffffffffff1673ffffffffffffffffffffffffffffffffffffffff16815260200191505060405180910390f35b34801561069c57600080fd5b506106a56117bc565b604051808273ffffffffffffffffffffffffffffffffffffffff1673ffffffffffffffffffffffffffffffffffffffff16815260200191505060405180910390f35b3480156106f357600080fd5b50610712600480360381019080803590602001909291905050506117e2565b6040518082815260200191505060405180910390f35b34801561073457600080fd5b50610769600480360381019080803573ffffffffffffffffffffffffffffffffffffffff1690602001909291905050506117fa565b604051808215151515815260200191505060405180910390f35b34801561078f57600080fd5b50610798611c12565b604051808273ffffffffffffffffffffffffffffffffffffffff1673ffffffffffffffffffffffffffffffffffffffff16815260200191505060405180910390f35b3480156107e657600080fd5b506107ef611c38565b604051808215151515815260200191505060405180910390f35b34801561081557600080fd5b5061083e6004803603810190808035906020019092919080359060200190929190505050611ccd565b005b34801561084c57600080fd5b50610881600480360381019080803573ffffffffffffffffffffffffffffffffffffffff169060200190929190505050611d70565b005b34801561088f57600080fd5b50610898611ec5565b6040518082815260200191505060405180910390f35b3480156108ba57600080fd5b506108c3611fae565b604051808273ffffffffffffffffffffffffffffffffffffffff1673ffffffffffffffffffffffffffffffffffffffff16815260200191505060405180910390f35b600960149054906101000a900460ff1681565b60045481565b6000809054906101000a900473ffffffffffffffffffffffffffffffffffffffff1673ffffffffffffffffffffffffffffffffffffffff163373ffffffffffffffffffffffffffffffffffffffff1614151561097957600080fd5b610981610dd9565b15151561098d57600080fd5b8460008173ffffffffffffffffffffffffffffffffffffffff16141515156109b457600080fd5b8460008173ffffffffffffffffffffffffffffffffffffffff16141515156109db57600080fd5b8460008173ffffffffffffffffffffffffffffffffffffffff1614151515610a0257600080fd5b8460008173ffffffffffffffffffffffffffffffffffffffff1614151515610a2957600080fd5b8460008173ffffffffffffffffffffffffffffffffffffffff1614151515610a5057600080fd5b89600560006101000a81548173ffffffffffffffffffffffffffffffffffffffff021916908373ffffffffffffffffffffffffffffffffffffffff16021790555088600660006101000a81548173ffffffffffffffffffffffffffffffffffffffff021916908373ffffffffffffffffffffffffffffffffffffffff16021790555087600760006101000a81548173ffffffffffffffffffffffffffffffffffffffff021916908373ffffffffffffffffffffffffffffffffffffffff16021790555086600860006101000a81548173ffffffffffffffffffffffffffffffffffffffff021916908373ffffffffffffffffffffffffffffffffffffffff16021790555085600960006101000a81548173ffffffffffffffffffffffffffffffffffffffff021916908373ffffffffffffffffffffffffffffffffffffffff16021790555050505050505050505050565b610ba9610d7d565b610bb2336117fa565b1515610bbd57600080fd5b816000610be982610bdb600454600354611fd490919063ffffffff16565b611fd490919063ffffffff16565b90506002548111151515610bfc57600080fd5b610c1184600354611fd490919063ffffffff16565b600381905550600160009054906101000a900473ffffffffffffffffffffffffffffffffffffffff1673ffffffffffffffffffffffffffffffffffffffff166340c10f1986856040518363ffffffff167c0100000000000000000000000000000000000000000000000000000000028152600401808373ffffffffffffffffffffffffffffffffffffffff1673ffffffffffffffffffffffffffffffffffffffff16815260200182815260200192505050602060405180830381600087803b158015610cdc57600080fd5b505af1158015610cf0573d6000803e3d6000fd5b505050506040513d6020811015610d0657600080fd5b810190808051906020019092919050505050610d20610d7d565b8473ffffffffffffffffffffffffffffffffffffffff167f25b428dfde728ccfaddad7e29e4ac23c24ed7fd1a6e3e3f91894a9a073f5dfff8585604051808381526020018281526020019250505060405180910390a25050505050565b610d85611ff2565b610d8d61221f565b565b60025481565b60035481565b6702c68af0bb14000081565b670de0b6b3a764000081565b600760009054906101000a900473ffffffffffffffffffffffffffffffffffffffff1681565b600080600560009054906101000a900473ffffffffffffffffffffffffffffffffffffffff1673ffffffffffffffffffffffffffffffffffffffff1614158015610e5c57506000600760009054906101000a900473ffffffffffffffffffffffffffffffffffffffff1673ffffffffffffffffffffffffffffffffffffffff1614155b8015610ea157506000600860009054906101000a900473ffffffffffffffffffffffffffffffffffffffff1673ffffffffffffffffffffffffffffffffffffffff1614155b8015610ee657506000600960009054906101000a900473ffffffffffffffffffffffffffffffffffffffff1673ffffffffffffffffffffffffffffffffffffffff1614155b8015610f2b57506000600660009054906101000a900473ffffffffffffffffffffffffffffffffffffffff1673ffffffffffffffffffffffffffffffffffffffff1614155b905090565b610f38610d7d565b6000809054906101000a900473ffffffffffffffffffffffffffffffffffffffff1673ffffffffffffffffffffffffffffffffffffffff163373ffffffffffffffffffffffffffffffffffffffff16141515610f9357600080fd5b600d80811115610f9f57fe5b600960149054906101000a900460ff16600d811115610fba57fe5b141515610fc657600080fd5b600160009054906101000a900473ffffffffffffffffffffffffffffffffffffffff1673ffffffffffffffffffffffffffffffffffffffff1663f2fde38b6000809054906101000a900473ffffffffffffffffffffffffffffffffffffffff166040518263ffffffff167c0100000000000000000000000000000000000000000000000000000000028152600401808273ffffffffffffffffffffffffffffffffffffffff1673ffffffffffffffffffffffffffffffffffffffff168152602001915050600060405180830381600087803b1580156110a457600080fd5b505af11580156110b8573d6000803e3d6000fd5b50505050565b600080600090506001600d8111156110d257fe5b600960149054906101000a900460ff16600d8111156110ed57fe5b14156111225761111b600a61110d619a818661243b90919063ffffffff16565b61247690919063ffffffff16565b90506113b0565b6002600d81111561112f57fe5b600960149054906101000a900460ff16600d81111561114a57fe5b141561117f57611178600a61116a61952d8661243b90919063ffffffff16565b61247690919063ffffffff16565b90506113af565b6004600d81111561118c57fe5b600960149054906101000a900460ff16600d8111156111a757fe5b14156111dc576111d5600a6111c76187318661243b90919063ffffffff16565b61247690919063ffffffff16565b90506113ae565b6005600d8111156111e957fe5b600960149054906101000a900460ff16600d81111561120457fe5b141561123957611232600a6112246183178661243b90919063ffffffff16565b61247690919063ffffffff16565b90506113ad565b6006600d81111561124657fe5b600960149054906101000a900460ff16600d81111561126157fe5b14156112965761128f600a611281617b998661243b90919063ffffffff16565b61247690919063ffffffff16565b90506113ac565b6007600d8111156112a357fe5b600960149054906101000a900460ff16600d8111156112be57fe5b14156112f3576112ec600a6112de61782a8661243b90919063ffffffff16565b61247690919063ffffffff16565b90506113ab565b6008600d81111561130057fe5b600960149054906101000a900460ff16600d81111561131b57fe5b141561135057611349600a61133b6171d78661243b90919063ffffffff16565b61247690919063ffffffff16565b90506113aa565b6009600d81111561135d57fe5b600960149054906101000a900460ff16600d81111561137857fe5b14156113a9576113a6600a611398616c268661243b90919063ffffffff16565b61247690919063ffffffff16565b90505b5b5b5b5b5b5b5b678ac7230489e800008311156113ee576113e760646113d960698461243b90919063ffffffff16565b61247690919063ffffffff16565b9050611429565b674563918244f4000083111561142857611425606461141760678461243b90919063ffffffff16565b61247690919063ffffffff16565b90505b5b80915050919050565b61143a610d7d565b611443336117fa565b151561144e57600080fd5b6114638260045461249190919063ffffffff16565b60048190555061147e82600354611fd490919063ffffffff16565b600381905550600160009054906101000a900473ffffffffffffffffffffffffffffffffffffffff1673ffffffffffffffffffffffffffffffffffffffff166340c10f1984836040518363ffffffff167c0100000000000000000000000000000000000000000000000000000000028152600401808373ffffffffffffffffffffffffffffffffffffffff1673ffffffffffffffffffffffffffffffffffffffff16815260200182815260200192505050602060405180830381600087803b15801561154957600080fd5b505af115801561155d573d6000803e3d6000fd5b505050506040513d602081101561157357600080fd5b81019080805190602001909291905050505061158d610d7d565b8273ffffffffffffffffffffffffffffffffffffffff167f836db2a45fd007fb86f824d475eeebdf19516c0c16eded06df2fa4594a1188348383604051808381526020018281526020019250505060405180910390a2505050565b6115f0610d7d565b6115f9336117fa565b151561160457600080fd5b6116198160045461249190919063ffffffff16565b600481905550611627610d7d565b7f3e9608ee93b29804c1c97a39ae6b68ca41b31ec84716dc2904413806fe7a2f3e816040518082815260200191505060405180910390a150565b600a6020528060005260406000206000915090505481565b611681610d7d565b61168a336117fa565b151561169557600080fd5b8060006116c1826116b3600454600354611fd490919063ffffffff16565b611fd490919063ffffffff16565b905060025481111515156116d457600080fd5b826116dd611ec5565b81101515156116eb57600080fd5b61170084600454611fd490919063ffffffff16565b60048190555061170e610d7d565b7f672216a7a59f7b075c6becc0eebb0ab5404d392281d509c1c1a4a6accd036f49846040518082815260200191505060405180910390a150505050565b6000809054906101000a900473ffffffffffffffffffffffffffffffffffffffff1681565b600560009054906101000a900473ffffffffffffffffffffffffffffffffffffffff1681565b600660009054906101000a900473ffffffffffffffffffffffffffffffffffffffff1681565b600860009054906101000a900473ffffffffffffffffffffffffffffffffffffffff1681565b600b6020528060005260406000206000915090505481565b600080600d81111561180857fe5b600960149054906101000a900460ff16600d81111561182357fe5b141561188157600560009054906101000a900473ffffffffffffffffffffffffffffffffffffffff1673ffffffffffffffffffffffffffffffffffffffff168273ffffffffffffffffffffffffffffffffffffffff16149050611c0d565b611889611c38565b1561199657600560009054906101000a900473ffffffffffffffffffffffffffffffffffffffff1673ffffffffffffffffffffffffffffffffffffffff168273ffffffffffffffffffffffffffffffffffffffff1614806119375750600660009054906101000a900473ffffffffffffffffffffffffffffffffffffffff1673ffffffffffffffffffffffffffffffffffffffff168273ffffffffffffffffffffffffffffffffffffffff16145b8061198f5750600760009054906101000a900473ffffffffffffffffffffffffffffffffffffffff1673ffffffffffffffffffffffffffffffffffffffff168273ffffffffffffffffffffffffffffffffffffffff16145b9050611c0d565b6003600d8111156119a357fe5b600960149054906101000a900460ff16600d8111156119be57fe5b14806119ef5750600a600d8111156119d257fe5b600960149054906101000a900460ff16600d8111156119ed57fe5b145b15611afc57600560009054906101000a900473ffffffffffffffffffffffffffffffffffffffff1673ffffffffffffffffffffffffffffffffffffffff168273ffffffffffffffffffffffffffffffffffffffff161480611a9d5750600660009054906101000a900473ffffffffffffffffffffffffffffffffffffffff1673ffffffffffffffffffffffffffffffffffffffff168273ffffffffffffffffffffffffffffffffffffffff16145b80611af55750600760009054906101000a900473ffffffffffffffffffffffffffffffffffffffff1673ffffffffffffffffffffffffffffffffffffffff168273ffffffffffffffffffffffffffffffffffffffff16145b9050611c0d565b600b600d811115611b0957fe5b600960149054906101000a900460ff16600d811115611b2457fe5b1415611b8257600860009054906101000a900473ffffffffffffffffffffffffffffffffffffffff1673ffffffffffffffffffffffffffffffffffffffff168273ffffffffffffffffffffffffffffffffffffffff16149050611c0d565b600c600d811115611b8f57fe5b600960149054906101000a900460ff16600d811115611baa57fe5b1415611c0857600960009054906101000a900473ffffffffffffffffffffffffffffffffffffffff1673ffffffffffffffffffffffffffffffffffffffff168273ffffffffffffffffffffffffffffffffffffffff16149050611c0d565b600090505b919050565b600960009054906101000a900473ffffffffffffffffffffffffffffffffffffffff1681565b60006001600d811115611c4757fe5b600960149054906101000a900460ff16600d811115611c6257fe5b10158015611c9657506009600d811115611c7857fe5b600960149054906101000a900460ff16600d811115611c9357fe5b11155b8015611cc857506003600d811115611caa57fe5b600960149054906101000a900460ff16600d811115611cc557fe5b14155b905090565b611cd5610d7d565b6000809054906101000a900473ffffffffffffffffffffffffffffffffffffffff1673ffffffffffffffffffffffffffffffffffffffff163373ffffffffffffffffffffffffffffffffffffffff16141515611d3057600080fd5b81600960149054906101000a900460ff16600d811115611d4c57fe5b141515611d5857600080fd5b611d6c81600d811115611d6757fe5b6124aa565b5050565b6000809054906101000a900473ffffffffffffffffffffffffffffffffffffffff1673ffffffffffffffffffffffffffffffffffffffff163373ffffffffffffffffffffffffffffffffffffffff16141515611dcb57600080fd5b600073ffffffffffffffffffffffffffffffffffffffff168173ffffffffffffffffffffffffffffffffffffffff1614151515611e0757600080fd5b8073ffffffffffffffffffffffffffffffffffffffff166000809054906101000a900473ffffffffffffffffffffffffffffffffffffffff1673ffffffffffffffffffffffffffffffffffffffff167f8be0079c531659141344cd1fd0a4f28419497f9722a3daafe3b4186f6b6457e060405160405180910390a3806000806101000a81548173ffffffffffffffffffffffffffffffffffffffff021916908373ffffffffffffffffffffffffffffffffffffffff16021790555050565b60006001600d811115611ed457fe5b600960149054906101000a900460ff16600d811115611eef57fe5b1480611f2057506002600d811115611f0357fe5b600960149054906101000a900460ff16600d811115611f1e57fe5b145b15611f3557670de0b6b3a76400009050611fab565b6004600d811115611f4257fe5b600960149054906101000a900460ff16600d811115611f5d57fe5b10158015611f9157506009600d811115611f7357fe5b600960149054906101000a900460ff16600d811115611f8e57fe5b11155b15611fa6576702c68af0bb1400009050611fab565b600090505b90565b600160009054906101000a900473ffffffffffffffffffffffffffffffffffffffff1681565b6000808284019050838110151515611fe857fe5b8091505092915050565b600a6000600a600d81111561200357fe5b8152602001908152602001600020544210151561202957612024600a6124aa565b61221d565b600a60006009600d81111561203a57fe5b815260200190815260200160002054421015156120605761205b60096124aa565b61221c565b600a60006008600d81111561207157fe5b815260200190815260200160002054421015156120975761209260086124aa565b61221b565b600a60006007600d8111156120a857fe5b815260200190815260200160002054421015156120ce576120c960076124aa565b61221a565b600a60006006600d8111156120df57fe5b815260200190815260200160002054421015156121055761210060066124aa565b612219565b600a60006005600d81111561211657fe5b8152602001908152602001600020544210151561213c5761213760056124aa565b612218565b600a60006004600d81111561214d57fe5b815260200190815260200160002054421015156121735761216e60046124aa565b612217565b600a60006003600d81111561218457fe5b815260200190815260200160002054421015156121aa576121a560036124aa565b612216565b600a60006002600d8111156121bb57fe5b815260200190815260200160002054421015156121e1576121dc60026124aa565b612215565b600a60006001600d8111156121f257fe5b815260200190815260200160002054421015156122145761221360016124aa565b5b5b5b5b5b5b5b5b5b5b565b6000612238600454600354611fd490919063ffffffff16565b9050612242611c38565b151561224d57612438565b6003600d81111561225a57fe5b600960149054906101000a900460ff16600d81111561227557fe5b12156122eb57600b60006002600d81111561228c57fe5b815260200190815260200160002054811015156122b2576122ad60036124aa565b6122e6565b600b60006001600d8111156122c357fe5b815260200190815260200160002054811015156122e5576122e460026124aa565b5b5b612437565b600b60006009600d8111156122fc57fe5b815260200190815260200160002054811015156123225761231d600a6124aa565b612436565b600b60006008600d81111561233357fe5b815260200190815260200160002054811015156123595761235460096124aa565b612435565b600b60006007600d81111561236a57fe5b815260200190815260200160002054811015156123905761238b60086124aa565b612434565b600b60006006600d8111156123a157fe5b815260200190815260200160002054811015156123c7576123c260076124aa565b612433565b600b60006005600d8111156123d857fe5b815260200190815260200160002054811015156123fe576123f960066124aa565b612432565b600b60006004600d81111561240f57fe5b815260200190815260200160002054811015156124315761243060056124aa565b5b5b5b5b5b5b5b5b50565b6000806000841415612450576000915061246f565b828402905082848281151561246157fe5b0414151561246b57fe5b8091505b5092915050565b600080828481151561248457fe5b0490508091505092915050565b600082821115151561249f57fe5b818303905092915050565b600960149054906101000a900460ff16600d8111156124c557fe5b81600d8111156124d157fe5b111561255f577f1c0c6794b8c626515ef0eaa59cf29f712f686771b359ff1a5a05738b92d05484600960149054906101000a900460ff16600d81111561251357fe5b82600d81111561251f57fe5b604051808381526020018281526020019250505060405180910390a180600960146101000a81548160ff0219169083600d81111561255957fe5b02179055505b505600a165627a7a7230582095b361ff797f251e28344ff97967d5a9d55e7224bccf02a7c304811abf6619200029",
  "source": "pragma solidity ^0.4.24;\nimport \"zeppelin-solidity/contracts/math/SafeMath.sol\";\nimport \"zeppelin-solidity/contracts/ownership/Ownable.sol\";\nimport \"./Minter.sol\";\n\ncontract Tge is Minter {\n    using SafeMath for uint;\n\n    /* --- CONSTANTS --- */\n\n    uint constant public MIMIMUM_CONTRIBUTION_AMOUNT_PREICO = 1 * 1e18;\n    uint constant public MIMIMUM_CONTRIBUTION_AMOUNT_ICO = 2 * 1e17;\n\n    /* --- EVENTS --- */\n\n    event StateChanged(uint from, uint to);\n\n    /* --- FIELDS --- */\n\n    // minters\n    address public crowdsale;\n    address public deferredKyc;\n    address public referralManager;\n    address public allocator;\n    address public airdropper;\n\n    // state\n    enum State {Presale, Preico1, Preico2, Break, Ico1, Ico2, Ico3, Ico4, Ico5, Ico6, FinishingIco, Allocating, Airdropping, Finished}\n    State public currentState = State.Presale;\n    mapping(uint => uint) public startTimes;\n    mapping(uint => uint) public etherCaps;\n\n    /* --- MODIFIERS --- */\n\n    modifier onlyInState(State _state) {\n        require(_state == currentState);\n        _;\n    }\n\n    modifier onlyInitialized() {\n        require(isInitialized());\n        _;\n    }\n\n    modifier onlyNotInitialized() {\n        require(!isInitialized());\n        _;\n    }\n\n    modifier onlyValidAddress(address account) {\n        require(account != 0x0);\n        _;\n    }\n\n    /* --- CONSTRUCTOR / INITIALIZATION --- */\n\n    constructor(\n        CrowdfundableToken _token,\n        uint _saleEtherCap,\n        uint saleStartTime,\n        uint singleStateEtherCap\n    ) public Minter(_token, _saleEtherCap) {\n        require(saleStartTime >= now);\n        require(singleStateEtherCap > 0);\n        initStates(saleStartTime, singleStateEtherCap);\n    }\n\n    // initialize states start times and caps\n    function initStates(uint saleStart, uint singleStateEtherCap) internal {\n        startTimes[uint(State.Preico1)] = saleStart;\n        setStateLength(State.Preico1, 5 days);\n        setStateLength(State.Preico2, 5 days);\n        setStateLength(State.Break, 3 days);\n        setStateLength(State.Ico1, 5 days);\n        setStateLength(State.Ico2, 5 days);\n        setStateLength(State.Ico3, 5 days);\n        setStateLength(State.Ico4, 5 days);\n        setStateLength(State.Ico5, 5 days);\n        setStateLength(State.Ico6, 5 days);\n\n        // the total sale ether cap is distributed evenly over all selling states\n        // the cap from previous states is accumulated in consequent states\n        etherCaps[uint(State.Preico1)] = singleStateEtherCap;\n        etherCaps[uint(State.Preico2)] = singleStateEtherCap.mul(2);\n        etherCaps[uint(State.Ico1)] = singleStateEtherCap.mul(3);\n        etherCaps[uint(State.Ico2)] = singleStateEtherCap.mul(4);\n        etherCaps[uint(State.Ico3)] = singleStateEtherCap.mul(5);\n        etherCaps[uint(State.Ico4)] = singleStateEtherCap.mul(6);\n        etherCaps[uint(State.Ico5)] = singleStateEtherCap.mul(7);\n        etherCaps[uint(State.Ico6)] = singleStateEtherCap.mul(8);\n    }\n\n    function initialize(\n        address _crowdsale,\n        address _deferredKyc,\n        address _referralManager,\n        address _allocator,\n        address _airdropper\n    )\n    public\n    onlyOwner\n    onlyNotInitialized // initialize only once\n    onlyValidAddress(_crowdsale)\n    onlyValidAddress(_deferredKyc)\n    onlyValidAddress(_referralManager)\n    onlyValidAddress(_allocator)\n    onlyValidAddress(_airdropper)\n    {\n        crowdsale = _crowdsale;\n        deferredKyc = _deferredKyc;\n        referralManager = _referralManager;\n        allocator = _allocator;\n        airdropper = _airdropper;\n    }\n\n    /* --- PUBLIC / EXTERNAL METHODS --- */\n\n    function moveState(uint from, uint to) external onlyInUpdatedState onlyOwner {\n        require(uint(currentState) == from);\n        advanceStateIfNewer(State(to));\n    }\n\n    // override\n    function transferTokenOwnership() external onlyInUpdatedState onlyOwner {\n        require(currentState == State.Finished);\n        token.transferOwnership(owner);\n    }\n\n    // override\n    function getTokensForEther(uint etherAmount) public view returns(uint) {\n        uint tokenAmount = 0;\n        if (currentState == State.Preico1) tokenAmount = etherAmount.mul(39553).div(10);\n        else if (currentState == State.Preico2) tokenAmount = etherAmount.mul(38189).div(10);\n        else if (currentState == State.Ico1) tokenAmount = etherAmount.mul(34609).div(10);\n        else if (currentState == State.Ico2) tokenAmount = etherAmount.mul(33559).div(10);\n        else if (currentState == State.Ico3) tokenAmount = etherAmount.mul(31641).div(10);\n        else if (currentState == State.Ico4) tokenAmount = etherAmount.mul(30762).div(10);\n        else if (currentState == State.Ico5) tokenAmount = etherAmount.mul(29143).div(10);\n        else if (currentState == State.Ico6) tokenAmount = etherAmount.mul(27686).div(10);\n\n        // bonus\n        if (etherAmount > 10 * 1e18) {\n            tokenAmount = tokenAmount.mul(105).div(100);\n        }\n        else if (etherAmount > 5 * 1e18) {\n            tokenAmount = tokenAmount.mul(103).div(100);\n        }\n        return tokenAmount;\n    }\n\n    function isSellingState() public view returns(bool) {\n        return(uint(currentState) >= uint(State.Preico1) && uint(currentState) <= uint(State.Ico6) && uint(currentState) != uint(State.Break));\n    }\n\n    /* --- INTERNAL METHODS --- */\n\n    // override\n    function getMinimumContribution() public view returns(uint) {\n        if (currentState == State.Preico1 || currentState == State.Preico2) {\n            return MIMIMUM_CONTRIBUTION_AMOUNT_PREICO;\n        }\n        if (uint(currentState) >= uint(State.Ico1) && uint(currentState) <= uint(State.Ico6)) {\n            return MIMIMUM_CONTRIBUTION_AMOUNT_ICO;\n        }\n        return 0;\n    }\n\n    // override\n    function canMint(address account) public view returns(bool) {\n        if (currentState == State.Presale) {\n            // external sales\n            return account == crowdsale;\n        }\n        else if (isSellingState()) {\n            // external sales\n            // approving kyc\n            // adding to kyc\n            // referral fees\n            return account == crowdsale || account == deferredKyc || account == referralManager;\n        }\n        else if (currentState == State.Break || currentState == State.FinishingIco) {\n            // external sales\n            // approving kyc\n            // referral fees\n            return account == crowdsale || account == deferredKyc || account == referralManager;\n        }\n        else if (currentState == State.Allocating) {\n            // Community and Bounty allocations\n            // Advisors, Developers, Ambassadors and Partners allocations\n            // Customer Rewards allocations\n            // Team allocations\n            return account == allocator;\n        }\n        else if (currentState == State.Airdropping) {\n            // airdropping for all token holders\n            return account == airdropper;\n        }\n        return false;\n    }\n\n    // override\n    function updateState() public {\n        updateStateBasedOnTime();\n        updateStateBasedOnContributions();\n    }\n\n    function updateStateBasedOnTime() internal {\n        // move to the next state, if the current one has finished\n        if (now >= startTimes[uint(State.FinishingIco)]) advanceStateIfNewer(State.FinishingIco);\n        else if (now >= startTimes[uint(State.Ico6)]) advanceStateIfNewer(State.Ico6);\n        else if (now >= startTimes[uint(State.Ico5)]) advanceStateIfNewer(State.Ico5);\n        else if (now >= startTimes[uint(State.Ico4)]) advanceStateIfNewer(State.Ico4);\n        else if (now >= startTimes[uint(State.Ico3)]) advanceStateIfNewer(State.Ico3);\n        else if (now >= startTimes[uint(State.Ico2)]) advanceStateIfNewer(State.Ico2);\n        else if (now >= startTimes[uint(State.Ico1)]) advanceStateIfNewer(State.Ico1);\n        else if (now >= startTimes[uint(State.Break)]) advanceStateIfNewer(State.Break);\n        else if (now >= startTimes[uint(State.Preico2)]) advanceStateIfNewer(State.Preico2);\n        else if (now >= startTimes[uint(State.Preico1)]) advanceStateIfNewer(State.Preico1);\n    }\n\n    function updateStateBasedOnContributions() internal {\n        // move to the next state, if the current one's cap has been reached\n        uint totalEtherContributions = confirmedSaleEther.add(reservedSaleEther);\n        if (!isSellingState()) {\n            return;\n        }\n\n        if (int(currentState) < int(State.Break)) {\n            // preico\n            if (totalEtherContributions >= etherCaps[uint(State.Preico2)]) advanceStateIfNewer(State.Break);\n            else if (totalEtherContributions >= etherCaps[uint(State.Preico1)]) advanceStateIfNewer(State.Preico2);\n        }\n        else {\n            // ico\n            if (totalEtherContributions >= etherCaps[uint(State.Ico6)]) advanceStateIfNewer(State.FinishingIco);\n            else if (totalEtherContributions >= etherCaps[uint(State.Ico5)]) advanceStateIfNewer(State.Ico6);\n            else if (totalEtherContributions >= etherCaps[uint(State.Ico4)]) advanceStateIfNewer(State.Ico5);\n            else if (totalEtherContributions >= etherCaps[uint(State.Ico3)]) advanceStateIfNewer(State.Ico4);\n            else if (totalEtherContributions >= etherCaps[uint(State.Ico2)]) advanceStateIfNewer(State.Ico3);\n            else if (totalEtherContributions >= etherCaps[uint(State.Ico1)]) advanceStateIfNewer(State.Ico2);\n        }\n    }\n\n    function advanceStateIfNewer(State newState) internal {\n        if (uint(newState) > uint(currentState)) {\n            emit StateChanged(uint(currentState), uint(newState));\n            currentState = newState;\n        }\n    }\n\n    function setStateLength(State state, uint length) internal {\n        // state length is determined by next state's start time\n        startTimes[uint(state)+1] = startTimes[uint(state)].add(length);\n    }\n\n    function isInitialized() public view returns(bool) {\n        return crowdsale != 0x0 && referralManager != 0x0 && allocator != 0x0 && airdropper != 0x0 && deferredKyc != 0x0;\n    }\n}\n",
  "sourcePath": "/Users/przemek/Projects/allsporter/contracts/Tge.sol",
  "compiler": {
    "name": "solc",
    "version": "0.4.24+commit.e67f0147.Emscripten.clang"
  },
  "schemaVersion": "2.0.0",
  "updatedAt": "2018-07-06T12:38:57.519Z"
}