{
  "contractName": "Tge",
  "abi": [
    {
      "constant": true,
      "inputs": [],
      "name": "currentState",
      "outputs": [
        {
          "name": "",
          "type": "uint8"
        }
      ],
      "payable": false,
      "stateMutability": "view",
      "type": "function"
    },
    {
      "constant": true,
      "inputs": [],
      "name": "reservedSaleEther",
      "outputs": [
        {
          "name": "",
          "type": "uint256"
        }
      ],
      "payable": false,
      "stateMutability": "view",
      "type": "function"
    },
    {
      "constant": false,
      "inputs": [
        {
          "name": "account",
          "type": "address"
        },
        {
          "name": "etherAmount",
          "type": "uint256"
        },
        {
          "name": "tokenAmount",
          "type": "uint256"
        }
      ],
      "name": "mint",
      "outputs": [],
      "payable": false,
      "stateMutability": "nonpayable",
      "type": "function"
    },
    {
      "constant": true,
      "inputs": [],
      "name": "saleEtherCap",
      "outputs": [
        {
          "name": "",
          "type": "uint256"
        }
      ],
      "payable": false,
      "stateMutability": "view",
      "type": "function"
    },
    {
      "constant": true,
      "inputs": [],
      "name": "PRICE_MULTIPLIER_PREICO2",
      "outputs": [
        {
          "name": "",
          "type": "uint256"
        }
      ],
      "payable": false,
      "stateMutability": "view",
      "type": "function"
    },
    {
      "constant": true,
      "inputs": [],
      "name": "confirmedSaleEther",
      "outputs": [
        {
          "name": "",
          "type": "uint256"
        }
      ],
      "payable": false,
      "stateMutability": "view",
      "type": "function"
    },
    {
      "constant": true,
      "inputs": [],
      "name": "MIMIMUM_CONTRIBUTION_AMOUNT_ICO",
      "outputs": [
        {
          "name": "",
          "type": "uint256"
        }
      ],
      "payable": false,
      "stateMutability": "view",
      "type": "function"
    },
    {
      "constant": true,
      "inputs": [],
      "name": "MIMIMUM_CONTRIBUTION_AMOUNT_PREICO",
      "outputs": [
        {
          "name": "",
          "type": "uint256"
        }
      ],
      "payable": false,
      "stateMutability": "view",
      "type": "function"
    },
    {
      "constant": true,
      "inputs": [],
      "name": "referralManager",
      "outputs": [
        {
          "name": "",
          "type": "address"
        }
      ],
      "payable": false,
      "stateMutability": "view",
      "type": "function"
    },
    {
      "constant": true,
      "inputs": [],
      "name": "PRICE_MULTIPLIER_PREICO1",
      "outputs": [
        {
          "name": "",
          "type": "uint256"
        }
      ],
      "payable": false,
      "stateMutability": "view",
      "type": "function"
    },
    {
      "constant": true,
      "inputs": [],
      "name": "PRICE_MULTIPLIER_ICO3",
      "outputs": [
        {
          "name": "",
          "type": "uint256"
        }
      ],
      "payable": false,
      "stateMutability": "view",
      "type": "function"
    },
    {
      "constant": true,
      "inputs": [],
      "name": "PRICE_DIVIDER",
      "outputs": [
        {
          "name": "",
          "type": "uint256"
        }
      ],
      "payable": false,
      "stateMutability": "view",
      "type": "function"
    },
    {
      "constant": true,
      "inputs": [],
      "name": "privateIcoTokensForEther",
      "outputs": [
        {
          "name": "",
          "type": "uint256"
        }
      ],
      "payable": false,
      "stateMutability": "view",
      "type": "function"
    },
    {
      "constant": true,
      "inputs": [],
      "name": "privateIcoEndTime",
      "outputs": [
        {
          "name": "",
          "type": "uint256"
        }
      ],
      "payable": false,
      "stateMutability": "view",
      "type": "function"
    },
    {
      "constant": false,
      "inputs": [
        {
          "name": "account",
          "type": "address"
        },
        {
          "name": "etherAmount",
          "type": "uint256"
        },
        {
          "name": "tokenAmount",
          "type": "uint256"
        }
      ],
      "name": "mintReserved",
      "outputs": [],
      "payable": false,
      "stateMutability": "nonpayable",
      "type": "function"
    },
    {
      "constant": false,
      "inputs": [
        {
          "name": "etherAmount",
          "type": "uint256"
        }
      ],
      "name": "unreserve",
      "outputs": [],
      "payable": false,
      "stateMutability": "nonpayable",
      "type": "function"
    },
    {
      "constant": true,
      "inputs": [
        {
          "name": "",
          "type": "uint256"
        }
      ],
      "name": "startTimes",
      "outputs": [
        {
          "name": "",
          "type": "uint256"
        }
      ],
      "payable": false,
      "stateMutability": "view",
      "type": "function"
    },
    {
      "constant": false,
      "inputs": [
        {
          "name": "etherAmount",
          "type": "uint256"
        }
      ],
      "name": "reserve",
      "outputs": [],
      "payable": false,
      "stateMutability": "nonpayable",
      "type": "function"
    },
    {
      "constant": true,
      "inputs": [],
      "name": "PRICE_MULTIPLIER_ICO5",
      "outputs": [
        {
          "name": "",
          "type": "uint256"
        }
      ],
      "payable": false,
      "stateMutability": "view",
      "type": "function"
    },
    {
      "constant": true,
      "inputs": [],
      "name": "owner",
      "outputs": [
        {
          "name": "",
          "type": "address"
        }
      ],
      "payable": false,
      "stateMutability": "view",
      "type": "function"
    },
    {
      "constant": true,
      "inputs": [],
      "name": "crowdsale",
      "outputs": [
        {
          "name": "",
          "type": "address"
        }
      ],
      "payable": false,
      "stateMutability": "view",
      "type": "function"
    },
    {
      "constant": true,
      "inputs": [],
      "name": "deferredKyc",
      "outputs": [
        {
          "name": "",
          "type": "address"
        }
      ],
      "payable": false,
      "stateMutability": "view",
      "type": "function"
    },
    {
      "constant": true,
      "inputs": [],
      "name": "allocator",
      "outputs": [
        {
          "name": "",
          "type": "address"
        }
      ],
      "payable": false,
      "stateMutability": "view",
      "type": "function"
    },
    {
      "constant": true,
      "inputs": [],
      "name": "PRICE_MULTIPLIER_ICO2",
      "outputs": [
        {
          "name": "",
          "type": "uint256"
        }
      ],
      "payable": false,
      "stateMutability": "view",
      "type": "function"
    },
    {
      "constant": true,
      "inputs": [
        {
          "name": "",
          "type": "uint256"
        }
      ],
      "name": "etherCaps",
      "outputs": [
        {
          "name": "",
          "type": "uint256"
        }
      ],
      "payable": false,
      "stateMutability": "view",
      "type": "function"
    },
    {
      "constant": true,
      "inputs": [],
      "name": "privateIcoMinimumContribution",
      "outputs": [
        {
          "name": "",
          "type": "uint256"
        }
      ],
      "payable": false,
      "stateMutability": "view",
      "type": "function"
    },
    {
      "constant": true,
      "inputs": [],
      "name": "privateIcoFinalized",
      "outputs": [
        {
          "name": "",
          "type": "bool"
        }
      ],
      "payable": false,
      "stateMutability": "view",
      "type": "function"
    },
    {
      "constant": true,
      "inputs": [],
      "name": "airdropper",
      "outputs": [
        {
          "name": "",
          "type": "address"
        }
      ],
      "payable": false,
      "stateMutability": "view",
      "type": "function"
    },
    {
      "constant": true,
      "inputs": [],
      "name": "PRICE_MULTIPLIER_ICO4",
      "outputs": [
        {
          "name": "",
          "type": "uint256"
        }
      ],
      "payable": false,
      "stateMutability": "view",
      "type": "function"
    },
    {
      "constant": true,
      "inputs": [],
      "name": "privateIcoStartTime",
      "outputs": [
        {
          "name": "",
          "type": "uint256"
        }
      ],
      "payable": false,
      "stateMutability": "view",
      "type": "function"
    },
    {
      "constant": true,
      "inputs": [],
      "name": "privateIcoCap",
      "outputs": [
        {
          "name": "",
          "type": "uint256"
        }
      ],
      "payable": false,
      "stateMutability": "view",
      "type": "function"
    },
    {
      "constant": true,
      "inputs": [],
      "name": "PRICE_MULTIPLIER_ICO6",
      "outputs": [
        {
          "name": "",
          "type": "uint256"
        }
      ],
      "payable": false,
      "stateMutability": "view",
      "type": "function"
    },
    {
      "constant": false,
      "inputs": [
        {
          "name": "newOwner",
          "type": "address"
        }
      ],
      "name": "transferOwnership",
      "outputs": [],
      "payable": false,
      "stateMutability": "nonpayable",
      "type": "function"
    },
    {
      "constant": true,
      "inputs": [],
      "name": "PRICE_MULTIPLIER_ICO1",
      "outputs": [
        {
          "name": "",
          "type": "uint256"
        }
      ],
      "payable": false,
      "stateMutability": "view",
      "type": "function"
    },
    {
      "constant": true,
      "inputs": [],
      "name": "token",
      "outputs": [
        {
          "name": "",
          "type": "address"
        }
      ],
      "payable": false,
      "stateMutability": "view",
      "type": "function"
    },
    {
      "inputs": [
        {
          "name": "_token",
          "type": "address"
        },
        {
          "name": "_saleEtherCap",
          "type": "uint256"
        }
      ],
      "payable": false,
      "stateMutability": "nonpayable",
      "type": "constructor"
    },
    {
      "anonymous": false,
      "inputs": [
        {
          "indexed": false,
          "name": "from",
          "type": "uint256"
        },
        {
          "indexed": false,
          "name": "to",
          "type": "uint256"
        }
      ],
      "name": "StateChanged",
      "type": "event"
    },
    {
      "anonymous": false,
      "inputs": [
        {
          "indexed": false,
          "name": "_cap",
          "type": "uint256"
        },
        {
          "indexed": false,
          "name": "_tokensForEther",
          "type": "uint256"
        },
        {
          "indexed": false,
          "name": "_startTime",
          "type": "uint256"
        },
        {
          "indexed": false,
          "name": "_endTime",
          "type": "uint256"
        },
        {
          "indexed": false,
          "name": "_minimumContribution",
          "type": "uint256"
        }
      ],
      "name": "PrivateIcoInitialized",
      "type": "event"
    },
    {
      "anonymous": false,
      "inputs": [],
      "name": "PrivateIcoFinalized",
      "type": "event"
    },
    {
      "anonymous": false,
      "inputs": [
        {
          "indexed": true,
          "name": "account",
          "type": "address"
        },
        {
          "indexed": false,
          "name": "etherAmount",
          "type": "uint256"
        },
        {
          "indexed": false,
          "name": "tokenAmount",
          "type": "uint256"
        }
      ],
      "name": "Minted",
      "type": "event"
    },
    {
      "anonymous": false,
      "inputs": [
        {
          "indexed": false,
          "name": "etherAmount",
          "type": "uint256"
        }
      ],
      "name": "Reserved",
      "type": "event"
    },
    {
      "anonymous": false,
      "inputs": [
        {
          "indexed": true,
          "name": "account",
          "type": "address"
        },
        {
          "indexed": false,
          "name": "etherAmount",
          "type": "uint256"
        },
        {
          "indexed": false,
          "name": "tokenAmount",
          "type": "uint256"
        }
      ],
      "name": "MintedReserved",
      "type": "event"
    },
    {
      "anonymous": false,
      "inputs": [
        {
          "indexed": false,
          "name": "etherAmount",
          "type": "uint256"
        }
      ],
      "name": "Unreserved",
      "type": "event"
    },
    {
      "anonymous": false,
      "inputs": [
        {
          "indexed": true,
          "name": "previousOwner",
          "type": "address"
        },
        {
          "indexed": true,
          "name": "newOwner",
          "type": "address"
        }
      ],
      "name": "OwnershipTransferred",
      "type": "event"
    },
    {
      "constant": false,
      "inputs": [
        {
          "name": "_crowdsale",
          "type": "address"
        },
        {
          "name": "_deferredKyc",
          "type": "address"
        },
        {
          "name": "_referralManager",
          "type": "address"
        },
        {
          "name": "_allocator",
          "type": "address"
        },
        {
          "name": "_airdropper",
          "type": "address"
        },
        {
          "name": "saleStartTime",
          "type": "uint256"
        },
        {
          "name": "singleStateEtherCap",
          "type": "uint256"
        },
        {
          "name": "stateLengths",
          "type": "uint256[]"
        }
      ],
      "name": "setup",
      "outputs": [],
      "payable": false,
      "stateMutability": "nonpayable",
      "type": "function"
    },
    {
      "constant": false,
      "inputs": [
        {
          "name": "from",
          "type": "uint256"
        },
        {
          "name": "to",
          "type": "uint256"
        }
      ],
      "name": "moveState",
      "outputs": [],
      "payable": false,
      "stateMutability": "nonpayable",
      "type": "function"
    },
    {
      "constant": false,
      "inputs": [],
      "name": "transferTokenOwnership",
      "outputs": [],
      "payable": false,
      "stateMutability": "nonpayable",
      "type": "function"
    },
    {
      "constant": true,
      "inputs": [
        {
          "name": "etherAmount",
          "type": "uint256"
        }
      ],
      "name": "getTokensForEther",
      "outputs": [
        {
          "name": "",
          "type": "uint256"
        }
      ],
      "payable": false,
      "stateMutability": "view",
      "type": "function"
    },
    {
      "constant": true,
      "inputs": [],
      "name": "isSellingState",
      "outputs": [
        {
          "name": "",
          "type": "bool"
        }
      ],
      "payable": false,
      "stateMutability": "view",
      "type": "function"
    },
    {
      "constant": true,
      "inputs": [],
      "name": "isPrivateIcoActive",
      "outputs": [
        {
          "name": "",
          "type": "bool"
        }
      ],
      "payable": false,
      "stateMutability": "view",
      "type": "function"
    },
    {
      "constant": false,
      "inputs": [
        {
          "name": "_cap",
          "type": "uint256"
        },
        {
          "name": "_tokensForEther",
          "type": "uint256"
        },
        {
          "name": "_startTime",
          "type": "uint256"
        },
        {
          "name": "_endTime",
          "type": "uint256"
        },
        {
          "name": "_minimumContribution",
          "type": "uint256"
        }
      ],
      "name": "initPrivateIco",
      "outputs": [],
      "payable": false,
      "stateMutability": "nonpayable",
      "type": "function"
    },
    {
      "constant": false,
      "inputs": [],
      "name": "finalizePrivateIco",
      "outputs": [],
      "payable": false,
      "stateMutability": "nonpayable",
      "type": "function"
    },
    {
      "constant": true,
      "inputs": [],
      "name": "getMinimumContribution",
      "outputs": [
        {
          "name": "",
          "type": "uint256"
        }
      ],
      "payable": false,
      "stateMutability": "view",
      "type": "function"
    },
    {
      "constant": true,
      "inputs": [
        {
          "name": "account",
          "type": "address"
        }
      ],
      "name": "canMint",
      "outputs": [
        {
          "name": "",
          "type": "bool"
        }
      ],
      "payable": false,
      "stateMutability": "view",
      "type": "function"
    },
    {
      "constant": false,
      "inputs": [],
      "name": "updateState",
      "outputs": [],
      "payable": false,
      "stateMutability": "nonpayable",
      "type": "function"
    },
    {
      "constant": true,
      "inputs": [],
      "name": "isInitialized",
      "outputs": [
        {
          "name": "",
          "type": "bool"
        }
      ],
      "payable": false,
      "stateMutability": "view",
      "type": "function"
    }
  ],
  "bytecode": "0x60806040526000600960146101000a81548160ff0219169083600d81111561002357fe5b02179055506001600c60006101000a81548160ff0219169083151502179055506000600d556000600e556000600f556000601055600060115534801561006857600080fd5b50604051604080620032b783398101806040528101908080519060200190929190805190602001909291905050508181336000806101000a81548173ffffffffffffffffffffffffffffffffffffffff021916908373ffffffffffffffffffffffffffffffffffffffff1602179055508160008173ffffffffffffffffffffffffffffffffffffffff16141515156100ff57600080fd5b60008211151561010e57600080fd5b82600160006101000a81548173ffffffffffffffffffffffffffffffffffffffff021916908373ffffffffffffffffffffffffffffffffffffffff16021790555081600281905550505050505061314c806200016b6000396000f30060806040526004361061023b576000357c0100000000000000000000000000000000000000000000000000000000900463ffffffff1680630c3f6acf1461024057806311d36bf514610279578063156e29f6146102a45780631d8557d7146102fb5780631fd4b40c14610312578063210d2bba1461033d57806324e846c714610368578063263b694a14610393578063272ae0b5146103be5780632ccd9623146103e9578063379080da14610440578063392e53cd1461046b5780634056675e1461049a578063426d70fa146104b1578063434fb2ae146104e05780635bcbc0f91461050b5780635c49660a1461053657806360b6aa921461056157806362dbf2611461058c578063663f8549146105cd57806376b5d9261461062457806377bbebe614610651578063819b25ba146106925780638449b0af146106bf5780638da5cb5b146106ea578063991bcae8146107415780639c1e03a01461085b578063a1960d80146108b2578063aa5dcecc14610909578063ae9759ff14610960578063b5b22a181461098b578063bbb01c9c146109cc578063bd2c245e146109f7578063c2ba474414610a26578063c9d6838914610a81578063cef2952114610ad8578063cfaa759d14610b03578063d43a7c1614610b2e578063d55b770314610b45578063d8783b0414610b70578063e19bc8e514610b9b578063eaf86db314610bf0578063ebb9ab2514610c1f578063f2fde38b14610c56578063f50b530814610c99578063f84038b114610cc4578063fc0c546a14610cef575b600080fd5b34801561024c57600080fd5b50610255610d46565b6040518082600d81111561026557fe5b60ff16815260200191505060405180910390f35b34801561028557600080fd5b5061028e610d59565b6040518082815260200191505060405180910390f35b3480156102b057600080fd5b506102f9600480360381019080803573ffffffffffffffffffffffffffffffffffffffff1690602001909291908035906020019092919080359060200190929190505050610d5f565b005b34801561030757600080fd5b50610310610f3b565b005b34801561031e57600080fd5b50610327610f4d565b6040518082815260200191505060405180910390f35b34801561034957600080fd5b50610352610f53565b6040518082815260200191505060405180910390f35b34801561037457600080fd5b5061037d610f5a565b6040518082815260200191505060405180910390f35b34801561039f57600080fd5b506103a8610f60565b6040518082815260200191505060405180910390f35b3480156103ca57600080fd5b506103d3610f6c565b6040518082815260200191505060405180910390f35b3480156103f557600080fd5b506103fe610f78565b604051808273ffffffffffffffffffffffffffffffffffffffff1673ffffffffffffffffffffffffffffffffffffffff16815260200191505060405180910390f35b34801561044c57600080fd5b50610455610f9e565b6040518082815260200191505060405180910390f35b34801561047757600080fd5b50610480610fa5565b604051808215151515815260200191505060405180910390f35b3480156104a657600080fd5b506104af6110fc565b005b3480156104bd57600080fd5b506104c661128a565b604051808215151515815260200191505060405180910390f35b3480156104ec57600080fd5b506104f56112a4565b6040518082815260200191505060405180910390f35b34801561051757600080fd5b506105206112ab565b6040518082815260200191505060405180910390f35b34801561054257600080fd5b5061054b6112b1565b6040518082815260200191505060405180910390f35b34801561056d57600080fd5b506105766112b7565b6040518082815260200191505060405180910390f35b34801561059857600080fd5b506105b7600480360381019080803590602001909291905050506112bd565b6040518082815260200191505060405180910390f35b3480156105d957600080fd5b50610622600480360381019080803573ffffffffffffffffffffffffffffffffffffffff1690602001909291908035906020019092919080359060200190929190505050611606565b005b34801561063057600080fd5b5061064f600480360381019080803590602001909291905050506117bc565b005b34801561065d57600080fd5b5061067c60048036038101908080359060200190929190505050611835565b6040518082815260200191505060405180910390f35b34801561069e57600080fd5b506106bd6004803603810190808035906020019092919050505061184d565b005b3480156106cb57600080fd5b506106d461191f565b6040518082815260200191505060405180910390f35b3480156106f657600080fd5b506106ff611926565b604051808273ffffffffffffffffffffffffffffffffffffffff1673ffffffffffffffffffffffffffffffffffffffff16815260200191505060405180910390f35b34801561074d57600080fd5b50610859600480360381019080803573ffffffffffffffffffffffffffffffffffffffff169060200190929190803573ffffffffffffffffffffffffffffffffffffffff169060200190929190803573ffffffffffffffffffffffffffffffffffffffff169060200190929190803573ffffffffffffffffffffffffffffffffffffffff169060200190929190803573ffffffffffffffffffffffffffffffffffffffff16906020019092919080359060200190929190803590602001909291908035906020019082018035906020019080806020026020016040519081016040528093929190818152602001838360200280828437820191505050505050919291929050505061194b565b005b34801561086757600080fd5b50610870611c2c565b604051808273ffffffffffffffffffffffffffffffffffffffff1673ffffffffffffffffffffffffffffffffffffffff16815260200191505060405180910390f35b3480156108be57600080fd5b506108c7611c52565b604051808273ffffffffffffffffffffffffffffffffffffffff1673ffffffffffffffffffffffffffffffffffffffff16815260200191505060405180910390f35b34801561091557600080fd5b5061091e611c78565b604051808273ffffffffffffffffffffffffffffffffffffffff1673ffffffffffffffffffffffffffffffffffffffff16815260200191505060405180910390f35b34801561096c57600080fd5b50610975611c9e565b6040518082815260200191505060405180910390f35b34801561099757600080fd5b506109b660048036038101908080359060200190929190505050611ca5565b6040518082815260200191505060405180910390f35b3480156109d857600080fd5b506109e1611cbd565b6040518082815260200191505060405180910390f35b348015610a0357600080fd5b50610a0c611cc3565b604051808215151515815260200191505060405180910390f35b348015610a3257600080fd5b50610a67600480360381019080803573ffffffffffffffffffffffffffffffffffffffff169060200190929190505050611cd6565b604051808215151515815260200191505060405180910390f35b348015610a8d57600080fd5b50610a96612146565b604051808273ffffffffffffffffffffffffffffffffffffffff1673ffffffffffffffffffffffffffffffffffffffff16815260200191505060405180910390f35b348015610ae457600080fd5b50610aed61216c565b6040518082815260200191505060405180910390f35b348015610b0f57600080fd5b50610b18612173565b6040518082815260200191505060405180910390f35b348015610b3a57600080fd5b50610b43612179565b005b348015610b5157600080fd5b50610b5a612277565b6040518082815260200191505060405180910390f35b348015610b7c57600080fd5b50610b8561227d565b6040518082815260200191505060405180910390f35b348015610ba757600080fd5b50610bee6004803603810190808035906020019092919080359060200190929190803590602001909291908035906020019092919080359060200190929190505050612284565b005b348015610bfc57600080fd5b50610c05612401565b604051808215151515815260200191505060405180910390f35b348015610c2b57600080fd5b50610c5460048036038101908080359060200190929190803590602001909291905050506124d3565b005b348015610c6257600080fd5b50610c97600480360381019080803573ffffffffffffffffffffffffffffffffffffffff169060200190929190505050612576565b005b348015610ca557600080fd5b50610cae6126cb565b6040518082815260200191505060405180910390f35b348015610cd057600080fd5b50610cd96126d2565b6040518082815260200191505060405180910390f35b348015610cfb57600080fd5b50610d046127d2565b604051808273ffffffffffffffffffffffffffffffffffffffff1673ffffffffffffffffffffffffffffffffffffffff16815260200191505060405180910390f35b600960149054906101000a900460ff1681565b60045481565b610d67610f3b565b610d7033611cd6565b1515610d7b57600080fd5b816000610da782610d996004546003546127f890919063ffffffff16565b6127f890919063ffffffff16565b90506002548111151515610dba57600080fd5b610dcf846003546127f890919063ffffffff16565b600381905550600160009054906101000a900473ffffffffffffffffffffffffffffffffffffffff1673ffffffffffffffffffffffffffffffffffffffff166340c10f1986856040518363ffffffff167c0100000000000000000000000000000000000000000000000000000000028152600401808373ffffffffffffffffffffffffffffffffffffffff1673ffffffffffffffffffffffffffffffffffffffff16815260200182815260200192505050602060405180830381600087803b158015610e9a57600080fd5b505af1158015610eae573d6000803e3d6000fd5b505050506040513d6020811015610ec457600080fd5b810190808051906020019092919050505050610ede610f3b565b8473ffffffffffffffffffffffffffffffffffffffff167f25b428dfde728ccfaddad7e29e4ac23c24ed7fd1a6e3e3f91894a9a073f5dfff8585604051808381526020018281526020019250505060405180910390a25050505050565b610f43612816565b610f4b612a43565b565b60025481565b62264fd081565b60035481565b6702c68af0bb14000081565b670de0b6b3a764000081565b600760009054906101000a900473ffffffffffffffffffffffffffffffffffffffff1681565b6227ae3481565b600080600560009054906101000a900473ffffffffffffffffffffffffffffffffffffffff1673ffffffffffffffffffffffffffffffffffffffff161415801561102857506000600760009054906101000a900473ffffffffffffffffffffffffffffffffffffffff1673ffffffffffffffffffffffffffffffffffffffff1614155b801561106d57506000600860009054906101000a900473ffffffffffffffffffffffffffffffffffffffff1673ffffffffffffffffffffffffffffffffffffffff1614155b80156110b257506000600960009054906101000a900473ffffffffffffffffffffffffffffffffffffffff1673ffffffffffffffffffffffffffffffffffffffff1614155b80156110f757506000600660009054906101000a900473ffffffffffffffffffffffffffffffffffffffff1673ffffffffffffffffffffffffffffffffffffffff1614155b905090565b611104610f3b565b6000809054906101000a900473ffffffffffffffffffffffffffffffffffffffff1673ffffffffffffffffffffffffffffffffffffffff163373ffffffffffffffffffffffffffffffffffffffff1614151561115f57600080fd5b600d8081111561116b57fe5b600960149054906101000a900460ff16600d81111561118657fe5b14151561119257600080fd5b600160009054906101000a900473ffffffffffffffffffffffffffffffffffffffff1673ffffffffffffffffffffffffffffffffffffffff1663f2fde38b6000809054906101000a900473ffffffffffffffffffffffffffffffffffffffff166040518263ffffffff167c0100000000000000000000000000000000000000000000000000000000028152600401808273ffffffffffffffffffffffffffffffffffffffff1673ffffffffffffffffffffffffffffffffffffffff168152602001915050600060405180830381600087803b15801561127057600080fd5b505af1158015611284573d6000803e3d6000fd5b50505050565b6000600f54421015801561129f575060105442105b905090565b621fbe2c81565b6103e881565b600e5481565b60105481565b600080600090506112cc61128a565b15611301576112fa6103e86112ec600e5486612c8290919063ffffffff16565b612cbd90919063ffffffff16565b90506115fd565b6001600d81111561130e57fe5b600960149054906101000a900460ff16600d81111561132957fe5b1415611360576113596103e861134b6227ae3486612c8290919063ffffffff16565b612cbd90919063ffffffff16565b90506115fc565b6002600d81111561136d57fe5b600960149054906101000a900460ff16600d81111561138857fe5b14156113bf576113b86103e86113aa62264fd086612c8290919063ffffffff16565b612cbd90919063ffffffff16565b90506115fb565b6004600d8111156113cc57fe5b600960149054906101000a900460ff16600d8111156113e757fe5b141561141e576114176103e86114096222b84886612c8290919063ffffffff16565b612cbd90919063ffffffff16565b90506115fa565b6005600d81111561142b57fe5b600960149054906101000a900460ff16600d81111561144657fe5b141561147d576114766103e86114686221aac086612c8290919063ffffffff16565b612cbd90919063ffffffff16565b90506115f9565b6006600d81111561148a57fe5b600960149054906101000a900460ff16600d8111156114a557fe5b14156114dc576114d56103e86114c7621fbe2c86612c8290919063ffffffff16565b612cbd90919063ffffffff16565b90506115f8565b6007600d8111156114e957fe5b600960149054906101000a900460ff16600d81111561150457fe5b141561153b576115346103e8611526621edc6486612c8290919063ffffffff16565b612cbd90919063ffffffff16565b90506115f7565b6008600d81111561154857fe5b600960149054906101000a900460ff16600d81111561156357fe5b141561159a576115936103e8611585621d3c6086612c8290919063ffffffff16565b612cbd90919063ffffffff16565b90506115f6565b6009600d8111156115a757fe5b600960149054906101000a900460ff16600d8111156115c257fe5b14156115f5576115f26103e86115e4621bc62886612c8290919063ffffffff16565b612cbd90919063ffffffff16565b90505b5b5b5b5b5b5b5b5b80915050919050565b61160e610f3b565b61161733611cd6565b151561162257600080fd5b61163782600454612cd890919063ffffffff16565b600481905550611652826003546127f890919063ffffffff16565b600381905550600160009054906101000a900473ffffffffffffffffffffffffffffffffffffffff1673ffffffffffffffffffffffffffffffffffffffff166340c10f1984836040518363ffffffff167c0100000000000000000000000000000000000000000000000000000000028152600401808373ffffffffffffffffffffffffffffffffffffffff1673ffffffffffffffffffffffffffffffffffffffff16815260200182815260200192505050602060405180830381600087803b15801561171d57600080fd5b505af1158015611731573d6000803e3d6000fd5b505050506040513d602081101561174757600080fd5b810190808051906020019092919050505050611761610f3b565b8273ffffffffffffffffffffffffffffffffffffffff167f836db2a45fd007fb86f824d475eeebdf19516c0c16eded06df2fa4594a1188348383604051808381526020018281526020019250505060405180910390a2505050565b6117c4610f3b565b6117cd33611cd6565b15156117d857600080fd5b6117ed81600454612cd890919063ffffffff16565b6004819055506117fb610f3b565b7f3e9608ee93b29804c1c97a39ae6b68ca41b31ec84716dc2904413806fe7a2f3e816040518082815260200191505060405180910390a150565b600a6020528060005260406000206000915090505481565b611855610f3b565b61185e33611cd6565b151561186957600080fd5b806000611895826118876004546003546127f890919063ffffffff16565b6127f890919063ffffffff16565b905060025481111515156118a857600080fd5b826118b16126d2565b81101515156118bf57600080fd5b6118d4846004546127f890919063ffffffff16565b6004819055506118e2610f3b565b7f672216a7a59f7b075c6becc0eebb0ab5404d392281d509c1c1a4a6accd036f49846040518082815260200191505060405180910390a150505050565b621d3c6081565b6000809054906101000a900473ffffffffffffffffffffffffffffffffffffffff1681565b6000809054906101000a900473ffffffffffffffffffffffffffffffffffffffff1673ffffffffffffffffffffffffffffffffffffffff163373ffffffffffffffffffffffffffffffffffffffff161415156119a657600080fd5b6000600960149054906101000a900460ff16600d8111156119c357fe5b81600d8111156119cf57fe5b1415156119db57600080fd5b8860008173ffffffffffffffffffffffffffffffffffffffff1614151515611a0257600080fd5b8860008173ffffffffffffffffffffffffffffffffffffffff1614151515611a2957600080fd5b8860008173ffffffffffffffffffffffffffffffffffffffff1614151515611a5057600080fd5b8860008173ffffffffffffffffffffffffffffffffffffffff1614151515611a7757600080fd5b8860008173ffffffffffffffffffffffffffffffffffffffff1614151515611a9e57600080fd5b60098751141515611aae57600080fd5b428910151515611abd57600080fd5b600088111515611acc57600080fd5b8d600560006101000a81548173ffffffffffffffffffffffffffffffffffffffff021916908373ffffffffffffffffffffffffffffffffffffffff1602179055508c600660006101000a81548173ffffffffffffffffffffffffffffffffffffffff021916908373ffffffffffffffffffffffffffffffffffffffff1602179055508b600760006101000a81548173ffffffffffffffffffffffffffffffffffffffff021916908373ffffffffffffffffffffffffffffffffffffffff1602179055508a600860006101000a81548173ffffffffffffffffffffffffffffffffffffffff021916908373ffffffffffffffffffffffffffffffffffffffff16021790555089600960006101000a81548173ffffffffffffffffffffffffffffffffffffffff021916908373ffffffffffffffffffffffffffffffffffffffff160217905550611c1c898989612cf1565b5050505050505050505050505050565b600560009054906101000a900473ffffffffffffffffffffffffffffffffffffffff1681565b600660009054906101000a900473ffffffffffffffffffffffffffffffffffffffff1681565b600860009054906101000a900473ffffffffffffffffffffffffffffffffffffffff1681565b6221aac081565b600b6020528060005260406000206000915090505481565b60115481565b600c60009054906101000a900460ff1681565b600080600d811115611ce457fe5b600960149054906101000a900460ff16600d811115611cff57fe5b1415611db557600560009054906101000a900473ffffffffffffffffffffffffffffffffffffffff1673ffffffffffffffffffffffffffffffffffffffff168273ffffffffffffffffffffffffffffffffffffffff161480611dae5750600660009054906101000a900473ffffffffffffffffffffffffffffffffffffffff1673ffffffffffffffffffffffffffffffffffffffff168273ffffffffffffffffffffffffffffffffffffffff16145b9050612141565b611dbd612401565b15611eca57600560009054906101000a900473ffffffffffffffffffffffffffffffffffffffff1673ffffffffffffffffffffffffffffffffffffffff168273ffffffffffffffffffffffffffffffffffffffff161480611e6b5750600660009054906101000a900473ffffffffffffffffffffffffffffffffffffffff1673ffffffffffffffffffffffffffffffffffffffff168273ffffffffffffffffffffffffffffffffffffffff16145b80611ec35750600760009054906101000a900473ffffffffffffffffffffffffffffffffffffffff1673ffffffffffffffffffffffffffffffffffffffff168273ffffffffffffffffffffffffffffffffffffffff16145b9050612141565b6003600d811115611ed757fe5b600960149054906101000a900460ff16600d811115611ef257fe5b1480611f235750600a600d811115611f0657fe5b600960149054906101000a900460ff16600d811115611f2157fe5b145b1561203057600560009054906101000a900473ffffffffffffffffffffffffffffffffffffffff1673ffffffffffffffffffffffffffffffffffffffff168273ffffffffffffffffffffffffffffffffffffffff161480611fd15750600660009054906101000a900473ffffffffffffffffffffffffffffffffffffffff1673ffffffffffffffffffffffffffffffffffffffff168273ffffffffffffffffffffffffffffffffffffffff16145b806120295750600760009054906101000a900473ffffffffffffffffffffffffffffffffffffffff1673ffffffffffffffffffffffffffffffffffffffff168273ffffffffffffffffffffffffffffffffffffffff16145b9050612141565b600b600d81111561203d57fe5b600960149054906101000a900460ff16600d81111561205857fe5b14156120b657600860009054906101000a900473ffffffffffffffffffffffffffffffffffffffff1673ffffffffffffffffffffffffffffffffffffffff168273ffffffffffffffffffffffffffffffffffffffff16149050612141565b600c600d8111156120c357fe5b600960149054906101000a900460ff16600d8111156120de57fe5b141561213c57600960009054906101000a900473ffffffffffffffffffffffffffffffffffffffff1673ffffffffffffffffffffffffffffffffffffffff168273ffffffffffffffffffffffffffffffffffffffff16149050612141565b600090505b919050565b600960009054906101000a900473ffffffffffffffffffffffffffffffffffffffff1681565b621edc6481565b600f5481565b6000809054906101000a900473ffffffffffffffffffffffffffffffffffffffff1673ffffffffffffffffffffffffffffffffffffffff163373ffffffffffffffffffffffffffffffffffffffff161415156121d457600080fd5b6121dc61128a565b1515156121e857600080fd5b60105442101515156121f957600080fd5b600c60009054906101000a900460ff1615151561221557600080fd5b600060045414151561222657600080fd5b6001600c60006101000a81548160ff02191690831515021790555060006003819055507fc5f8b5fb65fec6c05727e10d7365596adb0ff57105cb4806f2d2c3bd477b7b4160405160405180910390a1565b600d5481565b621bc62881565b6000809054906101000a900473ffffffffffffffffffffffffffffffffffffffff1673ffffffffffffffffffffffffffffffffffffffff163373ffffffffffffffffffffffffffffffffffffffff161415156122df57600080fd5b601054831115156122ef57600080fd5b601054421015151561230057600080fd5b600c60009054906101000a900460ff16151561231b57600080fd5b60008411151561232a57600080fd5b828211151561233857600080fd5b600a60006001600d81111561234957fe5b8152602001908152602001600020548210151561236557600080fd5b84600d8190555083600e8190555082600f8190555081601081905550806011819055506000600c60006101000a81548160ff0219169083151502179055507f37c7df6b3f9b56a56636d30c8cb20e21f5b8dd513215017db4c9f121fdd6730b8585858585604051808681526020018581526020018481526020018381526020018281526020019550505050505060405180910390a15050505050565b600080600d81111561240f57fe5b600960149054906101000a900460ff16600d81111561242a57fe5b141561243f5761243861128a565b90506124d0565b6001600d81111561244c57fe5b600960149054906101000a900460ff16600d81111561246757fe5b1015801561249b57506009600d81111561247d57fe5b600960149054906101000a900460ff16600d81111561249857fe5b11155b80156124cd57506003600d8111156124af57fe5b600960149054906101000a900460ff16600d8111156124ca57fe5b14155b90505b90565b6124db610f3b565b6000809054906101000a900473ffffffffffffffffffffffffffffffffffffffff1673ffffffffffffffffffffffffffffffffffffffff163373ffffffffffffffffffffffffffffffffffffffff1614151561253657600080fd5b81600960149054906101000a900460ff16600d81111561255257fe5b14151561255e57600080fd5b61257281600d81111561256d57fe5b61300e565b5050565b6000809054906101000a900473ffffffffffffffffffffffffffffffffffffffff1673ffffffffffffffffffffffffffffffffffffffff163373ffffffffffffffffffffffffffffffffffffffff161415156125d157600080fd5b600073ffffffffffffffffffffffffffffffffffffffff168173ffffffffffffffffffffffffffffffffffffffff161415151561260d57600080fd5b8073ffffffffffffffffffffffffffffffffffffffff166000809054906101000a900473ffffffffffffffffffffffffffffffffffffffff1673ffffffffffffffffffffffffffffffffffffffff167f8be0079c531659141344cd1fd0a4f28419497f9722a3daafe3b4186f6b6457e060405160405180910390a3806000806101000a81548173ffffffffffffffffffffffffffffffffffffffff021916908373ffffffffffffffffffffffffffffffffffffffff16021790555050565b6222b84881565b60006001600d8111156126e157fe5b600960149054906101000a900460ff16600d8111156126fc57fe5b148061272d57506002600d81111561271057fe5b600960149054906101000a900460ff16600d81111561272b57fe5b145b1561274257670de0b6b3a764000090506127cf565b6004600d81111561274f57fe5b600960149054906101000a900460ff16600d81111561276a57fe5b1015801561279e57506009600d81111561278057fe5b600960149054906101000a900460ff16600d81111561279b57fe5b11155b156127b3576702c68af0bb14000090506127cf565b6127bb61128a565b156127ca5760115490506127cf565b600090505b90565b600160009054906101000a900473ffffffffffffffffffffffffffffffffffffffff1681565b600080828401905083811015151561280c57fe5b8091505092915050565b600a6000600a600d81111561282757fe5b8152602001908152602001600020544210151561284d57612848600a61300e565b612a41565b600a60006009600d81111561285e57fe5b815260200190815260200160002054421015156128845761287f600961300e565b612a40565b600a60006008600d81111561289557fe5b815260200190815260200160002054421015156128bb576128b6600861300e565b612a3f565b600a60006007600d8111156128cc57fe5b815260200190815260200160002054421015156128f2576128ed600761300e565b612a3e565b600a60006006600d81111561290357fe5b8152602001908152602001600020544210151561292957612924600661300e565b612a3d565b600a60006005600d81111561293a57fe5b815260200190815260200160002054421015156129605761295b600561300e565b612a3c565b600a60006004600d81111561297157fe5b8152602001908152602001600020544210151561299757612992600461300e565b612a3b565b600a60006003600d8111156129a857fe5b815260200190815260200160002054421015156129ce576129c9600361300e565b612a3a565b600a60006002600d8111156129df57fe5b81526020019081526020016000205442101515612a0557612a00600261300e565b612a39565b600a60006001600d811115612a1657fe5b81526020019081526020016000205442101515612a3857612a37600161300e565b5b5b5b5b5b5b5b5b5b5b565b6000612a5c6004546003546127f890919063ffffffff16565b9050612a6661128a565b15612a8157600d548111151515612a7c57600080fd5b612c7f565b612a89612401565b1515612a9457612c7f565b6003600d811115612aa157fe5b600960149054906101000a900460ff16600d811115612abc57fe5b1215612b3257600b60006002600d811115612ad357fe5b81526020019081526020016000205481101515612af957612af4600361300e565b612b2d565b600b60006001600d811115612b0a57fe5b81526020019081526020016000205481101515612b2c57612b2b600261300e565b5b5b612c7e565b600b60006009600d811115612b4357fe5b81526020019081526020016000205481101515612b6957612b64600a61300e565b612c7d565b600b60006008600d811115612b7a57fe5b81526020019081526020016000205481101515612ba057612b9b600961300e565b612c7c565b600b60006007600d811115612bb157fe5b81526020019081526020016000205481101515612bd757612bd2600861300e565b612c7b565b600b60006006600d811115612be857fe5b81526020019081526020016000205481101515612c0e57612c09600761300e565b612c7a565b600b60006005600d811115612c1f57fe5b81526020019081526020016000205481101515612c4557612c40600661300e565b612c79565b600b60006004600d811115612c5657fe5b81526020019081526020016000205481101515612c7857612c77600561300e565b5b5b5b5b5b5b5b5b50565b6000806000841415612c975760009150612cb6565b8284029050828482811515612ca857fe5b04141515612cb257fe5b8091505b5092915050565b6000808284811515612ccb57fe5b0490508091505092915050565b6000828211151515612ce657fe5b818303905092915050565b612cf961128a565b151515612d0557600080fd5b82600a60006001600d811115612d1757fe5b815260200190815260200160002081905550612d4c6001826000815181101515612d3d57fe5b906020019060200201516130c6565b612d6f6002826001815181101515612d6057fe5b906020019060200201516130c6565b612d926003826002815181101515612d8357fe5b906020019060200201516130c6565b612db56004826003815181101515612da657fe5b906020019060200201516130c6565b612dd86005826004815181101515612dc957fe5b906020019060200201516130c6565b612dfb6006826005815181101515612dec57fe5b906020019060200201516130c6565b612e1e6007826006815181101515612e0f57fe5b906020019060200201516130c6565b612e416008826007815181101515612e3257fe5b906020019060200201516130c6565b612e646009826008815181101515612e5557fe5b906020019060200201516130c6565b81600b60006001600d811115612e7657fe5b815260200190815260200160002081905550612e9c600283612c8290919063ffffffff16565b600b60006002600d811115612ead57fe5b815260200190815260200160002081905550612ed3600383612c8290919063ffffffff16565b600b60006004600d811115612ee457fe5b815260200190815260200160002081905550612f0a600483612c8290919063ffffffff16565b600b60006005600d811115612f1b57fe5b815260200190815260200160002081905550612f41600583612c8290919063ffffffff16565b600b60006006600d811115612f5257fe5b815260200190815260200160002081905550612f78600683612c8290919063ffffffff16565b600b60006007600d811115612f8957fe5b815260200190815260200160002081905550612faf600783612c8290919063ffffffff16565b600b60006008600d811115612fc057fe5b815260200190815260200160002081905550612fe6600883612c8290919063ffffffff16565b600b60006009600d811115612ff757fe5b815260200190815260200160002081905550505050565b600960149054906101000a900460ff16600d81111561302957fe5b81600d81111561303557fe5b11156130c3577f1c0c6794b8c626515ef0eaa59cf29f712f686771b359ff1a5a05738b92d05484600960149054906101000a900460ff16600d81111561307757fe5b82600d81111561308357fe5b604051808381526020018281526020019250505060405180910390a180600960146101000a81548160ff0219169083600d8111156130bd57fe5b02179055505b50565b6130f781600a600085600d8111156130da57fe5b8152602001908152602001600020546127f890919063ffffffff16565b600a6000600185600d81111561310957fe5b0181526020019081526020016000208190555050505600a165627a7a72305820b12987a86ad39fcf6819ddf02e164e0db56ef2ff2d28a6c68a6e34ae961aecb00029",
  "source": "pragma solidity ^0.4.24;\nimport \"zeppelin-solidity/contracts/math/SafeMath.sol\";\nimport \"zeppelin-solidity/contracts/ownership/Ownable.sol\";\nimport \"./Minter.sol\";\n\ncontract Tge is Minter {\n    using SafeMath for uint;\n\n    /* --- CONSTANTS --- */\n\n    uint constant public MIMIMUM_CONTRIBUTION_AMOUNT_PREICO = 1 ether;\n    uint constant public MIMIMUM_CONTRIBUTION_AMOUNT_ICO = 1 ether / 5;\n    \n    uint constant public PRICE_MULTIPLIER_PREICO1 = 2600500;\n    uint constant public PRICE_MULTIPLIER_PREICO2 = 2510800;\n\n    uint constant public PRICE_MULTIPLIER_ICO1 = 2275400;\n    uint constant public PRICE_MULTIPLIER_ICO2 = 2206400;\n    uint constant public PRICE_MULTIPLIER_ICO3 = 2080300;\n    uint constant public PRICE_MULTIPLIER_ICO4 = 2022500;\n    uint constant public PRICE_MULTIPLIER_ICO5 = 1916000;\n    uint constant public PRICE_MULTIPLIER_ICO6 = 1820200;\n    uint constant public PRICE_DIVIDER = 1000;\n\n    /* --- EVENTS --- */\n\n    event StateChanged(uint from, uint to);\n    event PrivateIcoInitialized(uint _cap, uint _tokensForEther, uint _startTime, uint _endTime, uint _minimumContribution);\n    event PrivateIcoFinalized();\n\n    /* --- FIELDS --- */\n\n    // minters\n    address public crowdsale;\n    address public deferredKyc;\n    address public referralManager;\n    address public allocator;\n    address public airdropper;\n\n    // state\n    enum State {Presale, Preico1, Preico2, Break, Ico1, Ico2, Ico3, Ico4, Ico5, Ico6, FinishingIco, Allocating, Airdropping, Finished}\n    State public currentState = State.Presale;\n    mapping(uint => uint) public startTimes;\n    mapping(uint => uint) public etherCaps;\n\n    // private ico\n    bool public privateIcoFinalized = true;\n    uint public privateIcoCap = 0;\n    uint public privateIcoTokensForEther = 0;\n    uint public privateIcoStartTime = 0;\n    uint public privateIcoEndTime = 0;\n    uint public privateIcoMinimumContribution = 0;\n\n    /* --- MODIFIERS --- */\n\n    modifier onlyInState(State _state) {\n        require(_state == currentState);\n        _;\n    }\n\n    modifier onlyValidAddress(address account) {\n        require(account != 0x0);\n        _;\n    }\n\n    /* --- CONSTRUCTOR / INITIALIZATION --- */\n\n    constructor(\n        CrowdfundableToken _token,\n        uint _saleEtherCap\n    ) public Minter(_token, _saleEtherCap) { }\n\n    // initialize states start times and caps\n    function setupStates(uint saleStart, uint singleStateEtherCap, uint[] stateLengths) internal {\n        require(!isPrivateIcoActive());\n\n        startTimes[uint(State.Preico1)] = saleStart;\n        setStateLength(State.Preico1, stateLengths[0]);\n        setStateLength(State.Preico2, stateLengths[1]);\n        setStateLength(State.Break, stateLengths[2]);\n        setStateLength(State.Ico1, stateLengths[3]);\n        setStateLength(State.Ico2, stateLengths[4]);\n        setStateLength(State.Ico3, stateLengths[5]);\n        setStateLength(State.Ico4, stateLengths[6]);\n        setStateLength(State.Ico5, stateLengths[7]);\n        setStateLength(State.Ico6, stateLengths[8]);\n\n        // the total sale ether cap is distributed evenly over all selling states\n        // the cap from previous states is accumulated in consequent states\n        // adding confirmed sale ether from private ico\n        etherCaps[uint(State.Preico1)] = singleStateEtherCap;\n        etherCaps[uint(State.Preico2)] = singleStateEtherCap.mul(2);\n        etherCaps[uint(State.Ico1)] = singleStateEtherCap.mul(3);\n        etherCaps[uint(State.Ico2)] = singleStateEtherCap.mul(4);\n        etherCaps[uint(State.Ico3)] = singleStateEtherCap.mul(5);\n        etherCaps[uint(State.Ico4)] = singleStateEtherCap.mul(6);\n        etherCaps[uint(State.Ico5)] = singleStateEtherCap.mul(7);\n        etherCaps[uint(State.Ico6)] = singleStateEtherCap.mul(8);\n    }\n\n    function setup(\n        address _crowdsale,\n        address _deferredKyc,\n        address _referralManager,\n        address _allocator,\n        address _airdropper,\n        uint saleStartTime,\n        uint singleStateEtherCap,\n        uint[] stateLengths\n    )\n    public\n    onlyOwner\n    onlyInState(State.Presale)\n    onlyValidAddress(_crowdsale)\n    onlyValidAddress(_deferredKyc)\n    onlyValidAddress(_referralManager)\n    onlyValidAddress(_allocator)\n    onlyValidAddress(_airdropper)\n    {\n        require(stateLengths.length == 9); // preico 1-2, break, ico 1-6\n        require(saleStartTime >= now);\n        require(singleStateEtherCap > 0);\n        crowdsale = _crowdsale;\n        deferredKyc = _deferredKyc;\n        referralManager = _referralManager;\n        allocator = _allocator;\n        airdropper = _airdropper;\n        setupStates(saleStartTime, singleStateEtherCap, stateLengths);\n    }\n\n    /* --- PUBLIC / EXTERNAL METHODS --- */\n\n    function moveState(uint from, uint to) external onlyInUpdatedState onlyOwner {\n        require(uint(currentState) == from);\n        advanceStateIfNewer(State(to));\n    }\n\n    // override\n    function transferTokenOwnership() external onlyInUpdatedState onlyOwner {\n        require(currentState == State.Finished);\n        token.transferOwnership(owner);\n    }\n\n    // override\n    function getTokensForEther(uint etherAmount) public view returns(uint) {\n        uint tokenAmount = 0;\n        if (isPrivateIcoActive()) tokenAmount = etherAmount.mul(privateIcoTokensForEther).div(PRICE_DIVIDER);\n        else if (currentState == State.Preico1) tokenAmount = etherAmount.mul(PRICE_MULTIPLIER_PREICO1).div(PRICE_DIVIDER);\n        else if (currentState == State.Preico2) tokenAmount = etherAmount.mul(PRICE_MULTIPLIER_PREICO2).div(PRICE_DIVIDER);\n        else if (currentState == State.Ico1) tokenAmount = etherAmount.mul(PRICE_MULTIPLIER_ICO1).div(PRICE_DIVIDER);\n        else if (currentState == State.Ico2) tokenAmount = etherAmount.mul(PRICE_MULTIPLIER_ICO2).div(PRICE_DIVIDER);\n        else if (currentState == State.Ico3) tokenAmount = etherAmount.mul(PRICE_MULTIPLIER_ICO3).div(PRICE_DIVIDER);\n        else if (currentState == State.Ico4) tokenAmount = etherAmount.mul(PRICE_MULTIPLIER_ICO4).div(PRICE_DIVIDER);\n        else if (currentState == State.Ico5) tokenAmount = etherAmount.mul(PRICE_MULTIPLIER_ICO5).div(PRICE_DIVIDER);\n        else if (currentState == State.Ico6) tokenAmount = etherAmount.mul(PRICE_MULTIPLIER_ICO6).div(PRICE_DIVIDER);\n\n        return tokenAmount;\n    }\n\n    function isSellingState() public view returns(bool) {\n        if (currentState == State.Presale) return isPrivateIcoActive();\n        return (\n            uint(currentState) >= uint(State.Preico1) &&\n            uint(currentState) <= uint(State.Ico6) &&\n            uint(currentState) != uint(State.Break)\n        );\n    }\n\n    function isPrivateIcoActive() public view returns(bool) {\n        return now >= privateIcoStartTime && now < privateIcoEndTime;\n    }\n\n    function initPrivateIco(uint _cap, uint _tokensForEther, uint _startTime, uint _endTime, uint _minimumContribution) external onlyOwner {\n        require(_startTime > privateIcoEndTime); // should start after previous private ico\n        require(now >= privateIcoEndTime); // previous private ico should be finished\n        require(privateIcoFinalized); // previous private ico should be finalized\n        require(_tokensForEther > 0);\n        require(_endTime > _startTime);\n        require(_endTime < startTimes[uint(State.Preico1)]);\n\n        privateIcoCap = _cap;\n        privateIcoTokensForEther = _tokensForEther;\n        privateIcoStartTime = _startTime;\n        privateIcoEndTime = _endTime;\n        privateIcoMinimumContribution = _minimumContribution;\n        privateIcoFinalized = false;\n        emit PrivateIcoInitialized(_cap, _tokensForEther, _startTime, _endTime, _minimumContribution);\n    }\n\n    function finalizePrivateIco() external onlyOwner {\n        require(!isPrivateIcoActive());\n        require(now >= privateIcoEndTime); // previous private ico should be finished\n        require(!privateIcoFinalized);\n        require(reservedSaleEther == 0); // kyc needs to be finished\n\n        privateIcoFinalized = true;\n        confirmedSaleEther = 0;\n        emit PrivateIcoFinalized();\n    }\n\n    /* --- INTERNAL METHODS --- */\n\n    // override\n    function getMinimumContribution() public view returns(uint) {\n        if (currentState == State.Preico1 || currentState == State.Preico2) {\n            return MIMIMUM_CONTRIBUTION_AMOUNT_PREICO;\n        }\n        if (uint(currentState) >= uint(State.Ico1) && uint(currentState) <= uint(State.Ico6)) {\n            return MIMIMUM_CONTRIBUTION_AMOUNT_ICO;\n        }\n        if (isPrivateIcoActive()) {\n            return privateIcoMinimumContribution;\n        }\n        return 0;\n    }\n\n    // override\n    function canMint(address account) public view returns(bool) {\n        if (currentState == State.Presale) {\n            // external sales and private ico\n            return account == crowdsale || account == deferredKyc;\n        }\n        else if (isSellingState()) {\n            // crowdsale: external sales\n            // deferredKyc: adding and approving kyc\n            // referralManager: referral fees\n            return account == crowdsale || account == deferredKyc || account == referralManager;\n        }\n        else if (currentState == State.Break || currentState == State.FinishingIco) {\n            // crowdsale: external sales\n            // deferredKyc: approving kyc\n            // referralManager: referral fees\n            return account == crowdsale || account == deferredKyc || account == referralManager;\n        }\n        else if (currentState == State.Allocating) {\n            // Community and Bounty allocations\n            // Advisors, Developers, Ambassadors and Partners allocations\n            // Customer Rewards allocations\n            // Team allocations\n            return account == allocator;\n        }\n        else if (currentState == State.Airdropping) {\n            // airdropping for all token holders\n            return account == airdropper;\n        }\n        return false;\n    }\n\n    // override\n    function updateState() public {\n        updateStateBasedOnTime();\n        updateStateBasedOnContributions();\n    }\n\n    function updateStateBasedOnTime() internal {\n        // move to the next state, if the current one has finished\n        if (now >= startTimes[uint(State.FinishingIco)]) advanceStateIfNewer(State.FinishingIco);\n        else if (now >= startTimes[uint(State.Ico6)]) advanceStateIfNewer(State.Ico6);\n        else if (now >= startTimes[uint(State.Ico5)]) advanceStateIfNewer(State.Ico5);\n        else if (now >= startTimes[uint(State.Ico4)]) advanceStateIfNewer(State.Ico4);\n        else if (now >= startTimes[uint(State.Ico3)]) advanceStateIfNewer(State.Ico3);\n        else if (now >= startTimes[uint(State.Ico2)]) advanceStateIfNewer(State.Ico2);\n        else if (now >= startTimes[uint(State.Ico1)]) advanceStateIfNewer(State.Ico1);\n        else if (now >= startTimes[uint(State.Break)]) advanceStateIfNewer(State.Break);\n        else if (now >= startTimes[uint(State.Preico2)]) advanceStateIfNewer(State.Preico2);\n        else if (now >= startTimes[uint(State.Preico1)]) advanceStateIfNewer(State.Preico1);\n    }\n\n    function updateStateBasedOnContributions() internal {\n        // move to the next state, if the current one's cap has been reached\n        uint totalEtherContributions = confirmedSaleEther.add(reservedSaleEther);\n        if(isPrivateIcoActive()) {\n            // if private ico cap exceeded, revert transaction\n            require(totalEtherContributions <= privateIcoCap);\n            return;\n        }\n        \n        if (!isSellingState()) {\n            return;\n        }\n        \n        else if (int(currentState) < int(State.Break)) {\n            // preico\n            if (totalEtherContributions >= etherCaps[uint(State.Preico2)]) advanceStateIfNewer(State.Break);\n            else if (totalEtherContributions >= etherCaps[uint(State.Preico1)]) advanceStateIfNewer(State.Preico2);\n        }\n        else {\n            // ico\n            if (totalEtherContributions >= etherCaps[uint(State.Ico6)]) advanceStateIfNewer(State.FinishingIco);\n            else if (totalEtherContributions >= etherCaps[uint(State.Ico5)]) advanceStateIfNewer(State.Ico6);\n            else if (totalEtherContributions >= etherCaps[uint(State.Ico4)]) advanceStateIfNewer(State.Ico5);\n            else if (totalEtherContributions >= etherCaps[uint(State.Ico3)]) advanceStateIfNewer(State.Ico4);\n            else if (totalEtherContributions >= etherCaps[uint(State.Ico2)]) advanceStateIfNewer(State.Ico3);\n            else if (totalEtherContributions >= etherCaps[uint(State.Ico1)]) advanceStateIfNewer(State.Ico2);\n        }\n    }\n\n    function advanceStateIfNewer(State newState) internal {\n        if (uint(newState) > uint(currentState)) {\n            emit StateChanged(uint(currentState), uint(newState));\n            currentState = newState;\n        }\n    }\n\n    function setStateLength(State state, uint length) internal {\n        // state length is determined by next state's start time\n        startTimes[uint(state)+1] = startTimes[uint(state)].add(length);\n    }\n\n    function isInitialized() public view returns(bool) {\n        return crowdsale != 0x0 && referralManager != 0x0 && allocator != 0x0 && airdropper != 0x0 && deferredKyc != 0x0;\n    }\n}\n",
  "sourcePath": "/Users/przemek/Projects/allsporter/contracts/Tge.sol",
  "compiler": {
    "name": "solc",
    "version": "0.4.24+commit.e67f0147.Emscripten.clang"
  },
  "schemaVersion": "2.0.1",
  "updatedAt": "2018-07-27T14:56:49.240Z"
}