{
  "contractName": "Tge",
  "abi": [
    {
      "constant": true,
      "inputs": [],
      "name": "currentState",
      "outputs": [
        {
          "name": "",
          "type": "uint8"
        }
      ],
      "payable": false,
      "stateMutability": "view",
      "type": "function"
    },
    {
      "constant": true,
      "inputs": [],
      "name": "reservedSaleEther",
      "outputs": [
        {
          "name": "",
          "type": "uint256"
        }
      ],
      "payable": false,
      "stateMutability": "view",
      "type": "function"
    },
    {
      "constant": false,
      "inputs": [
        {
          "name": "account",
          "type": "address"
        },
        {
          "name": "etherAmount",
          "type": "uint256"
        },
        {
          "name": "tokenAmount",
          "type": "uint256"
        }
      ],
      "name": "mint",
      "outputs": [],
      "payable": false,
      "stateMutability": "nonpayable",
      "type": "function"
    },
    {
      "constant": true,
      "inputs": [],
      "name": "saleEtherCap",
      "outputs": [
        {
          "name": "",
          "type": "uint256"
        }
      ],
      "payable": false,
      "stateMutability": "view",
      "type": "function"
    },
    {
      "constant": true,
      "inputs": [],
      "name": "PRICE_MULTIPLIER_PREICO2",
      "outputs": [
        {
          "name": "",
          "type": "uint256"
        }
      ],
      "payable": false,
      "stateMutability": "view",
      "type": "function"
    },
    {
      "constant": true,
      "inputs": [],
      "name": "confirmedSaleEther",
      "outputs": [
        {
          "name": "",
          "type": "uint256"
        }
      ],
      "payable": false,
      "stateMutability": "view",
      "type": "function"
    },
    {
      "constant": true,
      "inputs": [],
      "name": "MIMIMUM_CONTRIBUTION_AMOUNT_ICO",
      "outputs": [
        {
          "name": "",
          "type": "uint256"
        }
      ],
      "payable": false,
      "stateMutability": "view",
      "type": "function"
    },
    {
      "constant": true,
      "inputs": [],
      "name": "MIMIMUM_CONTRIBUTION_AMOUNT_PREICO",
      "outputs": [
        {
          "name": "",
          "type": "uint256"
        }
      ],
      "payable": false,
      "stateMutability": "view",
      "type": "function"
    },
    {
      "constant": true,
      "inputs": [],
      "name": "referralManager",
      "outputs": [
        {
          "name": "",
          "type": "address"
        }
      ],
      "payable": false,
      "stateMutability": "view",
      "type": "function"
    },
    {
      "constant": true,
      "inputs": [],
      "name": "PRICE_MULTIPLIER_PREICO1",
      "outputs": [
        {
          "name": "",
          "type": "uint256"
        }
      ],
      "payable": false,
      "stateMutability": "view",
      "type": "function"
    },
    {
      "constant": true,
      "inputs": [],
      "name": "PRICE_MULTIPLIER_ICO3",
      "outputs": [
        {
          "name": "",
          "type": "uint256"
        }
      ],
      "payable": false,
      "stateMutability": "view",
      "type": "function"
    },
    {
      "constant": true,
      "inputs": [],
      "name": "privateIcoTokensForEther",
      "outputs": [
        {
          "name": "",
          "type": "uint256"
        }
      ],
      "payable": false,
      "stateMutability": "view",
      "type": "function"
    },
    {
      "constant": true,
      "inputs": [],
      "name": "privateIcoEndTime",
      "outputs": [
        {
          "name": "",
          "type": "uint256"
        }
      ],
      "payable": false,
      "stateMutability": "view",
      "type": "function"
    },
    {
      "constant": false,
      "inputs": [
        {
          "name": "account",
          "type": "address"
        },
        {
          "name": "etherAmount",
          "type": "uint256"
        },
        {
          "name": "tokenAmount",
          "type": "uint256"
        }
      ],
      "name": "mintReserved",
      "outputs": [],
      "payable": false,
      "stateMutability": "nonpayable",
      "type": "function"
    },
    {
      "constant": false,
      "inputs": [
        {
          "name": "etherAmount",
          "type": "uint256"
        }
      ],
      "name": "unreserve",
      "outputs": [],
      "payable": false,
      "stateMutability": "nonpayable",
      "type": "function"
    },
    {
      "constant": true,
      "inputs": [
        {
          "name": "",
          "type": "uint256"
        }
      ],
      "name": "startTimes",
      "outputs": [
        {
          "name": "",
          "type": "uint256"
        }
      ],
      "payable": false,
      "stateMutability": "view",
      "type": "function"
    },
    {
      "constant": false,
      "inputs": [
        {
          "name": "etherAmount",
          "type": "uint256"
        }
      ],
      "name": "reserve",
      "outputs": [],
      "payable": false,
      "stateMutability": "nonpayable",
      "type": "function"
    },
    {
      "constant": true,
      "inputs": [],
      "name": "PRICE_MULTIPLIER_ICO5",
      "outputs": [
        {
          "name": "",
          "type": "uint256"
        }
      ],
      "payable": false,
      "stateMutability": "view",
      "type": "function"
    },
    {
      "constant": true,
      "inputs": [],
      "name": "owner",
      "outputs": [
        {
          "name": "",
          "type": "address"
        }
      ],
      "payable": false,
      "stateMutability": "view",
      "type": "function"
    },
    {
      "constant": true,
      "inputs": [],
      "name": "crowdsale",
      "outputs": [
        {
          "name": "",
          "type": "address"
        }
      ],
      "payable": false,
      "stateMutability": "view",
      "type": "function"
    },
    {
      "constant": true,
      "inputs": [],
      "name": "deferredKyc",
      "outputs": [
        {
          "name": "",
          "type": "address"
        }
      ],
      "payable": false,
      "stateMutability": "view",
      "type": "function"
    },
    {
      "constant": true,
      "inputs": [],
      "name": "allocator",
      "outputs": [
        {
          "name": "",
          "type": "address"
        }
      ],
      "payable": false,
      "stateMutability": "view",
      "type": "function"
    },
    {
      "constant": true,
      "inputs": [],
      "name": "PRICE_MULTIPLIER_ICO2",
      "outputs": [
        {
          "name": "",
          "type": "uint256"
        }
      ],
      "payable": false,
      "stateMutability": "view",
      "type": "function"
    },
    {
      "constant": true,
      "inputs": [
        {
          "name": "",
          "type": "uint256"
        }
      ],
      "name": "etherCaps",
      "outputs": [
        {
          "name": "",
          "type": "uint256"
        }
      ],
      "payable": false,
      "stateMutability": "view",
      "type": "function"
    },
    {
      "constant": true,
      "inputs": [],
      "name": "privateIcoMinimumContribution",
      "outputs": [
        {
          "name": "",
          "type": "uint256"
        }
      ],
      "payable": false,
      "stateMutability": "view",
      "type": "function"
    },
    {
      "constant": true,
      "inputs": [],
      "name": "airdropper",
      "outputs": [
        {
          "name": "",
          "type": "address"
        }
      ],
      "payable": false,
      "stateMutability": "view",
      "type": "function"
    },
    {
      "constant": true,
      "inputs": [],
      "name": "PRICE_MULTIPLIER_ICO4",
      "outputs": [
        {
          "name": "",
          "type": "uint256"
        }
      ],
      "payable": false,
      "stateMutability": "view",
      "type": "function"
    },
    {
      "constant": true,
      "inputs": [],
      "name": "privateIcoStartTime",
      "outputs": [
        {
          "name": "",
          "type": "uint256"
        }
      ],
      "payable": false,
      "stateMutability": "view",
      "type": "function"
    },
    {
      "constant": true,
      "inputs": [],
      "name": "privateIcoCap",
      "outputs": [
        {
          "name": "",
          "type": "uint256"
        }
      ],
      "payable": false,
      "stateMutability": "view",
      "type": "function"
    },
    {
      "constant": true,
      "inputs": [],
      "name": "PRICE_MULTIPLIER_ICO6",
      "outputs": [
        {
          "name": "",
          "type": "uint256"
        }
      ],
      "payable": false,
      "stateMutability": "view",
      "type": "function"
    },
    {
      "constant": false,
      "inputs": [
        {
          "name": "newOwner",
          "type": "address"
        }
      ],
      "name": "transferOwnership",
      "outputs": [],
      "payable": false,
      "stateMutability": "nonpayable",
      "type": "function"
    },
    {
      "constant": true,
      "inputs": [],
      "name": "PRICE_MULTIPLIER_ICO1",
      "outputs": [
        {
          "name": "",
          "type": "uint256"
        }
      ],
      "payable": false,
      "stateMutability": "view",
      "type": "function"
    },
    {
      "constant": true,
      "inputs": [],
      "name": "token",
      "outputs": [
        {
          "name": "",
          "type": "address"
        }
      ],
      "payable": false,
      "stateMutability": "view",
      "type": "function"
    },
    {
      "inputs": [
        {
          "name": "_token",
          "type": "address"
        },
        {
          "name": "_saleEtherCap",
          "type": "uint256"
        }
      ],
      "payable": false,
      "stateMutability": "nonpayable",
      "type": "constructor"
    },
    {
      "anonymous": false,
      "inputs": [
        {
          "indexed": false,
          "name": "from",
          "type": "uint256"
        },
        {
          "indexed": false,
          "name": "to",
          "type": "uint256"
        }
      ],
      "name": "StateChanged",
      "type": "event"
    },
    {
      "anonymous": false,
      "inputs": [
        {
          "indexed": true,
          "name": "account",
          "type": "address"
        },
        {
          "indexed": false,
          "name": "etherAmount",
          "type": "uint256"
        },
        {
          "indexed": false,
          "name": "tokenAmount",
          "type": "uint256"
        }
      ],
      "name": "Minted",
      "type": "event"
    },
    {
      "anonymous": false,
      "inputs": [
        {
          "indexed": false,
          "name": "etherAmount",
          "type": "uint256"
        }
      ],
      "name": "Reserved",
      "type": "event"
    },
    {
      "anonymous": false,
      "inputs": [
        {
          "indexed": true,
          "name": "account",
          "type": "address"
        },
        {
          "indexed": false,
          "name": "etherAmount",
          "type": "uint256"
        },
        {
          "indexed": false,
          "name": "tokenAmount",
          "type": "uint256"
        }
      ],
      "name": "MintedReserved",
      "type": "event"
    },
    {
      "anonymous": false,
      "inputs": [
        {
          "indexed": false,
          "name": "etherAmount",
          "type": "uint256"
        }
      ],
      "name": "Unreserved",
      "type": "event"
    },
    {
      "anonymous": false,
      "inputs": [
        {
          "indexed": true,
          "name": "previousOwner",
          "type": "address"
        },
        {
          "indexed": true,
          "name": "newOwner",
          "type": "address"
        }
      ],
      "name": "OwnershipTransferred",
      "type": "event"
    },
    {
      "constant": false,
      "inputs": [
        {
          "name": "_crowdsale",
          "type": "address"
        },
        {
          "name": "_deferredKyc",
          "type": "address"
        },
        {
          "name": "_referralManager",
          "type": "address"
        },
        {
          "name": "_allocator",
          "type": "address"
        },
        {
          "name": "_airdropper",
          "type": "address"
        },
        {
          "name": "saleStartTime",
          "type": "uint256"
        },
        {
          "name": "singleStateEtherCap",
          "type": "uint256"
        }
      ],
      "name": "initialize",
      "outputs": [],
      "payable": false,
      "stateMutability": "nonpayable",
      "type": "function"
    },
    {
      "constant": false,
      "inputs": [
        {
          "name": "from",
          "type": "uint256"
        },
        {
          "name": "to",
          "type": "uint256"
        }
      ],
      "name": "moveState",
      "outputs": [],
      "payable": false,
      "stateMutability": "nonpayable",
      "type": "function"
    },
    {
      "constant": false,
      "inputs": [],
      "name": "transferTokenOwnership",
      "outputs": [],
      "payable": false,
      "stateMutability": "nonpayable",
      "type": "function"
    },
    {
      "constant": true,
      "inputs": [
        {
          "name": "etherAmount",
          "type": "uint256"
        }
      ],
      "name": "getTokensForEther",
      "outputs": [
        {
          "name": "",
          "type": "uint256"
        }
      ],
      "payable": false,
      "stateMutability": "view",
      "type": "function"
    },
    {
      "constant": true,
      "inputs": [],
      "name": "isSellingState",
      "outputs": [
        {
          "name": "",
          "type": "bool"
        }
      ],
      "payable": false,
      "stateMutability": "view",
      "type": "function"
    },
    {
      "constant": true,
      "inputs": [],
      "name": "isPrivateIcoActive",
      "outputs": [
        {
          "name": "",
          "type": "bool"
        }
      ],
      "payable": false,
      "stateMutability": "view",
      "type": "function"
    },
    {
      "constant": false,
      "inputs": [
        {
          "name": "_cap",
          "type": "uint256"
        },
        {
          "name": "_tokensForEther",
          "type": "uint256"
        },
        {
          "name": "_startTime",
          "type": "uint256"
        },
        {
          "name": "_endTime",
          "type": "uint256"
        },
        {
          "name": "_minimumContribution",
          "type": "uint256"
        }
      ],
      "name": "initPrivateIco",
      "outputs": [],
      "payable": false,
      "stateMutability": "nonpayable",
      "type": "function"
    },
    {
      "constant": true,
      "inputs": [],
      "name": "getMinimumContribution",
      "outputs": [
        {
          "name": "",
          "type": "uint256"
        }
      ],
      "payable": false,
      "stateMutability": "view",
      "type": "function"
    },
    {
      "constant": true,
      "inputs": [
        {
          "name": "account",
          "type": "address"
        }
      ],
      "name": "canMint",
      "outputs": [
        {
          "name": "",
          "type": "bool"
        }
      ],
      "payable": false,
      "stateMutability": "view",
      "type": "function"
    },
    {
      "constant": false,
      "inputs": [],
      "name": "updateState",
      "outputs": [],
      "payable": false,
      "stateMutability": "nonpayable",
      "type": "function"
    },
    {
      "constant": true,
      "inputs": [],
      "name": "isInitialized",
      "outputs": [
        {
          "name": "",
          "type": "bool"
        }
      ],
      "payable": false,
      "stateMutability": "view",
      "type": "function"
    }
  ],
  "bytecode": "0x60806040526000600960146101000a81548160ff0219169083600d81111561002357fe5b02179055506000600c556000600d556000600e556000600f55600060105534801561004d57600080fd5b5060405160408062002f9d83398101806040528101908080519060200190929190805190602001909291905050508181336000806101000a81548173ffffffffffffffffffffffffffffffffffffffff021916908373ffffffffffffffffffffffffffffffffffffffff1602179055508160008173ffffffffffffffffffffffffffffffffffffffff16141515156100e457600080fd5b6000821115156100f357600080fd5b82600160006101000a81548173ffffffffffffffffffffffffffffffffffffffff021916908373ffffffffffffffffffffffffffffffffffffffff160217905550816002819055505050505050612e4d80620001506000396000f30060806040526004361061021a576000357c0100000000000000000000000000000000000000000000000000000000900463ffffffff1680630c3f6acf1461021f57806311d36bf514610258578063156e29f6146102835780631d8557d7146102da5780631fd4b40c146102f1578063210d2bba1461031c57806324e846c714610347578063263b694a14610372578063272ae0b51461039d5780632ccd9623146103c8578063379080da1461041f578063392e53cd1461044a5780634056675e14610479578063426d70fa14610490578063434fb2ae146104bf5780635c49660a146104ea57806360b6aa921461051557806362dbf26114610540578063663f85491461058157806376b5d926146105d857806377bbebe614610605578063819b25ba146106465780638449b0af146106735780638da5cb5b1461069e5780639c1e03a0146106f5578063a1960d801461074c578063aa5dcecc146107a3578063ae9759ff146107fa578063b33f952714610825578063b5b22a18146108fc578063bbb01c9c1461093d578063c2ba474414610968578063c9d68389146109c3578063cef2952114610a1a578063cfaa759d14610a45578063d55b770314610a70578063d8783b0414610a9b578063e19bc8e514610ac6578063eaf86db314610b1b578063ebb9ab2514610b4a578063f2fde38b14610b81578063f50b530814610bc4578063f84038b114610bef578063fc0c546a14610c1a575b600080fd5b34801561022b57600080fd5b50610234610c71565b6040518082600d81111561024457fe5b60ff16815260200191505060405180910390f35b34801561026457600080fd5b5061026d610c84565b6040518082815260200191505060405180910390f35b34801561028f57600080fd5b506102d8600480360381019080803573ffffffffffffffffffffffffffffffffffffffff1690602001909291908035906020019092919080359060200190929190505050610c8a565b005b3480156102e657600080fd5b506102ef610e66565b005b3480156102fd57600080fd5b50610306610e78565b6040518082815260200191505060405180910390f35b34801561032857600080fd5b50610331610e7e565b6040518082815260200191505060405180910390f35b34801561035357600080fd5b5061035c610e84565b6040518082815260200191505060405180910390f35b34801561037e57600080fd5b50610387610e8a565b6040518082815260200191505060405180910390f35b3480156103a957600080fd5b506103b2610e96565b6040518082815260200191505060405180910390f35b3480156103d457600080fd5b506103dd610ea2565b604051808273ffffffffffffffffffffffffffffffffffffffff1673ffffffffffffffffffffffffffffffffffffffff16815260200191505060405180910390f35b34801561042b57600080fd5b50610434610ec8565b6040518082815260200191505060405180910390f35b34801561045657600080fd5b5061045f610ece565b604051808215151515815260200191505060405180910390f35b34801561048557600080fd5b5061048e611025565b005b34801561049c57600080fd5b506104a56111b3565b604051808215151515815260200191505060405180910390f35b3480156104cb57600080fd5b506104d46111cd565b6040518082815260200191505060405180910390f35b3480156104f657600080fd5b506104ff6111d3565b6040518082815260200191505060405180910390f35b34801561052157600080fd5b5061052a6111d9565b6040518082815260200191505060405180910390f35b34801561054c57600080fd5b5061056b600480360381019080803590602001909291905050506111df565b6040518082815260200191505060405180910390f35b34801561058d57600080fd5b506105d6600480360381019080803573ffffffffffffffffffffffffffffffffffffffff169060200190929190803590602001909291908035906020019092919050505061157d565b005b3480156105e457600080fd5b5061060360048036038101908080359060200190929190505050611733565b005b34801561061157600080fd5b50610630600480360381019080803590602001909291905050506117ac565b6040518082815260200191505060405180910390f35b34801561065257600080fd5b50610671600480360381019080803590602001909291905050506117c4565b005b34801561067f57600080fd5b50610688611896565b6040518082815260200191505060405180910390f35b3480156106aa57600080fd5b506106b361189c565b604051808273ffffffffffffffffffffffffffffffffffffffff1673ffffffffffffffffffffffffffffffffffffffff16815260200191505060405180910390f35b34801561070157600080fd5b5061070a6118c1565b604051808273ffffffffffffffffffffffffffffffffffffffff1673ffffffffffffffffffffffffffffffffffffffff16815260200191505060405180910390f35b34801561075857600080fd5b506107616118e7565b604051808273ffffffffffffffffffffffffffffffffffffffff1673ffffffffffffffffffffffffffffffffffffffff16815260200191505060405180910390f35b3480156107af57600080fd5b506107b861190d565b604051808273ffffffffffffffffffffffffffffffffffffffff1673ffffffffffffffffffffffffffffffffffffffff16815260200191505060405180910390f35b34801561080657600080fd5b5061080f611933565b6040518082815260200191505060405180910390f35b34801561083157600080fd5b506108fa600480360381019080803573ffffffffffffffffffffffffffffffffffffffff169060200190929190803573ffffffffffffffffffffffffffffffffffffffff169060200190929190803573ffffffffffffffffffffffffffffffffffffffff169060200190929190803573ffffffffffffffffffffffffffffffffffffffff169060200190929190803573ffffffffffffffffffffffffffffffffffffffff1690602001909291908035906020019092919080359060200190929190505050611939565b005b34801561090857600080fd5b5061092760048036038101908080359060200190929190505050611c08565b6040518082815260200191505060405180910390f35b34801561094957600080fd5b50610952611c20565b6040518082815260200191505060405180910390f35b34801561097457600080fd5b506109a9600480360381019080803573ffffffffffffffffffffffffffffffffffffffff169060200190929190505050611c26565b604051808215151515815260200191505060405180910390f35b3480156109cf57600080fd5b506109d8612096565b604051808273ffffffffffffffffffffffffffffffffffffffff1673ffffffffffffffffffffffffffffffffffffffff16815260200191505060405180910390f35b348015610a2657600080fd5b50610a2f6120bc565b6040518082815260200191505060405180910390f35b348015610a5157600080fd5b50610a5a6120c2565b6040518082815260200191505060405180910390f35b348015610a7c57600080fd5b50610a856120c8565b6040518082815260200191505060405180910390f35b348015610aa757600080fd5b50610ab06120ce565b6040518082815260200191505060405180910390f35b348015610ad257600080fd5b50610b1960048036038101908080359060200190929190803590602001909291908035906020019092919080359060200190929190803590602001909291905050506120d4565b005b348015610b2757600080fd5b50610b306121d4565b604051808215151515815260200191505060405180910390f35b348015610b5657600080fd5b50610b7f60048036038101908080359060200190929190803590602001909291905050506122a6565b005b348015610b8d57600080fd5b50610bc2600480360381019080803573ffffffffffffffffffffffffffffffffffffffff169060200190929190505050612349565b005b348015610bd057600080fd5b50610bd961249e565b6040518082815260200191505060405180910390f35b348015610bfb57600080fd5b50610c046124a4565b6040518082815260200191505060405180910390f35b348015610c2657600080fd5b50610c2f6125a4565b604051808273ffffffffffffffffffffffffffffffffffffffff1673ffffffffffffffffffffffffffffffffffffffff16815260200191505060405180910390f35b600960149054906101000a900460ff1681565b60045481565b610c92610e66565b610c9b33611c26565b1515610ca657600080fd5b816000610cd282610cc46004546003546125ca90919063ffffffff16565b6125ca90919063ffffffff16565b90506002548111151515610ce557600080fd5b610cfa846003546125ca90919063ffffffff16565b600381905550600160009054906101000a900473ffffffffffffffffffffffffffffffffffffffff1673ffffffffffffffffffffffffffffffffffffffff166340c10f1986856040518363ffffffff167c0100000000000000000000000000000000000000000000000000000000028152600401808373ffffffffffffffffffffffffffffffffffffffff1673ffffffffffffffffffffffffffffffffffffffff16815260200182815260200192505050602060405180830381600087803b158015610dc557600080fd5b505af1158015610dd9573d6000803e3d6000fd5b505050506040513d6020811015610def57600080fd5b810190808051906020019092919050505050610e09610e66565b8473ffffffffffffffffffffffffffffffffffffffff167f25b428dfde728ccfaddad7e29e4ac23c24ed7fd1a6e3e3f91894a9a073f5dfff8585604051808381526020018281526020019250505060405180910390a25050505050565b610e6e6125e8565b610e76612815565b565b60025481565b61952d81565b60035481565b6702c68af0bb14000081565b670de0b6b3a764000081565b600760009054906101000a900473ffffffffffffffffffffffffffffffffffffffff1681565b619a8181565b600080600560009054906101000a900473ffffffffffffffffffffffffffffffffffffffff1673ffffffffffffffffffffffffffffffffffffffff1614158015610f5157506000600760009054906101000a900473ffffffffffffffffffffffffffffffffffffffff1673ffffffffffffffffffffffffffffffffffffffff1614155b8015610f9657506000600860009054906101000a900473ffffffffffffffffffffffffffffffffffffffff1673ffffffffffffffffffffffffffffffffffffffff1614155b8015610fdb57506000600960009054906101000a900473ffffffffffffffffffffffffffffffffffffffff1673ffffffffffffffffffffffffffffffffffffffff1614155b801561102057506000600660009054906101000a900473ffffffffffffffffffffffffffffffffffffffff1673ffffffffffffffffffffffffffffffffffffffff1614155b905090565b61102d610e66565b6000809054906101000a900473ffffffffffffffffffffffffffffffffffffffff1673ffffffffffffffffffffffffffffffffffffffff163373ffffffffffffffffffffffffffffffffffffffff1614151561108857600080fd5b600d8081111561109457fe5b600960149054906101000a900460ff16600d8111156110af57fe5b1415156110bb57600080fd5b600160009054906101000a900473ffffffffffffffffffffffffffffffffffffffff1673ffffffffffffffffffffffffffffffffffffffff1663f2fde38b6000809054906101000a900473ffffffffffffffffffffffffffffffffffffffff166040518263ffffffff167c0100000000000000000000000000000000000000000000000000000000028152600401808273ffffffffffffffffffffffffffffffffffffffff1673ffffffffffffffffffffffffffffffffffffffff168152602001915050600060405180830381600087803b15801561119957600080fd5b505af11580156111ad573d6000803e3d6000fd5b50505050565b6000600e5442101580156111c85750600f5442105b905090565b617b9981565b600d5481565b600f5481565b600080600090506111ee6111b3565b1561120f57611208600d5484612a5590919063ffffffff16565b90506114fb565b6001600d81111561121c57fe5b600960149054906101000a900460ff16600d81111561123757fe5b141561126c57611265600a611257619a8186612a5590919063ffffffff16565b612a9090919063ffffffff16565b90506114fa565b6002600d81111561127957fe5b600960149054906101000a900460ff16600d81111561129457fe5b14156112c9576112c2600a6112b461952d86612a5590919063ffffffff16565b612a9090919063ffffffff16565b90506114f9565b6004600d8111156112d657fe5b600960149054906101000a900460ff16600d8111156112f157fe5b14156113265761131f600a61131161873186612a5590919063ffffffff16565b612a9090919063ffffffff16565b90506114f8565b6005600d81111561133357fe5b600960149054906101000a900460ff16600d81111561134e57fe5b14156113835761137c600a61136e61831786612a5590919063ffffffff16565b612a9090919063ffffffff16565b90506114f7565b6006600d81111561139057fe5b600960149054906101000a900460ff16600d8111156113ab57fe5b14156113e0576113d9600a6113cb617b9986612a5590919063ffffffff16565b612a9090919063ffffffff16565b90506114f6565b6007600d8111156113ed57fe5b600960149054906101000a900460ff16600d81111561140857fe5b141561143d57611436600a61142861782a86612a5590919063ffffffff16565b612a9090919063ffffffff16565b90506114f5565b6008600d81111561144a57fe5b600960149054906101000a900460ff16600d81111561146557fe5b141561149a57611493600a6114856171d786612a5590919063ffffffff16565b612a9090919063ffffffff16565b90506114f4565b6009600d8111156114a757fe5b600960149054906101000a900460ff16600d8111156114c257fe5b14156114f3576114f0600a6114e2616c2686612a5590919063ffffffff16565b612a9090919063ffffffff16565b90505b5b5b5b5b5b5b5b5b678ac7230489e80000831115611539576115326064611524606984612a5590919063ffffffff16565b612a9090919063ffffffff16565b9050611574565b674563918244f40000831115611573576115706064611562606784612a5590919063ffffffff16565b612a9090919063ffffffff16565b90505b5b80915050919050565b611585610e66565b61158e33611c26565b151561159957600080fd5b6115ae82600454612aab90919063ffffffff16565b6004819055506115c9826003546125ca90919063ffffffff16565b600381905550600160009054906101000a900473ffffffffffffffffffffffffffffffffffffffff1673ffffffffffffffffffffffffffffffffffffffff166340c10f1984836040518363ffffffff167c0100000000000000000000000000000000000000000000000000000000028152600401808373ffffffffffffffffffffffffffffffffffffffff1673ffffffffffffffffffffffffffffffffffffffff16815260200182815260200192505050602060405180830381600087803b15801561169457600080fd5b505af11580156116a8573d6000803e3d6000fd5b505050506040513d60208110156116be57600080fd5b8101908080519060200190929190505050506116d8610e66565b8273ffffffffffffffffffffffffffffffffffffffff167f836db2a45fd007fb86f824d475eeebdf19516c0c16eded06df2fa4594a1188348383604051808381526020018281526020019250505060405180910390a2505050565b61173b610e66565b61174433611c26565b151561174f57600080fd5b61176481600454612aab90919063ffffffff16565b600481905550611772610e66565b7f3e9608ee93b29804c1c97a39ae6b68ca41b31ec84716dc2904413806fe7a2f3e816040518082815260200191505060405180910390a150565b600a6020528060005260406000206000915090505481565b6117cc610e66565b6117d533611c26565b15156117e057600080fd5b80600061180c826117fe6004546003546125ca90919063ffffffff16565b6125ca90919063ffffffff16565b9050600254811115151561181f57600080fd5b826118286124a4565b811015151561183657600080fd5b61184b846004546125ca90919063ffffffff16565b600481905550611859610e66565b7f672216a7a59f7b075c6becc0eebb0ab5404d392281d509c1c1a4a6accd036f49846040518082815260200191505060405180910390a150505050565b6171d781565b6000809054906101000a900473ffffffffffffffffffffffffffffffffffffffff1681565b600560009054906101000a900473ffffffffffffffffffffffffffffffffffffffff1681565b600660009054906101000a900473ffffffffffffffffffffffffffffffffffffffff1681565b600860009054906101000a900473ffffffffffffffffffffffffffffffffffffffff1681565b61831781565b6000809054906101000a900473ffffffffffffffffffffffffffffffffffffffff1673ffffffffffffffffffffffffffffffffffffffff163373ffffffffffffffffffffffffffffffffffffffff1614151561199457600080fd5b6000600960149054906101000a900460ff16600d8111156119b157fe5b81600d8111156119bd57fe5b1415156119c957600080fd5b8760008173ffffffffffffffffffffffffffffffffffffffff16141515156119f057600080fd5b8760008173ffffffffffffffffffffffffffffffffffffffff1614151515611a1757600080fd5b8760008173ffffffffffffffffffffffffffffffffffffffff1614151515611a3e57600080fd5b8760008173ffffffffffffffffffffffffffffffffffffffff1614151515611a6557600080fd5b8760008173ffffffffffffffffffffffffffffffffffffffff1614151515611a8c57600080fd5b428810151515611a9b57600080fd5b600087111515611aaa57600080fd5b8c600560006101000a81548173ffffffffffffffffffffffffffffffffffffffff021916908373ffffffffffffffffffffffffffffffffffffffff1602179055508b600660006101000a81548173ffffffffffffffffffffffffffffffffffffffff021916908373ffffffffffffffffffffffffffffffffffffffff1602179055508a600760006101000a81548173ffffffffffffffffffffffffffffffffffffffff021916908373ffffffffffffffffffffffffffffffffffffffff16021790555089600860006101000a81548173ffffffffffffffffffffffffffffffffffffffff021916908373ffffffffffffffffffffffffffffffffffffffff16021790555088600960006101000a81548173ffffffffffffffffffffffffffffffffffffffff021916908373ffffffffffffffffffffffffffffffffffffffff160217905550611bf98888612ac4565b50505050505050505050505050565b600b6020528060005260406000206000915090505481565b60105481565b600080600d811115611c3457fe5b600960149054906101000a900460ff16600d811115611c4f57fe5b1415611d0557600560009054906101000a900473ffffffffffffffffffffffffffffffffffffffff1673ffffffffffffffffffffffffffffffffffffffff168273ffffffffffffffffffffffffffffffffffffffff161480611cfe5750600660009054906101000a900473ffffffffffffffffffffffffffffffffffffffff1673ffffffffffffffffffffffffffffffffffffffff168273ffffffffffffffffffffffffffffffffffffffff16145b9050612091565b611d0d6121d4565b15611e1a57600560009054906101000a900473ffffffffffffffffffffffffffffffffffffffff1673ffffffffffffffffffffffffffffffffffffffff168273ffffffffffffffffffffffffffffffffffffffff161480611dbb5750600660009054906101000a900473ffffffffffffffffffffffffffffffffffffffff1673ffffffffffffffffffffffffffffffffffffffff168273ffffffffffffffffffffffffffffffffffffffff16145b80611e135750600760009054906101000a900473ffffffffffffffffffffffffffffffffffffffff1673ffffffffffffffffffffffffffffffffffffffff168273ffffffffffffffffffffffffffffffffffffffff16145b9050612091565b6003600d811115611e2757fe5b600960149054906101000a900460ff16600d811115611e4257fe5b1480611e735750600a600d811115611e5657fe5b600960149054906101000a900460ff16600d811115611e7157fe5b145b15611f8057600560009054906101000a900473ffffffffffffffffffffffffffffffffffffffff1673ffffffffffffffffffffffffffffffffffffffff168273ffffffffffffffffffffffffffffffffffffffff161480611f215750600660009054906101000a900473ffffffffffffffffffffffffffffffffffffffff1673ffffffffffffffffffffffffffffffffffffffff168273ffffffffffffffffffffffffffffffffffffffff16145b80611f795750600760009054906101000a900473ffffffffffffffffffffffffffffffffffffffff1673ffffffffffffffffffffffffffffffffffffffff168273ffffffffffffffffffffffffffffffffffffffff16145b9050612091565b600b600d811115611f8d57fe5b600960149054906101000a900460ff16600d811115611fa857fe5b141561200657600860009054906101000a900473ffffffffffffffffffffffffffffffffffffffff1673ffffffffffffffffffffffffffffffffffffffff168273ffffffffffffffffffffffffffffffffffffffff16149050612091565b600c600d81111561201357fe5b600960149054906101000a900460ff16600d81111561202e57fe5b141561208c57600960009054906101000a900473ffffffffffffffffffffffffffffffffffffffff1673ffffffffffffffffffffffffffffffffffffffff168273ffffffffffffffffffffffffffffffffffffffff16149050612091565b600090505b919050565b600960009054906101000a900473ffffffffffffffffffffffffffffffffffffffff1681565b61782a81565b600e5481565b600c5481565b616c2681565b6000809054906101000a900473ffffffffffffffffffffffffffffffffffffffff1673ffffffffffffffffffffffffffffffffffffffff163373ffffffffffffffffffffffffffffffffffffffff1614151561212f57600080fd5b600c548511151561213f57600080fd5b600f548311151561214f57600080fd5b600f54421015151561216057600080fd5b60008411151561216f57600080fd5b828211151561217d57600080fd5b600a60006001600d81111561218e57fe5b815260200190815260200160002054821015156121aa57600080fd5b84600c8190555083600d8190555082600e8190555081600f81905550806010819055505050505050565b600080600d8111156121e257fe5b600960149054906101000a900460ff16600d8111156121fd57fe5b14156122125761220b6111b3565b90506122a3565b6001600d81111561221f57fe5b600960149054906101000a900460ff16600d81111561223a57fe5b1015801561226e57506009600d81111561225057fe5b600960149054906101000a900460ff16600d81111561226b57fe5b11155b80156122a057506003600d81111561228257fe5b600960149054906101000a900460ff16600d81111561229d57fe5b14155b90505b90565b6122ae610e66565b6000809054906101000a900473ffffffffffffffffffffffffffffffffffffffff1673ffffffffffffffffffffffffffffffffffffffff163373ffffffffffffffffffffffffffffffffffffffff1614151561230957600080fd5b81600960149054906101000a900460ff16600d81111561232557fe5b14151561233157600080fd5b61234581600d81111561234057fe5b612d0f565b5050565b6000809054906101000a900473ffffffffffffffffffffffffffffffffffffffff1673ffffffffffffffffffffffffffffffffffffffff163373ffffffffffffffffffffffffffffffffffffffff161415156123a457600080fd5b600073ffffffffffffffffffffffffffffffffffffffff168173ffffffffffffffffffffffffffffffffffffffff16141515156123e057600080fd5b8073ffffffffffffffffffffffffffffffffffffffff166000809054906101000a900473ffffffffffffffffffffffffffffffffffffffff1673ffffffffffffffffffffffffffffffffffffffff167f8be0079c531659141344cd1fd0a4f28419497f9722a3daafe3b4186f6b6457e060405160405180910390a3806000806101000a81548173ffffffffffffffffffffffffffffffffffffffff021916908373ffffffffffffffffffffffffffffffffffffffff16021790555050565b61873181565b60006001600d8111156124b357fe5b600960149054906101000a900460ff16600d8111156124ce57fe5b14806124ff57506002600d8111156124e257fe5b600960149054906101000a900460ff16600d8111156124fd57fe5b145b1561251457670de0b6b3a764000090506125a1565b6004600d81111561252157fe5b600960149054906101000a900460ff16600d81111561253c57fe5b1015801561257057506009600d81111561255257fe5b600960149054906101000a900460ff16600d81111561256d57fe5b11155b15612585576702c68af0bb14000090506125a1565b61258d6111b3565b1561259c5760105490506125a1565b600090505b90565b600160009054906101000a900473ffffffffffffffffffffffffffffffffffffffff1681565b60008082840190508381101515156125de57fe5b8091505092915050565b600a6000600a600d8111156125f957fe5b8152602001908152602001600020544210151561261f5761261a600a612d0f565b612813565b600a60006009600d81111561263057fe5b81526020019081526020016000205442101515612656576126516009612d0f565b612812565b600a60006008600d81111561266757fe5b8152602001908152602001600020544210151561268d576126886008612d0f565b612811565b600a60006007600d81111561269e57fe5b815260200190815260200160002054421015156126c4576126bf6007612d0f565b612810565b600a60006006600d8111156126d557fe5b815260200190815260200160002054421015156126fb576126f66006612d0f565b61280f565b600a60006005600d81111561270c57fe5b815260200190815260200160002054421015156127325761272d6005612d0f565b61280e565b600a60006004600d81111561274357fe5b81526020019081526020016000205442101515612769576127646004612d0f565b61280d565b600a60006003600d81111561277a57fe5b815260200190815260200160002054421015156127a05761279b6003612d0f565b61280c565b600a60006002600d8111156127b157fe5b815260200190815260200160002054421015156127d7576127d26002612d0f565b61280b565b600a60006001600d8111156127e857fe5b8152602001908152602001600020544210151561280a576128096001612d0f565b5b5b5b5b5b5b5b5b5b5b565b600061282e6004546003546125ca90919063ffffffff16565b90506128386121d4565b151561284357612a52565b61284b6111b3565b1561286657600c54811115151561286157600080fd5b612a51565b6003600d81111561287357fe5b600960149054906101000a900460ff16600d81111561288e57fe5b121561290457600b60006002600d8111156128a557fe5b815260200190815260200160002054811015156128cb576128c66003612d0f565b6128ff565b600b60006001600d8111156128dc57fe5b815260200190815260200160002054811015156128fe576128fd6002612d0f565b5b5b612a50565b600b60006009600d81111561291557fe5b8152602001908152602001600020548110151561293b57612936600a612d0f565b612a4f565b600b60006008600d81111561294c57fe5b815260200190815260200160002054811015156129725761296d6009612d0f565b612a4e565b600b60006007600d81111561298357fe5b815260200190815260200160002054811015156129a9576129a46008612d0f565b612a4d565b600b60006006600d8111156129ba57fe5b815260200190815260200160002054811015156129e0576129db6007612d0f565b612a4c565b600b60006005600d8111156129f157fe5b81526020019081526020016000205481101515612a1757612a126006612d0f565b612a4b565b600b60006004600d811115612a2857fe5b81526020019081526020016000205481101515612a4a57612a496005612d0f565b5b5b5b5b5b5b5b5b5b50565b6000806000841415612a6a5760009150612a89565b8284029050828482811515612a7b57fe5b04141515612a8557fe5b8091505b5092915050565b6000808284811515612a9e57fe5b0490508091505092915050565b6000828211151515612ab957fe5b818303905092915050565b81600a60006001600d811115612ad657fe5b815260200190815260200160002081905550612af6600162069780612dc7565b612b04600262069780612dc7565b612b1260036203f480612dc7565b612b20600462069780612dc7565b612b2e600562069780612dc7565b612b3c600662069780612dc7565b612b4a600762069780612dc7565b612b58600862069780612dc7565b612b66600962069780612dc7565b80600b60006001600d811115612b7857fe5b815260200190815260200160002081905550612b9e600282612a5590919063ffffffff16565b600b60006002600d811115612baf57fe5b815260200190815260200160002081905550612bd5600382612a5590919063ffffffff16565b600b60006004600d811115612be657fe5b815260200190815260200160002081905550612c0c600482612a5590919063ffffffff16565b600b60006005600d811115612c1d57fe5b815260200190815260200160002081905550612c43600582612a5590919063ffffffff16565b600b60006006600d811115612c5457fe5b815260200190815260200160002081905550612c7a600682612a5590919063ffffffff16565b600b60006007600d811115612c8b57fe5b815260200190815260200160002081905550612cb1600782612a5590919063ffffffff16565b600b60006008600d811115612cc257fe5b815260200190815260200160002081905550612ce8600882612a5590919063ffffffff16565b600b60006009600d811115612cf957fe5b8152602001908152602001600020819055505050565b600960149054906101000a900460ff16600d811115612d2a57fe5b81600d811115612d3657fe5b1115612dc4577f1c0c6794b8c626515ef0eaa59cf29f712f686771b359ff1a5a05738b92d05484600960149054906101000a900460ff16600d811115612d7857fe5b82600d811115612d8457fe5b604051808381526020018281526020019250505060405180910390a180600960146101000a81548160ff0219169083600d811115612dbe57fe5b02179055505b50565b612df881600a600085600d811115612ddb57fe5b8152602001908152602001600020546125ca90919063ffffffff16565b600a6000600185600d811115612e0a57fe5b0181526020019081526020016000208190555050505600a165627a7a72305820dfc38584ea05bfa8fabaf94c6c7c74b5d66b9583f5c6a570faad01c1d9d148ef0029",
  "source": "pragma solidity ^0.4.24;\nimport \"zeppelin-solidity/contracts/math/SafeMath.sol\";\nimport \"zeppelin-solidity/contracts/ownership/Ownable.sol\";\nimport \"./Minter.sol\";\n\ncontract Tge is Minter {\n    using SafeMath for uint;\n\n    /* --- CONSTANTS --- */\n\n    uint constant public MIMIMUM_CONTRIBUTION_AMOUNT_PREICO = 1 * 1e18;\n    uint constant public MIMIMUM_CONTRIBUTION_AMOUNT_ICO = 2 * 1e17;\n    \n    uint constant public PRICE_MULTIPLIER_PREICO1 = 39553;\n    uint constant public PRICE_MULTIPLIER_PREICO2 = 38189;\n\n    uint constant public PRICE_MULTIPLIER_ICO1 = 34609;\n    uint constant public PRICE_MULTIPLIER_ICO2 = 33559;\n    uint constant public PRICE_MULTIPLIER_ICO3 = 31641;\n    uint constant public PRICE_MULTIPLIER_ICO4 = 30762;\n    uint constant public PRICE_MULTIPLIER_ICO5 = 29143;\n    uint constant public PRICE_MULTIPLIER_ICO6 = 27686;\n\n    /* --- EVENTS --- */\n\n    event StateChanged(uint from, uint to);\n\n    /* --- FIELDS --- */\n\n    // minters\n    address public crowdsale;\n    address public deferredKyc;\n    address public referralManager;\n    address public allocator;\n    address public airdropper;\n\n    // state\n    enum State {Presale, Preico1, Preico2, Break, Ico1, Ico2, Ico3, Ico4, Ico5, Ico6, FinishingIco, Allocating, Airdropping, Finished}\n    State public currentState = State.Presale;\n    mapping(uint => uint) public startTimes;\n    mapping(uint => uint) public etherCaps;\n\n    // private ico\n    uint public privateIcoCap = 0;\n    uint public privateIcoTokensForEther = 0;\n    uint public privateIcoStartTime = 0;\n    uint public privateIcoEndTime = 0;\n    uint public privateIcoMinimumContribution = 0;\n\n    /* --- MODIFIERS --- */\n\n    modifier onlyInState(State _state) {\n        require(_state == currentState);\n        _;\n    }\n\n    modifier onlyValidAddress(address account) {\n        require(account != 0x0);\n        _;\n    }\n\n    /* --- CONSTRUCTOR / INITIALIZATION --- */\n\n    constructor(\n        CrowdfundableToken _token,\n        uint _saleEtherCap\n    ) public Minter(_token, _saleEtherCap) { }\n\n    // initialize states start times and caps\n    function initStates(uint saleStart, uint singleStateEtherCap) internal {\n        startTimes[uint(State.Preico1)] = saleStart;\n        setStateLength(State.Preico1, 5 days);\n        setStateLength(State.Preico2, 5 days);\n        setStateLength(State.Break, 3 days);\n        setStateLength(State.Ico1, 5 days);\n        setStateLength(State.Ico2, 5 days);\n        setStateLength(State.Ico3, 5 days);\n        setStateLength(State.Ico4, 5 days);\n        setStateLength(State.Ico5, 5 days);\n        setStateLength(State.Ico6, 5 days);\n\n        // the total sale ether cap is distributed evenly over all selling states\n        // the cap from previous states is accumulated in consequent states\n        etherCaps[uint(State.Preico1)] = singleStateEtherCap;\n        etherCaps[uint(State.Preico2)] = singleStateEtherCap.mul(2);\n        etherCaps[uint(State.Ico1)] = singleStateEtherCap.mul(3);\n        etherCaps[uint(State.Ico2)] = singleStateEtherCap.mul(4);\n        etherCaps[uint(State.Ico3)] = singleStateEtherCap.mul(5);\n        etherCaps[uint(State.Ico4)] = singleStateEtherCap.mul(6);\n        etherCaps[uint(State.Ico5)] = singleStateEtherCap.mul(7);\n        etherCaps[uint(State.Ico6)] = singleStateEtherCap.mul(8);\n    }\n\n    function initialize(\n        address _crowdsale,\n        address _deferredKyc,\n        address _referralManager,\n        address _allocator,\n        address _airdropper,\n        uint saleStartTime,\n        uint singleStateEtherCap\n    )\n    public\n    onlyOwner\n    onlyInState(State.Presale)\n    onlyValidAddress(_crowdsale)\n    onlyValidAddress(_deferredKyc)\n    onlyValidAddress(_referralManager)\n    onlyValidAddress(_allocator)\n    onlyValidAddress(_airdropper)\n    {\n        require(saleStartTime >= now);\n        require(singleStateEtherCap > 0);\n        crowdsale = _crowdsale;\n        deferredKyc = _deferredKyc;\n        referralManager = _referralManager;\n        allocator = _allocator;\n        airdropper = _airdropper;\n        initStates(saleStartTime, singleStateEtherCap);\n    }\n\n    /* --- PUBLIC / EXTERNAL METHODS --- */\n\n    function moveState(uint from, uint to) external onlyInUpdatedState onlyOwner {\n        require(uint(currentState) == from);\n        advanceStateIfNewer(State(to));\n    }\n\n    // override\n    function transferTokenOwnership() external onlyInUpdatedState onlyOwner {\n        require(currentState == State.Finished);\n        token.transferOwnership(owner);\n    }\n\n    // override\n    function getTokensForEther(uint etherAmount) public view returns(uint) {\n        uint tokenAmount = 0;\n        if (isPrivateIcoActive()) tokenAmount = etherAmount.mul(privateIcoTokensForEther);\n        else if (currentState == State.Preico1) tokenAmount = etherAmount.mul(PRICE_MULTIPLIER_PREICO1).div(10);\n        else if (currentState == State.Preico2) tokenAmount = etherAmount.mul(PRICE_MULTIPLIER_PREICO2).div(10);\n        else if (currentState == State.Ico1) tokenAmount = etherAmount.mul(PRICE_MULTIPLIER_ICO1).div(10);\n        else if (currentState == State.Ico2) tokenAmount = etherAmount.mul(PRICE_MULTIPLIER_ICO2).div(10);\n        else if (currentState == State.Ico3) tokenAmount = etherAmount.mul(PRICE_MULTIPLIER_ICO3).div(10);\n        else if (currentState == State.Ico4) tokenAmount = etherAmount.mul(PRICE_MULTIPLIER_ICO4).div(10);\n        else if (currentState == State.Ico5) tokenAmount = etherAmount.mul(PRICE_MULTIPLIER_ICO5).div(10);\n        else if (currentState == State.Ico6) tokenAmount = etherAmount.mul(PRICE_MULTIPLIER_ICO6).div(10);\n\n        // bonus\n        if (etherAmount > 10 * 1e18) {\n            tokenAmount = tokenAmount.mul(105).div(100);\n        }\n        else if (etherAmount > 5 * 1e18) {\n            tokenAmount = tokenAmount.mul(103).div(100);\n        }\n        return tokenAmount;\n    }\n\n    function isSellingState() public view returns(bool) {\n        if (currentState == State.Presale) return isPrivateIcoActive();\n        return (\n            uint(currentState) >= uint(State.Preico1) &&\n            uint(currentState) <= uint(State.Ico6) &&\n            uint(currentState) != uint(State.Break)\n        );\n    }\n\n    function isPrivateIcoActive() public view returns(bool) {\n        return now >= privateIcoStartTime && now < privateIcoEndTime;\n    }\n\n    function initPrivateIco(uint _cap, uint _tokensForEther, uint _startTime, uint _endTime, uint _minimumContribution) external onlyOwner {\n        require(_cap > privateIcoCap); // should increase the cap after previous private ico\n        require(_startTime > privateIcoEndTime); // should start after previous private ico\n        require(now >= privateIcoEndTime); // previous private ico should be finished\n        require(_tokensForEther > 0);\n        require(_endTime > _startTime);\n        require(_endTime < startTimes[uint(State.Preico1)]);\n\n        privateIcoCap = _cap;\n        privateIcoTokensForEther = _tokensForEther;\n        privateIcoStartTime = _startTime;\n        privateIcoEndTime = _endTime;\n        privateIcoMinimumContribution = _minimumContribution;\n    }\n\n    /* --- INTERNAL METHODS --- */\n\n    // override\n    function getMinimumContribution() public view returns(uint) {\n        if (currentState == State.Preico1 || currentState == State.Preico2) {\n            return MIMIMUM_CONTRIBUTION_AMOUNT_PREICO;\n        }\n        if (uint(currentState) >= uint(State.Ico1) && uint(currentState) <= uint(State.Ico6)) {\n            return MIMIMUM_CONTRIBUTION_AMOUNT_ICO;\n        }\n        if (isPrivateIcoActive()) {\n            return privateIcoMinimumContribution;\n        }\n        return 0;\n    }\n\n    // override\n    function canMint(address account) public view returns(bool) {\n        if (currentState == State.Presale) {\n            // external sales and private ico\n            return account == crowdsale || account == deferredKyc;\n        }\n        else if (isSellingState()) {\n            // external sales\n            // approving kyc\n            // adding to kyc\n            // referral fees\n            return account == crowdsale || account == deferredKyc || account == referralManager;\n        }\n        else if (currentState == State.Break || currentState == State.FinishingIco) {\n            // external sales\n            // approving kyc\n            // referral fees\n            return account == crowdsale || account == deferredKyc || account == referralManager;\n        }\n        else if (currentState == State.Allocating) {\n            // Community and Bounty allocations\n            // Advisors, Developers, Ambassadors and Partners allocations\n            // Customer Rewards allocations\n            // Team allocations\n            return account == allocator;\n        }\n        else if (currentState == State.Airdropping) {\n            // airdropping for all token holders\n            return account == airdropper;\n        }\n        return false;\n    }\n\n    // override\n    function updateState() public {\n        updateStateBasedOnTime();\n        updateStateBasedOnContributions();\n    }\n\n    function updateStateBasedOnTime() internal {\n        // move to the next state, if the current one has finished\n        if (now >= startTimes[uint(State.FinishingIco)]) advanceStateIfNewer(State.FinishingIco);\n        else if (now >= startTimes[uint(State.Ico6)]) advanceStateIfNewer(State.Ico6);\n        else if (now >= startTimes[uint(State.Ico5)]) advanceStateIfNewer(State.Ico5);\n        else if (now >= startTimes[uint(State.Ico4)]) advanceStateIfNewer(State.Ico4);\n        else if (now >= startTimes[uint(State.Ico3)]) advanceStateIfNewer(State.Ico3);\n        else if (now >= startTimes[uint(State.Ico2)]) advanceStateIfNewer(State.Ico2);\n        else if (now >= startTimes[uint(State.Ico1)]) advanceStateIfNewer(State.Ico1);\n        else if (now >= startTimes[uint(State.Break)]) advanceStateIfNewer(State.Break);\n        else if (now >= startTimes[uint(State.Preico2)]) advanceStateIfNewer(State.Preico2);\n        else if (now >= startTimes[uint(State.Preico1)]) advanceStateIfNewer(State.Preico1);\n    }\n\n    function updateStateBasedOnContributions() internal {\n        // move to the next state, if the current one's cap has been reached\n        uint totalEtherContributions = confirmedSaleEther.add(reservedSaleEther);\n        if (!isSellingState()) {\n            return;\n        }\n\n        if(isPrivateIcoActive()) {\n            // if private ico cap exceeded, revert transaction\n            require(totalEtherContributions <= privateIcoCap);\n        }\n        else if (int(currentState) < int(State.Break)) {\n            // preico\n            if (totalEtherContributions >= etherCaps[uint(State.Preico2)]) advanceStateIfNewer(State.Break);\n            else if (totalEtherContributions >= etherCaps[uint(State.Preico1)]) advanceStateIfNewer(State.Preico2);\n        }\n        else {\n            // ico\n            if (totalEtherContributions >= etherCaps[uint(State.Ico6)]) advanceStateIfNewer(State.FinishingIco);\n            else if (totalEtherContributions >= etherCaps[uint(State.Ico5)]) advanceStateIfNewer(State.Ico6);\n            else if (totalEtherContributions >= etherCaps[uint(State.Ico4)]) advanceStateIfNewer(State.Ico5);\n            else if (totalEtherContributions >= etherCaps[uint(State.Ico3)]) advanceStateIfNewer(State.Ico4);\n            else if (totalEtherContributions >= etherCaps[uint(State.Ico2)]) advanceStateIfNewer(State.Ico3);\n            else if (totalEtherContributions >= etherCaps[uint(State.Ico1)]) advanceStateIfNewer(State.Ico2);\n        }\n    }\n\n    function advanceStateIfNewer(State newState) internal {\n        if (uint(newState) > uint(currentState)) {\n            emit StateChanged(uint(currentState), uint(newState));\n            currentState = newState;\n        }\n    }\n\n    function setStateLength(State state, uint length) internal {\n        // state length is determined by next state's start time\n        startTimes[uint(state)+1] = startTimes[uint(state)].add(length);\n    }\n\n    function isInitialized() public view returns(bool) {\n        return crowdsale != 0x0 && referralManager != 0x0 && allocator != 0x0 && airdropper != 0x0 && deferredKyc != 0x0;\n    }\n}\n",
  "sourcePath": "/Users/przemek/Projects/allsporter/contracts/Tge.sol",
  "compiler": {
    "name": "solc",
    "version": "0.4.24+commit.e67f0147.Emscripten.clang"
  },
  "schemaVersion": "2.0.0",
  "updatedAt": "2018-07-10T07:50:07.623Z"
}