{
  "contractName": "Tge",
  "abi": [
    {
      "constant": true,
      "inputs": [],
      "name": "currentState",
      "outputs": [
        {
          "name": "",
          "type": "uint8"
        }
      ],
      "payable": false,
      "stateMutability": "view",
      "type": "function"
    },
    {
      "constant": true,
      "inputs": [],
      "name": "reservedSaleEther",
      "outputs": [
        {
          "name": "",
          "type": "uint256"
        }
      ],
      "payable": false,
      "stateMutability": "view",
      "type": "function"
    },
    {
      "constant": false,
      "inputs": [
        {
          "name": "account",
          "type": "address"
        },
        {
          "name": "etherAmount",
          "type": "uint256"
        },
        {
          "name": "tokenAmount",
          "type": "uint256"
        }
      ],
      "name": "mint",
      "outputs": [],
      "payable": false,
      "stateMutability": "nonpayable",
      "type": "function"
    },
    {
      "constant": true,
      "inputs": [],
      "name": "saleEtherCap",
      "outputs": [
        {
          "name": "",
          "type": "uint256"
        }
      ],
      "payable": false,
      "stateMutability": "view",
      "type": "function"
    },
    {
      "constant": true,
      "inputs": [],
      "name": "PRICE_MULTIPLIER_PREICO2",
      "outputs": [
        {
          "name": "",
          "type": "uint256"
        }
      ],
      "payable": false,
      "stateMutability": "view",
      "type": "function"
    },
    {
      "constant": true,
      "inputs": [],
      "name": "confirmedSaleEther",
      "outputs": [
        {
          "name": "",
          "type": "uint256"
        }
      ],
      "payable": false,
      "stateMutability": "view",
      "type": "function"
    },
    {
      "constant": true,
      "inputs": [],
      "name": "MIMIMUM_CONTRIBUTION_AMOUNT_ICO",
      "outputs": [
        {
          "name": "",
          "type": "uint256"
        }
      ],
      "payable": false,
      "stateMutability": "view",
      "type": "function"
    },
    {
      "constant": true,
      "inputs": [],
      "name": "MIMIMUM_CONTRIBUTION_AMOUNT_PREICO",
      "outputs": [
        {
          "name": "",
          "type": "uint256"
        }
      ],
      "payable": false,
      "stateMutability": "view",
      "type": "function"
    },
    {
      "constant": true,
      "inputs": [],
      "name": "referralManager",
      "outputs": [
        {
          "name": "",
          "type": "address"
        }
      ],
      "payable": false,
      "stateMutability": "view",
      "type": "function"
    },
    {
      "constant": true,
      "inputs": [],
      "name": "PRICE_MULTIPLIER_PREICO1",
      "outputs": [
        {
          "name": "",
          "type": "uint256"
        }
      ],
      "payable": false,
      "stateMutability": "view",
      "type": "function"
    },
    {
      "constant": true,
      "inputs": [],
      "name": "PRICE_MULTIPLIER_ICO3",
      "outputs": [
        {
          "name": "",
          "type": "uint256"
        }
      ],
      "payable": false,
      "stateMutability": "view",
      "type": "function"
    },
    {
      "constant": true,
      "inputs": [],
      "name": "privateIcoTokensForEther",
      "outputs": [
        {
          "name": "",
          "type": "uint256"
        }
      ],
      "payable": false,
      "stateMutability": "view",
      "type": "function"
    },
    {
      "constant": true,
      "inputs": [],
      "name": "privateIcoEndTime",
      "outputs": [
        {
          "name": "",
          "type": "uint256"
        }
      ],
      "payable": false,
      "stateMutability": "view",
      "type": "function"
    },
    {
      "constant": false,
      "inputs": [
        {
          "name": "account",
          "type": "address"
        },
        {
          "name": "etherAmount",
          "type": "uint256"
        },
        {
          "name": "tokenAmount",
          "type": "uint256"
        }
      ],
      "name": "mintReserved",
      "outputs": [],
      "payable": false,
      "stateMutability": "nonpayable",
      "type": "function"
    },
    {
      "constant": false,
      "inputs": [
        {
          "name": "etherAmount",
          "type": "uint256"
        }
      ],
      "name": "unreserve",
      "outputs": [],
      "payable": false,
      "stateMutability": "nonpayable",
      "type": "function"
    },
    {
      "constant": true,
      "inputs": [
        {
          "name": "",
          "type": "uint256"
        }
      ],
      "name": "startTimes",
      "outputs": [
        {
          "name": "",
          "type": "uint256"
        }
      ],
      "payable": false,
      "stateMutability": "view",
      "type": "function"
    },
    {
      "constant": false,
      "inputs": [
        {
          "name": "etherAmount",
          "type": "uint256"
        }
      ],
      "name": "reserve",
      "outputs": [],
      "payable": false,
      "stateMutability": "nonpayable",
      "type": "function"
    },
    {
      "constant": true,
      "inputs": [],
      "name": "PRICE_MULTIPLIER_ICO5",
      "outputs": [
        {
          "name": "",
          "type": "uint256"
        }
      ],
      "payable": false,
      "stateMutability": "view",
      "type": "function"
    },
    {
      "constant": true,
      "inputs": [],
      "name": "owner",
      "outputs": [
        {
          "name": "",
          "type": "address"
        }
      ],
      "payable": false,
      "stateMutability": "view",
      "type": "function"
    },
    {
      "constant": true,
      "inputs": [],
      "name": "crowdsale",
      "outputs": [
        {
          "name": "",
          "type": "address"
        }
      ],
      "payable": false,
      "stateMutability": "view",
      "type": "function"
    },
    {
      "constant": true,
      "inputs": [],
      "name": "deferredKyc",
      "outputs": [
        {
          "name": "",
          "type": "address"
        }
      ],
      "payable": false,
      "stateMutability": "view",
      "type": "function"
    },
    {
      "constant": true,
      "inputs": [],
      "name": "allocator",
      "outputs": [
        {
          "name": "",
          "type": "address"
        }
      ],
      "payable": false,
      "stateMutability": "view",
      "type": "function"
    },
    {
      "constant": true,
      "inputs": [],
      "name": "PRICE_MULTIPLIER_ICO2",
      "outputs": [
        {
          "name": "",
          "type": "uint256"
        }
      ],
      "payable": false,
      "stateMutability": "view",
      "type": "function"
    },
    {
      "constant": true,
      "inputs": [
        {
          "name": "",
          "type": "uint256"
        }
      ],
      "name": "etherCaps",
      "outputs": [
        {
          "name": "",
          "type": "uint256"
        }
      ],
      "payable": false,
      "stateMutability": "view",
      "type": "function"
    },
    {
      "constant": true,
      "inputs": [],
      "name": "privateIcoMinimumContribution",
      "outputs": [
        {
          "name": "",
          "type": "uint256"
        }
      ],
      "payable": false,
      "stateMutability": "view",
      "type": "function"
    },
    {
      "constant": true,
      "inputs": [],
      "name": "airdropper",
      "outputs": [
        {
          "name": "",
          "type": "address"
        }
      ],
      "payable": false,
      "stateMutability": "view",
      "type": "function"
    },
    {
      "constant": true,
      "inputs": [],
      "name": "PRICE_MULTIPLIER_ICO4",
      "outputs": [
        {
          "name": "",
          "type": "uint256"
        }
      ],
      "payable": false,
      "stateMutability": "view",
      "type": "function"
    },
    {
      "constant": true,
      "inputs": [],
      "name": "privateIcoStartTime",
      "outputs": [
        {
          "name": "",
          "type": "uint256"
        }
      ],
      "payable": false,
      "stateMutability": "view",
      "type": "function"
    },
    {
      "constant": true,
      "inputs": [],
      "name": "privateIcoCap",
      "outputs": [
        {
          "name": "",
          "type": "uint256"
        }
      ],
      "payable": false,
      "stateMutability": "view",
      "type": "function"
    },
    {
      "constant": true,
      "inputs": [],
      "name": "PRICE_MULTIPLIER_ICO6",
      "outputs": [
        {
          "name": "",
          "type": "uint256"
        }
      ],
      "payable": false,
      "stateMutability": "view",
      "type": "function"
    },
    {
      "constant": false,
      "inputs": [
        {
          "name": "newOwner",
          "type": "address"
        }
      ],
      "name": "transferOwnership",
      "outputs": [],
      "payable": false,
      "stateMutability": "nonpayable",
      "type": "function"
    },
    {
      "constant": true,
      "inputs": [],
      "name": "PRICE_MULTIPLIER_ICO1",
      "outputs": [
        {
          "name": "",
          "type": "uint256"
        }
      ],
      "payable": false,
      "stateMutability": "view",
      "type": "function"
    },
    {
      "constant": true,
      "inputs": [],
      "name": "token",
      "outputs": [
        {
          "name": "",
          "type": "address"
        }
      ],
      "payable": false,
      "stateMutability": "view",
      "type": "function"
    },
    {
      "inputs": [
        {
          "name": "_token",
          "type": "address"
        },
        {
          "name": "_saleEtherCap",
          "type": "uint256"
        }
      ],
      "payable": false,
      "stateMutability": "nonpayable",
      "type": "constructor"
    },
    {
      "anonymous": false,
      "inputs": [
        {
          "indexed": false,
          "name": "from",
          "type": "uint256"
        },
        {
          "indexed": false,
          "name": "to",
          "type": "uint256"
        }
      ],
      "name": "StateChanged",
      "type": "event"
    },
    {
      "anonymous": false,
      "inputs": [
        {
          "indexed": true,
          "name": "account",
          "type": "address"
        },
        {
          "indexed": false,
          "name": "etherAmount",
          "type": "uint256"
        },
        {
          "indexed": false,
          "name": "tokenAmount",
          "type": "uint256"
        }
      ],
      "name": "Minted",
      "type": "event"
    },
    {
      "anonymous": false,
      "inputs": [
        {
          "indexed": false,
          "name": "etherAmount",
          "type": "uint256"
        }
      ],
      "name": "Reserved",
      "type": "event"
    },
    {
      "anonymous": false,
      "inputs": [
        {
          "indexed": true,
          "name": "account",
          "type": "address"
        },
        {
          "indexed": false,
          "name": "etherAmount",
          "type": "uint256"
        },
        {
          "indexed": false,
          "name": "tokenAmount",
          "type": "uint256"
        }
      ],
      "name": "MintedReserved",
      "type": "event"
    },
    {
      "anonymous": false,
      "inputs": [
        {
          "indexed": false,
          "name": "etherAmount",
          "type": "uint256"
        }
      ],
      "name": "Unreserved",
      "type": "event"
    },
    {
      "anonymous": false,
      "inputs": [
        {
          "indexed": true,
          "name": "previousOwner",
          "type": "address"
        },
        {
          "indexed": true,
          "name": "newOwner",
          "type": "address"
        }
      ],
      "name": "OwnershipTransferred",
      "type": "event"
    },
    {
      "constant": false,
      "inputs": [
        {
          "name": "_crowdsale",
          "type": "address"
        },
        {
          "name": "_deferredKyc",
          "type": "address"
        },
        {
          "name": "_referralManager",
          "type": "address"
        },
        {
          "name": "_allocator",
          "type": "address"
        },
        {
          "name": "_airdropper",
          "type": "address"
        },
        {
          "name": "saleStartTime",
          "type": "uint256"
        },
        {
          "name": "singleStateEtherCap",
          "type": "uint256"
        }
      ],
      "name": "initialize",
      "outputs": [],
      "payable": false,
      "stateMutability": "nonpayable",
      "type": "function"
    },
    {
      "constant": false,
      "inputs": [
        {
          "name": "from",
          "type": "uint256"
        },
        {
          "name": "to",
          "type": "uint256"
        }
      ],
      "name": "moveState",
      "outputs": [],
      "payable": false,
      "stateMutability": "nonpayable",
      "type": "function"
    },
    {
      "constant": false,
      "inputs": [],
      "name": "transferTokenOwnership",
      "outputs": [],
      "payable": false,
      "stateMutability": "nonpayable",
      "type": "function"
    },
    {
      "constant": true,
      "inputs": [
        {
          "name": "etherAmount",
          "type": "uint256"
        }
      ],
      "name": "getTokensForEther",
      "outputs": [
        {
          "name": "",
          "type": "uint256"
        }
      ],
      "payable": false,
      "stateMutability": "view",
      "type": "function"
    },
    {
      "constant": true,
      "inputs": [],
      "name": "isSellingState",
      "outputs": [
        {
          "name": "",
          "type": "bool"
        }
      ],
      "payable": false,
      "stateMutability": "view",
      "type": "function"
    },
    {
      "constant": true,
      "inputs": [],
      "name": "isPrivateIcoActive",
      "outputs": [
        {
          "name": "",
          "type": "bool"
        }
      ],
      "payable": false,
      "stateMutability": "view",
      "type": "function"
    },
    {
      "constant": false,
      "inputs": [
        {
          "name": "_cap",
          "type": "uint256"
        },
        {
          "name": "_tokensForEther",
          "type": "uint256"
        },
        {
          "name": "_startTime",
          "type": "uint256"
        },
        {
          "name": "_endTime",
          "type": "uint256"
        },
        {
          "name": "_minimumContribution",
          "type": "uint256"
        }
      ],
      "name": "initPrivateIco",
      "outputs": [],
      "payable": false,
      "stateMutability": "nonpayable",
      "type": "function"
    },
    {
      "constant": true,
      "inputs": [],
      "name": "getMinimumContribution",
      "outputs": [
        {
          "name": "",
          "type": "uint256"
        }
      ],
      "payable": false,
      "stateMutability": "view",
      "type": "function"
    },
    {
      "constant": true,
      "inputs": [
        {
          "name": "account",
          "type": "address"
        }
      ],
      "name": "canMint",
      "outputs": [
        {
          "name": "",
          "type": "bool"
        }
      ],
      "payable": false,
      "stateMutability": "view",
      "type": "function"
    },
    {
      "constant": false,
      "inputs": [],
      "name": "updateState",
      "outputs": [],
      "payable": false,
      "stateMutability": "nonpayable",
      "type": "function"
    },
    {
      "constant": true,
      "inputs": [],
      "name": "isInitialized",
      "outputs": [
        {
          "name": "",
          "type": "bool"
        }
      ],
      "payable": false,
      "stateMutability": "view",
      "type": "function"
    }
  ],
  "bytecode": "0x60806040526000600960146101000a81548160ff0219169083600d81111561002357fe5b02179055506000600c556000600d556000600e556000600f55600060105534801561004d57600080fd5b5060405160408062002f0883398101806040528101908080519060200190929190805190602001909291905050508181336000806101000a81548173ffffffffffffffffffffffffffffffffffffffff021916908373ffffffffffffffffffffffffffffffffffffffff1602179055508160008173ffffffffffffffffffffffffffffffffffffffff16141515156100e457600080fd5b6000821115156100f357600080fd5b82600160006101000a81548173ffffffffffffffffffffffffffffffffffffffff021916908373ffffffffffffffffffffffffffffffffffffffff160217905550816002819055505050505050612db880620001506000396000f30060806040526004361061021a576000357c0100000000000000000000000000000000000000000000000000000000900463ffffffff1680630c3f6acf1461021f57806311d36bf514610258578063156e29f6146102835780631d8557d7146102da5780631fd4b40c146102f1578063210d2bba1461031c57806324e846c714610347578063263b694a14610372578063272ae0b51461039d5780632ccd9623146103c8578063379080da1461041f578063392e53cd1461044a5780634056675e14610479578063426d70fa14610490578063434fb2ae146104bf5780635c49660a146104ea57806360b6aa921461051557806362dbf26114610540578063663f85491461058157806376b5d926146105d857806377bbebe614610605578063819b25ba146106465780638449b0af146106735780638da5cb5b1461069e5780639c1e03a0146106f5578063a1960d801461074c578063aa5dcecc146107a3578063ae9759ff146107fa578063b33f952714610825578063b5b22a18146108fc578063bbb01c9c1461093d578063c2ba474414610968578063c9d68389146109c3578063cef2952114610a1a578063cfaa759d14610a45578063d55b770314610a70578063d8783b0414610a9b578063e19bc8e514610ac6578063eaf86db314610b1b578063ebb9ab2514610b4a578063f2fde38b14610b81578063f50b530814610bc4578063f84038b114610bef578063fc0c546a14610c1a575b600080fd5b34801561022b57600080fd5b50610234610c71565b6040518082600d81111561024457fe5b60ff16815260200191505060405180910390f35b34801561026457600080fd5b5061026d610c84565b6040518082815260200191505060405180910390f35b34801561028f57600080fd5b506102d8600480360381019080803573ffffffffffffffffffffffffffffffffffffffff1690602001909291908035906020019092919080359060200190929190505050610c8a565b005b3480156102e657600080fd5b506102ef610e66565b005b3480156102fd57600080fd5b50610306610e78565b6040518082815260200191505060405180910390f35b34801561032857600080fd5b50610331610e7e565b6040518082815260200191505060405180910390f35b34801561035357600080fd5b5061035c610e84565b6040518082815260200191505060405180910390f35b34801561037e57600080fd5b50610387610e8a565b6040518082815260200191505060405180910390f35b3480156103a957600080fd5b506103b2610e8f565b6040518082815260200191505060405180910390f35b3480156103d457600080fd5b506103dd610e94565b604051808273ffffffffffffffffffffffffffffffffffffffff1673ffffffffffffffffffffffffffffffffffffffff16815260200191505060405180910390f35b34801561042b57600080fd5b50610434610eba565b6040518082815260200191505060405180910390f35b34801561045657600080fd5b5061045f610ec0565b604051808215151515815260200191505060405180910390f35b34801561048557600080fd5b5061048e611017565b005b34801561049c57600080fd5b506104a56111a5565b604051808215151515815260200191505060405180910390f35b3480156104cb57600080fd5b506104d46111bf565b6040518082815260200191505060405180910390f35b3480156104f657600080fd5b506104ff6111c5565b6040518082815260200191505060405180910390f35b34801561052157600080fd5b5061052a6111cb565b6040518082815260200191505060405180910390f35b34801561054c57600080fd5b5061056b600480360381019080803590602001909291905050506111d1565b6040518082815260200191505060405180910390f35b34801561058d57600080fd5b506105d6600480360381019080803573ffffffffffffffffffffffffffffffffffffffff16906020019092919080359060200190929190803590602001909291905050506114f6565b005b3480156105e457600080fd5b50610603600480360381019080803590602001909291905050506116ac565b005b34801561061157600080fd5b5061063060048036038101908080359060200190929190505050611725565b6040518082815260200191505060405180910390f35b34801561065257600080fd5b506106716004803603810190808035906020019092919050505061173d565b005b34801561067f57600080fd5b5061068861180f565b6040518082815260200191505060405180910390f35b3480156106aa57600080fd5b506106b3611815565b604051808273ffffffffffffffffffffffffffffffffffffffff1673ffffffffffffffffffffffffffffffffffffffff16815260200191505060405180910390f35b34801561070157600080fd5b5061070a61183a565b604051808273ffffffffffffffffffffffffffffffffffffffff1673ffffffffffffffffffffffffffffffffffffffff16815260200191505060405180910390f35b34801561075857600080fd5b50610761611860565b604051808273ffffffffffffffffffffffffffffffffffffffff1673ffffffffffffffffffffffffffffffffffffffff16815260200191505060405180910390f35b3480156107af57600080fd5b506107b8611886565b604051808273ffffffffffffffffffffffffffffffffffffffff1673ffffffffffffffffffffffffffffffffffffffff16815260200191505060405180910390f35b34801561080657600080fd5b5061080f6118ac565b6040518082815260200191505060405180910390f35b34801561083157600080fd5b506108fa600480360381019080803573ffffffffffffffffffffffffffffffffffffffff169060200190929190803573ffffffffffffffffffffffffffffffffffffffff169060200190929190803573ffffffffffffffffffffffffffffffffffffffff169060200190929190803573ffffffffffffffffffffffffffffffffffffffff169060200190929190803573ffffffffffffffffffffffffffffffffffffffff16906020019092919080359060200190929190803590602001909291905050506118b2565b005b34801561090857600080fd5b5061092760048036038101908080359060200190929190505050611b81565b6040518082815260200191505060405180910390f35b34801561094957600080fd5b50610952611b99565b6040518082815260200191505060405180910390f35b34801561097457600080fd5b506109a9600480360381019080803573ffffffffffffffffffffffffffffffffffffffff169060200190929190505050611b9f565b604051808215151515815260200191505060405180910390f35b3480156109cf57600080fd5b506109d861200f565b604051808273ffffffffffffffffffffffffffffffffffffffff1673ffffffffffffffffffffffffffffffffffffffff16815260200191505060405180910390f35b348015610a2657600080fd5b50610a2f612035565b6040518082815260200191505060405180910390f35b348015610a5157600080fd5b50610a5a61203b565b6040518082815260200191505060405180910390f35b348015610a7c57600080fd5b50610a85612041565b6040518082815260200191505060405180910390f35b348015610aa757600080fd5b50610ab0612047565b6040518082815260200191505060405180910390f35b348015610ad257600080fd5b50610b19600480360381019080803590602001909291908035906020019092919080359060200190929190803590602001909291908035906020019092919050505061204d565b005b348015610b2757600080fd5b50610b3061214d565b604051808215151515815260200191505060405180910390f35b348015610b5657600080fd5b50610b7f600480360381019080803590602001909291908035906020019092919050505061221f565b005b348015610b8d57600080fd5b50610bc2600480360381019080803573ffffffffffffffffffffffffffffffffffffffff1690602001909291905050506122c2565b005b348015610bd057600080fd5b50610bd9612417565b6040518082815260200191505060405180910390f35b348015610bfb57600080fd5b50610c0461241d565b6040518082815260200191505060405180910390f35b348015610c2657600080fd5b50610c2f61250f565b604051808273ffffffffffffffffffffffffffffffffffffffff1673ffffffffffffffffffffffffffffffffffffffff16815260200191505060405180910390f35b600960149054906101000a900460ff1681565b60045481565b610c92610e66565b610c9b33611b9f565b1515610ca657600080fd5b816000610cd282610cc460045460035461253590919063ffffffff16565b61253590919063ffffffff16565b90506002548111151515610ce557600080fd5b610cfa8460035461253590919063ffffffff16565b600381905550600160009054906101000a900473ffffffffffffffffffffffffffffffffffffffff1673ffffffffffffffffffffffffffffffffffffffff166340c10f1986856040518363ffffffff167c0100000000000000000000000000000000000000000000000000000000028152600401808373ffffffffffffffffffffffffffffffffffffffff1673ffffffffffffffffffffffffffffffffffffffff16815260200182815260200192505050602060405180830381600087803b158015610dc557600080fd5b505af1158015610dd9573d6000803e3d6000fd5b505050506040513d6020811015610def57600080fd5b810190808051906020019092919050505050610e09610e66565b8473ffffffffffffffffffffffffffffffffffffffff167f25b428dfde728ccfaddad7e29e4ac23c24ed7fd1a6e3e3f91894a9a073f5dfff8585604051808381526020018281526020019250505060405180910390a25050505050565b610e6e612553565b610e76612780565b565b60025481565b61952d81565b60035481565b600081565b600081565b600760009054906101000a900473ffffffffffffffffffffffffffffffffffffffff1681565b619a8181565b600080600560009054906101000a900473ffffffffffffffffffffffffffffffffffffffff1673ffffffffffffffffffffffffffffffffffffffff1614158015610f4357506000600760009054906101000a900473ffffffffffffffffffffffffffffffffffffffff1673ffffffffffffffffffffffffffffffffffffffff1614155b8015610f8857506000600860009054906101000a900473ffffffffffffffffffffffffffffffffffffffff1673ffffffffffffffffffffffffffffffffffffffff1614155b8015610fcd57506000600960009054906101000a900473ffffffffffffffffffffffffffffffffffffffff1673ffffffffffffffffffffffffffffffffffffffff1614155b801561101257506000600660009054906101000a900473ffffffffffffffffffffffffffffffffffffffff1673ffffffffffffffffffffffffffffffffffffffff1614155b905090565b61101f610e66565b6000809054906101000a900473ffffffffffffffffffffffffffffffffffffffff1673ffffffffffffffffffffffffffffffffffffffff163373ffffffffffffffffffffffffffffffffffffffff1614151561107a57600080fd5b600d8081111561108657fe5b600960149054906101000a900460ff16600d8111156110a157fe5b1415156110ad57600080fd5b600160009054906101000a900473ffffffffffffffffffffffffffffffffffffffff1673ffffffffffffffffffffffffffffffffffffffff1663f2fde38b6000809054906101000a900473ffffffffffffffffffffffffffffffffffffffff166040518263ffffffff167c0100000000000000000000000000000000000000000000000000000000028152600401808273ffffffffffffffffffffffffffffffffffffffff1673ffffffffffffffffffffffffffffffffffffffff168152602001915050600060405180830381600087803b15801561118b57600080fd5b505af115801561119f573d6000803e3d6000fd5b50505050565b6000600e5442101580156111ba5750600f5442105b905090565b617b9981565b600d5481565b600f5481565b600080600090506111e06111a5565b15611201576111fa600d54846129c090919063ffffffff16565b90506114ed565b6001600d81111561120e57fe5b600960149054906101000a900460ff16600d81111561122957fe5b141561125e57611257600a611249619a81866129c090919063ffffffff16565b6129fb90919063ffffffff16565b90506114ec565b6002600d81111561126b57fe5b600960149054906101000a900460ff16600d81111561128657fe5b14156112bb576112b4600a6112a661952d866129c090919063ffffffff16565b6129fb90919063ffffffff16565b90506114eb565b6004600d8111156112c857fe5b600960149054906101000a900460ff16600d8111156112e357fe5b141561131857611311600a611303618731866129c090919063ffffffff16565b6129fb90919063ffffffff16565b90506114ea565b6005600d81111561132557fe5b600960149054906101000a900460ff16600d81111561134057fe5b14156113755761136e600a611360618317866129c090919063ffffffff16565b6129fb90919063ffffffff16565b90506114e9565b6006600d81111561138257fe5b600960149054906101000a900460ff16600d81111561139d57fe5b14156113d2576113cb600a6113bd617b99866129c090919063ffffffff16565b6129fb90919063ffffffff16565b90506114e8565b6007600d8111156113df57fe5b600960149054906101000a900460ff16600d8111156113fa57fe5b141561142f57611428600a61141a61782a866129c090919063ffffffff16565b6129fb90919063ffffffff16565b90506114e7565b6008600d81111561143c57fe5b600960149054906101000a900460ff16600d81111561145757fe5b141561148c57611485600a6114776171d7866129c090919063ffffffff16565b6129fb90919063ffffffff16565b90506114e6565b6009600d81111561149957fe5b600960149054906101000a900460ff16600d8111156114b457fe5b14156114e5576114e2600a6114d4616c26866129c090919063ffffffff16565b6129fb90919063ffffffff16565b90505b5b5b5b5b5b5b5b5b80915050919050565b6114fe610e66565b61150733611b9f565b151561151257600080fd5b61152782600454612a1690919063ffffffff16565b6004819055506115428260035461253590919063ffffffff16565b600381905550600160009054906101000a900473ffffffffffffffffffffffffffffffffffffffff1673ffffffffffffffffffffffffffffffffffffffff166340c10f1984836040518363ffffffff167c0100000000000000000000000000000000000000000000000000000000028152600401808373ffffffffffffffffffffffffffffffffffffffff1673ffffffffffffffffffffffffffffffffffffffff16815260200182815260200192505050602060405180830381600087803b15801561160d57600080fd5b505af1158015611621573d6000803e3d6000fd5b505050506040513d602081101561163757600080fd5b810190808051906020019092919050505050611651610e66565b8273ffffffffffffffffffffffffffffffffffffffff167f836db2a45fd007fb86f824d475eeebdf19516c0c16eded06df2fa4594a1188348383604051808381526020018281526020019250505060405180910390a2505050565b6116b4610e66565b6116bd33611b9f565b15156116c857600080fd5b6116dd81600454612a1690919063ffffffff16565b6004819055506116eb610e66565b7f3e9608ee93b29804c1c97a39ae6b68ca41b31ec84716dc2904413806fe7a2f3e816040518082815260200191505060405180910390a150565b600a6020528060005260406000206000915090505481565b611745610e66565b61174e33611b9f565b151561175957600080fd5b8060006117858261177760045460035461253590919063ffffffff16565b61253590919063ffffffff16565b9050600254811115151561179857600080fd5b826117a161241d565b81101515156117af57600080fd5b6117c48460045461253590919063ffffffff16565b6004819055506117d2610e66565b7f672216a7a59f7b075c6becc0eebb0ab5404d392281d509c1c1a4a6accd036f49846040518082815260200191505060405180910390a150505050565b6171d781565b6000809054906101000a900473ffffffffffffffffffffffffffffffffffffffff1681565b600560009054906101000a900473ffffffffffffffffffffffffffffffffffffffff1681565b600660009054906101000a900473ffffffffffffffffffffffffffffffffffffffff1681565b600860009054906101000a900473ffffffffffffffffffffffffffffffffffffffff1681565b61831781565b6000809054906101000a900473ffffffffffffffffffffffffffffffffffffffff1673ffffffffffffffffffffffffffffffffffffffff163373ffffffffffffffffffffffffffffffffffffffff1614151561190d57600080fd5b6000600960149054906101000a900460ff16600d81111561192a57fe5b81600d81111561193657fe5b14151561194257600080fd5b8760008173ffffffffffffffffffffffffffffffffffffffff161415151561196957600080fd5b8760008173ffffffffffffffffffffffffffffffffffffffff161415151561199057600080fd5b8760008173ffffffffffffffffffffffffffffffffffffffff16141515156119b757600080fd5b8760008173ffffffffffffffffffffffffffffffffffffffff16141515156119de57600080fd5b8760008173ffffffffffffffffffffffffffffffffffffffff1614151515611a0557600080fd5b428810151515611a1457600080fd5b600087111515611a2357600080fd5b8c600560006101000a81548173ffffffffffffffffffffffffffffffffffffffff021916908373ffffffffffffffffffffffffffffffffffffffff1602179055508b600660006101000a81548173ffffffffffffffffffffffffffffffffffffffff021916908373ffffffffffffffffffffffffffffffffffffffff1602179055508a600760006101000a81548173ffffffffffffffffffffffffffffffffffffffff021916908373ffffffffffffffffffffffffffffffffffffffff16021790555089600860006101000a81548173ffffffffffffffffffffffffffffffffffffffff021916908373ffffffffffffffffffffffffffffffffffffffff16021790555088600960006101000a81548173ffffffffffffffffffffffffffffffffffffffff021916908373ffffffffffffffffffffffffffffffffffffffff160217905550611b728888612a2f565b50505050505050505050505050565b600b6020528060005260406000206000915090505481565b60105481565b600080600d811115611bad57fe5b600960149054906101000a900460ff16600d811115611bc857fe5b1415611c7e57600560009054906101000a900473ffffffffffffffffffffffffffffffffffffffff1673ffffffffffffffffffffffffffffffffffffffff168273ffffffffffffffffffffffffffffffffffffffff161480611c775750600660009054906101000a900473ffffffffffffffffffffffffffffffffffffffff1673ffffffffffffffffffffffffffffffffffffffff168273ffffffffffffffffffffffffffffffffffffffff16145b905061200a565b611c8661214d565b15611d9357600560009054906101000a900473ffffffffffffffffffffffffffffffffffffffff1673ffffffffffffffffffffffffffffffffffffffff168273ffffffffffffffffffffffffffffffffffffffff161480611d345750600660009054906101000a900473ffffffffffffffffffffffffffffffffffffffff1673ffffffffffffffffffffffffffffffffffffffff168273ffffffffffffffffffffffffffffffffffffffff16145b80611d8c5750600760009054906101000a900473ffffffffffffffffffffffffffffffffffffffff1673ffffffffffffffffffffffffffffffffffffffff168273ffffffffffffffffffffffffffffffffffffffff16145b905061200a565b6003600d811115611da057fe5b600960149054906101000a900460ff16600d811115611dbb57fe5b1480611dec5750600a600d811115611dcf57fe5b600960149054906101000a900460ff16600d811115611dea57fe5b145b15611ef957600560009054906101000a900473ffffffffffffffffffffffffffffffffffffffff1673ffffffffffffffffffffffffffffffffffffffff168273ffffffffffffffffffffffffffffffffffffffff161480611e9a5750600660009054906101000a900473ffffffffffffffffffffffffffffffffffffffff1673ffffffffffffffffffffffffffffffffffffffff168273ffffffffffffffffffffffffffffffffffffffff16145b80611ef25750600760009054906101000a900473ffffffffffffffffffffffffffffffffffffffff1673ffffffffffffffffffffffffffffffffffffffff168273ffffffffffffffffffffffffffffffffffffffff16145b905061200a565b600b600d811115611f0657fe5b600960149054906101000a900460ff16600d811115611f2157fe5b1415611f7f57600860009054906101000a900473ffffffffffffffffffffffffffffffffffffffff1673ffffffffffffffffffffffffffffffffffffffff168273ffffffffffffffffffffffffffffffffffffffff1614905061200a565b600c600d811115611f8c57fe5b600960149054906101000a900460ff16600d811115611fa757fe5b141561200557600960009054906101000a900473ffffffffffffffffffffffffffffffffffffffff1673ffffffffffffffffffffffffffffffffffffffff168273ffffffffffffffffffffffffffffffffffffffff1614905061200a565b600090505b919050565b600960009054906101000a900473ffffffffffffffffffffffffffffffffffffffff1681565b61782a81565b600e5481565b600c5481565b616c2681565b6000809054906101000a900473ffffffffffffffffffffffffffffffffffffffff1673ffffffffffffffffffffffffffffffffffffffff163373ffffffffffffffffffffffffffffffffffffffff161415156120a857600080fd5b600c54851115156120b857600080fd5b600f54831115156120c857600080fd5b600f5442101515156120d957600080fd5b6000841115156120e857600080fd5b82821115156120f657600080fd5b600a60006001600d81111561210757fe5b8152602001908152602001600020548210151561212357600080fd5b84600c8190555083600d8190555082600e8190555081600f81905550806010819055505050505050565b600080600d81111561215b57fe5b600960149054906101000a900460ff16600d81111561217657fe5b141561218b576121846111a5565b905061221c565b6001600d81111561219857fe5b600960149054906101000a900460ff16600d8111156121b357fe5b101580156121e757506009600d8111156121c957fe5b600960149054906101000a900460ff16600d8111156121e457fe5b11155b801561221957506003600d8111156121fb57fe5b600960149054906101000a900460ff16600d81111561221657fe5b14155b90505b90565b612227610e66565b6000809054906101000a900473ffffffffffffffffffffffffffffffffffffffff1673ffffffffffffffffffffffffffffffffffffffff163373ffffffffffffffffffffffffffffffffffffffff1614151561228257600080fd5b81600960149054906101000a900460ff16600d81111561229e57fe5b1415156122aa57600080fd5b6122be81600d8111156122b957fe5b612c7a565b5050565b6000809054906101000a900473ffffffffffffffffffffffffffffffffffffffff1673ffffffffffffffffffffffffffffffffffffffff163373ffffffffffffffffffffffffffffffffffffffff1614151561231d57600080fd5b600073ffffffffffffffffffffffffffffffffffffffff168173ffffffffffffffffffffffffffffffffffffffff161415151561235957600080fd5b8073ffffffffffffffffffffffffffffffffffffffff166000809054906101000a900473ffffffffffffffffffffffffffffffffffffffff1673ffffffffffffffffffffffffffffffffffffffff167f8be0079c531659141344cd1fd0a4f28419497f9722a3daafe3b4186f6b6457e060405160405180910390a3806000806101000a81548173ffffffffffffffffffffffffffffffffffffffff021916908373ffffffffffffffffffffffffffffffffffffffff16021790555050565b61873181565b60006001600d81111561242c57fe5b600960149054906101000a900460ff16600d81111561244757fe5b148061247857506002600d81111561245b57fe5b600960149054906101000a900460ff16600d81111561247657fe5b145b15612486576000905061250c565b6004600d81111561249357fe5b600960149054906101000a900460ff16600d8111156124ae57fe5b101580156124e257506009600d8111156124c457fe5b600960149054906101000a900460ff16600d8111156124df57fe5b11155b156124f0576000905061250c565b6124f86111a5565b1561250757601054905061250c565b600090505b90565b600160009054906101000a900473ffffffffffffffffffffffffffffffffffffffff1681565b600080828401905083811015151561254957fe5b8091505092915050565b600a6000600a600d81111561256457fe5b8152602001908152602001600020544210151561258a57612585600a612c7a565b61277e565b600a60006009600d81111561259b57fe5b815260200190815260200160002054421015156125c1576125bc6009612c7a565b61277d565b600a60006008600d8111156125d257fe5b815260200190815260200160002054421015156125f8576125f36008612c7a565b61277c565b600a60006007600d81111561260957fe5b8152602001908152602001600020544210151561262f5761262a6007612c7a565b61277b565b600a60006006600d81111561264057fe5b81526020019081526020016000205442101515612666576126616006612c7a565b61277a565b600a60006005600d81111561267757fe5b8152602001908152602001600020544210151561269d576126986005612c7a565b612779565b600a60006004600d8111156126ae57fe5b815260200190815260200160002054421015156126d4576126cf6004612c7a565b612778565b600a60006003600d8111156126e557fe5b8152602001908152602001600020544210151561270b576127066003612c7a565b612777565b600a60006002600d81111561271c57fe5b815260200190815260200160002054421015156127425761273d6002612c7a565b612776565b600a60006001600d81111561275357fe5b81526020019081526020016000205442101515612775576127746001612c7a565b5b5b5b5b5b5b5b5b5b5b565b600061279960045460035461253590919063ffffffff16565b90506127a361214d565b15156127ae576129bd565b6127b66111a5565b156127d157600c5481111515156127cc57600080fd5b6129bc565b6003600d8111156127de57fe5b600960149054906101000a900460ff16600d8111156127f957fe5b121561286f57600b60006002600d81111561281057fe5b81526020019081526020016000205481101515612836576128316003612c7a565b61286a565b600b60006001600d81111561284757fe5b81526020019081526020016000205481101515612869576128686002612c7a565b5b5b6129bb565b600b60006009600d81111561288057fe5b815260200190815260200160002054811015156128a6576128a1600a612c7a565b6129ba565b600b60006008600d8111156128b757fe5b815260200190815260200160002054811015156128dd576128d86009612c7a565b6129b9565b600b60006007600d8111156128ee57fe5b815260200190815260200160002054811015156129145761290f6008612c7a565b6129b8565b600b60006006600d81111561292557fe5b8152602001908152602001600020548110151561294b576129466007612c7a565b6129b7565b600b60006005600d81111561295c57fe5b815260200190815260200160002054811015156129825761297d6006612c7a565b6129b6565b600b60006004600d81111561299357fe5b815260200190815260200160002054811015156129b5576129b46005612c7a565b5b5b5b5b5b5b5b5b5b50565b60008060008414156129d557600091506129f4565b82840290508284828115156129e657fe5b041415156129f057fe5b8091505b5092915050565b6000808284811515612a0957fe5b0490508091505092915050565b6000828211151515612a2457fe5b818303905092915050565b81600a60006001600d811115612a4157fe5b815260200190815260200160002081905550612a61600162069780612d32565b612a6f600262069780612d32565b612a7d60036203f480612d32565b612a8b600462069780612d32565b612a99600562069780612d32565b612aa7600662069780612d32565b612ab5600762069780612d32565b612ac3600862069780612d32565b612ad1600962069780612d32565b80600b60006001600d811115612ae357fe5b815260200190815260200160002081905550612b096002826129c090919063ffffffff16565b600b60006002600d811115612b1a57fe5b815260200190815260200160002081905550612b406003826129c090919063ffffffff16565b600b60006004600d811115612b5157fe5b815260200190815260200160002081905550612b776004826129c090919063ffffffff16565b600b60006005600d811115612b8857fe5b815260200190815260200160002081905550612bae6005826129c090919063ffffffff16565b600b60006006600d811115612bbf57fe5b815260200190815260200160002081905550612be56006826129c090919063ffffffff16565b600b60006007600d811115612bf657fe5b815260200190815260200160002081905550612c1c6007826129c090919063ffffffff16565b600b60006008600d811115612c2d57fe5b815260200190815260200160002081905550612c536008826129c090919063ffffffff16565b600b60006009600d811115612c6457fe5b8152602001908152602001600020819055505050565b600960149054906101000a900460ff16600d811115612c9557fe5b81600d811115612ca157fe5b1115612d2f577f1c0c6794b8c626515ef0eaa59cf29f712f686771b359ff1a5a05738b92d05484600960149054906101000a900460ff16600d811115612ce357fe5b82600d811115612cef57fe5b604051808381526020018281526020019250505060405180910390a180600960146101000a81548160ff0219169083600d811115612d2957fe5b02179055505b50565b612d6381600a600085600d811115612d4657fe5b81526020019081526020016000205461253590919063ffffffff16565b600a6000600185600d811115612d7557fe5b0181526020019081526020016000208190555050505600a165627a7a723058202c7fdb9ce5004ba0428ad48473cb2a9970d821ffb3cc091eb8ed6a7c14d256e70029",
  "source": "pragma solidity ^0.4.24;\nimport \"zeppelin-solidity/contracts/math/SafeMath.sol\";\nimport \"zeppelin-solidity/contracts/ownership/Ownable.sol\";\nimport \"./Minter.sol\";\n\ncontract Tge is Minter {\n    using SafeMath for uint;\n\n    /* --- CONSTANTS --- */\n\n    uint constant public MIMIMUM_CONTRIBUTION_AMOUNT_PREICO = 0;\n    uint constant public MIMIMUM_CONTRIBUTION_AMOUNT_ICO = 0;\n    \n    uint constant public PRICE_MULTIPLIER_PREICO1 = 39553;\n    uint constant public PRICE_MULTIPLIER_PREICO2 = 38189;\n\n    uint constant public PRICE_MULTIPLIER_ICO1 = 34609;\n    uint constant public PRICE_MULTIPLIER_ICO2 = 33559;\n    uint constant public PRICE_MULTIPLIER_ICO3 = 31641;\n    uint constant public PRICE_MULTIPLIER_ICO4 = 30762;\n    uint constant public PRICE_MULTIPLIER_ICO5 = 29143;\n    uint constant public PRICE_MULTIPLIER_ICO6 = 27686;\n\n    /* --- EVENTS --- */\n\n    event StateChanged(uint from, uint to);\n\n    /* --- FIELDS --- */\n\n    // minters\n    address public crowdsale;\n    address public deferredKyc;\n    address public referralManager;\n    address public allocator;\n    address public airdropper;\n\n    // state\n    enum State {Presale, Preico1, Preico2, Break, Ico1, Ico2, Ico3, Ico4, Ico5, Ico6, FinishingIco, Allocating, Airdropping, Finished}\n    State public currentState = State.Presale;\n    mapping(uint => uint) public startTimes;\n    mapping(uint => uint) public etherCaps;\n\n    // private ico\n    uint public privateIcoCap = 0;\n    uint public privateIcoTokensForEther = 0;\n    uint public privateIcoStartTime = 0;\n    uint public privateIcoEndTime = 0;\n    uint public privateIcoMinimumContribution = 0;\n\n    /* --- MODIFIERS --- */\n\n    modifier onlyInState(State _state) {\n        require(_state == currentState);\n        _;\n    }\n\n    modifier onlyValidAddress(address account) {\n        require(account != 0x0);\n        _;\n    }\n\n    /* --- CONSTRUCTOR / INITIALIZATION --- */\n\n    constructor(\n        CrowdfundableToken _token,\n        uint _saleEtherCap\n    ) public Minter(_token, _saleEtherCap) { }\n\n    // initialize states start times and caps\n    function initStates(uint saleStart, uint singleStateEtherCap) internal {\n        startTimes[uint(State.Preico1)] = saleStart;\n        setStateLength(State.Preico1, 5 days);\n        setStateLength(State.Preico2, 5 days);\n        setStateLength(State.Break, 3 days);\n        setStateLength(State.Ico1, 5 days);\n        setStateLength(State.Ico2, 5 days);\n        setStateLength(State.Ico3, 5 days);\n        setStateLength(State.Ico4, 5 days);\n        setStateLength(State.Ico5, 5 days);\n        setStateLength(State.Ico6, 5 days);\n\n        // the total sale ether cap is distributed evenly over all selling states\n        // the cap from previous states is accumulated in consequent states\n        etherCaps[uint(State.Preico1)] = singleStateEtherCap;\n        etherCaps[uint(State.Preico2)] = singleStateEtherCap.mul(2);\n        etherCaps[uint(State.Ico1)] = singleStateEtherCap.mul(3);\n        etherCaps[uint(State.Ico2)] = singleStateEtherCap.mul(4);\n        etherCaps[uint(State.Ico3)] = singleStateEtherCap.mul(5);\n        etherCaps[uint(State.Ico4)] = singleStateEtherCap.mul(6);\n        etherCaps[uint(State.Ico5)] = singleStateEtherCap.mul(7);\n        etherCaps[uint(State.Ico6)] = singleStateEtherCap.mul(8);\n    }\n\n    function initialize(\n        address _crowdsale,\n        address _deferredKyc,\n        address _referralManager,\n        address _allocator,\n        address _airdropper,\n        uint saleStartTime,\n        uint singleStateEtherCap\n    )\n    public\n    onlyOwner\n    onlyInState(State.Presale)\n    onlyValidAddress(_crowdsale)\n    onlyValidAddress(_deferredKyc)\n    onlyValidAddress(_referralManager)\n    onlyValidAddress(_allocator)\n    onlyValidAddress(_airdropper)\n    {\n        require(saleStartTime >= now);\n        require(singleStateEtherCap > 0);\n        crowdsale = _crowdsale;\n        deferredKyc = _deferredKyc;\n        referralManager = _referralManager;\n        allocator = _allocator;\n        airdropper = _airdropper;\n        initStates(saleStartTime, singleStateEtherCap);\n    }\n\n    /* --- PUBLIC / EXTERNAL METHODS --- */\n\n    function moveState(uint from, uint to) external onlyInUpdatedState onlyOwner {\n        require(uint(currentState) == from);\n        advanceStateIfNewer(State(to));\n    }\n\n    // override\n    function transferTokenOwnership() external onlyInUpdatedState onlyOwner {\n        require(currentState == State.Finished);\n        token.transferOwnership(owner);\n    }\n\n    // override\n    function getTokensForEther(uint etherAmount) public view returns(uint) {\n        uint tokenAmount = 0;\n        if (isPrivateIcoActive()) tokenAmount = etherAmount.mul(privateIcoTokensForEther);\n        else if (currentState == State.Preico1) tokenAmount = etherAmount.mul(PRICE_MULTIPLIER_PREICO1).div(10);\n        else if (currentState == State.Preico2) tokenAmount = etherAmount.mul(PRICE_MULTIPLIER_PREICO2).div(10);\n        else if (currentState == State.Ico1) tokenAmount = etherAmount.mul(PRICE_MULTIPLIER_ICO1).div(10);\n        else if (currentState == State.Ico2) tokenAmount = etherAmount.mul(PRICE_MULTIPLIER_ICO2).div(10);\n        else if (currentState == State.Ico3) tokenAmount = etherAmount.mul(PRICE_MULTIPLIER_ICO3).div(10);\n        else if (currentState == State.Ico4) tokenAmount = etherAmount.mul(PRICE_MULTIPLIER_ICO4).div(10);\n        else if (currentState == State.Ico5) tokenAmount = etherAmount.mul(PRICE_MULTIPLIER_ICO5).div(10);\n        else if (currentState == State.Ico6) tokenAmount = etherAmount.mul(PRICE_MULTIPLIER_ICO6).div(10);\n\n        return tokenAmount;\n    }\n\n    function isSellingState() public view returns(bool) {\n        if (currentState == State.Presale) return isPrivateIcoActive();\n        return (\n            uint(currentState) >= uint(State.Preico1) &&\n            uint(currentState) <= uint(State.Ico6) &&\n            uint(currentState) != uint(State.Break)\n        );\n    }\n\n    function isPrivateIcoActive() public view returns(bool) {\n        return now >= privateIcoStartTime && now < privateIcoEndTime;\n    }\n\n    function initPrivateIco(uint _cap, uint _tokensForEther, uint _startTime, uint _endTime, uint _minimumContribution) external onlyOwner {\n        require(_cap > privateIcoCap); // should increase the cap after previous private ico\n        require(_startTime > privateIcoEndTime); // should start after previous private ico\n        require(now >= privateIcoEndTime); // previous private ico should be finished\n        require(_tokensForEther > 0);\n        require(_endTime > _startTime);\n        require(_endTime < startTimes[uint(State.Preico1)]);\n\n        privateIcoCap = _cap;\n        privateIcoTokensForEther = _tokensForEther;\n        privateIcoStartTime = _startTime;\n        privateIcoEndTime = _endTime;\n        privateIcoMinimumContribution = _minimumContribution;\n    }\n\n    /* --- INTERNAL METHODS --- */\n\n    // override\n    function getMinimumContribution() public view returns(uint) {\n        if (currentState == State.Preico1 || currentState == State.Preico2) {\n            return MIMIMUM_CONTRIBUTION_AMOUNT_PREICO;\n        }\n        if (uint(currentState) >= uint(State.Ico1) && uint(currentState) <= uint(State.Ico6)) {\n            return MIMIMUM_CONTRIBUTION_AMOUNT_ICO;\n        }\n        if (isPrivateIcoActive()) {\n            return privateIcoMinimumContribution;\n        }\n        return 0;\n    }\n\n    // override\n    function canMint(address account) public view returns(bool) {\n        if (currentState == State.Presale) {\n            // external sales and private ico\n            return account == crowdsale || account == deferredKyc;\n        }\n        else if (isSellingState()) {\n            // external sales\n            // approving kyc\n            // adding to kyc\n            // referral fees\n            return account == crowdsale || account == deferredKyc || account == referralManager;\n        }\n        else if (currentState == State.Break || currentState == State.FinishingIco) {\n            // external sales\n            // approving kyc\n            // referral fees\n            return account == crowdsale || account == deferredKyc || account == referralManager;\n        }\n        else if (currentState == State.Allocating) {\n            // Community and Bounty allocations\n            // Advisors, Developers, Ambassadors and Partners allocations\n            // Customer Rewards allocations\n            // Team allocations\n            return account == allocator;\n        }\n        else if (currentState == State.Airdropping) {\n            // airdropping for all token holders\n            return account == airdropper;\n        }\n        return false;\n    }\n\n    // override\n    function updateState() public {\n        updateStateBasedOnTime();\n        updateStateBasedOnContributions();\n    }\n\n    function updateStateBasedOnTime() internal {\n        // move to the next state, if the current one has finished\n        if (now >= startTimes[uint(State.FinishingIco)]) advanceStateIfNewer(State.FinishingIco);\n        else if (now >= startTimes[uint(State.Ico6)]) advanceStateIfNewer(State.Ico6);\n        else if (now >= startTimes[uint(State.Ico5)]) advanceStateIfNewer(State.Ico5);\n        else if (now >= startTimes[uint(State.Ico4)]) advanceStateIfNewer(State.Ico4);\n        else if (now >= startTimes[uint(State.Ico3)]) advanceStateIfNewer(State.Ico3);\n        else if (now >= startTimes[uint(State.Ico2)]) advanceStateIfNewer(State.Ico2);\n        else if (now >= startTimes[uint(State.Ico1)]) advanceStateIfNewer(State.Ico1);\n        else if (now >= startTimes[uint(State.Break)]) advanceStateIfNewer(State.Break);\n        else if (now >= startTimes[uint(State.Preico2)]) advanceStateIfNewer(State.Preico2);\n        else if (now >= startTimes[uint(State.Preico1)]) advanceStateIfNewer(State.Preico1);\n    }\n\n    function updateStateBasedOnContributions() internal {\n        // move to the next state, if the current one's cap has been reached\n        uint totalEtherContributions = confirmedSaleEther.add(reservedSaleEther);\n        if (!isSellingState()) {\n            return;\n        }\n\n        if(isPrivateIcoActive()) {\n            // if private ico cap exceeded, revert transaction\n            require(totalEtherContributions <= privateIcoCap);\n        }\n        else if (int(currentState) < int(State.Break)) {\n            // preico\n            if (totalEtherContributions >= etherCaps[uint(State.Preico2)]) advanceStateIfNewer(State.Break);\n            else if (totalEtherContributions >= etherCaps[uint(State.Preico1)]) advanceStateIfNewer(State.Preico2);\n        }\n        else {\n            // ico\n            if (totalEtherContributions >= etherCaps[uint(State.Ico6)]) advanceStateIfNewer(State.FinishingIco);\n            else if (totalEtherContributions >= etherCaps[uint(State.Ico5)]) advanceStateIfNewer(State.Ico6);\n            else if (totalEtherContributions >= etherCaps[uint(State.Ico4)]) advanceStateIfNewer(State.Ico5);\n            else if (totalEtherContributions >= etherCaps[uint(State.Ico3)]) advanceStateIfNewer(State.Ico4);\n            else if (totalEtherContributions >= etherCaps[uint(State.Ico2)]) advanceStateIfNewer(State.Ico3);\n            else if (totalEtherContributions >= etherCaps[uint(State.Ico1)]) advanceStateIfNewer(State.Ico2);\n        }\n    }\n\n    function advanceStateIfNewer(State newState) internal {\n        if (uint(newState) > uint(currentState)) {\n            emit StateChanged(uint(currentState), uint(newState));\n            currentState = newState;\n        }\n    }\n\n    function setStateLength(State state, uint length) internal {\n        // state length is determined by next state's start time\n        startTimes[uint(state)+1] = startTimes[uint(state)].add(length);\n    }\n\n    function isInitialized() public view returns(bool) {\n        return crowdsale != 0x0 && referralManager != 0x0 && allocator != 0x0 && airdropper != 0x0 && deferredKyc != 0x0;\n    }\n}\n",
  "sourcePath": "/Users/przemek/Projects/allsporter/contracts/Tge.sol",
  "compiler": {
    "name": "solc",
    "version": "0.4.24+commit.e67f0147.Emscripten.clang"
  },
  "schemaVersion": "2.0.1",
  "updatedAt": "2018-07-13T11:44:15.229Z"
}