{
  "contractName": "Tge",
  "abi": [
    {
      "constant": true,
      "inputs": [],
      "name": "currentState",
      "outputs": [
        {
          "name": "",
          "type": "uint8"
        }
      ],
      "payable": false,
      "stateMutability": "view",
      "type": "function"
    },
    {
      "constant": true,
      "inputs": [],
      "name": "reservedSaleEther",
      "outputs": [
        {
          "name": "",
          "type": "uint256"
        }
      ],
      "payable": false,
      "stateMutability": "view",
      "type": "function"
    },
    {
      "constant": false,
      "inputs": [
        {
          "name": "account",
          "type": "address"
        },
        {
          "name": "etherAmount",
          "type": "uint256"
        },
        {
          "name": "tokenAmount",
          "type": "uint256"
        }
      ],
      "name": "mint",
      "outputs": [],
      "payable": false,
      "stateMutability": "nonpayable",
      "type": "function"
    },
    {
      "constant": true,
      "inputs": [],
      "name": "saleEtherCap",
      "outputs": [
        {
          "name": "",
          "type": "uint256"
        }
      ],
      "payable": false,
      "stateMutability": "view",
      "type": "function"
    },
    {
      "constant": true,
      "inputs": [],
      "name": "PRICE_MULTIPLIER_PREICO2",
      "outputs": [
        {
          "name": "",
          "type": "uint256"
        }
      ],
      "payable": false,
      "stateMutability": "view",
      "type": "function"
    },
    {
      "constant": true,
      "inputs": [],
      "name": "confirmedSaleEther",
      "outputs": [
        {
          "name": "",
          "type": "uint256"
        }
      ],
      "payable": false,
      "stateMutability": "view",
      "type": "function"
    },
    {
      "constant": true,
      "inputs": [],
      "name": "MIMIMUM_CONTRIBUTION_AMOUNT_ICO",
      "outputs": [
        {
          "name": "",
          "type": "uint256"
        }
      ],
      "payable": false,
      "stateMutability": "view",
      "type": "function"
    },
    {
      "constant": true,
      "inputs": [],
      "name": "MIMIMUM_CONTRIBUTION_AMOUNT_PREICO",
      "outputs": [
        {
          "name": "",
          "type": "uint256"
        }
      ],
      "payable": false,
      "stateMutability": "view",
      "type": "function"
    },
    {
      "constant": true,
      "inputs": [],
      "name": "referralManager",
      "outputs": [
        {
          "name": "",
          "type": "address"
        }
      ],
      "payable": false,
      "stateMutability": "view",
      "type": "function"
    },
    {
      "constant": true,
      "inputs": [],
      "name": "PRICE_MULTIPLIER_PREICO1",
      "outputs": [
        {
          "name": "",
          "type": "uint256"
        }
      ],
      "payable": false,
      "stateMutability": "view",
      "type": "function"
    },
    {
      "constant": true,
      "inputs": [],
      "name": "PRICE_MULTIPLIER_ICO3",
      "outputs": [
        {
          "name": "",
          "type": "uint256"
        }
      ],
      "payable": false,
      "stateMutability": "view",
      "type": "function"
    },
    {
      "constant": true,
      "inputs": [],
      "name": "PRICE_DIVIDER",
      "outputs": [
        {
          "name": "",
          "type": "uint256"
        }
      ],
      "payable": false,
      "stateMutability": "view",
      "type": "function"
    },
    {
      "constant": true,
      "inputs": [],
      "name": "privateIcoTokensForEther",
      "outputs": [
        {
          "name": "",
          "type": "uint256"
        }
      ],
      "payable": false,
      "stateMutability": "view",
      "type": "function"
    },
    {
      "constant": true,
      "inputs": [],
      "name": "privateIcoEndTime",
      "outputs": [
        {
          "name": "",
          "type": "uint256"
        }
      ],
      "payable": false,
      "stateMutability": "view",
      "type": "function"
    },
    {
      "constant": false,
      "inputs": [
        {
          "name": "account",
          "type": "address"
        },
        {
          "name": "etherAmount",
          "type": "uint256"
        },
        {
          "name": "tokenAmount",
          "type": "uint256"
        }
      ],
      "name": "mintReserved",
      "outputs": [],
      "payable": false,
      "stateMutability": "nonpayable",
      "type": "function"
    },
    {
      "constant": false,
      "inputs": [
        {
          "name": "etherAmount",
          "type": "uint256"
        }
      ],
      "name": "unreserve",
      "outputs": [],
      "payable": false,
      "stateMutability": "nonpayable",
      "type": "function"
    },
    {
      "constant": true,
      "inputs": [
        {
          "name": "",
          "type": "uint256"
        }
      ],
      "name": "startTimes",
      "outputs": [
        {
          "name": "",
          "type": "uint256"
        }
      ],
      "payable": false,
      "stateMutability": "view",
      "type": "function"
    },
    {
      "constant": false,
      "inputs": [
        {
          "name": "etherAmount",
          "type": "uint256"
        }
      ],
      "name": "reserve",
      "outputs": [],
      "payable": false,
      "stateMutability": "nonpayable",
      "type": "function"
    },
    {
      "constant": true,
      "inputs": [],
      "name": "PRICE_MULTIPLIER_ICO5",
      "outputs": [
        {
          "name": "",
          "type": "uint256"
        }
      ],
      "payable": false,
      "stateMutability": "view",
      "type": "function"
    },
    {
      "constant": true,
      "inputs": [],
      "name": "owner",
      "outputs": [
        {
          "name": "",
          "type": "address"
        }
      ],
      "payable": false,
      "stateMutability": "view",
      "type": "function"
    },
    {
      "constant": true,
      "inputs": [],
      "name": "crowdsale",
      "outputs": [
        {
          "name": "",
          "type": "address"
        }
      ],
      "payable": false,
      "stateMutability": "view",
      "type": "function"
    },
    {
      "constant": true,
      "inputs": [],
      "name": "deferredKyc",
      "outputs": [
        {
          "name": "",
          "type": "address"
        }
      ],
      "payable": false,
      "stateMutability": "view",
      "type": "function"
    },
    {
      "constant": true,
      "inputs": [],
      "name": "allocator",
      "outputs": [
        {
          "name": "",
          "type": "address"
        }
      ],
      "payable": false,
      "stateMutability": "view",
      "type": "function"
    },
    {
      "constant": true,
      "inputs": [],
      "name": "PRICE_MULTIPLIER_ICO2",
      "outputs": [
        {
          "name": "",
          "type": "uint256"
        }
      ],
      "payable": false,
      "stateMutability": "view",
      "type": "function"
    },
    {
      "constant": true,
      "inputs": [
        {
          "name": "",
          "type": "uint256"
        }
      ],
      "name": "etherCaps",
      "outputs": [
        {
          "name": "",
          "type": "uint256"
        }
      ],
      "payable": false,
      "stateMutability": "view",
      "type": "function"
    },
    {
      "constant": true,
      "inputs": [],
      "name": "privateIcoMinimumContribution",
      "outputs": [
        {
          "name": "",
          "type": "uint256"
        }
      ],
      "payable": false,
      "stateMutability": "view",
      "type": "function"
    },
    {
      "constant": true,
      "inputs": [],
      "name": "airdropper",
      "outputs": [
        {
          "name": "",
          "type": "address"
        }
      ],
      "payable": false,
      "stateMutability": "view",
      "type": "function"
    },
    {
      "constant": true,
      "inputs": [],
      "name": "PRICE_MULTIPLIER_ICO4",
      "outputs": [
        {
          "name": "",
          "type": "uint256"
        }
      ],
      "payable": false,
      "stateMutability": "view",
      "type": "function"
    },
    {
      "constant": true,
      "inputs": [],
      "name": "privateIcoStartTime",
      "outputs": [
        {
          "name": "",
          "type": "uint256"
        }
      ],
      "payable": false,
      "stateMutability": "view",
      "type": "function"
    },
    {
      "constant": true,
      "inputs": [],
      "name": "privateIcoCap",
      "outputs": [
        {
          "name": "",
          "type": "uint256"
        }
      ],
      "payable": false,
      "stateMutability": "view",
      "type": "function"
    },
    {
      "constant": true,
      "inputs": [],
      "name": "PRICE_MULTIPLIER_ICO6",
      "outputs": [
        {
          "name": "",
          "type": "uint256"
        }
      ],
      "payable": false,
      "stateMutability": "view",
      "type": "function"
    },
    {
      "constant": false,
      "inputs": [
        {
          "name": "newOwner",
          "type": "address"
        }
      ],
      "name": "transferOwnership",
      "outputs": [],
      "payable": false,
      "stateMutability": "nonpayable",
      "type": "function"
    },
    {
      "constant": true,
      "inputs": [],
      "name": "PRICE_MULTIPLIER_ICO1",
      "outputs": [
        {
          "name": "",
          "type": "uint256"
        }
      ],
      "payable": false,
      "stateMutability": "view",
      "type": "function"
    },
    {
      "constant": true,
      "inputs": [],
      "name": "token",
      "outputs": [
        {
          "name": "",
          "type": "address"
        }
      ],
      "payable": false,
      "stateMutability": "view",
      "type": "function"
    },
    {
      "inputs": [
        {
          "name": "_token",
          "type": "address"
        },
        {
          "name": "_saleEtherCap",
          "type": "uint256"
        }
      ],
      "payable": false,
      "stateMutability": "nonpayable",
      "type": "constructor"
    },
    {
      "anonymous": false,
      "inputs": [
        {
          "indexed": false,
          "name": "from",
          "type": "uint256"
        },
        {
          "indexed": false,
          "name": "to",
          "type": "uint256"
        }
      ],
      "name": "StateChanged",
      "type": "event"
    },
    {
      "anonymous": false,
      "inputs": [
        {
          "indexed": true,
          "name": "account",
          "type": "address"
        },
        {
          "indexed": false,
          "name": "etherAmount",
          "type": "uint256"
        },
        {
          "indexed": false,
          "name": "tokenAmount",
          "type": "uint256"
        }
      ],
      "name": "Minted",
      "type": "event"
    },
    {
      "anonymous": false,
      "inputs": [
        {
          "indexed": false,
          "name": "etherAmount",
          "type": "uint256"
        }
      ],
      "name": "Reserved",
      "type": "event"
    },
    {
      "anonymous": false,
      "inputs": [
        {
          "indexed": true,
          "name": "account",
          "type": "address"
        },
        {
          "indexed": false,
          "name": "etherAmount",
          "type": "uint256"
        },
        {
          "indexed": false,
          "name": "tokenAmount",
          "type": "uint256"
        }
      ],
      "name": "MintedReserved",
      "type": "event"
    },
    {
      "anonymous": false,
      "inputs": [
        {
          "indexed": false,
          "name": "etherAmount",
          "type": "uint256"
        }
      ],
      "name": "Unreserved",
      "type": "event"
    },
    {
      "anonymous": false,
      "inputs": [
        {
          "indexed": true,
          "name": "previousOwner",
          "type": "address"
        },
        {
          "indexed": true,
          "name": "newOwner",
          "type": "address"
        }
      ],
      "name": "OwnershipTransferred",
      "type": "event"
    },
    {
      "constant": false,
      "inputs": [
        {
          "name": "_crowdsale",
          "type": "address"
        },
        {
          "name": "_deferredKyc",
          "type": "address"
        },
        {
          "name": "_referralManager",
          "type": "address"
        },
        {
          "name": "_allocator",
          "type": "address"
        },
        {
          "name": "_airdropper",
          "type": "address"
        },
        {
          "name": "saleStartTime",
          "type": "uint256"
        },
        {
          "name": "singleStateEtherCap",
          "type": "uint256"
        },
        {
          "name": "stateLengths",
          "type": "uint256[]"
        }
      ],
      "name": "setup",
      "outputs": [],
      "payable": false,
      "stateMutability": "nonpayable",
      "type": "function"
    },
    {
      "constant": false,
      "inputs": [
        {
          "name": "from",
          "type": "uint256"
        },
        {
          "name": "to",
          "type": "uint256"
        }
      ],
      "name": "moveState",
      "outputs": [],
      "payable": false,
      "stateMutability": "nonpayable",
      "type": "function"
    },
    {
      "constant": false,
      "inputs": [],
      "name": "transferTokenOwnership",
      "outputs": [],
      "payable": false,
      "stateMutability": "nonpayable",
      "type": "function"
    },
    {
      "constant": true,
      "inputs": [
        {
          "name": "etherAmount",
          "type": "uint256"
        }
      ],
      "name": "getTokensForEther",
      "outputs": [
        {
          "name": "",
          "type": "uint256"
        }
      ],
      "payable": false,
      "stateMutability": "view",
      "type": "function"
    },
    {
      "constant": true,
      "inputs": [],
      "name": "isSellingState",
      "outputs": [
        {
          "name": "",
          "type": "bool"
        }
      ],
      "payable": false,
      "stateMutability": "view",
      "type": "function"
    },
    {
      "constant": true,
      "inputs": [],
      "name": "isPrivateIcoActive",
      "outputs": [
        {
          "name": "",
          "type": "bool"
        }
      ],
      "payable": false,
      "stateMutability": "view",
      "type": "function"
    },
    {
      "constant": false,
      "inputs": [
        {
          "name": "_cap",
          "type": "uint256"
        },
        {
          "name": "_tokensForEther",
          "type": "uint256"
        },
        {
          "name": "_startTime",
          "type": "uint256"
        },
        {
          "name": "_endTime",
          "type": "uint256"
        },
        {
          "name": "_minimumContribution",
          "type": "uint256"
        }
      ],
      "name": "initPrivateIco",
      "outputs": [],
      "payable": false,
      "stateMutability": "nonpayable",
      "type": "function"
    },
    {
      "constant": true,
      "inputs": [],
      "name": "getMinimumContribution",
      "outputs": [
        {
          "name": "",
          "type": "uint256"
        }
      ],
      "payable": false,
      "stateMutability": "view",
      "type": "function"
    },
    {
      "constant": true,
      "inputs": [
        {
          "name": "account",
          "type": "address"
        }
      ],
      "name": "canMint",
      "outputs": [
        {
          "name": "",
          "type": "bool"
        }
      ],
      "payable": false,
      "stateMutability": "view",
      "type": "function"
    },
    {
      "constant": false,
      "inputs": [],
      "name": "updateState",
      "outputs": [],
      "payable": false,
      "stateMutability": "nonpayable",
      "type": "function"
    },
    {
      "constant": true,
      "inputs": [],
      "name": "isInitialized",
      "outputs": [
        {
          "name": "",
          "type": "bool"
        }
      ],
      "payable": false,
      "stateMutability": "view",
      "type": "function"
    }
  ],
  "bytecode": "0x60806040526000600960146101000a81548160ff0219169083600d81111561002357fe5b02179055506000600c556000600d556000600e556000600f55600060105534801561004d57600080fd5b506040516040806200309f83398101806040528101908080519060200190929190805190602001909291905050508181336000806101000a81548173ffffffffffffffffffffffffffffffffffffffff021916908373ffffffffffffffffffffffffffffffffffffffff1602179055508160008173ffffffffffffffffffffffffffffffffffffffff16141515156100e457600080fd5b6000821115156100f357600080fd5b82600160006101000a81548173ffffffffffffffffffffffffffffffffffffffff021916908373ffffffffffffffffffffffffffffffffffffffff160217905550816002819055505050505050612f4f80620001506000396000f300608060405260043610610225576000357c0100000000000000000000000000000000000000000000000000000000900463ffffffff1680630c3f6acf1461022a57806311d36bf514610263578063156e29f61461028e5780631d8557d7146102e55780631fd4b40c146102fc578063210d2bba1461032757806324e846c714610352578063263b694a1461037d578063272ae0b5146103a85780632ccd9623146103d3578063379080da1461042a578063392e53cd146104555780634056675e14610484578063426d70fa1461049b578063434fb2ae146104ca5780635bcbc0f9146104f55780635c49660a1461052057806360b6aa921461054b57806362dbf26114610576578063663f8549146105b757806376b5d9261461060e57806377bbebe61461063b578063819b25ba1461067c5780638449b0af146106a95780638da5cb5b146106d4578063991bcae81461072b5780639c1e03a014610845578063a1960d801461089c578063aa5dcecc146108f3578063ae9759ff1461094a578063b5b22a1814610975578063bbb01c9c146109b6578063c2ba4744146109e1578063c9d6838914610a3c578063cef2952114610a93578063cfaa759d14610abe578063d55b770314610ae9578063d8783b0414610b14578063e19bc8e514610b3f578063eaf86db314610b94578063ebb9ab2514610bc3578063f2fde38b14610bfa578063f50b530814610c3d578063f84038b114610c68578063fc0c546a14610c93575b600080fd5b34801561023657600080fd5b5061023f610cea565b6040518082600d81111561024f57fe5b60ff16815260200191505060405180910390f35b34801561026f57600080fd5b50610278610cfd565b6040518082815260200191505060405180910390f35b34801561029a57600080fd5b506102e3600480360381019080803573ffffffffffffffffffffffffffffffffffffffff1690602001909291908035906020019092919080359060200190929190505050610d03565b005b3480156102f157600080fd5b506102fa610edf565b005b34801561030857600080fd5b50610311610ef1565b6040518082815260200191505060405180910390f35b34801561033357600080fd5b5061033c610ef7565b6040518082815260200191505060405180910390f35b34801561035e57600080fd5b50610367610efe565b6040518082815260200191505060405180910390f35b34801561038957600080fd5b50610392610f04565b6040518082815260200191505060405180910390f35b3480156103b457600080fd5b506103bd610f10565b6040518082815260200191505060405180910390f35b3480156103df57600080fd5b506103e8610f1c565b604051808273ffffffffffffffffffffffffffffffffffffffff1673ffffffffffffffffffffffffffffffffffffffff16815260200191505060405180910390f35b34801561043657600080fd5b5061043f610f42565b6040518082815260200191505060405180910390f35b34801561046157600080fd5b5061046a610f49565b604051808215151515815260200191505060405180910390f35b34801561049057600080fd5b506104996110a0565b005b3480156104a757600080fd5b506104b061122e565b604051808215151515815260200191505060405180910390f35b3480156104d657600080fd5b506104df611248565b6040518082815260200191505060405180910390f35b34801561050157600080fd5b5061050a61124f565b6040518082815260200191505060405180910390f35b34801561052c57600080fd5b50610535611255565b6040518082815260200191505060405180910390f35b34801561055757600080fd5b5061056061125b565b6040518082815260200191505060405180910390f35b34801561058257600080fd5b506105a160048036038101908080359060200190929190505050611261565b6040518082815260200191505060405180910390f35b3480156105c357600080fd5b5061060c600480360381019080803573ffffffffffffffffffffffffffffffffffffffff16906020019092919080359060200190929190803590602001909291905050506115aa565b005b34801561061a57600080fd5b5061063960048036038101908080359060200190929190505050611760565b005b34801561064757600080fd5b50610666600480360381019080803590602001909291905050506117d9565b6040518082815260200191505060405180910390f35b34801561068857600080fd5b506106a7600480360381019080803590602001909291905050506117f1565b005b3480156106b557600080fd5b506106be6118c3565b6040518082815260200191505060405180910390f35b3480156106e057600080fd5b506106e96118ca565b604051808273ffffffffffffffffffffffffffffffffffffffff1673ffffffffffffffffffffffffffffffffffffffff16815260200191505060405180910390f35b34801561073757600080fd5b50610843600480360381019080803573ffffffffffffffffffffffffffffffffffffffff169060200190929190803573ffffffffffffffffffffffffffffffffffffffff169060200190929190803573ffffffffffffffffffffffffffffffffffffffff169060200190929190803573ffffffffffffffffffffffffffffffffffffffff169060200190929190803573ffffffffffffffffffffffffffffffffffffffff1690602001909291908035906020019092919080359060200190929190803590602001908201803590602001908080602002602001604051908101604052809392919081815260200183836020028082843782019150505050505091929192905050506118ef565b005b34801561085157600080fd5b5061085a611bd0565b604051808273ffffffffffffffffffffffffffffffffffffffff1673ffffffffffffffffffffffffffffffffffffffff16815260200191505060405180910390f35b3480156108a857600080fd5b506108b1611bf6565b604051808273ffffffffffffffffffffffffffffffffffffffff1673ffffffffffffffffffffffffffffffffffffffff16815260200191505060405180910390f35b3480156108ff57600080fd5b50610908611c1c565b604051808273ffffffffffffffffffffffffffffffffffffffff1673ffffffffffffffffffffffffffffffffffffffff16815260200191505060405180910390f35b34801561095657600080fd5b5061095f611c42565b6040518082815260200191505060405180910390f35b34801561098157600080fd5b506109a060048036038101908080359060200190929190505050611c49565b6040518082815260200191505060405180910390f35b3480156109c257600080fd5b506109cb611c61565b6040518082815260200191505060405180910390f35b3480156109ed57600080fd5b50610a22600480360381019080803573ffffffffffffffffffffffffffffffffffffffff169060200190929190505050611c67565b604051808215151515815260200191505060405180910390f35b348015610a4857600080fd5b50610a516120d7565b604051808273ffffffffffffffffffffffffffffffffffffffff1673ffffffffffffffffffffffffffffffffffffffff16815260200191505060405180910390f35b348015610a9f57600080fd5b50610aa86120fd565b6040518082815260200191505060405180910390f35b348015610aca57600080fd5b50610ad3612104565b6040518082815260200191505060405180910390f35b348015610af557600080fd5b50610afe61210a565b6040518082815260200191505060405180910390f35b348015610b2057600080fd5b50610b29612110565b6040518082815260200191505060405180910390f35b348015610b4b57600080fd5b50610b926004803603810190808035906020019092919080359060200190929190803590602001909291908035906020019092919080359060200190929190505050612117565b005b348015610ba057600080fd5b50610ba9612217565b604051808215151515815260200191505060405180910390f35b348015610bcf57600080fd5b50610bf860048036038101908080359060200190929190803590602001909291905050506122e9565b005b348015610c0657600080fd5b50610c3b600480360381019080803573ffffffffffffffffffffffffffffffffffffffff16906020019092919050505061238c565b005b348015610c4957600080fd5b50610c526124e1565b6040518082815260200191505060405180910390f35b348015610c7457600080fd5b50610c7d6124e8565b6040518082815260200191505060405180910390f35b348015610c9f57600080fd5b50610ca86125e8565b604051808273ffffffffffffffffffffffffffffffffffffffff1673ffffffffffffffffffffffffffffffffffffffff16815260200191505060405180910390f35b600960149054906101000a900460ff1681565b60045481565b610d0b610edf565b610d1433611c67565b1515610d1f57600080fd5b816000610d4b82610d3d60045460035461260e90919063ffffffff16565b61260e90919063ffffffff16565b90506002548111151515610d5e57600080fd5b610d738460035461260e90919063ffffffff16565b600381905550600160009054906101000a900473ffffffffffffffffffffffffffffffffffffffff1673ffffffffffffffffffffffffffffffffffffffff166340c10f1986856040518363ffffffff167c0100000000000000000000000000000000000000000000000000000000028152600401808373ffffffffffffffffffffffffffffffffffffffff1673ffffffffffffffffffffffffffffffffffffffff16815260200182815260200192505050602060405180830381600087803b158015610e3e57600080fd5b505af1158015610e52573d6000803e3d6000fd5b505050506040513d6020811015610e6857600080fd5b810190808051906020019092919050505050610e82610edf565b8473ffffffffffffffffffffffffffffffffffffffff167f25b428dfde728ccfaddad7e29e4ac23c24ed7fd1a6e3e3f91894a9a073f5dfff8585604051808381526020018281526020019250505060405180910390a25050505050565b610ee761262c565b610eef612859565b565b60025481565b623a459481565b60035481565b6702c68af0bb14000081565b670de0b6b3a764000081565b600760009054906101000a900473ffffffffffffffffffffffffffffffffffffffff1681565b623c5a6481565b600080600560009054906101000a900473ffffffffffffffffffffffffffffffffffffffff1673ffffffffffffffffffffffffffffffffffffffff1614158015610fcc57506000600760009054906101000a900473ffffffffffffffffffffffffffffffffffffffff1673ffffffffffffffffffffffffffffffffffffffff1614155b801561101157506000600860009054906101000a900473ffffffffffffffffffffffffffffffffffffffff1673ffffffffffffffffffffffffffffffffffffffff1614155b801561105657506000600960009054906101000a900473ffffffffffffffffffffffffffffffffffffffff1673ffffffffffffffffffffffffffffffffffffffff1614155b801561109b57506000600660009054906101000a900473ffffffffffffffffffffffffffffffffffffffff1673ffffffffffffffffffffffffffffffffffffffff1614155b905090565b6110a8610edf565b6000809054906101000a900473ffffffffffffffffffffffffffffffffffffffff1673ffffffffffffffffffffffffffffffffffffffff163373ffffffffffffffffffffffffffffffffffffffff1614151561110357600080fd5b600d8081111561110f57fe5b600960149054906101000a900460ff16600d81111561112a57fe5b14151561113657600080fd5b600160009054906101000a900473ffffffffffffffffffffffffffffffffffffffff1673ffffffffffffffffffffffffffffffffffffffff1663f2fde38b6000809054906101000a900473ffffffffffffffffffffffffffffffffffffffff166040518263ffffffff167c0100000000000000000000000000000000000000000000000000000000028152600401808273ffffffffffffffffffffffffffffffffffffffff1673ffffffffffffffffffffffffffffffffffffffff168152602001915050600060405180830381600087803b15801561121457600080fd5b505af1158015611228573d6000803e3d6000fd5b50505050565b6000600e5442101580156112435750600f5442105b905090565b623047c481565b6103e881565b600d5481565b600f5481565b6000806000905061127061122e565b156112a55761129e6103e8611290600d5486612a9990919063ffffffff16565b612ad490919063ffffffff16565b90506115a1565b6001600d8111156112b257fe5b600960149054906101000a900460ff16600d8111156112cd57fe5b1415611304576112fd6103e86112ef623c5a6486612a9990919063ffffffff16565b612ad490919063ffffffff16565b90506115a0565b6002600d81111561131157fe5b600960149054906101000a900460ff16600d81111561132c57fe5b14156113635761135c6103e861134e623a459486612a9990919063ffffffff16565b612ad490919063ffffffff16565b905061159f565b6004600d81111561137057fe5b600960149054906101000a900460ff16600d81111561138b57fe5b14156113c2576113bb6103e86113ad6234cf2486612a9990919063ffffffff16565b612ad490919063ffffffff16565b905061159e565b6005600d8111156113cf57fe5b600960149054906101000a900460ff16600d8111156113ea57fe5b14156114215761141a6103e861140c623334fc86612a9990919063ffffffff16565b612ad490919063ffffffff16565b905061159d565b6006600d81111561142e57fe5b600960149054906101000a900460ff16600d81111561144957fe5b1415611480576114796103e861146b623047c486612a9990919063ffffffff16565b612ad490919063ffffffff16565b905061159c565b6007600d81111561148d57fe5b600960149054906101000a900460ff16600d8111156114a857fe5b14156114df576114d86103e86114ca622ef06886612a9990919063ffffffff16565b612ad490919063ffffffff16565b905061159b565b6008600d8111156114ec57fe5b600960149054906101000a900460ff16600d81111561150757fe5b141561153e576115376103e8611529622c77fc86612a9990919063ffffffff16565b612ad490919063ffffffff16565b905061159a565b6009600d81111561154b57fe5b600960149054906101000a900460ff16600d81111561156657fe5b1415611599576115966103e8611588622a3ed886612a9990919063ffffffff16565b612ad490919063ffffffff16565b90505b5b5b5b5b5b5b5b5b80915050919050565b6115b2610edf565b6115bb33611c67565b15156115c657600080fd5b6115db82600454612aef90919063ffffffff16565b6004819055506115f68260035461260e90919063ffffffff16565b600381905550600160009054906101000a900473ffffffffffffffffffffffffffffffffffffffff1673ffffffffffffffffffffffffffffffffffffffff166340c10f1984836040518363ffffffff167c0100000000000000000000000000000000000000000000000000000000028152600401808373ffffffffffffffffffffffffffffffffffffffff1673ffffffffffffffffffffffffffffffffffffffff16815260200182815260200192505050602060405180830381600087803b1580156116c157600080fd5b505af11580156116d5573d6000803e3d6000fd5b505050506040513d60208110156116eb57600080fd5b810190808051906020019092919050505050611705610edf565b8273ffffffffffffffffffffffffffffffffffffffff167f836db2a45fd007fb86f824d475eeebdf19516c0c16eded06df2fa4594a1188348383604051808381526020018281526020019250505060405180910390a2505050565b611768610edf565b61177133611c67565b151561177c57600080fd5b61179181600454612aef90919063ffffffff16565b60048190555061179f610edf565b7f3e9608ee93b29804c1c97a39ae6b68ca41b31ec84716dc2904413806fe7a2f3e816040518082815260200191505060405180910390a150565b600a6020528060005260406000206000915090505481565b6117f9610edf565b61180233611c67565b151561180d57600080fd5b8060006118398261182b60045460035461260e90919063ffffffff16565b61260e90919063ffffffff16565b9050600254811115151561184c57600080fd5b826118556124e8565b811015151561186357600080fd5b6118788460045461260e90919063ffffffff16565b600481905550611886610edf565b7f672216a7a59f7b075c6becc0eebb0ab5404d392281d509c1c1a4a6accd036f49846040518082815260200191505060405180910390a150505050565b622c77fc81565b6000809054906101000a900473ffffffffffffffffffffffffffffffffffffffff1681565b6000809054906101000a900473ffffffffffffffffffffffffffffffffffffffff1673ffffffffffffffffffffffffffffffffffffffff163373ffffffffffffffffffffffffffffffffffffffff1614151561194a57600080fd5b6000600960149054906101000a900460ff16600d81111561196757fe5b81600d81111561197357fe5b14151561197f57600080fd5b8860008173ffffffffffffffffffffffffffffffffffffffff16141515156119a657600080fd5b8860008173ffffffffffffffffffffffffffffffffffffffff16141515156119cd57600080fd5b8860008173ffffffffffffffffffffffffffffffffffffffff16141515156119f457600080fd5b8860008173ffffffffffffffffffffffffffffffffffffffff1614151515611a1b57600080fd5b8860008173ffffffffffffffffffffffffffffffffffffffff1614151515611a4257600080fd5b60098751141515611a5257600080fd5b428910151515611a6157600080fd5b600088111515611a7057600080fd5b8d600560006101000a81548173ffffffffffffffffffffffffffffffffffffffff021916908373ffffffffffffffffffffffffffffffffffffffff1602179055508c600660006101000a81548173ffffffffffffffffffffffffffffffffffffffff021916908373ffffffffffffffffffffffffffffffffffffffff1602179055508b600760006101000a81548173ffffffffffffffffffffffffffffffffffffffff021916908373ffffffffffffffffffffffffffffffffffffffff1602179055508a600860006101000a81548173ffffffffffffffffffffffffffffffffffffffff021916908373ffffffffffffffffffffffffffffffffffffffff16021790555089600960006101000a81548173ffffffffffffffffffffffffffffffffffffffff021916908373ffffffffffffffffffffffffffffffffffffffff160217905550611bc0898989612b08565b5050505050505050505050505050565b600560009054906101000a900473ffffffffffffffffffffffffffffffffffffffff1681565b600660009054906101000a900473ffffffffffffffffffffffffffffffffffffffff1681565b600860009054906101000a900473ffffffffffffffffffffffffffffffffffffffff1681565b623334fc81565b600b6020528060005260406000206000915090505481565b60105481565b600080600d811115611c7557fe5b600960149054906101000a900460ff16600d811115611c9057fe5b1415611d4657600560009054906101000a900473ffffffffffffffffffffffffffffffffffffffff1673ffffffffffffffffffffffffffffffffffffffff168273ffffffffffffffffffffffffffffffffffffffff161480611d3f5750600660009054906101000a900473ffffffffffffffffffffffffffffffffffffffff1673ffffffffffffffffffffffffffffffffffffffff168273ffffffffffffffffffffffffffffffffffffffff16145b90506120d2565b611d4e612217565b15611e5b57600560009054906101000a900473ffffffffffffffffffffffffffffffffffffffff1673ffffffffffffffffffffffffffffffffffffffff168273ffffffffffffffffffffffffffffffffffffffff161480611dfc5750600660009054906101000a900473ffffffffffffffffffffffffffffffffffffffff1673ffffffffffffffffffffffffffffffffffffffff168273ffffffffffffffffffffffffffffffffffffffff16145b80611e545750600760009054906101000a900473ffffffffffffffffffffffffffffffffffffffff1673ffffffffffffffffffffffffffffffffffffffff168273ffffffffffffffffffffffffffffffffffffffff16145b90506120d2565b6003600d811115611e6857fe5b600960149054906101000a900460ff16600d811115611e8357fe5b1480611eb45750600a600d811115611e9757fe5b600960149054906101000a900460ff16600d811115611eb257fe5b145b15611fc157600560009054906101000a900473ffffffffffffffffffffffffffffffffffffffff1673ffffffffffffffffffffffffffffffffffffffff168273ffffffffffffffffffffffffffffffffffffffff161480611f625750600660009054906101000a900473ffffffffffffffffffffffffffffffffffffffff1673ffffffffffffffffffffffffffffffffffffffff168273ffffffffffffffffffffffffffffffffffffffff16145b80611fba5750600760009054906101000a900473ffffffffffffffffffffffffffffffffffffffff1673ffffffffffffffffffffffffffffffffffffffff168273ffffffffffffffffffffffffffffffffffffffff16145b90506120d2565b600b600d811115611fce57fe5b600960149054906101000a900460ff16600d811115611fe957fe5b141561204757600860009054906101000a900473ffffffffffffffffffffffffffffffffffffffff1673ffffffffffffffffffffffffffffffffffffffff168273ffffffffffffffffffffffffffffffffffffffff161490506120d2565b600c600d81111561205457fe5b600960149054906101000a900460ff16600d81111561206f57fe5b14156120cd57600960009054906101000a900473ffffffffffffffffffffffffffffffffffffffff1673ffffffffffffffffffffffffffffffffffffffff168273ffffffffffffffffffffffffffffffffffffffff161490506120d2565b600090505b919050565b600960009054906101000a900473ffffffffffffffffffffffffffffffffffffffff1681565b622ef06881565b600e5481565b600c5481565b622a3ed881565b6000809054906101000a900473ffffffffffffffffffffffffffffffffffffffff1673ffffffffffffffffffffffffffffffffffffffff163373ffffffffffffffffffffffffffffffffffffffff1614151561217257600080fd5b600c548511151561218257600080fd5b600f548311151561219257600080fd5b600f5442101515156121a357600080fd5b6000841115156121b257600080fd5b82821115156121c057600080fd5b600a60006001600d8111156121d157fe5b815260200190815260200160002054821015156121ed57600080fd5b84600c8190555083600d8190555082600e8190555081600f81905550806010819055505050505050565b600080600d81111561222557fe5b600960149054906101000a900460ff16600d81111561224057fe5b14156122555761224e61122e565b90506122e6565b6001600d81111561226257fe5b600960149054906101000a900460ff16600d81111561227d57fe5b101580156122b157506009600d81111561229357fe5b600960149054906101000a900460ff16600d8111156122ae57fe5b11155b80156122e357506003600d8111156122c557fe5b600960149054906101000a900460ff16600d8111156122e057fe5b14155b90505b90565b6122f1610edf565b6000809054906101000a900473ffffffffffffffffffffffffffffffffffffffff1673ffffffffffffffffffffffffffffffffffffffff163373ffffffffffffffffffffffffffffffffffffffff1614151561234c57600080fd5b81600960149054906101000a900460ff16600d81111561236857fe5b14151561237457600080fd5b61238881600d81111561238357fe5b612e11565b5050565b6000809054906101000a900473ffffffffffffffffffffffffffffffffffffffff1673ffffffffffffffffffffffffffffffffffffffff163373ffffffffffffffffffffffffffffffffffffffff161415156123e757600080fd5b600073ffffffffffffffffffffffffffffffffffffffff168173ffffffffffffffffffffffffffffffffffffffff161415151561242357600080fd5b8073ffffffffffffffffffffffffffffffffffffffff166000809054906101000a900473ffffffffffffffffffffffffffffffffffffffff1673ffffffffffffffffffffffffffffffffffffffff167f8be0079c531659141344cd1fd0a4f28419497f9722a3daafe3b4186f6b6457e060405160405180910390a3806000806101000a81548173ffffffffffffffffffffffffffffffffffffffff021916908373ffffffffffffffffffffffffffffffffffffffff16021790555050565b6234cf2481565b60006001600d8111156124f757fe5b600960149054906101000a900460ff16600d81111561251257fe5b148061254357506002600d81111561252657fe5b600960149054906101000a900460ff16600d81111561254157fe5b145b1561255857670de0b6b3a764000090506125e5565b6004600d81111561256557fe5b600960149054906101000a900460ff16600d81111561258057fe5b101580156125b457506009600d81111561259657fe5b600960149054906101000a900460ff16600d8111156125b157fe5b11155b156125c9576702c68af0bb14000090506125e5565b6125d161122e565b156125e05760105490506125e5565b600090505b90565b600160009054906101000a900473ffffffffffffffffffffffffffffffffffffffff1681565b600080828401905083811015151561262257fe5b8091505092915050565b600a6000600a600d81111561263d57fe5b815260200190815260200160002054421015156126635761265e600a612e11565b612857565b600a60006009600d81111561267457fe5b8152602001908152602001600020544210151561269a576126956009612e11565b612856565b600a60006008600d8111156126ab57fe5b815260200190815260200160002054421015156126d1576126cc6008612e11565b612855565b600a60006007600d8111156126e257fe5b81526020019081526020016000205442101515612708576127036007612e11565b612854565b600a60006006600d81111561271957fe5b8152602001908152602001600020544210151561273f5761273a6006612e11565b612853565b600a60006005600d81111561275057fe5b81526020019081526020016000205442101515612776576127716005612e11565b612852565b600a60006004600d81111561278757fe5b815260200190815260200160002054421015156127ad576127a86004612e11565b612851565b600a60006003600d8111156127be57fe5b815260200190815260200160002054421015156127e4576127df6003612e11565b612850565b600a60006002600d8111156127f557fe5b8152602001908152602001600020544210151561281b576128166002612e11565b61284f565b600a60006001600d81111561282c57fe5b8152602001908152602001600020544210151561284e5761284d6001612e11565b5b5b5b5b5b5b5b5b5b5b565b600061287260045460035461260e90919063ffffffff16565b905061287c612217565b151561288757612a96565b61288f61122e565b156128aa57600c5481111515156128a557600080fd5b612a95565b6003600d8111156128b757fe5b600960149054906101000a900460ff16600d8111156128d257fe5b121561294857600b60006002600d8111156128e957fe5b8152602001908152602001600020548110151561290f5761290a6003612e11565b612943565b600b60006001600d81111561292057fe5b81526020019081526020016000205481101515612942576129416002612e11565b5b5b612a94565b600b60006009600d81111561295957fe5b8152602001908152602001600020548110151561297f5761297a600a612e11565b612a93565b600b60006008600d81111561299057fe5b815260200190815260200160002054811015156129b6576129b16009612e11565b612a92565b600b60006007600d8111156129c757fe5b815260200190815260200160002054811015156129ed576129e86008612e11565b612a91565b600b60006006600d8111156129fe57fe5b81526020019081526020016000205481101515612a2457612a1f6007612e11565b612a90565b600b60006005600d811115612a3557fe5b81526020019081526020016000205481101515612a5b57612a566006612e11565b612a8f565b600b60006004600d811115612a6c57fe5b81526020019081526020016000205481101515612a8e57612a8d6005612e11565b5b5b5b5b5b5b5b5b5b50565b6000806000841415612aae5760009150612acd565b8284029050828482811515612abf57fe5b04141515612ac957fe5b8091505b5092915050565b6000808284811515612ae257fe5b0490508091505092915050565b6000828211151515612afd57fe5b818303905092915050565b82600a60006001600d811115612b1a57fe5b815260200190815260200160002081905550612b4f6001826000815181101515612b4057fe5b90602001906020020151612ec9565b612b726002826001815181101515612b6357fe5b90602001906020020151612ec9565b612b956003826002815181101515612b8657fe5b90602001906020020151612ec9565b612bb86004826003815181101515612ba957fe5b90602001906020020151612ec9565b612bdb6005826004815181101515612bcc57fe5b90602001906020020151612ec9565b612bfe6006826005815181101515612bef57fe5b90602001906020020151612ec9565b612c216007826006815181101515612c1257fe5b90602001906020020151612ec9565b612c446008826007815181101515612c3557fe5b90602001906020020151612ec9565b612c676009826008815181101515612c5857fe5b90602001906020020151612ec9565b81600b60006001600d811115612c7957fe5b815260200190815260200160002081905550612c9f600283612a9990919063ffffffff16565b600b60006002600d811115612cb057fe5b815260200190815260200160002081905550612cd6600383612a9990919063ffffffff16565b600b60006004600d811115612ce757fe5b815260200190815260200160002081905550612d0d600483612a9990919063ffffffff16565b600b60006005600d811115612d1e57fe5b815260200190815260200160002081905550612d44600583612a9990919063ffffffff16565b600b60006006600d811115612d5557fe5b815260200190815260200160002081905550612d7b600683612a9990919063ffffffff16565b600b60006007600d811115612d8c57fe5b815260200190815260200160002081905550612db2600783612a9990919063ffffffff16565b600b60006008600d811115612dc357fe5b815260200190815260200160002081905550612de9600883612a9990919063ffffffff16565b600b60006009600d811115612dfa57fe5b815260200190815260200160002081905550505050565b600960149054906101000a900460ff16600d811115612e2c57fe5b81600d811115612e3857fe5b1115612ec6577f1c0c6794b8c626515ef0eaa59cf29f712f686771b359ff1a5a05738b92d05484600960149054906101000a900460ff16600d811115612e7a57fe5b82600d811115612e8657fe5b604051808381526020018281526020019250505060405180910390a180600960146101000a81548160ff0219169083600d811115612ec057fe5b02179055505b50565b612efa81600a600085600d811115612edd57fe5b81526020019081526020016000205461260e90919063ffffffff16565b600a6000600185600d811115612f0c57fe5b0181526020019081526020016000208190555050505600a165627a7a7230582087756ee39bab2283f1c5a0754a4ff9de0652da245f2b245eeca54f403d1ad1d90029",
  "source": "pragma solidity ^0.4.24;\nimport \"zeppelin-solidity/contracts/math/SafeMath.sol\";\nimport \"zeppelin-solidity/contracts/ownership/Ownable.sol\";\nimport \"./Minter.sol\";\n\ncontract Tge is Minter {\n    using SafeMath for uint;\n\n    /* --- CONSTANTS --- */\n\n    uint constant public MIMIMUM_CONTRIBUTION_AMOUNT_PREICO = 1 ether;\n    uint constant public MIMIMUM_CONTRIBUTION_AMOUNT_ICO = 1 ether / 5;\n    \n    uint constant public PRICE_MULTIPLIER_PREICO1 = 3955300;\n    uint constant public PRICE_MULTIPLIER_PREICO2 = 3818900;\n\n    uint constant public PRICE_MULTIPLIER_ICO1 = 3460900;\n    uint constant public PRICE_MULTIPLIER_ICO2 = 3355900;\n    uint constant public PRICE_MULTIPLIER_ICO3 = 3164100;\n    uint constant public PRICE_MULTIPLIER_ICO4 = 3076200;\n    uint constant public PRICE_MULTIPLIER_ICO5 = 2914300;\n    uint constant public PRICE_MULTIPLIER_ICO6 = 2768600;\n    uint constant public PRICE_DIVIDER = 1000;\n\n    /* --- EVENTS --- */\n\n    event StateChanged(uint from, uint to);\n\n    /* --- FIELDS --- */\n\n    // minters\n    address public crowdsale;\n    address public deferredKyc;\n    address public referralManager;\n    address public allocator;\n    address public airdropper;\n\n    // state\n    enum State {Presale, Preico1, Preico2, Break, Ico1, Ico2, Ico3, Ico4, Ico5, Ico6, FinishingIco, Allocating, Airdropping, Finished}\n    State public currentState = State.Presale;\n    mapping(uint => uint) public startTimes;\n    mapping(uint => uint) public etherCaps;\n\n    // private ico\n    uint public privateIcoCap = 0;\n    uint public privateIcoTokensForEther = 0;\n    uint public privateIcoStartTime = 0;\n    uint public privateIcoEndTime = 0;\n    uint public privateIcoMinimumContribution = 0;\n\n    /* --- MODIFIERS --- */\n\n    modifier onlyInState(State _state) {\n        require(_state == currentState);\n        _;\n    }\n\n    modifier onlyValidAddress(address account) {\n        require(account != 0x0);\n        _;\n    }\n\n    /* --- CONSTRUCTOR / INITIALIZATION --- */\n\n    constructor(\n        CrowdfundableToken _token,\n        uint _saleEtherCap\n    ) public Minter(_token, _saleEtherCap) { }\n\n    // initialize states start times and caps\n    function setupStates(uint saleStart, uint singleStateEtherCap, uint[] stateLengths) internal {\n        startTimes[uint(State.Preico1)] = saleStart;\n        setStateLength(State.Preico1, stateLengths[0]);\n        setStateLength(State.Preico2, stateLengths[1]);\n        setStateLength(State.Break, stateLengths[2]);\n        setStateLength(State.Ico1, stateLengths[3]);\n        setStateLength(State.Ico2, stateLengths[4]);\n        setStateLength(State.Ico3, stateLengths[5]);\n        setStateLength(State.Ico4, stateLengths[6]);\n        setStateLength(State.Ico5, stateLengths[7]);\n        setStateLength(State.Ico6, stateLengths[8]);\n\n        // the total sale ether cap is distributed evenly over all selling states\n        // the cap from previous states is accumulated in consequent states\n        etherCaps[uint(State.Preico1)] = singleStateEtherCap;\n        etherCaps[uint(State.Preico2)] = singleStateEtherCap.mul(2);\n        etherCaps[uint(State.Ico1)] = singleStateEtherCap.mul(3);\n        etherCaps[uint(State.Ico2)] = singleStateEtherCap.mul(4);\n        etherCaps[uint(State.Ico3)] = singleStateEtherCap.mul(5);\n        etherCaps[uint(State.Ico4)] = singleStateEtherCap.mul(6);\n        etherCaps[uint(State.Ico5)] = singleStateEtherCap.mul(7);\n        etherCaps[uint(State.Ico6)] = singleStateEtherCap.mul(8);\n    }\n\n    function setup(\n        address _crowdsale,\n        address _deferredKyc,\n        address _referralManager,\n        address _allocator,\n        address _airdropper,\n        uint saleStartTime,\n        uint singleStateEtherCap,\n        uint[] stateLengths\n    )\n    public\n    onlyOwner\n    onlyInState(State.Presale)\n    onlyValidAddress(_crowdsale)\n    onlyValidAddress(_deferredKyc)\n    onlyValidAddress(_referralManager)\n    onlyValidAddress(_allocator)\n    onlyValidAddress(_airdropper)\n    {\n        require(stateLengths.length == 9); // preico 1-2, break, ico 1-6\n        require(saleStartTime >= now);\n        require(singleStateEtherCap > 0);\n        crowdsale = _crowdsale;\n        deferredKyc = _deferredKyc;\n        referralManager = _referralManager;\n        allocator = _allocator;\n        airdropper = _airdropper;\n        setupStates(saleStartTime, singleStateEtherCap, stateLengths);\n    }\n\n    /* --- PUBLIC / EXTERNAL METHODS --- */\n\n    function moveState(uint from, uint to) external onlyInUpdatedState onlyOwner {\n        require(uint(currentState) == from);\n        advanceStateIfNewer(State(to));\n    }\n\n    // override\n    function transferTokenOwnership() external onlyInUpdatedState onlyOwner {\n        require(currentState == State.Finished);\n        token.transferOwnership(owner);\n    }\n\n    // override\n    function getTokensForEther(uint etherAmount) public view returns(uint) {\n        uint tokenAmount = 0;\n        if (isPrivateIcoActive()) tokenAmount = etherAmount.mul(privateIcoTokensForEther).div(PRICE_DIVIDER);\n        else if (currentState == State.Preico1) tokenAmount = etherAmount.mul(PRICE_MULTIPLIER_PREICO1).div(PRICE_DIVIDER);\n        else if (currentState == State.Preico2) tokenAmount = etherAmount.mul(PRICE_MULTIPLIER_PREICO2).div(PRICE_DIVIDER);\n        else if (currentState == State.Ico1) tokenAmount = etherAmount.mul(PRICE_MULTIPLIER_ICO1).div(PRICE_DIVIDER);\n        else if (currentState == State.Ico2) tokenAmount = etherAmount.mul(PRICE_MULTIPLIER_ICO2).div(PRICE_DIVIDER);\n        else if (currentState == State.Ico3) tokenAmount = etherAmount.mul(PRICE_MULTIPLIER_ICO3).div(PRICE_DIVIDER);\n        else if (currentState == State.Ico4) tokenAmount = etherAmount.mul(PRICE_MULTIPLIER_ICO4).div(PRICE_DIVIDER);\n        else if (currentState == State.Ico5) tokenAmount = etherAmount.mul(PRICE_MULTIPLIER_ICO5).div(PRICE_DIVIDER);\n        else if (currentState == State.Ico6) tokenAmount = etherAmount.mul(PRICE_MULTIPLIER_ICO6).div(PRICE_DIVIDER);\n\n        return tokenAmount;\n    }\n\n    function isSellingState() public view returns(bool) {\n        if (currentState == State.Presale) return isPrivateIcoActive();\n        return (\n            uint(currentState) >= uint(State.Preico1) &&\n            uint(currentState) <= uint(State.Ico6) &&\n            uint(currentState) != uint(State.Break)\n        );\n    }\n\n    function isPrivateIcoActive() public view returns(bool) {\n        return now >= privateIcoStartTime && now < privateIcoEndTime;\n    }\n\n    function initPrivateIco(uint _cap, uint _tokensForEther, uint _startTime, uint _endTime, uint _minimumContribution) external onlyOwner {\n        require(_cap > privateIcoCap); // should increase the cap after previous private ico\n        require(_startTime > privateIcoEndTime); // should start after previous private ico\n        require(now >= privateIcoEndTime); // previous private ico should be finished\n        require(_tokensForEther > 0);\n        require(_endTime > _startTime);\n        require(_endTime < startTimes[uint(State.Preico1)]);\n\n        privateIcoCap = _cap;\n        privateIcoTokensForEther = _tokensForEther;\n        privateIcoStartTime = _startTime;\n        privateIcoEndTime = _endTime;\n        privateIcoMinimumContribution = _minimumContribution;\n    }\n\n    /* --- INTERNAL METHODS --- */\n\n    // override\n    function getMinimumContribution() public view returns(uint) {\n        if (currentState == State.Preico1 || currentState == State.Preico2) {\n            return MIMIMUM_CONTRIBUTION_AMOUNT_PREICO;\n        }\n        if (uint(currentState) >= uint(State.Ico1) && uint(currentState) <= uint(State.Ico6)) {\n            return MIMIMUM_CONTRIBUTION_AMOUNT_ICO;\n        }\n        if (isPrivateIcoActive()) {\n            return privateIcoMinimumContribution;\n        }\n        return 0;\n    }\n\n    // override\n    function canMint(address account) public view returns(bool) {\n        if (currentState == State.Presale) {\n            // external sales and private ico\n            return account == crowdsale || account == deferredKyc;\n        }\n        else if (isSellingState()) {\n            // crowdsale: external sales\n            // deferredKyc: adding and approving kyc\n            // referralManager: referral fees\n            return account == crowdsale || account == deferredKyc || account == referralManager;\n        }\n        else if (currentState == State.Break || currentState == State.FinishingIco) {\n            // crowdsale: external sales\n            // deferredKyc: approving kyc\n            // referralManager: referral fees\n            return account == crowdsale || account == deferredKyc || account == referralManager;\n        }\n        else if (currentState == State.Allocating) {\n            // Community and Bounty allocations\n            // Advisors, Developers, Ambassadors and Partners allocations\n            // Customer Rewards allocations\n            // Team allocations\n            return account == allocator;\n        }\n        else if (currentState == State.Airdropping) {\n            // airdropping for all token holders\n            return account == airdropper;\n        }\n        return false;\n    }\n\n    // override\n    function updateState() public {\n        updateStateBasedOnTime();\n        updateStateBasedOnContributions();\n    }\n\n    function updateStateBasedOnTime() internal {\n        // move to the next state, if the current one has finished\n        if (now >= startTimes[uint(State.FinishingIco)]) advanceStateIfNewer(State.FinishingIco);\n        else if (now >= startTimes[uint(State.Ico6)]) advanceStateIfNewer(State.Ico6);\n        else if (now >= startTimes[uint(State.Ico5)]) advanceStateIfNewer(State.Ico5);\n        else if (now >= startTimes[uint(State.Ico4)]) advanceStateIfNewer(State.Ico4);\n        else if (now >= startTimes[uint(State.Ico3)]) advanceStateIfNewer(State.Ico3);\n        else if (now >= startTimes[uint(State.Ico2)]) advanceStateIfNewer(State.Ico2);\n        else if (now >= startTimes[uint(State.Ico1)]) advanceStateIfNewer(State.Ico1);\n        else if (now >= startTimes[uint(State.Break)]) advanceStateIfNewer(State.Break);\n        else if (now >= startTimes[uint(State.Preico2)]) advanceStateIfNewer(State.Preico2);\n        else if (now >= startTimes[uint(State.Preico1)]) advanceStateIfNewer(State.Preico1);\n    }\n\n    function updateStateBasedOnContributions() internal {\n        // move to the next state, if the current one's cap has been reached\n        uint totalEtherContributions = confirmedSaleEther.add(reservedSaleEther);\n        if (!isSellingState()) {\n            return;\n        }\n\n        if(isPrivateIcoActive()) {\n            // if private ico cap exceeded, revert transaction\n            require(totalEtherContributions <= privateIcoCap);\n        }\n        else if (int(currentState) < int(State.Break)) {\n            // preico\n            if (totalEtherContributions >= etherCaps[uint(State.Preico2)]) advanceStateIfNewer(State.Break);\n            else if (totalEtherContributions >= etherCaps[uint(State.Preico1)]) advanceStateIfNewer(State.Preico2);\n        }\n        else {\n            // ico\n            if (totalEtherContributions >= etherCaps[uint(State.Ico6)]) advanceStateIfNewer(State.FinishingIco);\n            else if (totalEtherContributions >= etherCaps[uint(State.Ico5)]) advanceStateIfNewer(State.Ico6);\n            else if (totalEtherContributions >= etherCaps[uint(State.Ico4)]) advanceStateIfNewer(State.Ico5);\n            else if (totalEtherContributions >= etherCaps[uint(State.Ico3)]) advanceStateIfNewer(State.Ico4);\n            else if (totalEtherContributions >= etherCaps[uint(State.Ico2)]) advanceStateIfNewer(State.Ico3);\n            else if (totalEtherContributions >= etherCaps[uint(State.Ico1)]) advanceStateIfNewer(State.Ico2);\n        }\n    }\n\n    function advanceStateIfNewer(State newState) internal {\n        if (uint(newState) > uint(currentState)) {\n            emit StateChanged(uint(currentState), uint(newState));\n            currentState = newState;\n        }\n    }\n\n    function setStateLength(State state, uint length) internal {\n        // state length is determined by next state's start time\n        startTimes[uint(state)+1] = startTimes[uint(state)].add(length);\n    }\n\n    function isInitialized() public view returns(bool) {\n        return crowdsale != 0x0 && referralManager != 0x0 && allocator != 0x0 && airdropper != 0x0 && deferredKyc != 0x0;\n    }\n}\n",
  "sourcePath": "/Users/przemek/Projects/allsporter/contracts/Tge.sol",
  "compiler": {
    "name": "solc",
    "version": "0.4.24+commit.e67f0147.Emscripten.clang"
  },
  "schemaVersion": "2.0.1",
  "updatedAt": "2018-07-17T14:38:43.552Z"
}