{
  "contractName": "TgeMock",
  "abi": [
    {
      "constant": true,
      "inputs": [],
      "name": "reservedSaleEther",
      "outputs": [
        {
          "name": "",
          "type": "uint256"
        }
      ],
      "payable": false,
      "stateMutability": "view",
      "type": "function"
    },
    {
      "constant": false,
      "inputs": [
        {
          "name": "account",
          "type": "address"
        },
        {
          "name": "etherAmount",
          "type": "uint256"
        },
        {
          "name": "tokenAmount",
          "type": "uint256"
        }
      ],
      "name": "mint",
      "outputs": [],
      "payable": false,
      "stateMutability": "nonpayable",
      "type": "function"
    },
    {
      "constant": true,
      "inputs": [],
      "name": "secondStateAfter",
      "outputs": [
        {
          "name": "",
          "type": "uint256"
        }
      ],
      "payable": false,
      "stateMutability": "view",
      "type": "function"
    },
    {
      "constant": true,
      "inputs": [],
      "name": "saleEtherCap",
      "outputs": [
        {
          "name": "",
          "type": "uint256"
        }
      ],
      "payable": false,
      "stateMutability": "view",
      "type": "function"
    },
    {
      "constant": true,
      "inputs": [],
      "name": "confirmedSaleEther",
      "outputs": [
        {
          "name": "",
          "type": "uint256"
        }
      ],
      "payable": false,
      "stateMutability": "view",
      "type": "function"
    },
    {
      "constant": true,
      "inputs": [],
      "name": "minimumContributionAmount",
      "outputs": [
        {
          "name": "",
          "type": "uint256"
        }
      ],
      "payable": false,
      "stateMutability": "view",
      "type": "function"
    },
    {
      "constant": false,
      "inputs": [],
      "name": "transferTokenOwnership",
      "outputs": [],
      "payable": false,
      "stateMutability": "nonpayable",
      "type": "function"
    },
    {
      "constant": true,
      "inputs": [],
      "name": "firstStateMultiplier",
      "outputs": [
        {
          "name": "",
          "type": "uint256"
        }
      ],
      "payable": false,
      "stateMutability": "view",
      "type": "function"
    },
    {
      "constant": false,
      "inputs": [
        {
          "name": "account",
          "type": "address"
        },
        {
          "name": "etherAmount",
          "type": "uint256"
        },
        {
          "name": "tokenAmount",
          "type": "uint256"
        }
      ],
      "name": "mintReserved",
      "outputs": [],
      "payable": false,
      "stateMutability": "nonpayable",
      "type": "function"
    },
    {
      "constant": false,
      "inputs": [
        {
          "name": "etherAmount",
          "type": "uint256"
        }
      ],
      "name": "unreserve",
      "outputs": [],
      "payable": false,
      "stateMutability": "nonpayable",
      "type": "function"
    },
    {
      "constant": false,
      "inputs": [
        {
          "name": "etherAmount",
          "type": "uint256"
        }
      ],
      "name": "reserve",
      "outputs": [],
      "payable": false,
      "stateMutability": "nonpayable",
      "type": "function"
    },
    {
      "constant": true,
      "inputs": [],
      "name": "secondStateMultiplier",
      "outputs": [
        {
          "name": "",
          "type": "uint256"
        }
      ],
      "payable": false,
      "stateMutability": "view",
      "type": "function"
    },
    {
      "constant": true,
      "inputs": [],
      "name": "owner",
      "outputs": [
        {
          "name": "",
          "type": "address"
        }
      ],
      "payable": false,
      "stateMutability": "view",
      "type": "function"
    },
    {
      "constant": true,
      "inputs": [
        {
          "name": "",
          "type": "address"
        }
      ],
      "name": "allStateMinters",
      "outputs": [
        {
          "name": "",
          "type": "bool"
        }
      ],
      "payable": false,
      "stateMutability": "view",
      "type": "function"
    },
    {
      "constant": true,
      "inputs": [],
      "name": "firstStateMinter",
      "outputs": [
        {
          "name": "",
          "type": "address"
        }
      ],
      "payable": false,
      "stateMutability": "view",
      "type": "function"
    },
    {
      "constant": true,
      "inputs": [],
      "name": "secondStateMinter",
      "outputs": [
        {
          "name": "",
          "type": "address"
        }
      ],
      "payable": false,
      "stateMutability": "view",
      "type": "function"
    },
    {
      "constant": true,
      "inputs": [],
      "name": "secondState",
      "outputs": [
        {
          "name": "",
          "type": "bool"
        }
      ],
      "payable": false,
      "stateMutability": "view",
      "type": "function"
    },
    {
      "constant": false,
      "inputs": [
        {
          "name": "newOwner",
          "type": "address"
        }
      ],
      "name": "transferOwnership",
      "outputs": [],
      "payable": false,
      "stateMutability": "nonpayable",
      "type": "function"
    },
    {
      "constant": true,
      "inputs": [],
      "name": "token",
      "outputs": [
        {
          "name": "",
          "type": "address"
        }
      ],
      "payable": false,
      "stateMutability": "view",
      "type": "function"
    },
    {
      "inputs": [
        {
          "name": "_token",
          "type": "address"
        },
        {
          "name": "_saleEtherCap",
          "type": "uint256"
        },
        {
          "name": "_firstStateMinter",
          "type": "address"
        },
        {
          "name": "_secondStateMinter",
          "type": "address"
        }
      ],
      "payable": false,
      "stateMutability": "nonpayable",
      "type": "constructor"
    },
    {
      "anonymous": false,
      "inputs": [
        {
          "indexed": true,
          "name": "account",
          "type": "address"
        },
        {
          "indexed": false,
          "name": "etherAmount",
          "type": "uint256"
        },
        {
          "indexed": false,
          "name": "tokenAmount",
          "type": "uint256"
        }
      ],
      "name": "Minted",
      "type": "event"
    },
    {
      "anonymous": false,
      "inputs": [
        {
          "indexed": false,
          "name": "etherAmount",
          "type": "uint256"
        }
      ],
      "name": "Reserved",
      "type": "event"
    },
    {
      "anonymous": false,
      "inputs": [
        {
          "indexed": true,
          "name": "account",
          "type": "address"
        },
        {
          "indexed": false,
          "name": "etherAmount",
          "type": "uint256"
        },
        {
          "indexed": false,
          "name": "tokenAmount",
          "type": "uint256"
        }
      ],
      "name": "MintedReserved",
      "type": "event"
    },
    {
      "anonymous": false,
      "inputs": [
        {
          "indexed": false,
          "name": "etherAmount",
          "type": "uint256"
        }
      ],
      "name": "Unreserved",
      "type": "event"
    },
    {
      "anonymous": false,
      "inputs": [
        {
          "indexed": true,
          "name": "previousOwner",
          "type": "address"
        },
        {
          "indexed": true,
          "name": "newOwner",
          "type": "address"
        }
      ],
      "name": "OwnershipTransferred",
      "type": "event"
    },
    {
      "constant": false,
      "inputs": [
        {
          "name": "account",
          "type": "address"
        }
      ],
      "name": "addAllStateMinter",
      "outputs": [],
      "payable": false,
      "stateMutability": "nonpayable",
      "type": "function"
    },
    {
      "constant": true,
      "inputs": [],
      "name": "getMinimumContribution",
      "outputs": [
        {
          "name": "",
          "type": "uint256"
        }
      ],
      "payable": false,
      "stateMutability": "view",
      "type": "function"
    },
    {
      "constant": false,
      "inputs": [],
      "name": "updateState",
      "outputs": [],
      "payable": false,
      "stateMutability": "nonpayable",
      "type": "function"
    },
    {
      "constant": true,
      "inputs": [
        {
          "name": "sender",
          "type": "address"
        }
      ],
      "name": "canMint",
      "outputs": [
        {
          "name": "",
          "type": "bool"
        }
      ],
      "payable": false,
      "stateMutability": "view",
      "type": "function"
    },
    {
      "constant": true,
      "inputs": [
        {
          "name": "etherAmount",
          "type": "uint256"
        }
      ],
      "name": "getTokensForEther",
      "outputs": [
        {
          "name": "",
          "type": "uint256"
        }
      ],
      "payable": false,
      "stateMutability": "view",
      "type": "function"
    }
  ],
  "bytecode": "0x60806040526000600860006101000a81548160ff02191690831515021790555034801561002b57600080fd5b506040516080806113d3833981018060405281019080805190602001909291908051906020019092919080519060200190929190805190602001909291905050508383336000806101000a81548173ffffffffffffffffffffffffffffffffffffffff021916908373ffffffffffffffffffffffffffffffffffffffff1602179055508160008173ffffffffffffffffffffffffffffffffffffffff16141515156100d557600080fd5b6000821115156100e457600080fd5b82600160006101000a81548173ffffffffffffffffffffffffffffffffffffffff021916908373ffffffffffffffffffffffffffffffffffffffff1602179055508160028190555050505081600560006101000a81548173ffffffffffffffffffffffffffffffffffffffff021916908373ffffffffffffffffffffffffffffffffffffffff16021790555080600660006101000a81548173ffffffffffffffffffffffffffffffffffffffff021916908373ffffffffffffffffffffffffffffffffffffffff1602179055505050505061120f806101c46000396000f30060806040526004361061013e576000357c0100000000000000000000000000000000000000000000000000000000900463ffffffff16806311d36bf514610143578063156e29f61461016e57806315edc0da146101c55780631d8557d7146101f05780631fd4b40c1461020757806324e846c71461023257806337b028ef1461025d5780634056675e1461028857806340d64b141461029f5780634b6ea304146102e257806362dbf2611461030d578063663f85491461034e57806376b5d926146103a5578063819b25ba146103d257806387f9b612146103ff5780638da5cb5b1461042a57806397e806ef14610481578063c2ba4744146104dc578063daaf7af614610537578063dd1e5a061461058e578063df8e6179146105e5578063f2fde38b14610614578063f84038b114610657578063fc0c546a14610682575b600080fd5b34801561014f57600080fd5b506101586106d9565b6040518082815260200191505060405180910390f35b34801561017a57600080fd5b506101c3600480360381019080803573ffffffffffffffffffffffffffffffffffffffff16906020019092919080359060200190929190803590602001909291905050506106df565b005b3480156101d157600080fd5b506101da6108bb565b6040518082815260200191505060405180910390f35b3480156101fc57600080fd5b506102056108c7565b005b34801561021357600080fd5b5061021c61090c565b6040518082815260200191505060405180910390f35b34801561023e57600080fd5b50610247610912565b6040518082815260200191505060405180910390f35b34801561026957600080fd5b50610272610918565b6040518082815260200191505060405180910390f35b34801561029457600080fd5b5061029d61091d565b005b3480156102ab57600080fd5b506102e0600480360381019080803573ffffffffffffffffffffffffffffffffffffffff169060200190929190505050610a70565b005b3480156102ee57600080fd5b506102f7610acb565b6040518082815260200191505060405180910390f35b34801561031957600080fd5b5061033860048036038101908080359060200190929190505050610ad0565b6040518082815260200191505060405180910390f35b34801561035a57600080fd5b506103a3600480360381019080803573ffffffffffffffffffffffffffffffffffffffff1690602001909291908035906020019092919080359060200190929190505050610b1e565b005b3480156103b157600080fd5b506103d060048036038101908080359060200190929190505050610cd4565b005b3480156103de57600080fd5b506103fd60048036038101908080359060200190929190505050610d4d565b005b34801561040b57600080fd5b50610414610e1f565b6040518082815260200191505060405180910390f35b34801561043657600080fd5b5061043f610e24565b604051808273ffffffffffffffffffffffffffffffffffffffff1673ffffffffffffffffffffffffffffffffffffffff16815260200191505060405180910390f35b34801561048d57600080fd5b506104c2600480360381019080803573ffffffffffffffffffffffffffffffffffffffff169060200190929190505050610e49565b604051808215151515815260200191505060405180910390f35b3480156104e857600080fd5b5061051d600480360381019080803573ffffffffffffffffffffffffffffffffffffffff169060200190929190505050610e69565b604051808215151515815260200191505060405180910390f35b34801561054357600080fd5b5061054c610f8e565b604051808273ffffffffffffffffffffffffffffffffffffffff1673ffffffffffffffffffffffffffffffffffffffff16815260200191505060405180910390f35b34801561059a57600080fd5b506105a3610fb4565b604051808273ffffffffffffffffffffffffffffffffffffffff1673ffffffffffffffffffffffffffffffffffffffff16815260200191505060405180910390f35b3480156105f157600080fd5b506105fa610fda565b604051808215151515815260200191505060405180910390f35b34801561062057600080fd5b50610655600480360381019080803573ffffffffffffffffffffffffffffffffffffffff169060200190929190505050610fed565b005b34801561066357600080fd5b5061066c611142565b6040518082815260200191505060405180910390f35b34801561068e57600080fd5b5061069761114b565b604051808273ffffffffffffffffffffffffffffffffffffffff1673ffffffffffffffffffffffffffffffffffffffff16815260200191505060405180910390f35b60045481565b6106e76108c7565b6106f033610e69565b15156106fb57600080fd5b8160006107278261071960045460035461117190919063ffffffff16565b61117190919063ffffffff16565b9050600254811115151561073a57600080fd5b61074f8460035461117190919063ffffffff16565b600381905550600160009054906101000a900473ffffffffffffffffffffffffffffffffffffffff1673ffffffffffffffffffffffffffffffffffffffff166340c10f1986856040518363ffffffff167c0100000000000000000000000000000000000000000000000000000000028152600401808373ffffffffffffffffffffffffffffffffffffffff1673ffffffffffffffffffffffffffffffffffffffff16815260200182815260200192505050602060405180830381600087803b15801561081a57600080fd5b505af115801561082e573d6000803e3d6000fd5b505050506040513d602081101561084457600080fd5b81019080805190602001909291905050505061085e6108c7565b8473ffffffffffffffffffffffffffffffffffffffff167f25b428dfde728ccfaddad7e29e4ac23c24ed7fd1a6e3e3f91894a9a073f5dfff8585604051808381526020018281526020019250505060405180910390a25050505050565b678ac7230489e8000081565b678ac7230489e800006108e760045460035461117190919063ffffffff16565b10151561090a576001600860006101000a81548160ff0219169083151502179055505b565b60025481565b60035481565b600a81565b6000809054906101000a900473ffffffffffffffffffffffffffffffffffffffff1673ffffffffffffffffffffffffffffffffffffffff163373ffffffffffffffffffffffffffffffffffffffff1614151561097857600080fd5b600160009054906101000a900473ffffffffffffffffffffffffffffffffffffffff1673ffffffffffffffffffffffffffffffffffffffff1663f2fde38b6000809054906101000a900473ffffffffffffffffffffffffffffffffffffffff166040518263ffffffff167c0100000000000000000000000000000000000000000000000000000000028152600401808273ffffffffffffffffffffffffffffffffffffffff1673ffffffffffffffffffffffffffffffffffffffff168152602001915050600060405180830381600087803b158015610a5657600080fd5b505af1158015610a6a573d6000803e3d6000fd5b50505050565b6001600760008373ffffffffffffffffffffffffffffffffffffffff1673ffffffffffffffffffffffffffffffffffffffff16815260200190815260200160002060006101000a81548160ff02191690831515021790555050565b600281565b6000600860009054906101000a900460ff1615610b0257610afb60038361118f90919063ffffffff16565b9050610b19565b610b1660028361118f90919063ffffffff16565b90505b919050565b610b266108c7565b610b2f33610e69565b1515610b3a57600080fd5b610b4f826004546111ca90919063ffffffff16565b600481905550610b6a8260035461117190919063ffffffff16565b600381905550600160009054906101000a900473ffffffffffffffffffffffffffffffffffffffff1673ffffffffffffffffffffffffffffffffffffffff166340c10f1984836040518363ffffffff167c0100000000000000000000000000000000000000000000000000000000028152600401808373ffffffffffffffffffffffffffffffffffffffff1673ffffffffffffffffffffffffffffffffffffffff16815260200182815260200192505050602060405180830381600087803b158015610c3557600080fd5b505af1158015610c49573d6000803e3d6000fd5b505050506040513d6020811015610c5f57600080fd5b810190808051906020019092919050505050610c796108c7565b8273ffffffffffffffffffffffffffffffffffffffff167f836db2a45fd007fb86f824d475eeebdf19516c0c16eded06df2fa4594a1188348383604051808381526020018281526020019250505060405180910390a2505050565b610cdc6108c7565b610ce533610e69565b1515610cf057600080fd5b610d05816004546111ca90919063ffffffff16565b600481905550610d136108c7565b7f3e9608ee93b29804c1c97a39ae6b68ca41b31ec84716dc2904413806fe7a2f3e816040518082815260200191505060405180910390a150565b610d556108c7565b610d5e33610e69565b1515610d6957600080fd5b806000610d9582610d8760045460035461117190919063ffffffff16565b61117190919063ffffffff16565b90506002548111151515610da857600080fd5b82610db1611142565b8110151515610dbf57600080fd5b610dd48460045461117190919063ffffffff16565b600481905550610de26108c7565b7f672216a7a59f7b075c6becc0eebb0ab5404d392281d509c1c1a4a6accd036f49846040518082815260200191505060405180910390a150505050565b600381565b6000809054906101000a900473ffffffffffffffffffffffffffffffffffffffff1681565b60076020528060005260406000206000915054906101000a900460ff1681565b60008060009050600860009054906101000a900460ff1615610edd57600660009054906101000a900473ffffffffffffffffffffffffffffffffffffffff1673ffffffffffffffffffffffffffffffffffffffff168373ffffffffffffffffffffffffffffffffffffffff16149050610f31565b600560009054906101000a900473ffffffffffffffffffffffffffffffffffffffff1673ffffffffffffffffffffffffffffffffffffffff168373ffffffffffffffffffffffffffffffffffffffff161490505b8080610f865750600760008473ffffffffffffffffffffffffffffffffffffffff1673ffffffffffffffffffffffffffffffffffffffff16815260200190815260200160002060009054906101000a900460ff165b915050919050565b600560009054906101000a900473ffffffffffffffffffffffffffffffffffffffff1681565b600660009054906101000a900473ffffffffffffffffffffffffffffffffffffffff1681565b600860009054906101000a900460ff1681565b6000809054906101000a900473ffffffffffffffffffffffffffffffffffffffff1673ffffffffffffffffffffffffffffffffffffffff163373ffffffffffffffffffffffffffffffffffffffff1614151561104857600080fd5b600073ffffffffffffffffffffffffffffffffffffffff168173ffffffffffffffffffffffffffffffffffffffff161415151561108457600080fd5b8073ffffffffffffffffffffffffffffffffffffffff166000809054906101000a900473ffffffffffffffffffffffffffffffffffffffff1673ffffffffffffffffffffffffffffffffffffffff167f8be0079c531659141344cd1fd0a4f28419497f9722a3daafe3b4186f6b6457e060405160405180910390a3806000806101000a81548173ffffffffffffffffffffffffffffffffffffffff021916908373ffffffffffffffffffffffffffffffffffffffff16021790555050565b6000600a905090565b600160009054906101000a900473ffffffffffffffffffffffffffffffffffffffff1681565b600080828401905083811015151561118557fe5b8091505092915050565b60008060008414156111a457600091506111c3565b82840290508284828115156111b557fe5b041415156111bf57fe5b8091505b5092915050565b60008282111515156111d857fe5b8183039050929150505600a165627a7a7230582035b6856bff13ab2fb1dce0f4227a8d2a246e63796c9845987686556c5d2d6a1d0029",
  "source": "pragma solidity ^0.4.24;\nimport \"zeppelin-solidity/contracts/math/SafeMath.sol\";\nimport \"zeppelin-solidity/contracts/ownership/Ownable.sol\";\nimport \"./Minter.sol\";\n\n/* TgeMock is used for unit testing */\n\ncontract TgeMock is Minter {\n    using SafeMath for uint;\n\n    /* --- CONSTANTS --- */\n\n    uint constant public firstStateMultiplier = 2;\n    uint constant public secondStateMultiplier = 3;\n    uint constant public secondStateAfter = 10 * 1e18;\n    uint constant public minimumContributionAmount = 10;\n\n    /* --- FIELDS --- */\n\n    address public firstStateMinter;\n    address public secondStateMinter;\n    mapping(address => bool) public allStateMinters;\n    bool public secondState = false;\n\n    /* --- CONSTRUCTOR --- */\n\n    constructor(\n        CrowdfundableToken _token,\n        uint _saleEtherCap,\n        address _firstStateMinter,\n        address _secondStateMinter\n    ) public Minter(_token, _saleEtherCap) {\n        firstStateMinter = _firstStateMinter;\n        secondStateMinter = _secondStateMinter;\n    }\n\n    /* --- PUBLIC / EXTERNAL METHODS --- */\n\n    function addAllStateMinter(address account) public {\n        allStateMinters[account] = true;\n    }\n\n    // override\n    function getMinimumContribution() public view returns(uint) {\n        return minimumContributionAmount;\n    }\n\n    // override\n    function updateState() public {\n        if (confirmedSaleEther.add(reservedSaleEther) >= secondStateAfter) {\n            secondState = true;\n        }\n    }\n\n    // override\n    function canMint(address sender) public view returns(bool) {\n        bool result = false;\n        if (secondState) {\n            result = sender == secondStateMinter;\n        }\n        else result = sender == firstStateMinter;\n\n        return result || allStateMinters[sender];\n    }\n\n    // override\n    function getTokensForEther(uint etherAmount) public view returns(uint) {\n        if (secondState) {\n            return etherAmount.mul(secondStateMultiplier);\n        }\n        return etherAmount.mul(firstStateMultiplier);\n    }\n}\n",
  "sourcePath": "/Users/przemek/Projects/allsporter/contracts/TgeMock.sol",
  "compiler": {
    "name": "solc",
    "version": "0.4.24+commit.e67f0147.Emscripten.clang"
  },
  "schemaVersion": "2.0.1",
  "updatedAt": "2018-07-27T14:56:49.209Z"
}