{
  "contractName": "TgeState",
  "abi": [
    {
      "constant": true,
      "inputs": [],
      "name": "currentState",
      "outputs": [
        {
          "name": "",
          "type": "uint8"
        }
      ],
      "payable": false,
      "stateMutability": "view",
      "type": "function"
    },
    {
      "constant": true,
      "inputs": [
        {
          "name": "",
          "type": "address"
        }
      ],
      "name": "stateUpdaters",
      "outputs": [
        {
          "name": "",
          "type": "bool"
        }
      ],
      "payable": false,
      "stateMutability": "view",
      "type": "function"
    },
    {
      "constant": true,
      "inputs": [
        {
          "name": "",
          "type": "uint256"
        }
      ],
      "name": "startTimes",
      "outputs": [
        {
          "name": "",
          "type": "uint256"
        }
      ],
      "payable": false,
      "stateMutability": "view",
      "type": "function"
    },
    {
      "constant": true,
      "inputs": [],
      "name": "owner",
      "outputs": [
        {
          "name": "",
          "type": "address"
        }
      ],
      "payable": false,
      "stateMutability": "view",
      "type": "function"
    },
    {
      "constant": true,
      "inputs": [
        {
          "name": "",
          "type": "uint256"
        }
      ],
      "name": "etherCaps",
      "outputs": [
        {
          "name": "",
          "type": "uint256"
        }
      ],
      "payable": false,
      "stateMutability": "view",
      "type": "function"
    },
    {
      "constant": false,
      "inputs": [
        {
          "name": "newOwner",
          "type": "address"
        }
      ],
      "name": "transferOwnership",
      "outputs": [],
      "payable": false,
      "stateMutability": "nonpayable",
      "type": "function"
    },
    {
      "inputs": [
        {
          "name": "saleStartTime",
          "type": "uint256"
        },
        {
          "name": "singleStateEtherCap",
          "type": "uint256"
        }
      ],
      "payable": false,
      "stateMutability": "nonpayable",
      "type": "constructor"
    },
    {
      "anonymous": false,
      "inputs": [
        {
          "indexed": false,
          "name": "from",
          "type": "uint256"
        },
        {
          "indexed": false,
          "name": "to",
          "type": "uint256"
        }
      ],
      "name": "StateChanged",
      "type": "event"
    },
    {
      "anonymous": false,
      "inputs": [
        {
          "indexed": true,
          "name": "previousOwner",
          "type": "address"
        },
        {
          "indexed": true,
          "name": "newOwner",
          "type": "address"
        }
      ],
      "name": "OwnershipTransferred",
      "type": "event"
    },
    {
      "constant": false,
      "inputs": [
        {
          "name": "totalEtherAmount",
          "type": "uint256"
        }
      ],
      "name": "updateState",
      "outputs": [],
      "payable": false,
      "stateMutability": "nonpayable",
      "type": "function"
    },
    {
      "constant": false,
      "inputs": [
        {
          "name": "from",
          "type": "uint256"
        },
        {
          "name": "to",
          "type": "uint256"
        }
      ],
      "name": "moveState",
      "outputs": [],
      "payable": false,
      "stateMutability": "nonpayable",
      "type": "function"
    },
    {
      "constant": false,
      "inputs": [
        {
          "name": "account",
          "type": "address"
        }
      ],
      "name": "addStateUpdater",
      "outputs": [],
      "payable": false,
      "stateMutability": "nonpayable",
      "type": "function"
    },
    {
      "constant": true,
      "inputs": [],
      "name": "isSellingState",
      "outputs": [
        {
          "name": "",
          "type": "bool"
        }
      ],
      "payable": false,
      "stateMutability": "view",
      "type": "function"
    }
  ],
  "bytecode": "0x608060405260008060146101000a81548160ff0219169083600a8111156200002357fe5b02179055503480156200003557600080fd5b506040516040806200109a8339810180604052810190808051906020019092919080519060200190929190505050336000806101000a81548173ffffffffffffffffffffffffffffffffffffffff021916908373ffffffffffffffffffffffffffffffffffffffff160217905550428210151515620000b357600080fd5b600081111515620000c357600080fd5b620000de8282620000e6640100000000026401000000009004565b5050620003fd565b81600160006001600a811115620000f957fe5b8152602001908152602001600020819055506200012a60016206978062000306640100000000026401000000009004565b6200014960026206978062000306640100000000026401000000009004565b6200016860036203f48062000306640100000000026401000000009004565b620001876004620d2f0062000306640100000000026401000000009004565b620001a66005620d2f0062000306640100000000026401000000009004565b620001c56006620d2f0062000306640100000000026401000000009004565b620001e46007620d2f0062000306640100000000026401000000009004565b620002036008620d2f0062000306640100000000026401000000009004565b620002226009620d2f0062000306640100000000026401000000009004565b6200023e60018262000372640100000000026401000000009004565b6200025a60028262000372640100000000026401000000009004565b6200027660048262000372640100000000026401000000009004565b6200029260058262000372640100000000026401000000009004565b620002ae60068262000372640100000000026401000000009004565b620002ca60078262000372640100000000026401000000009004565b620002e660088262000372640100000000026401000000009004565b6200030260098262000372640100000000026401000000009004565b5050565b62000348816001600085600a8111156200031c57fe5b815260200190815260200160002054620003de6401000000000262000c43179091906401000000009004565b60016000600185600a8111156200035b57fe5b018152602001908152602001600020819055505050565b620003b78160026000600186600a8111156200038a57fe5b03815260200190815260200160002054620003de6401000000000262000c43179091906401000000009004565b6002600084600a811115620003c857fe5b8152602001908152602001600020819055505050565b6000808284019050838110151515620003f357fe5b8091505092915050565b610c8d806200040d6000396000f3006080604052600436106100a4576000357c0100000000000000000000000000000000000000000000000000000000900463ffffffff1680630c3f6acf146100a957806324b8fd44146100e2578063662db57f1461013d57806377bbebe6146101805780638da5cb5b146101c1578063b5b22a1814610218578063cc8a55e214610259578063eaf86db314610286578063ebb9ab25146102b5578063f2fde38b146102ec575b600080fd5b3480156100b557600080fd5b506100be61032f565b6040518082600a8111156100ce57fe5b60ff16815260200191505060405180910390f35b3480156100ee57600080fd5b50610123600480360381019080803573ffffffffffffffffffffffffffffffffffffffff169060200190929190505050610342565b604051808215151515815260200191505060405180910390f35b34801561014957600080fd5b5061017e600480360381019080803573ffffffffffffffffffffffffffffffffffffffff169060200190929190505050610362565b005b34801561018c57600080fd5b506101ab60048036038101908080359060200190929190505050610418565b6040518082815260200191505060405180910390f35b3480156101cd57600080fd5b506101d6610430565b604051808273ffffffffffffffffffffffffffffffffffffffff1673ffffffffffffffffffffffffffffffffffffffff16815260200191505060405180910390f35b34801561022457600080fd5b5061024360048036038101908080359060200190929190505050610455565b6040518082815260200191505060405180910390f35b34801561026557600080fd5b506102846004803603810190808035906020019092919050505061046d565b005b34801561029257600080fd5b5061029b6104d9565b604051808215151515815260200191505060405180910390f35b3480156102c157600080fd5b506102ea600480360381019080803590602001909291908035906020019092919050505061056e565b005b3480156102f857600080fd5b5061032d600480360381019080803573ffffffffffffffffffffffffffffffffffffffff169060200190929190505050610609565b005b600060149054906101000a900460ff1681565b60036020528060005260406000206000915054906101000a900460ff1681565b6000809054906101000a900473ffffffffffffffffffffffffffffffffffffffff1673ffffffffffffffffffffffffffffffffffffffff163373ffffffffffffffffffffffffffffffffffffffff161415156103bd57600080fd5b6001600360008373ffffffffffffffffffffffffffffffffffffffff1673ffffffffffffffffffffffffffffffffffffffff16815260200190815260200160002060006101000a81548160ff02191690831515021790555050565b60016020528060005260406000206000915090505481565b6000809054906101000a900473ffffffffffffffffffffffffffffffffffffffff1681565b60026020528060005260406000206000915090505481565b600360003373ffffffffffffffffffffffffffffffffffffffff1673ffffffffffffffffffffffffffffffffffffffff16815260200190815260200160002060009054906101000a900460ff1615156104c557600080fd5b6104cd61075e565b6104d68161098a565b50565b60006001600a8111156104e857fe5b600060149054906101000a900460ff16600a81111561050357fe5b1015801561053757506009600a81111561051957fe5b600060149054906101000a900460ff16600a81111561053457fe5b11155b801561056957506003600a81111561054b57fe5b600060149054906101000a900460ff16600a81111561056657fe5b14155b905090565b6000809054906101000a900473ffffffffffffffffffffffffffffffffffffffff1673ffffffffffffffffffffffffffffffffffffffff163373ffffffffffffffffffffffffffffffffffffffff161415156105c957600080fd5b81600060149054906101000a900460ff16600a8111156105e557fe5b1415156105f157600080fd5b61060581600a81111561060057fe5b610b8b565b5050565b6000809054906101000a900473ffffffffffffffffffffffffffffffffffffffff1673ffffffffffffffffffffffffffffffffffffffff163373ffffffffffffffffffffffffffffffffffffffff1614151561066457600080fd5b600073ffffffffffffffffffffffffffffffffffffffff168173ffffffffffffffffffffffffffffffffffffffff16141515156106a057600080fd5b8073ffffffffffffffffffffffffffffffffffffffff166000809054906101000a900473ffffffffffffffffffffffffffffffffffffffff1673ffffffffffffffffffffffffffffffffffffffff167f8be0079c531659141344cd1fd0a4f28419497f9722a3daafe3b4186f6b6457e060405160405180910390a3806000806101000a81548173ffffffffffffffffffffffffffffffffffffffff021916908373ffffffffffffffffffffffffffffffffffffffff16021790555050565b60016000600a8081111561076e57fe5b815260200190815260200160002054421015156107945761078f600a610b8b565b610988565b600160006009600a8111156107a557fe5b815260200190815260200160002054421015156107cb576107c66009610b8b565b610987565b600160006008600a8111156107dc57fe5b81526020019081526020016000205442101515610802576107fd6008610b8b565b610986565b600160006007600a81111561081357fe5b81526020019081526020016000205442101515610839576108346007610b8b565b610985565b600160006006600a81111561084a57fe5b815260200190815260200160002054421015156108705761086b6006610b8b565b610984565b600160006005600a81111561088157fe5b815260200190815260200160002054421015156108a7576108a26005610b8b565b610983565b600160006004600a8111156108b857fe5b815260200190815260200160002054421015156108de576108d96004610b8b565b610982565b600160006003600a8111156108ef57fe5b81526020019081526020016000205442101515610915576109106003610b8b565b610981565b600160006002600a81111561092657fe5b8152602001908152602001600020544210151561094c576109476002610b8b565b610980565b600160006001600a81111561095d57fe5b8152602001908152602001600020544210151561097f5761097e6001610b8b565b5b5b5b5b5b5b5b5b5b5b565b6109926104d9565b151561099d57610b88565b6003600a8111156109aa57fe5b600060149054906101000a900460ff16600a8111156109c557fe5b1215610a3b57600260006002600a8111156109dc57fe5b81526020019081526020016000205481101515610a02576109fd6003610b8b565b610a36565b600260006001600a811115610a1357fe5b81526020019081526020016000205481101515610a3557610a346002610b8b565b5b5b610b87565b600260006009600a811115610a4c57fe5b81526020019081526020016000205481101515610a7257610a6d600a610b8b565b610b86565b600260006008600a811115610a8357fe5b81526020019081526020016000205481101515610aa957610aa46009610b8b565b610b85565b600260006007600a811115610aba57fe5b81526020019081526020016000205481101515610ae057610adb6008610b8b565b610b84565b600260006006600a811115610af157fe5b81526020019081526020016000205481101515610b1757610b126007610b8b565b610b83565b600260006005600a811115610b2857fe5b81526020019081526020016000205481101515610b4e57610b496006610b8b565b610b82565b600260006004600a811115610b5f57fe5b81526020019081526020016000205481101515610b8157610b806005610b8b565b5b5b5b5b5b5b5b5b50565b600060149054906101000a900460ff16600a811115610ba657fe5b81600a811115610bb257fe5b1115610c40577f1c0c6794b8c626515ef0eaa59cf29f712f686771b359ff1a5a05738b92d05484600060149054906101000a900460ff16600a811115610bf457fe5b82600a811115610c0057fe5b604051808381526020018281526020019250505060405180910390a180600060146101000a81548160ff0219169083600a811115610c3a57fe5b02179055505b50565b6000808284019050838110151515610c5757fe5b80915050929150505600a165627a7a72305820a56360321d3e4abe8d6f29dff0640a79bcdb9e1ee33918cf45baf8f5b0aea6d40029",
  "source": "pragma solidity ^0.4.19;\nimport \"zeppelin-solidity/contracts/math/SafeMath.sol\";\nimport \"zeppelin-solidity/contracts/ownership/Ownable.sol\";\nimport \"./Minter.sol\";\nimport \"./IPricing.sol\";\n\ncontract TgeState is Ownable {\n    using SafeMath for uint;\n\n    enum State {Presale, Preico1, Preico2, Break, Ico1, Ico2, Ico3, Ico4, Ico5, Ico6, FinishingIco}\n    State public currentState = State.Presale;\n    mapping(uint => uint) public startTimes;\n    mapping(uint => uint) public etherCaps;\n    event StateChanged(uint from, uint to);\n    mapping(address => bool) public stateUpdaters;\n\n    modifier onlyInState(State _state) {\n        require(_state == currentState);\n        _;\n    }\n\n    modifier onlyStateUpdaters() {\n        require(stateUpdaters[msg.sender]);\n        _;\n    }\n\n    function TgeState(uint saleStartTime, uint singleStateEtherCap) public {\n        require(saleStartTime >= now);\n        require(singleStateEtherCap > 0);\n        initStates(saleStartTime, singleStateEtherCap);\n    }\n\n    function updateState(uint totalEtherAmount) public onlyStateUpdaters {\n        updateStateBasedOnTime();\n        updateStateBasedOnContributions(totalEtherAmount);\n    }\n\n    function moveState(uint from, uint to) external onlyOwner {\n        require(uint(currentState) == from);\n        advanceStateIfNewer(State(to));\n    }\n\n    function addStateUpdater(address account) public onlyOwner {\n        stateUpdaters[account] = true;\n    }\n    \n    function isSellingState() public view returns(bool) {\n        return(\n            uint(currentState) >= uint(State.Preico1)\n            && uint(currentState) <= uint(State.Ico6)\n            && uint(currentState) != uint(State.Break)\n        );\n    }\n\n    // internal\n\n    function advanceStateIfNewer(State newState) internal {\n        if (uint(newState) > uint(currentState)) {\n            emit StateChanged(uint(currentState), uint(newState));\n            currentState = newState;\n        }\n    }\n\n    // initialize states start times and caps\n    function initStates(uint saleStart, uint singleStateEtherCap) internal {\n        startTimes[uint(State.Preico1)] = saleStart;\n        setStateLength(State.Preico1, 5 days);\n        setStateLength(State.Preico2, 5 days);\n        setStateLength(State.Break, 3 days);\n        setStateLength(State.Ico1, 10 days);\n        setStateLength(State.Ico2, 10 days);\n        setStateLength(State.Ico3, 10 days);\n        setStateLength(State.Ico4, 10 days);\n        setStateLength(State.Ico5, 10 days);\n        setStateLength(State.Ico6, 10 days);\n\n        setEtherCap(State.Preico1, singleStateEtherCap);\n        setEtherCap(State.Preico2, singleStateEtherCap);\n        setEtherCap(State.Ico1, singleStateEtherCap);\n        setEtherCap(State.Ico2, singleStateEtherCap);\n        setEtherCap(State.Ico3, singleStateEtherCap);\n        setEtherCap(State.Ico4, singleStateEtherCap);\n        setEtherCap(State.Ico5, singleStateEtherCap);\n        setEtherCap(State.Ico6, singleStateEtherCap);\n    }\n\n    function setStateLength(State state, uint length) private {\n        // state length is determined by next state's start time\n        startTimes[uint(state)+1] = startTimes[uint(state)].add(length);\n    }\n\n    function setEtherCap(State state, uint cap) private {\n        // accumulate cap from previous states\n        etherCaps[uint(state)] = etherCaps[uint(state)-1].add(cap);\n    }\n\n    function updateStateBasedOnTime() private {\n        if (now >= startTimes[uint(State.FinishingIco)]) advanceStateIfNewer(State.FinishingIco);\n        else if (now >= startTimes[uint(State.Ico6)]) advanceStateIfNewer(State.Ico6);\n        else if (now >= startTimes[uint(State.Ico5)]) advanceStateIfNewer(State.Ico5);\n        else if (now >= startTimes[uint(State.Ico4)]) advanceStateIfNewer(State.Ico4);\n        else if (now >= startTimes[uint(State.Ico3)]) advanceStateIfNewer(State.Ico3);\n        else if (now >= startTimes[uint(State.Ico2)]) advanceStateIfNewer(State.Ico2);\n        else if (now >= startTimes[uint(State.Ico1)]) advanceStateIfNewer(State.Ico1);\n        else if (now >= startTimes[uint(State.Break)]) advanceStateIfNewer(State.Break);\n        else if (now >= startTimes[uint(State.Preico2)]) advanceStateIfNewer(State.Preico2);\n        else if (now >= startTimes[uint(State.Preico1)]) advanceStateIfNewer(State.Preico1);\n    }\n\n    function updateStateBasedOnContributions(uint totalEtherContributions) private {\n        if (!isSellingState()) {\n            return;\n        }\n\n        if (int(currentState) < int(State.Break)) {\n            // before the break\n            if (totalEtherContributions >= etherCaps[uint(State.Preico2)]) advanceStateIfNewer(State.Break);\n            else if (totalEtherContributions >= etherCaps[uint(State.Preico1)]) advanceStateIfNewer(State.Preico2);\n        }\n        else {\n            // after the break\n            if (totalEtherContributions >= etherCaps[uint(State.Ico6)]) advanceStateIfNewer(State.FinishingIco);\n            else if (totalEtherContributions >= etherCaps[uint(State.Ico5)]) advanceStateIfNewer(State.Ico6);\n            else if (totalEtherContributions >= etherCaps[uint(State.Ico4)]) advanceStateIfNewer(State.Ico5);\n            else if (totalEtherContributions >= etherCaps[uint(State.Ico3)]) advanceStateIfNewer(State.Ico4);\n            else if (totalEtherContributions >= etherCaps[uint(State.Ico2)]) advanceStateIfNewer(State.Ico3);\n            else if (totalEtherContributions >= etherCaps[uint(State.Ico1)]) advanceStateIfNewer(State.Ico2);\n        }\n    }\n}\n",
  "sourcePath": "/Users/przemek/Projects/allsporter/contracts/TgeState.sol",
  "compiler": {
    "name": "solc",
    "version": "0.4.23+commit.124ca40d.Emscripten.clang"
  },
  "schemaVersion": "2.0.0",
  "updatedAt": "2018-05-10T07:17:03.127Z"
}