{
  "contractName": "TreasurySplitter",
  "abi": [
    {
      "constant": true,
      "inputs": [],
      "name": "owner",
      "outputs": [
        {
          "name": "",
          "type": "address"
        }
      ],
      "payable": false,
      "stateMutability": "view",
      "type": "function"
    },
    {
      "constant": true,
      "inputs": [],
      "name": "mainTreasury",
      "outputs": [
        {
          "name": "",
          "type": "address"
        }
      ],
      "payable": false,
      "stateMutability": "view",
      "type": "function"
    },
    {
      "constant": true,
      "inputs": [
        {
          "name": "",
          "type": "uint256"
        }
      ],
      "name": "subTreasuries",
      "outputs": [
        {
          "name": "",
          "type": "address"
        }
      ],
      "payable": false,
      "stateMutability": "view",
      "type": "function"
    },
    {
      "constant": false,
      "inputs": [
        {
          "name": "newOwner",
          "type": "address"
        }
      ],
      "name": "transferOwnership",
      "outputs": [],
      "payable": false,
      "stateMutability": "nonpayable",
      "type": "function"
    },
    {
      "constant": true,
      "inputs": [
        {
          "name": "",
          "type": "uint256"
        }
      ],
      "name": "percentages",
      "outputs": [
        {
          "name": "",
          "type": "uint256"
        }
      ],
      "payable": false,
      "stateMutability": "view",
      "type": "function"
    },
    {
      "inputs": [
        {
          "name": "_mainTreasury",
          "type": "address"
        },
        {
          "name": "_subTreasuries",
          "type": "address[]"
        },
        {
          "name": "_percentages",
          "type": "uint256[]"
        }
      ],
      "payable": false,
      "stateMutability": "nonpayable",
      "type": "constructor"
    },
    {
      "payable": true,
      "stateMutability": "payable",
      "type": "fallback"
    },
    {
      "anonymous": false,
      "inputs": [
        {
          "indexed": true,
          "name": "receiver",
          "type": "address"
        },
        {
          "indexed": false,
          "name": "amount",
          "type": "uint256"
        }
      ],
      "name": "Transferred",
      "type": "event"
    },
    {
      "anonymous": false,
      "inputs": [
        {
          "indexed": true,
          "name": "previousOwner",
          "type": "address"
        },
        {
          "indexed": true,
          "name": "newOwner",
          "type": "address"
        }
      ],
      "name": "OwnershipTransferred",
      "type": "event"
    }
  ],
  "bytecode": "0x608060405234801561001057600080fd5b506040516109e93803806109e9833981018060405281019080805190602001909291908051820192919060200180518201929190505050336000806101000a81548173ffffffffffffffffffffffffffffffffffffffff021916908373ffffffffffffffffffffffffffffffffffffffff1602179055508060008060008091505b83518210156100ff5783828151811015156100a857fe5b9060200190602002015190506000811180156100c5575060648111155b15156100d057600080fd5b6100f0818461019a64010000000002610699179091906401000000009004565b92508180600101925050610091565b6064831115151561010f57600080fd5b8451865114151561011f57600080fd5b86600160006101000a81548173ffffffffffffffffffffffffffffffffffffffff021916908373ffffffffffffffffffffffffffffffffffffffff16021790555085600290805190602001906101769291906101b8565b50846003908051906020019061018d929190610242565b50505050505050506102f7565b60008082840190508381101515156101ae57fe5b8091505092915050565b828054828255906000526020600020908101928215610231579160200282015b828111156102305782518260006101000a81548173ffffffffffffffffffffffffffffffffffffffff021916908373ffffffffffffffffffffffffffffffffffffffff160217905550916020019190600101906101d8565b5b50905061023e919061028f565b5090565b82805482825590600052602060002090810192821561027e579160200282015b8281111561027d578251825591602001919060010190610262565b5b50905061028b91906102d2565b5090565b6102cf91905b808211156102cb57600081816101000a81549073ffffffffffffffffffffffffffffffffffffffff021916905550600101610295565b5090565b90565b6102f491905b808211156102f05760008160009055506001016102d8565b5090565b90565b6106e3806103066000396000f30060806040526004361061006d576000357c0100000000000000000000000000000000000000000000000000000000900463ffffffff1680638da5cb5b146102a3578063acdc51a1146102fa578063c421a23214610351578063f2fde38b146103be578063f885838614610401575b600080600080600061008960643461044290919063ffffffff16565b9450600093505b6003805490508410156101a9576100c9856003868154811015156100b057fe5b906000526020600020015461045d90919063ffffffff16565b92506002848154811015156100da57fe5b9060005260206000200160009054906101000a900473ffffffffffffffffffffffffffffffffffffffff1691508173ffffffffffffffffffffffffffffffffffffffff166108fc849081150290604051600060405180830381858888f1935050505015801561014d573d6000803e3d6000fd5b508173ffffffffffffffffffffffffffffffffffffffff167fe6d858f14d755446648a6e0c8ab8b5a0f58ccc7920d4c910b0454e4dcd869af0846040518082815260200191505060405180910390a28380600101945050610090565b3073ffffffffffffffffffffffffffffffffffffffff16319050600160009054906101000a900473ffffffffffffffffffffffffffffffffffffffff1673ffffffffffffffffffffffffffffffffffffffff166108fc829081150290604051600060405180830381858888f1935050505015801561022b573d6000803e3d6000fd5b50600160009054906101000a900473ffffffffffffffffffffffffffffffffffffffff1673ffffffffffffffffffffffffffffffffffffffff167fe6d858f14d755446648a6e0c8ab8b5a0f58ccc7920d4c910b0454e4dcd869af0826040518082815260200191505060405180910390a25050505050005b3480156102af57600080fd5b506102b8610498565b604051808273ffffffffffffffffffffffffffffffffffffffff1673ffffffffffffffffffffffffffffffffffffffff16815260200191505060405180910390f35b34801561030657600080fd5b5061030f6104bd565b604051808273ffffffffffffffffffffffffffffffffffffffff1673ffffffffffffffffffffffffffffffffffffffff16815260200191505060405180910390f35b34801561035d57600080fd5b5061037c600480360381019080803590602001909291905050506104e3565b604051808273ffffffffffffffffffffffffffffffffffffffff1673ffffffffffffffffffffffffffffffffffffffff16815260200191505060405180910390f35b3480156103ca57600080fd5b506103ff600480360381019080803573ffffffffffffffffffffffffffffffffffffffff169060200190929190505050610521565b005b34801561040d57600080fd5b5061042c60048036038101908080359060200190929190505050610676565b6040518082815260200191505060405180910390f35b600080828481151561045057fe5b0490508091505092915050565b60008060008414156104725760009150610491565b828402905082848281151561048357fe5b0414151561048d57fe5b8091505b5092915050565b6000809054906101000a900473ffffffffffffffffffffffffffffffffffffffff1681565b600160009054906101000a900473ffffffffffffffffffffffffffffffffffffffff1681565b6002818154811015156104f257fe5b906000526020600020016000915054906101000a900473ffffffffffffffffffffffffffffffffffffffff1681565b6000809054906101000a900473ffffffffffffffffffffffffffffffffffffffff1673ffffffffffffffffffffffffffffffffffffffff163373ffffffffffffffffffffffffffffffffffffffff1614151561057c57600080fd5b600073ffffffffffffffffffffffffffffffffffffffff168173ffffffffffffffffffffffffffffffffffffffff16141515156105b857600080fd5b8073ffffffffffffffffffffffffffffffffffffffff166000809054906101000a900473ffffffffffffffffffffffffffffffffffffffff1673ffffffffffffffffffffffffffffffffffffffff167f8be0079c531659141344cd1fd0a4f28419497f9722a3daafe3b4186f6b6457e060405160405180910390a3806000806101000a81548173ffffffffffffffffffffffffffffffffffffffff021916908373ffffffffffffffffffffffffffffffffffffffff16021790555050565b60038181548110151561068557fe5b906000526020600020016000915090505481565b60008082840190508381101515156106ad57fe5b80915050929150505600a165627a7a723058209c9204f98dfc22dad7e6d3813166519fc14d78314f95eadc3d329aa46b5baedb0029",
  "source": "pragma solidity ^0.4.19;\nimport \"zeppelin-solidity/contracts/math/SafeMath.sol\";\nimport \"zeppelin-solidity/contracts/ownership/Ownable.sol\";\n\ncontract TreasurySplitter is Ownable {\n    using SafeMath for uint;\n\n\t/* --- EVENTS --- */\n\n    event Transferred(address indexed receiver, uint amount);\n\n\t/* --- FIELDS --- */\n\n    address public mainTreasury;\n    address[] public subTreasuries;\n    uint[] public percentages;\n\n\t/* --- MODIFIERS --- */\n\n    modifier validPercentages(uint[] _percentages) {\n        uint sum;\n        for(uint i = 0; i < _percentages.length; i++) {\n            uint perc = _percentages[i];\n            require(perc > 0 && perc <= 100);\n            sum = sum.add(perc);\n        }\n        require(sum <= 100);\n        _;\n    }\n\n\t/* --- CONSTRUCTOR --- */\n\n    function TreasurySplitter(address _mainTreasury, address[] _subTreasuries, uint[] _percentages) public validPercentages(_percentages) {\n        require(_subTreasuries.length == _percentages.length);\n        mainTreasury = _mainTreasury;\n        subTreasuries = _subTreasuries;\n        percentages = _percentages;\n    }\n\n\t/* --- PUBLIC / EXTERNAL METHODS --- */\n\n    function() payable external {\n        uint etherPerPercent = (msg.value).div(100);\n        for(uint i = 0; i < percentages.length; i++) {\n            uint amount = percentages[i].mul(etherPerPercent);\n            address receiver = subTreasuries[i];\n            receiver.transfer(amount);\n            emit Transferred(receiver, amount);\n        }\n        uint remainder = address(this).balance;\n        mainTreasury.transfer(remainder);\n        emit Transferred(mainTreasury, remainder);\n    }\n}\n",
  "sourcePath": "/Users/przemek/Projects/allsporter/contracts/TreasurySplitter.sol",
  "compiler": {
    "name": "solc",
    "version": "0.4.23+commit.124ca40d.Emscripten.clang"
  },
  "schemaVersion": "2.0.0",
  "updatedAt": "2018-05-16T08:47:48.896Z"
}